{
  "_format": "hh-sol-artifact-1",
  "contractName": "BangBang",
  "sourceName": "contracts/BangBang.sol",
  "abi": [
    {
      "inputs": [
        {
          "internalType": "uint256",
          "name": "_initialFee",
          "type": "uint256"
        }
      ],
      "stateMutability": "nonpayable",
      "type": "constructor"
    },
    {
      "anonymous": false,
      "inputs": [
        {
          "indexed": true,
          "internalType": "uint256",
          "name": "assetId",
          "type": "uint256"
        },
        {
          "indexed": true,
          "internalType": "address",
          "name": "actor",
          "type": "address"
        },
        {
          "indexed": false,
          "internalType": "uint256",
          "name": "timestamp",
          "type": "uint256"
        }
      ],
      "name": "AssetArchived",
      "type": "event"
    },
    {
      "anonymous": false,
      "inputs": [
        {
          "indexed": true,
          "internalType": "uint256",
          "name": "assetId",
          "type": "uint256"
        },
        {
          "indexed": true,
          "internalType": "address",
          "name": "owner",
          "type": "address"
        },
        {
          "indexed": true,
          "internalType": "enum AssetCategory",
          "name": "category",
          "type": "uint8"
        },
        {
          "indexed": false,
          "internalType": "uint256",
          "name": "valuation",
          "type": "uint256"
        },
        {
          "indexed": false,
          "internalType": "uint256",
          "name": "timestamp",
          "type": "uint256"
        }
      ],
      "name": "AssetRegistered",
      "type": "event"
    },
    {
      "anonymous": false,
      "inputs": [
        {
          "indexed": true,
          "internalType": "uint256",
          "name": "assetId",
          "type": "uint256"
        },
        {
          "indexed": true,
          "internalType": "address",
          "name": "from",
          "type": "address"
        },
        {
          "indexed": true,
          "internalType": "address",
          "name": "to",
          "type": "address"
        },
        {
          "indexed": false,
          "internalType": "uint256",
          "name": "timestamp",
          "type": "uint256"
        }
      ],
      "name": "AssetTransferred",
      "type": "event"
    },
    {
      "anonymous": false,
      "inputs": [
        {
          "indexed": true,
          "internalType": "uint256",
          "name": "assetId",
          "type": "uint256"
        },
        {
          "indexed": true,
          "internalType": "address",
          "name": "verificator",
          "type": "address"
        },
        {
          "indexed": false,
          "internalType": "uint256",
          "name": "feeToVerificator",
          "type": "uint256"
        },
        {
          "indexed": false,
          "internalType": "uint256",
          "name": "feeToAdmin",
          "type": "uint256"
        },
        {
          "indexed": false,
          "internalType": "uint256",
          "name": "timestamp",
          "type": "uint256"
        }
      ],
      "name": "AssetVerified",
      "type": "event"
    },
    {
      "anonymous": false,
      "inputs": [
        {
          "indexed": true,
          "internalType": "address",
          "name": "previousOwner",
          "type": "address"
        },
        {
          "indexed": true,
          "internalType": "address",
          "name": "newOwner",
          "type": "address"
        }
      ],
      "name": "OwnershipTransferred",
      "type": "event"
    },
    {
      "anonymous": false,
      "inputs": [
        {
          "indexed": false,
          "internalType": "uint256",
          "name": "oldFee",
          "type": "uint256"
        },
        {
          "indexed": false,
          "internalType": "uint256",
          "name": "newFee",
          "type": "uint256"
        },
        {
          "indexed": false,
          "internalType": "uint256",
          "name": "timestamp",
          "type": "uint256"
        }
      ],
      "name": "ValidationFeeUpdated",
      "type": "event"
    },
    {
      "anonymous": false,
      "inputs": [
        {
          "indexed": true,
          "internalType": "uint256",
          "name": "assetId",
          "type": "uint256"
        },
        {
          "indexed": false,
          "internalType": "uint256",
          "name": "oldValuation",
          "type": "uint256"
        },
        {
          "indexed": false,
          "internalType": "uint256",
          "name": "newValuation",
          "type": "uint256"
        },
        {
          "indexed": false,
          "internalType": "uint256",
          "name": "timestamp",
          "type": "uint256"
        }
      ],
      "name": "ValuationUpdated",
      "type": "event"
    },
    {
      "anonymous": false,
      "inputs": [
        {
          "indexed": true,
          "internalType": "address",
          "name": "account",
          "type": "address"
        },
        {
          "indexed": false,
          "internalType": "string",
          "name": "institution",
          "type": "string"
        },
        {
          "indexed": false,
          "internalType": "uint256",
          "name": "timestamp",
          "type": "uint256"
        }
      ],
      "name": "VerificatorAppointed",
      "type": "event"
    },
    {
      "anonymous": false,
      "inputs": [
        {
          "indexed": true,
          "internalType": "address",
          "name": "account",
          "type": "address"
        },
        {
          "indexed": false,
          "internalType": "uint256",
          "name": "timestamp",
          "type": "uint256"
        }
      ],
      "name": "VerificatorRemoved",
      "type": "event"
    },
    {
      "inputs": [
        {
          "internalType": "address",
          "name": "_account",
          "type": "address"
        },
        {
          "internalType": "string",
          "name": "_institution",
          "type": "string"
        }
      ],
      "name": "appointVerificator",
      "outputs": [],
      "stateMutability": "nonpayable",
      "type": "function"
    },
    {
      "inputs": [
        {
          "internalType": "uint256",
          "name": "_assetId",
          "type": "uint256"
        }
      ],
      "name": "archiveAsset",
      "outputs": [],
      "stateMutability": "nonpayable",
      "type": "function"
    },
    {
      "inputs": [],
      "name": "emergencyWithdraw",
      "outputs": [],
      "stateMutability": "nonpayable",
      "type": "function"
    },
    {
      "inputs": [
        {
          "internalType": "uint256",
          "name": "_assetId",
          "type": "uint256"
        }
      ],
      "name": "getAssetDetails",
      "outputs": [
        {
          "components": [
            {
              "internalType": "uint256",
              "name": "assetId",
              "type": "uint256"
            },
            {
              "internalType": "address",
              "name": "owner",
              "type": "address"
            },
            {
              "internalType": "address",
              "name": "verifiedBy",
              "type": "address"
            },
            {
              "internalType": "uint256",
              "name": "valuation",
              "type": "uint256"
            },
            {
              "internalType": "uint256",
              "name": "registeredAt",
              "type": "uint256"
            },
            {
              "internalType": "uint256",
              "name": "verifiedAt",
              "type": "uint256"
            },
            {
              "internalType": "enum AssetCategory",
              "name": "category",
              "type": "uint8"
            },
            {
              "internalType": "enum AssetState",
              "name": "state",
              "type": "uint8"
            },
            {
              "internalType": "string",
              "name": "documentHash",
              "type": "string"
            },
            {
              "internalType": "string",
              "name": "assetName",
              "type": "string"
            }
          ],
          "internalType": "struct Asset",
          "name": "",
          "type": "tuple"
        }
      ],
      "stateMutability": "view",
      "type": "function"
    },
    {
      "inputs": [
        {
          "internalType": "address",
          "name": "_owner",
          "type": "address"
        }
      ],
      "name": "getAssetsByOwner",
      "outputs": [
        {
          "internalType": "uint256[]",
          "name": "",
          "type": "uint256[]"
        }
      ],
      "stateMutability": "view",
      "type": "function"
    },
    {
      "inputs": [
        {
          "internalType": "uint256",
          "name": "_assetId",
          "type": "uint256"
        }
      ],
      "name": "getEscrowBalance",
      "outputs": [
        {
          "internalType": "uint256",
          "name": "",
          "type": "uint256"
        }
      ],
      "stateMutability": "view",
      "type": "function"
    },
    {
      "inputs": [
        {
          "internalType": "enum AssetCategory",
          "name": "_category",
          "type": "uint8"
        }
      ],
      "name": "getRequiredInstitution",
      "outputs": [
        {
          "internalType": "string",
          "name": "",
          "type": "string"
        }
      ],
      "stateMutability": "pure",
      "type": "function"
    },
    {
      "inputs": [],
      "name": "getTotalAssets",
      "outputs": [
        {
          "internalType": "uint256",
          "name": "",
          "type": "uint256"
        }
      ],
      "stateMutability": "view",
      "type": "function"
    },
    {
      "inputs": [
        {
          "internalType": "address",
          "name": "_account",
          "type": "address"
        }
      ],
      "name": "getValidatorInstitution",
      "outputs": [
        {
          "internalType": "string",
          "name": "",
          "type": "string"
        }
      ],
      "stateMutability": "view",
      "type": "function"
    },
    {
      "inputs": [
        {
          "internalType": "address",
          "name": "",
          "type": "address"
        }
      ],
      "name": "isVerificator",
      "outputs": [
        {
          "internalType": "bool",
          "name": "",
          "type": "bool"
        }
      ],
      "stateMutability": "view",
      "type": "function"
    },
    {
      "inputs": [],
      "name": "owner",
      "outputs": [
        {
          "internalType": "address",
          "name": "",
          "type": "address"
        }
      ],
      "stateMutability": "view",
      "type": "function"
    },
    {
      "inputs": [
        {
          "internalType": "string",
          "name": "_name",
          "type": "string"
        },
        {
          "internalType": "enum AssetCategory",
          "name": "_category",
          "type": "uint8"
        },
        {
          "internalType": "uint256",
          "name": "_valuation",
          "type": "uint256"
        },
        {
          "internalType": "string",
          "name": "_documentHash",
          "type": "string"
        }
      ],
      "name": "registerAsset",
      "outputs": [
        {
          "internalType": "uint256",
          "name": "assetId",
          "type": "uint256"
        }
      ],
      "stateMutability": "payable",
      "type": "function"
    },
    {
      "inputs": [
        {
          "internalType": "uint256",
          "name": "_assetId",
          "type": "uint256"
        }
      ],
      "name": "rejectAsset",
      "outputs": [],
      "stateMutability": "nonpayable",
      "type": "function"
    },
    {
      "inputs": [
        {
          "internalType": "address",
          "name": "_account",
          "type": "address"
        }
      ],
      "name": "removeVerificator",
      "outputs": [],
      "stateMutability": "nonpayable",
      "type": "function"
    },
    {
      "inputs": [
        {
          "internalType": "uint256",
          "name": "_newFee",
          "type": "uint256"
        }
      ],
      "name": "setValidationFee",
      "outputs": [],
      "stateMutability": "nonpayable",
      "type": "function"
    },
    {
      "inputs": [
        {
          "internalType": "address",
          "name": "_to",
          "type": "address"
        },
        {
          "internalType": "uint256",
          "name": "_assetId",
          "type": "uint256"
        }
      ],
      "name": "transferAsset",
      "outputs": [],
      "stateMutability": "nonpayable",
      "type": "function"
    },
    {
      "inputs": [
        {
          "internalType": "address",
          "name": "_newOwner",
          "type": "address"
        }
      ],
      "name": "transferOwnership",
      "outputs": [],
      "stateMutability": "nonpayable",
      "type": "function"
    },
    {
      "inputs": [
        {
          "internalType": "uint256",
          "name": "_assetId",
          "type": "uint256"
        },
        {
          "internalType": "uint256",
          "name": "_newValuation",
          "type": "uint256"
        }
      ],
      "name": "updateValuation",
      "outputs": [],
      "stateMutability": "nonpayable",
      "type": "function"
    },
    {
      "inputs": [],
      "name": "validationFee",
      "outputs": [
        {
          "internalType": "uint256",
          "name": "",
          "type": "uint256"
        }
      ],
      "stateMutability": "view",
      "type": "function"
    },
    {
      "inputs": [
        {
          "internalType": "address",
          "name": "",
          "type": "address"
        }
      ],
      "name": "validatorInstitution",
      "outputs": [
        {
          "internalType": "string",
          "name": "",
          "type": "string"
        }
      ],
      "stateMutability": "view",
      "type": "function"
    },
    {
      "inputs": [
        {
          "internalType": "uint256",
          "name": "_assetId",
          "type": "uint256"
        }
      ],
      "name": "verifyAsset",
      "outputs": [],
      "stateMutability": "nonpayable",
      "type": "function"
    },
    {
      "inputs": [
        {
          "internalType": "uint256",
          "name": "_assetId",
          "type": "uint256"
        },
        {
          "internalType": "address",
          "name": "_verificator",
          "type": "address"
        }
      ],
      "name": "verifyAssetRelayed",
      "outputs": [],
      "stateMutability": "nonpayable",
      "type": "function"
    },
    {
      "stateMutability": "payable",
      "type": "receive"
    }
  ],
  "bytecode": "0x608060405234801561001057600080fd5b50604051620025cb380380620025cb83398101604081905261003191610078565b600080546001600160a01b0319163390811782556040519091907f8be0079c531659141344cd1fd0a4f28419497f9722a3daafe3b4186f6b6457e0908290a3600355610091565b60006020828403121561008a57600080fd5b5051919050565b61252a80620000a16000396000f3fe6080604052600436106101395760003560e01c80638da5cb5b116100ab578063ce14a7961161006f578063ce14a796146103a5578063db2e21bc146103c5578063e0c92e6e146103da578063f2fde38b146103fa578063f8bbf27e1461041a578063fce609031461043057600080fd5b80638da5cb5b146102e0578063a1f24b3d14610318578063b4d1a1b614610345578063bb5614c714610365578063bc72888a1461038557600080fd5b806359fd285c116100fd57806359fd285c146102295780635c921eb91461024b57806361a2db041461026b5780636dc0fc6b1461028b5780636e07302b146102ab5780637f362644146102c057600080fd5b8063276f0934146101455780632a4cfe321461017b578063320ea0241461019c57806335b01284146101dc5780634a8ee02e1461020957600080fd5b3661014057005b600080fd5b34801561015157600080fd5b50610165610160366004611d3a565b61045d565b6040516101729190611d5c565b60405180910390f35b61018e610189366004611df8565b6104c9565b604051908152602001610172565b3480156101a857600080fd5b506101cc6101b7366004611d3a565b60016020526000908152604090205460ff1681565b6040519015158152602001610172565b3480156101e857600080fd5b506101fc6101f7366004611e85565b61084f565b6040516101729190611ee6565b34801561021557600080fd5b506101fc610224366004611d3a565b610860565b34801561023557600080fd5b50610249610244366004611ef9565b610902565b005b34801561025757600080fd5b50610249610266366004611f12565b61093e565b34801561027757600080fd5b50610249610286366004611ef9565b610b10565b34801561029757600080fd5b506102496102a6366004611f3c565b610b85565b3480156102b757600080fd5b5060045461018e565b3480156102cc57600080fd5b506101fc6102db366004611d3a565b610ce9565b3480156102ec57600080fd5b50600054610300906001600160a01b031681565b6040516001600160a01b039091168152602001610172565b34801561032457600080fd5b50610338610333366004611ef9565b610d83565b6040516101729190611f98565b34801561035157600080fd5b50610249610360366004611ef9565b610fb4565b34801561037157600080fd5b50610249610380366004612060565b611114565b34801561039157600080fd5b506102496103a0366004611ef9565b6111c4565b3480156103b157600080fd5b506102496103c036600461208c565b611380565b3480156103d157600080fd5b50610249611565565b3480156103e657600080fd5b506102496103f5366004611d3a565b6116a6565b34801561040657600080fd5b50610249610415366004611d3a565b6117a9565b34801561042657600080fd5b5061018e60035481565b34801561043c57600080fd5b5061018e61044b366004611ef9565b60009081526007602052604090205490565b6001600160a01b0381166000908152600660209081526040918290208054835181840281018401909452808452606093928301828280156104bd57602002820191906000526020600020905b8154815260200190600101908083116104a9575b50505050509050919050565b60006003543410156105345760405162461bcd60e51b815260206004820152602960248201527f42616e6742616e673a2042696179612076616c696461736920746964616b206d60448201526832b731bab5bab8349760b91b60648201526084015b60405180910390fd5b856105915760405162461bcd60e51b815260206004820152602760248201527f42616e6742616e673a204e616d61206173657420746964616b20626f6c65682060448201526635b7b9b7b7339760c91b606482015260840161052b565b600084116105f75760405162461bcd60e51b815260206004820152602d60248201527f42616e6742616e673a204e696c61692076616c75617369206861727573206c6560448201526c3134b4103230b934903737b61760991b606482015260840161052b565b5060048054600101908190556000818152600760209081526040808320349055805161014081018252848152339281019290925281018290526060810186905242608082015260a081019190915260c0810186600381111561065b5761065b611f5e565b81526020016000815260200184848080601f016020809104026020016040519081016040528093929190818152602001838380828437600092019190915250505090825250604080516020601f8b0181900481028201810190925289815291810191908a908a90819084018382808284376000920182905250939094525050838152600560208181526040928390208551815590850151600180830180546001600160a01b039384166001600160a01b0319918216179091559487015160028401805491909316951694909417905560608501516003808301919091556080860151600483015560a08601519282019290925560c08501516006820180549295509093909260ff1990921691849081111561077857610778611f5e565b021790555060e082015160068201805461ff0019166101008360028111156107a2576107a2611f5e565b021790555061010082015160078201906107bc908261217e565b5061012082015160088201906107d2908261217e565b5050336000908152600660209081526040822080546001810182559083529120018290555084600381111561080957610809611f5e565b60408051868152426020820152339184917fa37d08f7555fafb9ccf40cde3306ee693263ccae6a1b682457cac453afde766e910160405180910390a49695505050505050565b606061085a82611895565b92915050565b6001600160a01b0381166000908152600260205260409020805460609190610887906120f5565b80601f01602080910402602001604051908101604052809291908181526020018280546108b3906120f5565b80156104bd5780601f106108d5576101008083540402835291602001916104bd565b820191906000526020600020905b8154815290600101906020018083116108e35750939695505050505050565b3360009081526001602052604090205460ff166109315760405162461bcd60e51b815260040161052b9061223e565b61093b813361196c565b50565b600081815260056020526040902060018101546001600160a01b031633146109785760405162461bcd60e51b815260040161052b9061228d565b6001600160a01b0383166109da5760405162461bcd60e51b8152602060048201526024808201527f42616e6742616e673a20416c616d61742074756a75616e20746964616b2076616044820152633634b21760e11b606482015260840161052b565b60016006820154610100900460ff1660028111156109fa576109fa611f5e565b14610a6d5760405162461bcd60e51b815260206004820152603960248201527f42616e6742616e673a2048616e79612061736574207465727665726966696b6160448201527f73692079616e672064617061742064697472616e736665722e00000000000000606482015260840161052b565b600180820180546001600160a01b038681166001600160a01b0319831681179093556000928352600660209081526040842080549586018155845290922090920184905516610abc8184611bdf565b836001600160a01b0316816001600160a01b0316847ff3ece9284d33275d9c297a27c91c816d5543b99eb1a60525f3cee810ed72009142604051610b0291815260200190565b60405180910390a450505050565b6000546001600160a01b03163314610b3a5760405162461bcd60e51b815260040161052b906122e3565b60038054908290556040805182815260208101849052428183015290517fef0b2eb84e9f59d8968619bc48660bed49408ff2da01c76afbedb3b52a048ad09181900360600190a15050565b600082815260056020526040902060018101546001600160a01b03163314610bbf5760405162461bcd60e51b815260040161052b9061228d565b60026006820154610100900460ff166002811115610bdf57610bdf611f5e565b03610c2c5760405162461bcd60e51b815260206004820181905260248201527f42616e6742616e673a20417365742074656c616820646961727369706b616e2e604482015260640161052b565b60008211610c975760405162461bcd60e51b815260206004820152603260248201527f42616e6742616e673a204e696c61692076616c756173692062617275206861726044820152713ab9903632b134b4103230b934903737b61760711b606482015260840161052b565b6003810180549083905560408051828152602081018590524281830152905185917f3595386453dfce41a7d04c4df78617a8b6c7c42b6174caf34f4c1b410c00f8aa919081900360600190a250505050565b60026020526000908152604090208054610d02906120f5565b80601f0160208091040260200160405190810160405280929190818152602001828054610d2e906120f5565b8015610d7b5780601f10610d5057610100808354040283529160200191610d7b565b820191906000526020600020905b815481529060010190602001808311610d5e57829003601f168201915b505050505081565b610d8b611ca8565b6000828152600560205260408120549003610db85760405162461bcd60e51b815260040161052b9061232d565b6000828152600560208181526040928390208351610140810185528154815260018201546001600160a01b03908116938201939093526002820154909216938201939093526003808401546060830152600484015460808301529183015460a0820152600683015490929160c084019160ff1690811115610e3b57610e3b611f5e565b6003811115610e4c57610e4c611f5e565b81526020016006820160019054906101000a900460ff166002811115610e7457610e74611f5e565b6002811115610e8557610e85611f5e565b8152602001600782018054610e99906120f5565b80601f0160208091040260200160405190810160405280929190818152602001828054610ec5906120f5565b8015610f125780601f10610ee757610100808354040283529160200191610f12565b820191906000526020600020905b815481529060010190602001808311610ef557829003601f168201915b50505050508152602001600882018054610f2b906120f5565b80601f0160208091040260200160405190810160405280929190818152602001828054610f57906120f5565b8015610fa45780601f10610f7957610100808354040283529160200191610fa4565b820191906000526020600020905b815481529060010190602001808311610f8757829003601f168201915b5050505050815250509050919050565b600081815260056020526040902060018101546001600160a01b0316331480610fe757506000546001600160a01b031633145b61105b576040805162461bcd60e51b81526020600482015260248101919091527f42616e6742616e673a2048616e79612070656d696c696b20617461752053757060448201527f657241646d696e2079616e67206461706174206d656e6761727369706b616e2e606482015260840161052b565b60026006820154610100900460ff16600281111561107b5761107b611f5e565b036110c85760405162461bcd60e51b815260206004820181905260248201527f42616e6742616e673a204173657420737564616820646961727369706b616e2e604482015260640161052b565b60068101805461ff001916610200179055604080514281529051339184917f98c541f6c228f57b1c3ec71821dfc4a6137bfbe014a872a2a0f44ba166737f729181900360200190a35050565b6000546001600160a01b0316331461113e5760405162461bcd60e51b815260040161052b906122e3565b6001600160a01b03811660009081526001602052604090205460ff166111b65760405162461bcd60e51b815260206004820152602760248201527f42616e6742616e673a20416c616d61742062756b616e2056616c696461746f72604482015266103932b9b6b49760c91b606482015260840161052b565b6111c0828261196c565b5050565b3360009081526001602052604090205460ff166111f35760405162461bcd60e51b815260040161052b9061223e565b600081815260056020526040812080549091036112225760405162461bcd60e51b815260040161052b9061232d565b60006006820154610100900460ff16600281111561124257611242611f5e565b1461125f5760405162461bcd60e51b815260040161052b90612364565b60068101805461ff0019166102001790556000828152600760205260408120805491905580156113445760018201546040516000916001600160a01b03169083908381818185875af1925050503d80600081146112d8576040519150601f19603f3d011682016040523d82523d6000602084013e6112dd565b606091505b50509050806113425760405162461bcd60e51b815260206004820152602b60248201527f42616e6742616e673a2050656e67656d62616c69616e2064616e61206b65206f60448201526a3bb732b91033b0b3b0b61760a91b606482015260840161052b565b505b604051428152339084907f98c541f6c228f57b1c3ec71821dfc4a6137bfbe014a872a2a0f44ba166737f729060200160405180910390a3505050565b6000546001600160a01b031633146113aa5760405162461bcd60e51b815260040161052b906122e3565b6001600160a01b0383166114005760405162461bcd60e51b815260206004820152601d60248201527f42616e6742616e673a20416c616d617420746964616b2076616c69642e000000604482015260640161052b565b6001600160a01b03831660009081526001602052604090205460ff16156114855760405162461bcd60e51b815260206004820152603360248201527f42616e6742616e673a20416c616d6174207375646168207465726461667461726044820152721039b2b130b3b0b4902b30b634b230ba37b91760691b606482015260840161052b565b806114e25760405162461bcd60e51b815260206004820152602760248201527f42616e6742616e673a20496e7374697475736920746964616b20626f6c65682060448201526635b7b9b7b7339760c91b606482015260840161052b565b6001600160a01b0383166000908152600160208181526040808420805460ff191690931790925560029052902061151a8284836123ae565b50826001600160a01b03167ffb3b64a42b282bc23da575145ed55d9e46aa4837735afe1e16764fe7d5912b1e8383426040516115589392919061246e565b60405180910390a2505050565b6000546001600160a01b0316331461158f5760405162461bcd60e51b815260040161052b906122e3565b47806115f35760405162461bcd60e51b815260206004820152602d60248201527f42616e6742616e673a20546964616b206164612073616c646f2079616e67207060448201526c32b9363a903234ba30b934b59760991b606482015260840161052b565b600080546040516001600160a01b039091169083908381818185875af1925050503d8060008114611640576040519150601f19603f3d011682016040523d82523d6000602084013e611645565b606091505b50509050806111c05760405162461bcd60e51b815260206004820152602760248201527f42616e6742616e673a2050656e6172696b616e2064616e6120646172757261746044820152661033b0b3b0b61760c91b606482015260840161052b565b6000546001600160a01b031633146116d05760405162461bcd60e51b815260040161052b906122e3565b6001600160a01b03811660009081526001602052604090205460ff1661174c5760405162461bcd60e51b815260206004820152602b60248201527f42616e6742616e673a20416c616d61742062756b616e2056616c696461746f7260448201526a103a32b93230b33a30b91760a91b606482015260840161052b565b6001600160a01b03811660008181526001602052604090819020805460ff19169055517fce724dc124506c293a05fd1c4bcb9b7268a1b62b42632275721f486e232dc0d29061179e9042815260200190565b60405180910390a250565b6000546001600160a01b031633146117d35760405162461bcd60e51b815260040161052b906122e3565b6001600160a01b03811661183a5760405162461bcd60e51b815260206004820152602860248201527f42616e6742616e673a20416c616d6174206f776e65722062617275207469646160448201526735903b30b634b21760c11b606482015260840161052b565b600080546040516001600160a01b03808516939216917f8be0079c531659141344cd1fd0a4f28419497f9722a3daafe3b4186f6b6457e091a3600080546001600160a01b0319166001600160a01b0392909216919091179055565b606060008260038111156118ab576118ab611f5e565b036118cf57505060408051808201909152600381526221282760e91b602082015290565b60018260038111156118e3576118e3611f5e565b0361190a57505060408051808201909152600681526514d85b5cd85d60d21b602082015290565b600282600381111561191e5761191e611f5e565b036119485750506040805180820190915260098152682832b3b0b230b4b0b760b91b602082015290565b50506040805180820190915260088152674b656d656e6b657560c01b602082015290565b6000828152600560205260408120805490910361199b5760405162461bcd60e51b815260040161052b9061232d565b60006006820154610100900460ff1660028111156119bb576119bb611f5e565b146119d85760405162461bcd60e51b815260040161052b90612364565b60068101805461ff0019166101001790556002810180546001600160a01b0319166001600160a01b0384169081179091554260058301556000848152600760205260408082208054908390559051909260646050850204928385039290919084908381818185875af1925050503d8060008114611a71576040519150601f19603f3d011682016040523d82523d6000602084013e611a76565b606091505b5050905080611ad65760405162461bcd60e51b815260206004820152602660248201527f42616e6742616e673a205472616e73666572206b652056616c696461746f722060448201526533b0b3b0b61760d11b606482015260840161052b565b600080546040516001600160a01b039091169084908381818185875af1925050503d8060008114611b23576040519150601f19603f3d011682016040523d82523d6000602084013e611b28565b606091505b5050905080611b895760405162461bcd60e51b815260206004820152602760248201527f42616e6742616e673a205472616e73666572206b6520537570657241646d696e6044820152661033b0b3b0b61760c91b606482015260840161052b565b6040805185815260208101859052428183015290516001600160a01b038916918a917f44c64c613cf2e7a461040206c86f9a8a26c892bc53440dee8f967d32012113739181900360600190a35050505050505050565b6001600160a01b0382166000908152600660205260408120805490915b81811015611ca15783838281548110611c1757611c176124a7565b906000526020600020015403611c995782611c336001846124bd565b81548110611c4357611c436124a7565b9060005260206000200154838281548110611c6057611c606124a7565b906000526020600020018190555082805480611c7e57611c7e6124de565b60019003818190600052602060002001600090559055611ca1565b600101611bfc565b5050505050565b6040518061014001604052806000815260200160006001600160a01b0316815260200160006001600160a01b0316815260200160008152602001600081526020016000815260200160006003811115611d0357611d03611f5e565b81526020016000815260200160608152602001606081525090565b80356001600160a01b0381168114611d3557600080fd5b919050565b600060208284031215611d4c57600080fd5b611d5582611d1e565b9392505050565b6020808252825182820181905260009190848201906040850190845b81811015611d9457835183529284019291840191600101611d78565b50909695505050505050565b60008083601f840112611db257600080fd5b50813567ffffffffffffffff811115611dca57600080fd5b602083019150836020828501011115611de257600080fd5b9250929050565b803560048110611d3557600080fd5b60008060008060008060808789031215611e1157600080fd5b863567ffffffffffffffff80821115611e2957600080fd5b611e358a838b01611da0565b9098509650869150611e4960208a01611de9565b9550604089013594506060890135915080821115611e6657600080fd5b50611e7389828a01611da0565b979a9699509497509295939492505050565b600060208284031215611e9757600080fd5b611d5582611de9565b6000815180845260005b81811015611ec657602081850181015186830182015201611eaa565b506000602082860101526020601f19601f83011685010191505092915050565b602081526000611d556020830184611ea0565b600060208284031215611f0b57600080fd5b5035919050565b60008060408385031215611f2557600080fd5b611f2e83611d1e565b946020939093013593505050565b60008060408385031215611f4f57600080fd5b50508035926020909101359150565b634e487b7160e01b600052602160045260246000fd5b60048110611f8457611f84611f5e565b9052565b60038110611f8457611f84611f5e565b602081528151602082015260006020830151611fbf60408401826001600160a01b03169052565b5060408301516001600160a01b03811660608401525060608301516080830152608083015160a083015260a083015160c083015260c083015161200560e0840182611f74565b5060e083015161010061201a81850183611f88565b80850151915050610140610120818186015261203a610160860184611ea0565b90860151858203601f1901838701529092506120568382611ea0565b9695505050505050565b6000806040838503121561207357600080fd5b8235915061208360208401611d1e565b90509250929050565b6000806000604084860312156120a157600080fd5b6120aa84611d1e565b9250602084013567ffffffffffffffff8111156120c657600080fd5b6120d286828701611da0565b9497909650939450505050565b634e487b7160e01b600052604160045260246000fd5b600181811c9082168061210957607f821691505b60208210810361212957634e487b7160e01b600052602260045260246000fd5b50919050565b601f82111561217957600081815260208120601f850160051c810160208610156121565750805b601f850160051c820191505b8181101561217557828155600101612162565b5050505b505050565b815167ffffffffffffffff811115612198576121986120df565b6121ac816121a684546120f5565b8461212f565b602080601f8311600181146121e157600084156121c95750858301515b600019600386901b1c1916600185901b178555612175565b600085815260208120601f198616915b82811015612210578886015182559484019460019091019084016121f1565b508582101561222e5787850151600019600388901b60f8161c191681555b5050505050600190811b01905550565b6020808252602f908201527f42616e6742616e673a20416b736573206469746f6c616b2e2042756b616e205660408201526e30b634b230ba37b9103932b9b6b49760891b606082015260800190565b60208082526036908201527f42616e6742616e673a2048616e79612070656d696c696b20617365742079616e60408201527533903230b830ba1036b2b630b5bab5b0b71034b7349760511b606082015260800190565b6020808252602a908201527f42616e6742616e673a20416b736573206469746f6c616b2e2048616e796120536040820152693ab832b920b236b4b71760b11b606082015260800190565b6020808252601f908201527f42616e6742616e673a204173657420746964616b20646974656d756b616e2e00604082015260600190565b6020808252602a908201527f42616e6742616e673a20417365742062756b616e2064616c616d20737461747560408201526939902832b73234b7339760b11b606082015260800190565b67ffffffffffffffff8311156123c6576123c66120df565b6123da836123d483546120f5565b8361212f565b6000601f84116001811461240e57600085156123f65750838201355b600019600387901b1c1916600186901b178355611ca1565b600083815260209020601f19861690835b8281101561243f578685013582556020948501946001909201910161241f565b508682101561245c5760001960f88860031b161c19848701351681555b505060018560011b0183555050505050565b604081528260408201528284606083013760006060848301015260006060601f19601f8601168301019050826020830152949350505050565b634e487b7160e01b600052603260045260246000fd5b8181038181111561085a57634e487b7160e01b600052601160045260246000fd5b634e487b7160e01b600052603160045260246000fdfea26469706673582212202914174abf3c1db4b93f614fc7a06b830f1045c508a4f92765fe4914251901ba64736f6c63430008140033",
  "linkReferences": {},
  "deployedLinkReferences": {}
}