{"contracts/LandRegistry.sol":{"LandRegistry":{"abi":[{"inputs":[],"stateMutability":"nonpayable","type":"constructor"},{"inputs":[],"name":"AccessControlBadConfirmation","type":"error"},{"inputs":[{"internalType":"address","name":"account","type":"address"},{"internalType":"bytes32","name":"neededRole","type":"bytes32"}],"name":"AccessControlUnauthorizedAccount","type":"error"},{"inputs":[{"internalType":"address","name":"sender","type":"address"},{"internalType":"uint256","name":"tokenId","type":"uint256"},{"internalType":"address","name":"owner","type":"address"}],"name":"ERC721IncorrectOwner","type":"error"},{"inputs":[{"internalType":"address","name":"operator","type":"address"},{"internalType":"uint256","name":"tokenId","type":"uint256"}],"name":"ERC721InsufficientApproval","type":"error"},{"inputs":[{"internalType":"address","name":"approver","type":"address"}],"name":"ERC721InvalidApprover","type":"error"},{"inputs":[{"internalType":"address","name":"operator","type":"address"}],"name":"ERC721InvalidOperator","type":"error"},{"inputs":[{"internalType":"address","name":"owner","type":"address"}],"name":"ERC721InvalidOwner","type":"error"},{"inputs":[{"internalType":"address","name":"receiver","type":"address"}],"name":"ERC721InvalidReceiver","type":"error"},{"inputs":[{"internalType":"address","name":"sender","type":"address"}],"name":"ERC721InvalidSender","type":"error"},{"inputs":[{"internalType":"uint256","name":"tokenId","type":"uint256"}],"name":"ERC721NonexistentToken","type":"error"},{"anonymous":false,"inputs":[{"indexed":true,"internalType":"address","name":"owner","type":"address"},{"indexed":true,"internalType":"address","name":"approved","type":"address"},{"indexed":true,"internalType":"uint256","name":"tokenId","type":"uint256"}],"name":"Approval","type":"event"},{"anonymous":false,"inputs":[{"indexed":true,"internalType":"address","name":"owner","type":"address"},{"indexed":true,"internalType":"address","name":"operator","type":"address"},{"indexed":false,"internalType":"bool","name":"approved","type":"bool"}],"name":"ApprovalForAll","type":"event"},{"anonymous":false,"inputs":[{"indexed":true,"internalType":"uint256","name":"tokenId","type":"uint256"},{"indexed":true,"internalType":"address","name":"owner","type":"address"},{"indexed":false,"internalType":"string","name":"nib","type":"string"}],"name":"AssetMinted","type":"event"},{"anonymous":false,"inputs":[{"indexed":true,"internalType":"uint256","name":"tokenId","type":"uint256"},{"indexed":true,"internalType":"address","name":"buyer","type":"address"}],"name":"BuyerApproved","type":"event"},{"anonymous":false,"inputs":[{"indexed":true,"internalType":"uint256","name":"tokenId","type":"uint256"},{"indexed":false,"internalType":"bool","name":"isDisputed","type":"bool"}],"name":"EnforcementStatusChanged","type":"event"},{"anonymous":false,"inputs":[{"indexed":true,"internalType":"uint256","name":"tokenId","type":"uint256"},{"indexed":true,"internalType":"address","name":"notaris","type":"address"},{"indexed":false,"internalType":"string","name":"ajbIpfsHash","type":"string"}],"name":"NotarisApproved","type":"event"},{"anonymous":false,"inputs":[{"indexed":true,"internalType":"bytes32","name":"role","type":"bytes32"},{"indexed":true,"internalType":"bytes32","name":"previousAdminRole","type":"bytes32"},{"indexed":true,"internalType":"bytes32","name":"newAdminRole","type":"bytes32"}],"name":"RoleAdminChanged","type":"event"},{"anonymous":false,"inputs":[{"indexed":true,"internalType":"bytes32","name":"role","type":"bytes32"},{"indexed":true,"internalType":"address","name":"account","type":"address"},{"indexed":true,"internalType":"address","name":"sender","type":"address"}],"name":"RoleGranted","type":"event"},{"anonymous":false,"inputs":[{"indexed":true,"internalType":"bytes32","name":"role","type":"bytes32"},{"indexed":true,"internalType":"address","name":"account","type":"address"},{"indexed":true,"internalType":"address","name":"sender","type":"address"}],"name":"RoleRevoked","type":"event"},{"anonymous":false,"inputs":[{"indexed":true,"internalType":"address","name":"from","type":"address"},{"indexed":true,"internalType":"address","name":"to","type":"address"},{"indexed":true,"internalType":"uint256","name":"tokenId","type":"uint256"}],"name":"Transfer","type":"event"},{"anonymous":false,"inputs":[{"indexed":true,"internalType":"uint256","name":"tokenId","type":"uint256"},{"indexed":true,"internalType":"address","name":"seller","type":"address"},{"indexed":true,"internalType":"address","name":"buyer","type":"address"}],"name":"TransferCompleted","type":"event"},{"anonymous":false,"inputs":[{"indexed":true,"internalType":"uint256","name":"tokenId","type":"uint256"},{"indexed":true,"internalType":"address","name":"seller","type":"address"},{"indexed":true,"internalType":"address","name":"buyer","type":"address"}],"name":"TransferProposed","type":"event"},{"inputs":[],"name":"ADMIN_BPN_ROLE","outputs":[{"internalType":"bytes32","name":"","type":"bytes32"}],"stateMutability":"view","type":"function"},{"inputs":[],"name":"AUDITOR_ROLE","outputs":[{"internalType":"bytes32","name":"","type":"bytes32"}],"stateMutability":"view","type":"function"},{"inputs":[],"name":"BPN_WILAYAH_ROLE","outputs":[{"internalType":"bytes32","name":"","type":"bytes32"}],"stateMutability":"view","type":"function"},{"inputs":[],"name":"DEFAULT_ADMIN_ROLE","outputs":[{"internalType":"bytes32","name":"","type":"bytes32"}],"stateMutability":"view","type":"function"},{"inputs":[],"name":"NOTARIS_ROLE","outputs":[{"internalType":"bytes32","name":"","type":"bytes32"}],"stateMutability":"view","type":"function"},{"inputs":[{"internalType":"address","name":"to","type":"address"},{"internalType":"uint256","name":"tokenId","type":"uint256"}],"name":"approve","outputs":[],"stateMutability":"nonpayable","type":"function"},{"inputs":[{"internalType":"uint256","name":"tokenId","type":"uint256"}],"name":"approveTransferBuyer","outputs":[],"stateMutability":"nonpayable","type":"function"},{"inputs":[{"internalType":"uint256","name":"tokenId","type":"uint256"},{"internalType":"string","name":"ajbIpfsHash","type":"string"}],"name":"approveTransferNotaris","outputs":[],"stateMutability":"nonpayable","type":"function"},{"inputs":[{"internalType":"address","name":"owner","type":"address"}],"name":"balanceOf","outputs":[{"internalType":"uint256","name":"","type":"uint256"}],"stateMutability":"view","type":"function"},{"inputs":[{"internalType":"uint256","name":"tokenId","type":"uint256"}],"name":"cancelTransfer","outputs":[],"stateMutability":"nonpayable","type":"function"},{"inputs":[{"internalType":"uint256","name":"tokenId","type":"uint256"}],"name":"getApproved","outputs":[{"internalType":"address","name":"","type":"address"}],"stateMutability":"view","type":"function"},{"inputs":[{"internalType":"uint256","name":"tokenId","type":"uint256"}],"name":"getLandDetails","outputs":[{"components":[{"internalType":"string","name":"gpsCoordinates","type":"string"},{"internalType":"uint256","name":"area","type":"uint256"},{"internalType":"string","name":"nib","type":"string"},{"internalType":"string[]","name":"ipfsHashes","type":"string[]"},{"internalType":"bool","name":"isDisputed","type":"bool"}],"internalType":"struct LandRegistry.Land","name":"","type":"tuple"}],"stateMutability":"view","type":"function"},{"inputs":[{"internalType":"uint256","name":"tokenId","type":"uint256"}],"name":"getOwnershipHistory","outputs":[{"internalType":"address[]","name":"","type":"address[]"}],"stateMutability":"view","type":"function"},{"inputs":[{"internalType":"bytes32","name":"role","type":"bytes32"}],"name":"getRoleAdmin","outputs":[{"internalType":"bytes32","name":"","type":"bytes32"}],"stateMutability":"view","type":"function"},{"inputs":[],"name":"getTotalLands","outputs":[{"internalType":"uint256","name":"","type":"uint256"}],"stateMutability":"view","type":"function"},{"inputs":[{"internalType":"bytes32","name":"role","type":"bytes32"},{"internalType":"address","name":"account","type":"address"}],"name":"grantRole","outputs":[],"stateMutability":"nonpayable","type":"function"},{"inputs":[{"internalType":"bytes32","name":"role","type":"bytes32"},{"internalType":"address","name":"account","type":"address"}],"name":"hasRole","outputs":[{"internalType":"bool","name":"","type":"bool"}],"stateMutability":"view","type":"function"},{"inputs":[{"internalType":"address","name":"owner","type":"address"},{"internalType":"address","name":"operator","type":"address"}],"name":"isApprovedForAll","outputs":[{"internalType":"bool","name":"","type":"bool"}],"stateMutability":"view","type":"function"},{"inputs":[{"internalType":"uint256","name":"","type":"uint256"}],"name":"lands","outputs":[{"internalType":"string","name":"gpsCoordinates","type":"string"},{"internalType":"uint256","name":"area","type":"uint256"},{"internalType":"string","name":"nib","type":"string"},{"internalType":"bool","name":"isDisputed","type":"bool"}],"stateMutability":"view","type":"function"},{"inputs":[{"internalType":"address","name":"to","type":"address"},{"internalType":"string","name":"gpsCoordinates","type":"string"},{"internalType":"uint256","name":"area","type":"uint256"},{"internalType":"string","name":"nib","type":"string"},{"internalType":"string[]","name":"ipfsHashes","type":"string[]"}],"name":"mintLand","outputs":[],"stateMutability":"nonpayable","type":"function"},{"inputs":[],"name":"name","outputs":[{"internalType":"string","name":"","type":"string"}],"stateMutability":"view","type":"function"},{"inputs":[{"internalType":"uint256","name":"tokenId","type":"uint256"}],"name":"ownerOf","outputs":[{"internalType":"address","name":"","type":"address"}],"stateMutability":"view","type":"function"},{"inputs":[{"internalType":"uint256","name":"","type":"uint256"},{"internalType":"uint256","name":"","type":"uint256"}],"name":"ownershipHistory","outputs":[{"internalType":"address","name":"","type":"address"}],"stateMutability":"view","type":"function"},{"inputs":[{"internalType":"uint256","name":"tokenId","type":"uint256"},{"internalType":"address","name":"buyer","type":"address"}],"name":"proposeTransfer","outputs":[],"stateMutability":"nonpayable","type":"function"},{"inputs":[{"internalType":"bytes32","name":"role","type":"bytes32"},{"internalType":"address","name":"callerConfirmation","type":"address"}],"name":"renounceRole","outputs":[],"stateMutability":"nonpayable","type":"function"},{"inputs":[{"internalType":"bytes32","name":"role","type":"bytes32"},{"internalType":"address","name":"account","type":"address"}],"name":"revokeRole","outputs":[],"stateMutability":"nonpayable","type":"function"},{"inputs":[{"internalType":"address","name":"from","type":"address"},{"internalType":"address","name":"to","type":"address"},{"internalType":"uint256","name":"tokenId","type":"uint256"}],"name":"safeTransferFrom","outputs":[],"stateMutability":"nonpayable","type":"function"},{"inputs":[{"internalType":"address","name":"from","type":"address"},{"internalType":"address","name":"to","type":"address"},{"internalType":"uint256","name":"tokenId","type":"uint256"},{"internalType":"bytes","name":"data","type":"bytes"}],"name":"safeTransferFrom","outputs":[],"stateMutability":"nonpayable","type":"function"},{"inputs":[{"internalType":"address","name":"operator","type":"address"},{"internalType":"bool","name":"approved","type":"bool"}],"name":"setApprovalForAll","outputs":[],"stateMutability":"nonpayable","type":"function"},{"inputs":[{"internalType":"uint256","name":"tokenId","type":"uint256"},{"internalType":"bool","name":"isDisputed","type":"bool"}],"name":"setEnforcement","outputs":[],"stateMutability":"nonpayable","type":"function"},{"inputs":[{"internalType":"bytes4","name":"interfaceId","type":"bytes4"}],"name":"supportsInterface","outputs":[{"internalType":"bool","name":"","type":"bool"}],"stateMutability":"view","type":"function"},{"inputs":[],"name":"symbol","outputs":[{"internalType":"string","name":"","type":"string"}],"stateMutability":"view","type":"function"},{"inputs":[{"internalType":"uint256","name":"tokenId","type":"uint256"}],"name":"tokenURI","outputs":[{"internalType":"string","name":"","type":"string"}],"stateMutability":"view","type":"function"},{"inputs":[{"internalType":"address","name":"from","type":"address"},{"internalType":"address","name":"to","type":"address"},{"internalType":"uint256","name":"tokenId","type":"uint256"}],"name":"transferFrom","outputs":[],"stateMutability":"nonpayable","type":"function"},{"inputs":[{"internalType":"uint256","name":"","type":"uint256"}],"name":"transferRequests","outputs":[{"internalType":"address","name":"seller","type":"address"},{"internalType":"address","name":"buyer","type":"address"},{"internalType":"address","name":"notaris","type":"address"},{"internalType":"bool","name":"sellerApproved","type":"bool"},{"internalType":"bool","name":"buyerApproved","type":"bool"},{"internalType":"bool","name":"notarisApproved","type":"bool"},{"internalType":"bool","name":"isActive","type":"bool"}],"stateMutability":"view","type":"function"}],"evm":{"bytecode":{"linkReferences":{},"object":"608060405234801562000010575f80fd5b50604051806040016040528060098152602001682630b7322a37b5b2b760b91b8152506040518060400160405280600381526020016213139160ea1b815250815f90816200005f91906200022e565b5060016200006e82826200022e565b506200007f91505f905033620000e0565b50620000ac7f9856acbf9ca422c521e08bc1d8e706e2db0b5830f4d56f698b78d8c01c86949133620000e0565b50620000d97f3b6c71f6d44639d5b3e40f2ef3056c3385a1e68a255a703ac23442c1c3be357d33620000e0565b50620002fa565b5f8281526006602090815260408083206001600160a01b038516845290915281205460ff1662000187575f8381526006602090815260408083206001600160a01b03861684529091529020805460ff191660011790556200013e3390565b6001600160a01b0316826001600160a01b0316847f2f8788117e7eff1d82e926ec794901d17c78024a50270940304540a733656f0d60405160405180910390a45060016200018a565b505f5b92915050565b634e487b7160e01b5f52604160045260245ffd5b600181811c90821680620001b957607f821691505b602082108103620001d857634e487b7160e01b5f52602260045260245ffd5b50919050565b601f8211156200022957805f5260205f20601f840160051c81016020851015620002055750805b601f840160051c820191505b8181101562000226575f815560010162000211565b50505b505050565b81516001600160401b038111156200024a576200024a62000190565b62000262816200025b8454620001a4565b84620001de565b602080601f83116001811462000298575f8415620002805750858301515b5f19600386901b1c1916600185901b178555620002f2565b5f85815260208120601f198616915b82811015620002c857888601518255948401946001909101908401620002a7565b5085821015620002e657878501515f19600388901b60f8161c191681555b505060018460011b0185555b505050505050565b6127c480620003085f395ff3fe608060405234801561000f575f80fd5b5060043610610208575f3560e01c806370a082311161011f578063b88d4fde116100a9578063d547741f11610079578063d547741f1461055e578063e261f1e514610571578063e985e9c514610594578063f1dbaccb146105a7578063fe0cb7dc146105c7575f80fd5b8063b88d4fde14610512578063c87b56dd14610525578063c89a2bd914610538578063c9cf2adc1461054b575f80fd5b80638ec455e3116100ef5780638ec455e3146104b657806391d14854146104dd57806395d89b41146104f0578063a217fddf146104f8578063a22cb465146104ff575f80fd5b806370a0823114610461578063842e7dba1461047457806386bde3d11461047c578063875cfe3b1461048f575f80fd5b806323b872dd116101a057806342842e0e1161017057806342842e0e146103da5780635911b808146103ed57806359caecb5146104145780636352211e146104275780636e1d616e1461043a575f80fd5b806323b872dd14610371578063248a9ca3146103845780632f2ff15d146103b457806336568abe146103c7575f80fd5b8063081812fc116101db578063081812fc1461030d578063095ea7b31461033857806309d4a3451461034b5780631b362b051461035e575f80fd5b806301ffc9a71461020c57806303486c401461023457806306fdde03146102e357806307407dd8146102f8575b5f80fd5b61021f61021a366004611f95565b6105e7565b60405190151581526020015b60405180910390f35b610299610242366004611fb0565b60096020525f90815260409020805460018201546002909201546001600160a01b039182169282169181169060ff600160a01b8204811691600160a81b8104821691600160b01b8204811691600160b81b90041687565b604080516001600160a01b03988916815296881660208801529490961693850193909352901515606084015215156080830152151560a082015290151560c082015260e00161022b565b6102eb6105f7565b60405161022b9190612014565b61030b6103063660046120f9565b610686565b005b61032061031b366004611fb0565b6107ec565b6040516001600160a01b03909116815260200161022b565b61030b610346366004612217565b610813565b61030b610359366004611fb0565b610822565b61030b61036c36600461224e565b610925565b61030b61037f366004612278565b6109e5565b6103a6610392366004611fb0565b5f9081526006602052604090206001015490565b60405190815260200161022b565b61030b6103c23660046122b1565b610a6e565b61030b6103d53660046122b1565b610a92565b61030b6103e8366004612278565b610aca565b6103a67f4e19be690c034b73b896a80e4645324b1ada2a2d102cf965cd497dd07f3a195081565b61030b610422366004611fb0565b610ae4565b610320610435366004611fb0565b610b8e565b6103a67f59a1c48e5837ad7a7f3dcedcbe129bf3249ec4fbf651fd4f5e2600ead39fe2f581565b6103a661046f3660046122d2565b610b98565b6007546103a6565b61030b61048a3660046122b1565b610bdd565b6103a67f9856acbf9ca422c521e08bc1d8e706e2db0b5830f4d56f698b78d8c01c86949181565b6103a67f3b6c71f6d44639d5b3e40f2ef3056c3385a1e68a255a703ac23442c1c3be357d81565b61021f6104eb3660046122b1565b610de3565b6102eb610e0d565b6103a65f81565b61030b61050d3660046122eb565b610e1c565b61030b610520366004612313565b610e27565b6102eb610533366004611fb0565b610e3f565b61030b61054636600461238a565b610eb0565b6103206105593660046123ce565b611050565b61030b61056c3660046122b1565b611084565b61058461057f366004611fb0565b6110a8565b60405161022b94939291906123ee565b61021f6105a236600461242c565b6111de565b6105ba6105b5366004611fb0565b61120b565b60405161022b9190612454565b6105da6105d5366004611fb0565b611274565b60405161022b91906124a0565b5f6105f1826114d2565b92915050565b60605f805461060590612555565b80601f016020809104026020016040519081016040528092919081815260200182805461063190612555565b801561067c5780601f106106535761010080835404028352916020019161067c565b820191905f5260205f20905b81548152906001019060200180831161065f57829003601f168201915b5050505050905090565b7f3b6c71f6d44639d5b3e40f2ef3056c3385a1e68a255a703ac23442c1c3be357d6106b0816114f6565b600780545f91826106c08361258d565b909155506040805160a0810182528881526020808201899052818301889052606082018790525f6080830181905284815260089091529190912081519293509091819061070d90826125f5565b50602082015160018201556040820151600282019061072c90826125f5565b5060608201518051610748916003840191602090910190611eca565b50608091909101516004909101805460ff191691151591909117905561076e8782611503565b5f818152600a602090815260408083208054600181018255908452919092200180546001600160a01b0319166001600160a01b038a16908117909155905182907fa30dd43fc057b356acd774161b6c8743df78c9bd58d7f492dd56d00121dda6b5906107db908890612014565b60405180910390a350505050505050565b5f6107f68261151c565b505f828152600460205260409020546001600160a01b03166105f1565b61081e828233611554565b5050565b5f8181526009602052604090206002810154600160b81b900460ff166108635760405162461bcd60e51b815260040161085a906126b1565b60405180910390fd5b60018101546001600160a01b031633146108af5760405162461bcd60e51b815260206004820152600d60248201526c2737ba103a343290313abcb2b960991b604482015260640161085a565b5f8281526008602052604090206004015460ff16156108e05760405162461bcd60e51b815260040161085a906126dd565b60028101805460ff60a81b1916600160a81b179055604051339083907fcf93094854a81f1a3d7c99633cff4dac98837e96ebc9d5529993dea33242cc67905f90a35050565b61094f7f9856acbf9ca422c521e08bc1d8e706e2db0b5830f4d56f698b78d8c01c86949133610de3565b61098c5760405162461bcd60e51b815260206004820152600e60248201526d139bdd08185d5d1a1bdc9a5e995960921b604482015260640161085a565b5f82815260086020908152604091829020600401805460ff1916841515908117909155915191825283917f388370698ea03650624022e5f43e8cb1f902ba526ee8287ff865709bc3946437910160405180910390a25050565b6001600160a01b038216610a0e57604051633250574960e11b81525f600482015260240161085a565b5f610a1a838333611561565b9050836001600160a01b0316816001600160a01b031614610a68576040516364283d7b60e01b81526001600160a01b038086166004830152602482018490528216604482015260640161085a565b50505050565b5f82815260066020526040902060010154610a88816114f6565b610a688383611653565b6001600160a01b0381163314610abb5760405163334bd91960e11b815260040160405180910390fd5b610ac582826116e4565b505050565b610ac583838360405180602001604052805f815250610e27565b5f8181526009602052604090206002810154600160b81b900460ff16610b1c5760405162461bcd60e51b815260040161085a906126b1565b80546001600160a01b0316331480610b40575060018101546001600160a01b031633145b610b7d5760405162461bcd60e51b815260206004820152600e60248201526d139bdd08185d5d1a1bdc9a5e995960921b604482015260640161085a565b600201805460ff60b81b1916905550565b5f6105f18261151c565b5f6001600160a01b038216610bc2576040516322718ad960e21b81525f600482015260240161085a565b506001600160a01b03165f9081526003602052604090205490565b33610be783610b8e565b6001600160a01b031614610c2d5760405162461bcd60e51b815260206004820152600d60248201526c2737ba103a34329037bbb732b960991b604482015260640161085a565b5f8281526008602052604090206004015460ff1615610c5e5760405162461bcd60e51b815260040161085a906126dd565b5f82815260096020526040902060020154600160b81b900460ff1615610cbf5760405162461bcd60e51b8152602060048201526016602482015275416374697665207472616e736665722065786973747360501b604482015260640161085a565b6040805160e081018252338082526001600160a01b0384811660208085018281525f86880181815260016060890181815260808a0184815260a08b0185815260c08c018481528f875260099098528c86209b518c54908b166001600160a01b0319918216178d559651938c018054948b16949097169390931790955591516002909901805492519451915195511515600160b81b0260ff60b81b19961515600160b01b0260ff60b01b19931515600160a81b029390931661ffff60a81b19961515600160a01b026001600160a81b03199095169b9099169a909a179290921793909316959095179190911791909116949094179091559251909185917fc1d91ef3905e00972bebbb95768bc866bdc68d24a68dde011efaa8a39c879d5d9190a45050565b5f9182526006602090815260408084206001600160a01b0393909316845291905290205460ff1690565b60606001805461060590612555565b61081e33838361174f565b610e328484846109e5565b610a683385858585611816565b6060610e4a8261151c565b505f610e6060408051602081019091525f815290565b90505f815111610e7e5760405180602001604052805f815250610ea9565b80610e888461193e565b604051602001610e99929190612709565b6040516020818303038152906040525b9392505050565b7f4e19be690c034b73b896a80e4645324b1ada2a2d102cf965cd497dd07f3a1950610eda816114f6565b5f8381526009602052604090206002810154600160b81b900460ff16610f125760405162461bcd60e51b815260040161085a906126b1565b6002810154600160a01b900460ff168015610f3857506002810154600160a81b900460ff165b610f845760405162461bcd60e51b815260206004820152601f60248201527f53656c6c6572206f72206275796572206861736e277420617070726f76656400604482015260640161085a565b5f8481526008602052604090206004015460ff1615610fb55760405162461bcd60e51b815260040161085a906126dd565b60028101805460ff60b01b193316600162ff000160a01b031990911617600160b01b1790555f8481526008602090815260408220600301805460018101825590835291200161100484826125f5565b50336001600160a01b0316847fbb079a066630cab8761841cb47c7c4c785fb83cd31f23baf8e0c3fd317d9e5248560405161103f9190612014565b60405180910390a3610a68846119ce565b600a602052815f5260405f208181548110611069575f80fd5b5f918252602090912001546001600160a01b03169150829050565b5f8281526006602052604090206001015461109e816114f6565b610a6883836116e4565b60086020525f90815260409020805481906110c290612555565b80601f01602080910402602001604051908101604052809291908181526020018280546110ee90612555565b80156111395780601f1061111057610100808354040283529160200191611139565b820191905f5260205f20905b81548152906001019060200180831161111c57829003601f168201915b50505050509080600101549080600201805461115490612555565b80601f016020809104026020016040519081016040528092919081815260200182805461118090612555565b80156111cb5780601f106111a2576101008083540402835291602001916111cb565b820191905f5260205f20905b8154815290600101906020018083116111ae57829003601f168201915b5050506004909301549192505060ff1684565b6001600160a01b039182165f90815260056020908152604080832093909416825291909152205460ff1690565b5f818152600a602090815260409182902080548351818402810184019094528084526060939283018282801561126857602002820191905f5260205f20905b81546001600160a01b0316815260019091019060200180831161124a575b50505050509050919050565b6112a66040518060a00160405280606081526020015f815260200160608152602001606081526020015f151581525090565b5f8281526008602052604090819020815160a081019092528054829082906112cd90612555565b80601f01602080910402602001604051908101604052809291908181526020018280546112f990612555565b80156113445780601f1061131b57610100808354040283529160200191611344565b820191905f5260205f20905b81548152906001019060200180831161132757829003601f168201915b505050505081526020016001820154815260200160028201805461136790612555565b80601f016020809104026020016040519081016040528092919081815260200182805461139390612555565b80156113de5780601f106113b5576101008083540402835291602001916113de565b820191905f5260205f20905b8154815290600101906020018083116113c157829003601f168201915b5050505050815260200160038201805480602002602001604051908101604052809291908181526020015f905b828210156114b3578382905f5260205f2001805461142890612555565b80601f016020809104026020016040519081016040528092919081815260200182805461145490612555565b801561149f5780601f106114765761010080835404028352916020019161149f565b820191905f5260205f20905b81548152906001019060200180831161148257829003601f168201915b50505050508152602001906001019061140b565b505050908252506004919091015460ff16151560209091015292915050565b5f6001600160e01b03198216637965db0b60e01b14806105f157506105f182611a7a565b6115008133611ac9565b50565b61081e828260405180602001604052805f815250611b02565b5f818152600260205260408120546001600160a01b0316806105f157604051637e27328960e01b81526004810184905260240161085a565b610ac58383836001611b19565b5f828152600260205260408120546001600160a01b039081169083161561158d5761158d818486611c1d565b6001600160a01b038116156115c7576115a85f855f80611b19565b6001600160a01b0381165f90815260036020526040902080545f190190555b6001600160a01b038516156115f5576001600160a01b0385165f908152600360205260409020805460010190555b5f8481526002602052604080822080546001600160a01b0319166001600160a01b0389811691821790925591518793918516917fddf252ad1be2c89b69c2b068fc378daa952ba7f163c4a11628f55a4df523b3ef91a4949350505050565b5f61165e8383610de3565b6116dd575f8381526006602090815260408083206001600160a01b03861684529091529020805460ff191660011790556116953390565b6001600160a01b0316826001600160a01b0316847f2f8788117e7eff1d82e926ec794901d17c78024a50270940304540a733656f0d60405160405180910390a45060016105f1565b505f6105f1565b5f6116ef8383610de3565b156116dd575f8381526006602090815260408083206001600160a01b0386168085529252808320805460ff1916905551339286917ff6391f5c32d9c69d2a47ea670b442974b53935d1edc7fd64eb21e047a839171b9190a45060016105f1565b6001600160a01b0383166117785760405163a9fbf51f60e01b81525f600482015260240161085a565b6001600160a01b0382166117aa57604051630b61174360e31b81526001600160a01b038316600482015260240161085a565b6001600160a01b038381165f81815260056020908152604080832094871680845294825291829020805460ff191686151590811790915591519182527f17307eab39ab6107e8899845ad3d59bd9653f200f220920489ca2b5937696c31910160405180910390a3505050565b6001600160a01b0383163b1561193757604051630a85bd0160e11b81526001600160a01b0384169063150b7a0290611858908890889087908790600401612737565b6020604051808303815f875af1925050508015611892575060408051601f3d908101601f1916820190925261188f91810190612773565b60015b6118f9573d8080156118bf576040519150601f19603f3d011682016040523d82523d5f602084013e6118c4565b606091505b5080515f036118f157604051633250574960e11b81526001600160a01b038516600482015260240161085a565b805160208201fd5b6001600160e01b03198116630a85bd0160e11b1461193557604051633250574960e11b81526001600160a01b038516600482015260240161085a565b505b5050505050565b60605f61194a83611c81565b60010190505f8167ffffffffffffffff81111561196957611969612041565b6040519080825280601f01601f191660200182016040528015611993576020820181803683370190505b5090508181016020015b5f19016f181899199a1a9b1b9c1cb0b131b232b360811b600a86061a8153600a850494508461199d57509392505050565b5f8181526009602052604090208054600182015460028301805460ff60b81b191690556001600160a01b039182169116611a09828286611d58565b5f848152600a60209081526040808320805460018101825590845291832090910180546001600160a01b0319166001600160a01b03858116918217909255915191929085169187917fe30f4d2a28a67cdb8856ab10670990536f9e43edbec16c6c9094a931a58bce9591a450505050565b5f6001600160e01b031982166380ac58cd60e01b1480611aaa57506001600160e01b03198216635b5e139f60e01b145b806105f157506301ffc9a760e01b6001600160e01b03198316146105f1565b611ad38282610de3565b61081e5760405163e2517d3f60e01b81526001600160a01b03821660048201526024810183905260440161085a565b611b0c8383611e05565b610ac5335f858585611816565b8080611b2d57506001600160a01b03821615155b15611bee575f611b3c8461151c565b90506001600160a01b03831615801590611b685750826001600160a01b0316816001600160a01b031614155b8015611b7b5750611b7981846111de565b155b15611ba45760405163a9fbf51f60e01b81526001600160a01b038416600482015260240161085a565b8115611bec5783856001600160a01b0316826001600160a01b03167f8c5be1e5ebec7d5bd14f71427d1e84f3dd0314c0f7b2291e5b200ac8c7c3b92560405160405180910390a45b505b50505f90815260046020526040902080546001600160a01b0319166001600160a01b0392909216919091179055565b611c28838383611e66565b610ac5576001600160a01b038316611c5657604051637e27328960e01b81526004810182905260240161085a565b60405163177e802f60e01b81526001600160a01b03831660048201526024810182905260440161085a565b5f8072184f03e93ff9f4daa797ed6e38ed64bf6a1f0160401b8310611cbf5772184f03e93ff9f4daa797ed6e38ed64bf6a1f0160401b830492506040015b6d04ee2d6d415b85acef81000000008310611ceb576d04ee2d6d415b85acef8100000000830492506020015b662386f26fc100008310611d0957662386f26fc10000830492506010015b6305f5e1008310611d21576305f5e100830492506008015b6127108310611d3557612710830492506004015b60648310611d47576064830492506002015b600a83106105f15760010192915050565b6001600160a01b038216611d8157604051633250574960e11b81525f600482015260240161085a565b5f611d8d83835f611561565b90506001600160a01b038116611db957604051637e27328960e01b81526004810183905260240161085a565b836001600160a01b0316816001600160a01b031614610a68576040516364283d7b60e01b81526001600160a01b038086166004830152602482018490528216604482015260640161085a565b6001600160a01b038216611e2e57604051633250574960e11b81525f600482015260240161085a565b5f611e3a83835f611561565b90506001600160a01b03811615610ac5576040516339e3563760e11b81525f600482015260240161085a565b5f6001600160a01b03831615801590611ec25750826001600160a01b0316846001600160a01b03161480611e9f5750611e9f84846111de565b80611ec257505f828152600460205260409020546001600160a01b038481169116145b949350505050565b828054828255905f5260205f20908101928215611f0e579160200282015b82811115611f0e5782518290611efe90826125f5565b5091602001919060010190611ee8565b50611f1a929150611f1e565b5090565b80821115611f1a575f611f318282611f3a565b50600101611f1e565b508054611f4690612555565b5f825580601f10611f55575050565b601f0160209004905f5260205f209081019061150091905b80821115611f1a575f8155600101611f6d565b6001600160e01b031981168114611500575f80fd5b5f60208284031215611fa5575f80fd5b8135610ea981611f80565b5f60208284031215611fc0575f80fd5b5035919050565b5f5b83811015611fe1578181015183820152602001611fc9565b50505f910152565b5f8151808452612000816020860160208601611fc7565b601f01601f19169290920160200192915050565b602081525f610ea96020830184611fe9565b80356001600160a01b038116811461203c575f80fd5b919050565b634e487b7160e01b5f52604160045260245ffd5b604051601f8201601f1916810167ffffffffffffffff8111828210171561207e5761207e612041565b604052919050565b5f67ffffffffffffffff83111561209f5761209f612041565b6120b2601f8401601f1916602001612055565b90508281528383830111156120c5575f80fd5b828260208301375f602084830101529392505050565b5f82601f8301126120ea575f80fd5b610ea983833560208501612086565b5f805f805f60a0868803121561210d575f80fd5b61211686612026565b945060208087013567ffffffffffffffff80821115612133575f80fd5b61213f8a838b016120db565b965060408901359550606089013591508082111561215b575f80fd5b6121678a838b016120db565b9450608089013591508082111561217c575f80fd5b818901915089601f83011261218f575f80fd5b8135818111156121a1576121a1612041565b8060051b6121b0858201612055565b918252838101850191858101908d8411156121c9575f80fd5b86860192505b83831015612203578235858111156121e5575f80fd5b6121f38f89838a01016120db565b83525091860191908601906121cf565b809750505050505050509295509295909350565b5f8060408385031215612228575f80fd5b61223183612026565b946020939093013593505050565b8035801515811461203c575f80fd5b5f806040838503121561225f575f80fd5b8235915061226f6020840161223f565b90509250929050565b5f805f6060848603121561228a575f80fd5b61229384612026565b92506122a160208501612026565b9150604084013590509250925092565b5f80604083850312156122c2575f80fd5b8235915061226f60208401612026565b5f602082840312156122e2575f80fd5b610ea982612026565b5f80604083850312156122fc575f80fd5b61230583612026565b915061226f6020840161223f565b5f805f8060808587031215612326575f80fd5b61232f85612026565b935061233d60208601612026565b925060408501359150606085013567ffffffffffffffff81111561235f575f80fd5b8501601f8101871361236f575f80fd5b61237e87823560208401612086565b91505092959194509250565b5f806040838503121561239b575f80fd5b82359150602083013567ffffffffffffffff8111156123b8575f80fd5b6123c4858286016120db565b9150509250929050565b5f80604083850312156123df575f80fd5b50508035926020909101359150565b608081525f6124006080830187611fe9565b85602084015282810360408401526124188186611fe9565b915050821515606083015295945050505050565b5f806040838503121561243d575f80fd5b61244683612026565b915061226f60208401612026565b602080825282518282018190525f9190848201906040850190845b818110156124945783516001600160a01b03168352928401929184019160010161246f565b50909695505050505050565b5f6020808352835160a0828501526124bb60c0850182611fe9565b90508185015160408501526040850151601f19808684030160608701526124e28383611fe9565b60608801518782038301608089015280518083529194508501925084840190600581901b850186015f5b828110156125385784878303018452612526828751611fe9565b9588019593880193915060010161250c565b5060808a015180151560a08b015296509998505050505050505050565b600181811c9082168061256957607f821691505b60208210810361258757634e487b7160e01b5f52602260045260245ffd5b50919050565b5f600182016125aa57634e487b7160e01b5f52601160045260245ffd5b5060010190565b601f821115610ac557805f5260205f20601f840160051c810160208510156125d65750805b601f840160051c820191505b81811015611937575f81556001016125e2565b815167ffffffffffffffff81111561260f5761260f612041565b6126238161261d8454612555565b846125b1565b602080601f831160018114612656575f841561263f5750858301515b5f19600386901b1c1916600185901b178555611935565b5f85815260208120601f198616915b8281101561268457888601518255948401946001909101908401612665565b50858210156126a157878501515f19600388901b60f8161c191681555b5050505050600190811b01905550565b60208082526012908201527127379030b1ba34bb32903a3930b739b332b960711b604082015260600190565b6020808252601290820152714c616e6420697320696e206469737075746560701b604082015260600190565b5f835161271a818460208801611fc7565b83519083019061272e818360208801611fc7565b01949350505050565b6001600160a01b03858116825284166020820152604081018390526080606082018190525f9061276990830184611fe9565b9695505050505050565b5f60208284031215612783575f80fd5b8151610ea981611f8056fea2646970667358221220fe01dfac0799e876ff1f53b1fcc1739a0ef47a1babe5e21fb2b105eda6470d5564736f6c63430008180033","opcodes":"PUSH1 0x80 PUSH1 0x40 MSTORE CALLVALUE DUP1 ISZERO PUSH3 0x10 JUMPI PUSH0 DUP1 REVERT JUMPDEST POP PUSH1 0x40 MLOAD DUP1 PUSH1 0x40 ADD PUSH1 0x40 MSTORE DUP1 PUSH1 0x9 DUP2 MSTORE PUSH1 0x20 ADD PUSH9 0x2630B7322A37B5B2B7 PUSH1 0xB9 SHL DUP2 MSTORE POP PUSH1 0x40 MLOAD DUP1 PUSH1 0x40 ADD PUSH1 0x40 MSTORE DUP1 PUSH1 0x3 DUP2 MSTORE PUSH1 0x20 ADD PUSH3 0x131391 PUSH1 0xEA SHL DUP2 MSTORE POP DUP2 PUSH0 SWAP1 DUP2 PUSH3 0x5F SWAP2 SWAP1 PUSH3 0x22E JUMP JUMPDEST POP PUSH1 0x1 PUSH3 0x6E DUP3 DUP3 PUSH3 0x22E JUMP JUMPDEST POP PUSH3 0x7F SWAP2 POP PUSH0 SWAP1 POP CALLER PUSH3 0xE0 JUMP JUMPDEST POP PUSH3 0xAC PUSH32 0x9856ACBF9CA422C521E08BC1D8E706E2DB0B5830F4D56F698B78D8C01C869491 CALLER PUSH3 0xE0 JUMP JUMPDEST POP PUSH3 0xD9 PUSH32 0x3B6C71F6D44639D5B3E40F2EF3056C3385A1E68A255A703AC23442C1C3BE357D CALLER PUSH3 0xE0 JUMP JUMPDEST POP PUSH3 0x2FA JUMP JUMPDEST PUSH0 DUP3 DUP2 MSTORE PUSH1 0x6 PUSH1 0x20 SWAP1 DUP2 MSTORE PUSH1 0x40 DUP1 DUP4 KECCAK256 PUSH1 0x1 PUSH1 0x1 PUSH1 0xA0 SHL SUB DUP6 AND DUP5 MSTORE SWAP1 SWAP2 MSTORE DUP2 KECCAK256 SLOAD PUSH1 0xFF AND PUSH3 0x187 JUMPI PUSH0 DUP4 DUP2 MSTORE PUSH1 0x6 PUSH1 0x20 SWAP1 DUP2 MSTORE PUSH1 0x40 DUP1 DUP4 KECCAK256 PUSH1 0x1 PUSH1 0x1 PUSH1 0xA0 SHL SUB DUP7 AND DUP5 MSTORE SWAP1 SWAP2 MSTORE SWAP1 KECCAK256 DUP1 SLOAD PUSH1 0xFF NOT AND PUSH1 0x1 OR SWAP1 SSTORE PUSH3 0x13E CALLER SWAP1 JUMP JUMPDEST PUSH1 0x1 PUSH1 0x1 PUSH1 0xA0 SHL SUB AND DUP3 PUSH1 0x1 PUSH1 0x1 PUSH1 0xA0 SHL SUB AND DUP5 PUSH32 0x2F8788117E7EFF1D82E926EC794901D17C78024A50270940304540A733656F0D PUSH1 0x40 MLOAD PUSH1 0x40 MLOAD DUP1 SWAP2 SUB SWAP1 LOG4 POP PUSH1 0x1 PUSH3 0x18A JUMP JUMPDEST POP PUSH0 JUMPDEST SWAP3 SWAP2 POP POP JUMP JUMPDEST PUSH4 0x4E487B71 PUSH1 0xE0 SHL PUSH0 MSTORE PUSH1 0x41 PUSH1 0x4 MSTORE PUSH1 0x24 PUSH0 REVERT JUMPDEST PUSH1 0x1 DUP2 DUP2 SHR SWAP1 DUP3 AND DUP1 PUSH3 0x1B9 JUMPI PUSH1 0x7F DUP3 AND SWAP2 POP JUMPDEST PUSH1 0x20 DUP3 LT DUP2 SUB PUSH3 0x1D8 JUMPI PUSH4 0x4E487B71 PUSH1 0xE0 SHL PUSH0 MSTORE PUSH1 0x22 PUSH1 0x4 MSTORE PUSH1 0x24 PUSH0 REVERT JUMPDEST POP SWAP2 SWAP1 POP JUMP JUMPDEST PUSH1 0x1F DUP3 GT ISZERO PUSH3 0x229 JUMPI DUP1 PUSH0 MSTORE PUSH1 0x20 PUSH0 KECCAK256 PUSH1 0x1F DUP5 ADD PUSH1 0x5 SHR DUP2 ADD PUSH1 0x20 DUP6 LT ISZERO PUSH3 0x205 JUMPI POP DUP1 JUMPDEST PUSH1 0x1F DUP5 ADD PUSH1 0x5 SHR DUP3 ADD SWAP2 POP JUMPDEST DUP2 DUP2 LT ISZERO PUSH3 0x226 JUMPI PUSH0 DUP2 SSTORE PUSH1 0x1 ADD PUSH3 0x211 JUMP JUMPDEST POP POP JUMPDEST POP POP POP JUMP JUMPDEST DUP2 MLOAD PUSH1 0x1 PUSH1 0x1 PUSH1 0x40 SHL SUB DUP2 GT ISZERO PUSH3 0x24A JUMPI PUSH3 0x24A PUSH3 0x190 JUMP JUMPDEST PUSH3 0x262 DUP2 PUSH3 0x25B DUP5 SLOAD PUSH3 0x1A4 JUMP JUMPDEST DUP5 PUSH3 0x1DE JUMP JUMPDEST PUSH1 0x20 DUP1 PUSH1 0x1F DUP4 GT PUSH1 0x1 DUP2 EQ PUSH3 0x298 JUMPI PUSH0 DUP5 ISZERO PUSH3 0x280 JUMPI POP DUP6 DUP4 ADD MLOAD JUMPDEST PUSH0 NOT PUSH1 0x3 DUP7 SWAP1 SHL SHR NOT AND PUSH1 0x1 DUP6 SWAP1 SHL OR DUP6 SSTORE PUSH3 0x2F2 JUMP JUMPDEST PUSH0 DUP6 DUP2 MSTORE PUSH1 0x20 DUP2 KECCAK256 PUSH1 0x1F NOT DUP7 AND SWAP2 JUMPDEST DUP3 DUP2 LT ISZERO PUSH3 0x2C8 JUMPI DUP9 DUP7 ADD MLOAD DUP3 SSTORE SWAP5 DUP5 ADD SWAP5 PUSH1 0x1 SWAP1 SWAP2 ADD SWAP1 DUP5 ADD PUSH3 0x2A7 JUMP JUMPDEST POP DUP6 DUP3 LT ISZERO PUSH3 0x2E6 JUMPI DUP8 DUP6 ADD MLOAD PUSH0 NOT PUSH1 0x3 DUP9 SWAP1 SHL PUSH1 0xF8 AND SHR NOT AND DUP2 SSTORE JUMPDEST POP POP PUSH1 0x1 DUP5 PUSH1 0x1 SHL ADD DUP6 SSTORE JUMPDEST POP POP POP POP POP POP JUMP JUMPDEST PUSH2 0x27C4 DUP1 PUSH3 0x308 PUSH0 CODECOPY PUSH0 RETURN INVALID PUSH1 0x80 PUSH1 0x40 MSTORE CALLVALUE DUP1 ISZERO PUSH2 0xF JUMPI PUSH0 DUP1 REVERT JUMPDEST POP PUSH1 0x4 CALLDATASIZE LT PUSH2 0x208 JUMPI PUSH0 CALLDATALOAD PUSH1 0xE0 SHR DUP1 PUSH4 0x70A08231 GT PUSH2 0x11F JUMPI DUP1 PUSH4 0xB88D4FDE GT PUSH2 0xA9 JUMPI DUP1 PUSH4 0xD547741F GT PUSH2 0x79 JUMPI DUP1 PUSH4 0xD547741F EQ PUSH2 0x55E JUMPI DUP1 PUSH4 0xE261F1E5 EQ PUSH2 0x571 JUMPI DUP1 PUSH4 0xE985E9C5 EQ PUSH2 0x594 JUMPI DUP1 PUSH4 0xF1DBACCB EQ PUSH2 0x5A7 JUMPI DUP1 PUSH4 0xFE0CB7DC EQ PUSH2 0x5C7 JUMPI PUSH0 DUP1 REVERT JUMPDEST DUP1 PUSH4 0xB88D4FDE EQ PUSH2 0x512 JUMPI DUP1 PUSH4 0xC87B56DD EQ PUSH2 0x525 JUMPI DUP1 PUSH4 0xC89A2BD9 EQ PUSH2 0x538 JUMPI DUP1 PUSH4 0xC9CF2ADC EQ PUSH2 0x54B JUMPI PUSH0 DUP1 REVERT JUMPDEST DUP1 PUSH4 0x8EC455E3 GT PUSH2 0xEF JUMPI DUP1 PUSH4 0x8EC455E3 EQ PUSH2 0x4B6 JUMPI DUP1 PUSH4 0x91D14854 EQ PUSH2 0x4DD JUMPI DUP1 PUSH4 0x95D89B41 EQ PUSH2 0x4F0 JUMPI DUP1 PUSH4 0xA217FDDF EQ PUSH2 0x4F8 JUMPI DUP1 PUSH4 0xA22CB465 EQ PUSH2 0x4FF JUMPI PUSH0 DUP1 REVERT JUMPDEST DUP1 PUSH4 0x70A08231 EQ PUSH2 0x461 JUMPI DUP1 PUSH4 0x842E7DBA EQ PUSH2 0x474 JUMPI DUP1 PUSH4 0x86BDE3D1 EQ PUSH2 0x47C JUMPI DUP1 PUSH4 0x875CFE3B EQ PUSH2 0x48F JUMPI PUSH0 DUP1 REVERT JUMPDEST DUP1 PUSH4 0x23B872DD GT PUSH2 0x1A0 JUMPI DUP1 PUSH4 0x42842E0E GT PUSH2 0x170 JUMPI DUP1 PUSH4 0x42842E0E EQ PUSH2 0x3DA JUMPI DUP1 PUSH4 0x5911B808 EQ PUSH2 0x3ED JUMPI DUP1 PUSH4 0x59CAECB5 EQ PUSH2 0x414 JUMPI DUP1 PUSH4 0x6352211E EQ PUSH2 0x427 JUMPI DUP1 PUSH4 0x6E1D616E EQ PUSH2 0x43A JUMPI PUSH0 DUP1 REVERT JUMPDEST DUP1 PUSH4 0x23B872DD EQ PUSH2 0x371 JUMPI DUP1 PUSH4 0x248A9CA3 EQ PUSH2 0x384 JUMPI DUP1 PUSH4 0x2F2FF15D EQ PUSH2 0x3B4 JUMPI DUP1 PUSH4 0x36568ABE EQ PUSH2 0x3C7 JUMPI PUSH0 DUP1 REVERT JUMPDEST DUP1 PUSH4 0x81812FC GT PUSH2 0x1DB JUMPI DUP1 PUSH4 0x81812FC EQ PUSH2 0x30D JUMPI DUP1 PUSH4 0x95EA7B3 EQ PUSH2 0x338 JUMPI DUP1 PUSH4 0x9D4A345 EQ PUSH2 0x34B JUMPI DUP1 PUSH4 0x1B362B05 EQ PUSH2 0x35E JUMPI PUSH0 DUP1 REVERT JUMPDEST DUP1 PUSH4 0x1FFC9A7 EQ PUSH2 0x20C JUMPI DUP1 PUSH4 0x3486C40 EQ PUSH2 0x234 JUMPI DUP1 PUSH4 0x6FDDE03 EQ PUSH2 0x2E3 JUMPI DUP1 PUSH4 0x7407DD8 EQ PUSH2 0x2F8 JUMPI JUMPDEST PUSH0 DUP1 REVERT JUMPDEST PUSH2 0x21F PUSH2 0x21A CALLDATASIZE PUSH1 0x4 PUSH2 0x1F95 JUMP JUMPDEST PUSH2 0x5E7 JUMP JUMPDEST PUSH1 0x40 MLOAD SWAP1 ISZERO ISZERO DUP2 MSTORE PUSH1 0x20 ADD JUMPDEST PUSH1 0x40 MLOAD DUP1 SWAP2 SUB SWAP1 RETURN JUMPDEST PUSH2 0x299 PUSH2 0x242 CALLDATASIZE PUSH1 0x4 PUSH2 0x1FB0 JUMP JUMPDEST PUSH1 0x9 PUSH1 0x20 MSTORE PUSH0 SWAP1 DUP2 MSTORE PUSH1 0x40 SWAP1 KECCAK256 DUP1 SLOAD PUSH1 0x1 DUP3 ADD SLOAD PUSH1 0x2 SWAP1 SWAP3 ADD SLOAD PUSH1 0x1 PUSH1 0x1 PUSH1 0xA0 SHL SUB SWAP2 DUP3 AND SWAP3 DUP3 AND SWAP2 DUP2 AND SWAP1 PUSH1 0xFF PUSH1 0x1 PUSH1 0xA0 SHL DUP3 DIV DUP2 AND SWAP2 PUSH1 0x1 PUSH1 0xA8 SHL DUP2 DIV DUP3 AND SWAP2 PUSH1 0x1 PUSH1 0xB0 SHL DUP3 DIV DUP2 AND SWAP2 PUSH1 0x1 PUSH1 0xB8 SHL SWAP1 DIV AND DUP8 JUMP JUMPDEST PUSH1 0x40 DUP1 MLOAD PUSH1 0x1 PUSH1 0x1 PUSH1 0xA0 SHL SUB SWAP9 DUP10 AND DUP2 MSTORE SWAP7 DUP9 AND PUSH1 0x20 DUP9 ADD MSTORE SWAP5 SWAP1 SWAP7 AND SWAP4 DUP6 ADD SWAP4 SWAP1 SWAP4 MSTORE SWAP1 ISZERO ISZERO PUSH1 0x60 DUP5 ADD MSTORE ISZERO ISZERO PUSH1 0x80 DUP4 ADD MSTORE ISZERO ISZERO PUSH1 0xA0 DUP3 ADD MSTORE SWAP1 ISZERO ISZERO PUSH1 0xC0 DUP3 ADD MSTORE PUSH1 0xE0 ADD PUSH2 0x22B JUMP JUMPDEST PUSH2 0x2EB PUSH2 0x5F7 JUMP JUMPDEST PUSH1 0x40 MLOAD PUSH2 0x22B SWAP2 SWAP1 PUSH2 0x2014 JUMP JUMPDEST PUSH2 0x30B PUSH2 0x306 CALLDATASIZE PUSH1 0x4 PUSH2 0x20F9 JUMP JUMPDEST PUSH2 0x686 JUMP JUMPDEST STOP JUMPDEST PUSH2 0x320 PUSH2 0x31B CALLDATASIZE PUSH1 0x4 PUSH2 0x1FB0 JUMP JUMPDEST PUSH2 0x7EC JUMP JUMPDEST PUSH1 0x40 MLOAD PUSH1 0x1 PUSH1 0x1 PUSH1 0xA0 SHL SUB SWAP1 SWAP2 AND DUP2 MSTORE PUSH1 0x20 ADD PUSH2 0x22B JUMP JUMPDEST PUSH2 0x30B PUSH2 0x346 CALLDATASIZE PUSH1 0x4 PUSH2 0x2217 JUMP JUMPDEST PUSH2 0x813 JUMP JUMPDEST PUSH2 0x30B PUSH2 0x359 CALLDATASIZE PUSH1 0x4 PUSH2 0x1FB0 JUMP JUMPDEST PUSH2 0x822 JUMP JUMPDEST PUSH2 0x30B PUSH2 0x36C CALLDATASIZE PUSH1 0x4 PUSH2 0x224E JUMP JUMPDEST PUSH2 0x925 JUMP JUMPDEST PUSH2 0x30B PUSH2 0x37F CALLDATASIZE PUSH1 0x4 PUSH2 0x2278 JUMP JUMPDEST PUSH2 0x9E5 JUMP JUMPDEST PUSH2 0x3A6 PUSH2 0x392 CALLDATASIZE PUSH1 0x4 PUSH2 0x1FB0 JUMP JUMPDEST PUSH0 SWAP1 DUP2 MSTORE PUSH1 0x6 PUSH1 0x20 MSTORE PUSH1 0x40 SWAP1 KECCAK256 PUSH1 0x1 ADD SLOAD SWAP1 JUMP JUMPDEST PUSH1 0x40 MLOAD SWAP1 DUP2 MSTORE PUSH1 0x20 ADD PUSH2 0x22B JUMP JUMPDEST PUSH2 0x30B PUSH2 0x3C2 CALLDATASIZE PUSH1 0x4 PUSH2 0x22B1 JUMP JUMPDEST PUSH2 0xA6E JUMP JUMPDEST PUSH2 0x30B PUSH2 0x3D5 CALLDATASIZE PUSH1 0x4 PUSH2 0x22B1 JUMP JUMPDEST PUSH2 0xA92 JUMP JUMPDEST PUSH2 0x30B PUSH2 0x3E8 CALLDATASIZE PUSH1 0x4 PUSH2 0x2278 JUMP JUMPDEST PUSH2 0xACA JUMP JUMPDEST PUSH2 0x3A6 PUSH32 0x4E19BE690C034B73B896A80E4645324B1ADA2A2D102CF965CD497DD07F3A1950 DUP2 JUMP JUMPDEST PUSH2 0x30B PUSH2 0x422 CALLDATASIZE PUSH1 0x4 PUSH2 0x1FB0 JUMP JUMPDEST PUSH2 0xAE4 JUMP JUMPDEST PUSH2 0x320 PUSH2 0x435 CALLDATASIZE PUSH1 0x4 PUSH2 0x1FB0 JUMP JUMPDEST PUSH2 0xB8E JUMP JUMPDEST PUSH2 0x3A6 PUSH32 0x59A1C48E5837AD7A7F3DCEDCBE129BF3249EC4FBF651FD4F5E2600EAD39FE2F5 DUP2 JUMP JUMPDEST PUSH2 0x3A6 PUSH2 0x46F CALLDATASIZE PUSH1 0x4 PUSH2 0x22D2 JUMP JUMPDEST PUSH2 0xB98 JUMP JUMPDEST PUSH1 0x7 SLOAD PUSH2 0x3A6 JUMP JUMPDEST PUSH2 0x30B PUSH2 0x48A CALLDATASIZE PUSH1 0x4 PUSH2 0x22B1 JUMP JUMPDEST PUSH2 0xBDD JUMP JUMPDEST PUSH2 0x3A6 PUSH32 0x9856ACBF9CA422C521E08BC1D8E706E2DB0B5830F4D56F698B78D8C01C869491 DUP2 JUMP JUMPDEST PUSH2 0x3A6 PUSH32 0x3B6C71F6D44639D5B3E40F2EF3056C3385A1E68A255A703AC23442C1C3BE357D DUP2 JUMP JUMPDEST PUSH2 0x21F PUSH2 0x4EB CALLDATASIZE PUSH1 0x4 PUSH2 0x22B1 JUMP JUMPDEST PUSH2 0xDE3 JUMP JUMPDEST PUSH2 0x2EB PUSH2 0xE0D JUMP JUMPDEST PUSH2 0x3A6 PUSH0 DUP2 JUMP JUMPDEST PUSH2 0x30B PUSH2 0x50D CALLDATASIZE PUSH1 0x4 PUSH2 0x22EB JUMP JUMPDEST PUSH2 0xE1C JUMP JUMPDEST PUSH2 0x30B PUSH2 0x520 CALLDATASIZE PUSH1 0x4 PUSH2 0x2313 JUMP JUMPDEST PUSH2 0xE27 JUMP JUMPDEST PUSH2 0x2EB PUSH2 0x533 CALLDATASIZE PUSH1 0x4 PUSH2 0x1FB0 JUMP JUMPDEST PUSH2 0xE3F JUMP JUMPDEST PUSH2 0x30B PUSH2 0x546 CALLDATASIZE PUSH1 0x4 PUSH2 0x238A JUMP JUMPDEST PUSH2 0xEB0 JUMP JUMPDEST PUSH2 0x320 PUSH2 0x559 CALLDATASIZE PUSH1 0x4 PUSH2 0x23CE JUMP JUMPDEST PUSH2 0x1050 JUMP JUMPDEST PUSH2 0x30B PUSH2 0x56C CALLDATASIZE PUSH1 0x4 PUSH2 0x22B1 JUMP JUMPDEST PUSH2 0x1084 JUMP JUMPDEST PUSH2 0x584 PUSH2 0x57F CALLDATASIZE PUSH1 0x4 PUSH2 0x1FB0 JUMP JUMPDEST PUSH2 0x10A8 JUMP JUMPDEST PUSH1 0x40 MLOAD PUSH2 0x22B SWAP5 SWAP4 SWAP3 SWAP2 SWAP1 PUSH2 0x23EE JUMP JUMPDEST PUSH2 0x21F PUSH2 0x5A2 CALLDATASIZE PUSH1 0x4 PUSH2 0x242C JUMP JUMPDEST PUSH2 0x11DE JUMP JUMPDEST PUSH2 0x5BA PUSH2 0x5B5 CALLDATASIZE PUSH1 0x4 PUSH2 0x1FB0 JUMP JUMPDEST PUSH2 0x120B JUMP JUMPDEST PUSH1 0x40 MLOAD PUSH2 0x22B SWAP2 SWAP1 PUSH2 0x2454 JUMP JUMPDEST PUSH2 0x5DA PUSH2 0x5D5 CALLDATASIZE PUSH1 0x4 PUSH2 0x1FB0 JUMP JUMPDEST PUSH2 0x1274 JUMP JUMPDEST PUSH1 0x40 MLOAD PUSH2 0x22B SWAP2 SWAP1 PUSH2 0x24A0 JUMP JUMPDEST PUSH0 PUSH2 0x5F1 DUP3 PUSH2 0x14D2 JUMP JUMPDEST SWAP3 SWAP2 POP POP JUMP JUMPDEST PUSH1 0x60 PUSH0 DUP1 SLOAD PUSH2 0x605 SWAP1 PUSH2 0x2555 JUMP JUMPDEST DUP1 PUSH1 0x1F ADD PUSH1 0x20 DUP1 SWAP2 DIV MUL PUSH1 0x20 ADD PUSH1 0x40 MLOAD SWAP1 DUP2 ADD PUSH1 0x40 MSTORE DUP1 SWAP3 SWAP2 SWAP1 DUP2 DUP2 MSTORE PUSH1 0x20 ADD DUP3 DUP1 SLOAD PUSH2 0x631 SWAP1 PUSH2 0x2555 JUMP JUMPDEST DUP1 ISZERO PUSH2 0x67C JUMPI DUP1 PUSH1 0x1F LT PUSH2 0x653 JUMPI PUSH2 0x100 DUP1 DUP4 SLOAD DIV MUL DUP4 MSTORE SWAP2 PUSH1 0x20 ADD SWAP2 PUSH2 0x67C JUMP JUMPDEST DUP3 ADD SWAP2 SWAP1 PUSH0 MSTORE PUSH1 0x20 PUSH0 KECCAK256 SWAP1 JUMPDEST DUP2 SLOAD DUP2 MSTORE SWAP1 PUSH1 0x1 ADD SWAP1 PUSH1 0x20 ADD DUP1 DUP4 GT PUSH2 0x65F JUMPI DUP3 SWAP1 SUB PUSH1 0x1F AND DUP3 ADD SWAP2 JUMPDEST POP POP POP POP POP SWAP1 POP SWAP1 JUMP JUMPDEST PUSH32 0x3B6C71F6D44639D5B3E40F2EF3056C3385A1E68A255A703AC23442C1C3BE357D PUSH2 0x6B0 DUP2 PUSH2 0x14F6 JUMP JUMPDEST PUSH1 0x7 DUP1 SLOAD PUSH0 SWAP2 DUP3 PUSH2 0x6C0 DUP4 PUSH2 0x258D JUMP JUMPDEST SWAP1 SWAP2 SSTORE POP PUSH1 0x40 DUP1 MLOAD PUSH1 0xA0 DUP2 ADD DUP3 MSTORE DUP9 DUP2 MSTORE PUSH1 0x20 DUP1 DUP3 ADD DUP10 SWAP1 MSTORE DUP2 DUP4 ADD DUP9 SWAP1 MSTORE PUSH1 0x60 DUP3 ADD DUP8 SWAP1 MSTORE PUSH0 PUSH1 0x80 DUP4 ADD DUP2 SWAP1 MSTORE DUP5 DUP2 MSTORE PUSH1 0x8 SWAP1 SWAP2 MSTORE SWAP2 SWAP1 SWAP2 KECCAK256 DUP2 MLOAD SWAP3 SWAP4 POP SWAP1 SWAP2 DUP2 SWAP1 PUSH2 0x70D SWAP1 DUP3 PUSH2 0x25F5 JUMP JUMPDEST POP PUSH1 0x20 DUP3 ADD MLOAD PUSH1 0x1 DUP3 ADD SSTORE PUSH1 0x40 DUP3 ADD MLOAD PUSH1 0x2 DUP3 ADD SWAP1 PUSH2 0x72C SWAP1 DUP3 PUSH2 0x25F5 JUMP JUMPDEST POP PUSH1 0x60 DUP3 ADD MLOAD DUP1 MLOAD PUSH2 0x748 SWAP2 PUSH1 0x3 DUP5 ADD SWAP2 PUSH1 0x20 SWAP1 SWAP2 ADD SWAP1 PUSH2 0x1ECA JUMP JUMPDEST POP PUSH1 0x80 SWAP2 SWAP1 SWAP2 ADD MLOAD PUSH1 0x4 SWAP1 SWAP2 ADD DUP1 SLOAD PUSH1 0xFF NOT AND SWAP2 ISZERO ISZERO SWAP2 SWAP1 SWAP2 OR SWAP1 SSTORE PUSH2 0x76E DUP8 DUP3 PUSH2 0x1503 JUMP JUMPDEST PUSH0 DUP2 DUP2 MSTORE PUSH1 0xA PUSH1 0x20 SWAP1 DUP2 MSTORE PUSH1 0x40 DUP1 DUP4 KECCAK256 DUP1 SLOAD PUSH1 0x1 DUP2 ADD DUP3 SSTORE SWAP1 DUP5 MSTORE SWAP2 SWAP1 SWAP3 KECCAK256 ADD DUP1 SLOAD PUSH1 0x1 PUSH1 0x1 PUSH1 0xA0 SHL SUB NOT AND PUSH1 0x1 PUSH1 0x1 PUSH1 0xA0 SHL SUB DUP11 AND SWAP1 DUP2 OR SWAP1 SWAP2 SSTORE SWAP1 MLOAD DUP3 SWAP1 PUSH32 0xA30DD43FC057B356ACD774161B6C8743DF78C9BD58D7F492DD56D00121DDA6B5 SWAP1 PUSH2 0x7DB SWAP1 DUP9 SWAP1 PUSH2 0x2014 JUMP JUMPDEST PUSH1 0x40 MLOAD DUP1 SWAP2 SUB SWAP1 LOG3 POP POP POP POP POP POP POP JUMP JUMPDEST PUSH0 PUSH2 0x7F6 DUP3 PUSH2 0x151C JUMP JUMPDEST POP PUSH0 DUP3 DUP2 MSTORE PUSH1 0x4 PUSH1 0x20 MSTORE PUSH1 0x40 SWAP1 KECCAK256 SLOAD PUSH1 0x1 PUSH1 0x1 PUSH1 0xA0 SHL SUB AND PUSH2 0x5F1 JUMP JUMPDEST PUSH2 0x81E DUP3 DUP3 CALLER PUSH2 0x1554 JUMP JUMPDEST POP POP JUMP JUMPDEST PUSH0 DUP2 DUP2 MSTORE PUSH1 0x9 PUSH1 0x20 MSTORE PUSH1 0x40 SWAP1 KECCAK256 PUSH1 0x2 DUP2 ADD SLOAD PUSH1 0x1 PUSH1 0xB8 SHL SWAP1 DIV PUSH1 0xFF AND PUSH2 0x863 JUMPI PUSH1 0x40 MLOAD PUSH3 0x461BCD PUSH1 0xE5 SHL DUP2 MSTORE PUSH1 0x4 ADD PUSH2 0x85A SWAP1 PUSH2 0x26B1 JUMP JUMPDEST PUSH1 0x40 MLOAD DUP1 SWAP2 SUB SWAP1 REVERT JUMPDEST PUSH1 0x1 DUP2 ADD SLOAD PUSH1 0x1 PUSH1 0x1 PUSH1 0xA0 SHL SUB AND CALLER EQ PUSH2 0x8AF JUMPI PUSH1 0x40 MLOAD PUSH3 0x461BCD PUSH1 0xE5 SHL DUP2 MSTORE PUSH1 0x20 PUSH1 0x4 DUP3 ADD MSTORE PUSH1 0xD PUSH1 0x24 DUP3 ADD MSTORE PUSH13 0x2737BA103A343290313ABCB2B9 PUSH1 0x99 SHL PUSH1 0x44 DUP3 ADD MSTORE PUSH1 0x64 ADD PUSH2 0x85A JUMP JUMPDEST PUSH0 DUP3 DUP2 MSTORE PUSH1 0x8 PUSH1 0x20 MSTORE PUSH1 0x40 SWAP1 KECCAK256 PUSH1 0x4 ADD SLOAD PUSH1 0xFF AND ISZERO PUSH2 0x8E0 JUMPI PUSH1 0x40 MLOAD PUSH3 0x461BCD PUSH1 0xE5 SHL DUP2 MSTORE PUSH1 0x4 ADD PUSH2 0x85A SWAP1 PUSH2 0x26DD JUMP JUMPDEST PUSH1 0x2 DUP2 ADD DUP1 SLOAD PUSH1 0xFF PUSH1 0xA8 SHL NOT AND PUSH1 0x1 PUSH1 0xA8 SHL OR SWAP1 SSTORE PUSH1 0x40 MLOAD CALLER SWAP1 DUP4 SWAP1 PUSH32 0xCF93094854A81F1A3D7C99633CFF4DAC98837E96EBC9D5529993DEA33242CC67 SWAP1 PUSH0 SWAP1 LOG3 POP POP JUMP JUMPDEST PUSH2 0x94F PUSH32 0x9856ACBF9CA422C521E08BC1D8E706E2DB0B5830F4D56F698B78D8C01C869491 CALLER PUSH2 0xDE3 JUMP JUMPDEST PUSH2 0x98C JUMPI PUSH1 0x40 MLOAD PUSH3 0x461BCD PUSH1 0xE5 SHL DUP2 MSTORE PUSH1 0x20 PUSH1 0x4 DUP3 ADD MSTORE PUSH1 0xE PUSH1 0x24 DUP3 ADD MSTORE PUSH14 0x139BDD08185D5D1A1BDC9A5E9959 PUSH1 0x92 SHL PUSH1 0x44 DUP3 ADD MSTORE PUSH1 0x64 ADD PUSH2 0x85A JUMP JUMPDEST PUSH0 DUP3 DUP2 MSTORE PUSH1 0x8 PUSH1 0x20 SWAP1 DUP2 MSTORE PUSH1 0x40 SWAP2 DUP3 SWAP1 KECCAK256 PUSH1 0x4 ADD DUP1 SLOAD PUSH1 0xFF NOT AND DUP5 ISZERO ISZERO SWAP1 DUP2 OR SWAP1 SWAP2 SSTORE SWAP2 MLOAD SWAP2 DUP3 MSTORE DUP4 SWAP2 PUSH32 0x388370698EA03650624022E5F43E8CB1F902BA526EE8287FF865709BC3946437 SWAP2 ADD PUSH1 0x40 MLOAD DUP1 SWAP2 SUB SWAP1 LOG2 POP POP JUMP JUMPDEST PUSH1 0x1 PUSH1 0x1 PUSH1 0xA0 SHL SUB DUP3 AND PUSH2 0xA0E JUMPI PUSH1 0x40 MLOAD PUSH4 0x32505749 PUSH1 0xE1 SHL DUP2 MSTORE PUSH0 PUSH1 0x4 DUP3 ADD MSTORE PUSH1 0x24 ADD PUSH2 0x85A JUMP JUMPDEST PUSH0 PUSH2 0xA1A DUP4 DUP4 CALLER PUSH2 0x1561 JUMP JUMPDEST SWAP1 POP DUP4 PUSH1 0x1 PUSH1 0x1 PUSH1 0xA0 SHL SUB AND DUP2 PUSH1 0x1 PUSH1 0x1 PUSH1 0xA0 SHL SUB AND EQ PUSH2 0xA68 JUMPI PUSH1 0x40 MLOAD PUSH4 0x64283D7B PUSH1 0xE0 SHL DUP2 MSTORE PUSH1 0x1 PUSH1 0x1 PUSH1 0xA0 SHL SUB DUP1 DUP7 AND PUSH1 0x4 DUP4 ADD MSTORE PUSH1 0x24 DUP3 ADD DUP5 SWAP1 MSTORE DUP3 AND PUSH1 0x44 DUP3 ADD MSTORE PUSH1 0x64 ADD PUSH2 0x85A JUMP JUMPDEST POP POP POP POP JUMP JUMPDEST PUSH0 DUP3 DUP2 MSTORE PUSH1 0x6 PUSH1 0x20 MSTORE PUSH1 0x40 SWAP1 KECCAK256 PUSH1 0x1 ADD SLOAD PUSH2 0xA88 DUP2 PUSH2 0x14F6 JUMP JUMPDEST PUSH2 0xA68 DUP4 DUP4 PUSH2 0x1653 JUMP JUMPDEST PUSH1 0x1 PUSH1 0x1 PUSH1 0xA0 SHL SUB DUP2 AND CALLER EQ PUSH2 0xABB JUMPI PUSH1 0x40 MLOAD PUSH4 0x334BD919 PUSH1 0xE1 SHL DUP2 MSTORE PUSH1 0x4 ADD PUSH1 0x40 MLOAD DUP1 SWAP2 SUB SWAP1 REVERT JUMPDEST PUSH2 0xAC5 DUP3 DUP3 PUSH2 0x16E4 JUMP JUMPDEST POP POP POP JUMP JUMPDEST PUSH2 0xAC5 DUP4 DUP4 DUP4 PUSH1 0x40 MLOAD DUP1 PUSH1 0x20 ADD PUSH1 0x40 MSTORE DUP1 PUSH0 DUP2 MSTORE POP PUSH2 0xE27 JUMP JUMPDEST PUSH0 DUP2 DUP2 MSTORE PUSH1 0x9 PUSH1 0x20 MSTORE PUSH1 0x40 SWAP1 KECCAK256 PUSH1 0x2 DUP2 ADD SLOAD PUSH1 0x1 PUSH1 0xB8 SHL SWAP1 DIV PUSH1 0xFF AND PUSH2 0xB1C JUMPI PUSH1 0x40 MLOAD PUSH3 0x461BCD PUSH1 0xE5 SHL DUP2 MSTORE PUSH1 0x4 ADD PUSH2 0x85A SWAP1 PUSH2 0x26B1 JUMP JUMPDEST DUP1 SLOAD PUSH1 0x1 PUSH1 0x1 PUSH1 0xA0 SHL SUB AND CALLER EQ DUP1 PUSH2 0xB40 JUMPI POP PUSH1 0x1 DUP2 ADD SLOAD PUSH1 0x1 PUSH1 0x1 PUSH1 0xA0 SHL SUB AND CALLER EQ JUMPDEST PUSH2 0xB7D JUMPI PUSH1 0x40 MLOAD PUSH3 0x461BCD PUSH1 0xE5 SHL DUP2 MSTORE PUSH1 0x20 PUSH1 0x4 DUP3 ADD MSTORE PUSH1 0xE PUSH1 0x24 DUP3 ADD MSTORE PUSH14 0x139BDD08185D5D1A1BDC9A5E9959 PUSH1 0x92 SHL PUSH1 0x44 DUP3 ADD MSTORE PUSH1 0x64 ADD PUSH2 0x85A JUMP JUMPDEST PUSH1 0x2 ADD DUP1 SLOAD PUSH1 0xFF PUSH1 0xB8 SHL NOT AND SWAP1 SSTORE POP JUMP JUMPDEST PUSH0 PUSH2 0x5F1 DUP3 PUSH2 0x151C JUMP JUMPDEST PUSH0 PUSH1 0x1 PUSH1 0x1 PUSH1 0xA0 SHL SUB DUP3 AND PUSH2 0xBC2 JUMPI PUSH1 0x40 MLOAD PUSH4 0x22718AD9 PUSH1 0xE2 SHL DUP2 MSTORE PUSH0 PUSH1 0x4 DUP3 ADD MSTORE PUSH1 0x24 ADD PUSH2 0x85A JUMP JUMPDEST POP PUSH1 0x1 PUSH1 0x1 PUSH1 0xA0 SHL SUB AND PUSH0 SWAP1 DUP2 MSTORE PUSH1 0x3 PUSH1 0x20 MSTORE PUSH1 0x40 SWAP1 KECCAK256 SLOAD SWAP1 JUMP JUMPDEST CALLER PUSH2 0xBE7 DUP4 PUSH2 0xB8E JUMP JUMPDEST PUSH1 0x1 PUSH1 0x1 PUSH1 0xA0 SHL SUB AND EQ PUSH2 0xC2D JUMPI PUSH1 0x40 MLOAD PUSH3 0x461BCD PUSH1 0xE5 SHL DUP2 MSTORE PUSH1 0x20 PUSH1 0x4 DUP3 ADD MSTORE PUSH1 0xD PUSH1 0x24 DUP3 ADD MSTORE PUSH13 0x2737BA103A34329037BBB732B9 PUSH1 0x99 SHL PUSH1 0x44 DUP3 ADD MSTORE PUSH1 0x64 ADD PUSH2 0x85A JUMP JUMPDEST PUSH0 DUP3 DUP2 MSTORE PUSH1 0x8 PUSH1 0x20 MSTORE PUSH1 0x40 SWAP1 KECCAK256 PUSH1 0x4 ADD SLOAD PUSH1 0xFF AND ISZERO PUSH2 0xC5E JUMPI PUSH1 0x40 MLOAD PUSH3 0x461BCD PUSH1 0xE5 SHL DUP2 MSTORE PUSH1 0x4 ADD PUSH2 0x85A SWAP1 PUSH2 0x26DD JUMP JUMPDEST PUSH0 DUP3 DUP2 MSTORE PUSH1 0x9 PUSH1 0x20 MSTORE PUSH1 0x40 SWAP1 KECCAK256 PUSH1 0x2 ADD SLOAD PUSH1 0x1 PUSH1 0xB8 SHL SWAP1 DIV PUSH1 0xFF AND ISZERO PUSH2 0xCBF JUMPI PUSH1 0x40 MLOAD PUSH3 0x461BCD PUSH1 0xE5 SHL DUP2 MSTORE PUSH1 0x20 PUSH1 0x4 DUP3 ADD MSTORE PUSH1 0x16 PUSH1 0x24 DUP3 ADD MSTORE PUSH22 0x416374697665207472616E7366657220657869737473 PUSH1 0x50 SHL PUSH1 0x44 DUP3 ADD MSTORE PUSH1 0x64 ADD PUSH2 0x85A JUMP JUMPDEST PUSH1 0x40 DUP1 MLOAD PUSH1 0xE0 DUP2 ADD DUP3 MSTORE CALLER DUP1 DUP3 MSTORE PUSH1 0x1 PUSH1 0x1 PUSH1 0xA0 SHL SUB DUP5 DUP2 AND PUSH1 0x20 DUP1 DUP6 ADD DUP3 DUP2 MSTORE PUSH0 DUP7 DUP9 ADD DUP2 DUP2 MSTORE PUSH1 0x1 PUSH1 0x60 DUP10 ADD DUP2 DUP2 MSTORE PUSH1 0x80 DUP11 ADD DUP5 DUP2 MSTORE PUSH1 0xA0 DUP12 ADD DUP6 DUP2 MSTORE PUSH1 0xC0 DUP13 ADD DUP5 DUP2 MSTORE DUP16 DUP8 MSTORE PUSH1 0x9 SWAP1 SWAP9 MSTORE DUP13 DUP7 KECCAK256 SWAP12 MLOAD DUP13 SLOAD SWAP1 DUP12 AND PUSH1 0x1 PUSH1 0x1 PUSH1 0xA0 SHL SUB NOT SWAP2 DUP3 AND OR DUP14 SSTORE SWAP7 MLOAD SWAP4 DUP13 ADD DUP1 SLOAD SWAP5 DUP12 AND SWAP5 SWAP1 SWAP8 AND SWAP4 SWAP1 SWAP4 OR SWAP1 SWAP6 SSTORE SWAP2 MLOAD PUSH1 0x2 SWAP1 SWAP10 ADD DUP1 SLOAD SWAP3 MLOAD SWAP5 MLOAD SWAP2 MLOAD SWAP6 MLOAD ISZERO ISZERO PUSH1 0x1 PUSH1 0xB8 SHL MUL PUSH1 0xFF PUSH1 0xB8 SHL NOT SWAP7 ISZERO ISZERO PUSH1 0x1 PUSH1 0xB0 SHL MUL PUSH1 0xFF PUSH1 0xB0 SHL NOT SWAP4 ISZERO ISZERO PUSH1 0x1 PUSH1 0xA8 SHL MUL SWAP4 SWAP1 SWAP4 AND PUSH2 0xFFFF PUSH1 0xA8 SHL NOT SWAP7 ISZERO ISZERO PUSH1 0x1 PUSH1 0xA0 SHL MUL PUSH1 0x1 PUSH1 0x1 PUSH1 0xA8 SHL SUB NOT SWAP1 SWAP6 AND SWAP12 SWAP1 SWAP10 AND SWAP11 SWAP1 SWAP11 OR SWAP3 SWAP1 SWAP3 OR SWAP4 SWAP1 SWAP4 AND SWAP6 SWAP1 SWAP6 OR SWAP2 SWAP1 SWAP2 OR SWAP2 SWAP1 SWAP2 AND SWAP5 SWAP1 SWAP5 OR SWAP1 SWAP2 SSTORE SWAP3 MLOAD SWAP1 SWAP2 DUP6 SWAP2 PUSH32 0xC1D91EF3905E00972BEBBB95768BC866BDC68D24A68DDE011EFAA8A39C879D5D SWAP2 SWAP1 LOG4 POP POP JUMP JUMPDEST PUSH0 SWAP2 DUP3 MSTORE PUSH1 0x6 PUSH1 0x20 SWAP1 DUP2 MSTORE PUSH1 0x40 DUP1 DUP5 KECCAK256 PUSH1 0x1 PUSH1 0x1 PUSH1 0xA0 SHL SUB SWAP4 SWAP1 SWAP4 AND DUP5 MSTORE SWAP2 SWAP1 MSTORE SWAP1 KECCAK256 SLOAD PUSH1 0xFF AND SWAP1 JUMP JUMPDEST PUSH1 0x60 PUSH1 0x1 DUP1 SLOAD PUSH2 0x605 SWAP1 PUSH2 0x2555 JUMP JUMPDEST PUSH2 0x81E CALLER DUP4 DUP4 PUSH2 0x174F JUMP JUMPDEST PUSH2 0xE32 DUP5 DUP5 DUP5 PUSH2 0x9E5 JUMP JUMPDEST PUSH2 0xA68 CALLER DUP6 DUP6 DUP6 DUP6 PUSH2 0x1816 JUMP JUMPDEST PUSH1 0x60 PUSH2 0xE4A DUP3 PUSH2 0x151C JUMP JUMPDEST POP PUSH0 PUSH2 0xE60 PUSH1 0x40 DUP1 MLOAD PUSH1 0x20 DUP2 ADD SWAP1 SWAP2 MSTORE PUSH0 DUP2 MSTORE SWAP1 JUMP JUMPDEST SWAP1 POP PUSH0 DUP2 MLOAD GT PUSH2 0xE7E JUMPI PUSH1 0x40 MLOAD DUP1 PUSH1 0x20 ADD PUSH1 0x40 MSTORE DUP1 PUSH0 DUP2 MSTORE POP PUSH2 0xEA9 JUMP JUMPDEST DUP1 PUSH2 0xE88 DUP5 PUSH2 0x193E JUMP JUMPDEST PUSH1 0x40 MLOAD PUSH1 0x20 ADD PUSH2 0xE99 SWAP3 SWAP2 SWAP1 PUSH2 0x2709 JUMP JUMPDEST PUSH1 0x40 MLOAD PUSH1 0x20 DUP2 DUP4 SUB SUB DUP2 MSTORE SWAP1 PUSH1 0x40 MSTORE JUMPDEST SWAP4 SWAP3 POP POP POP JUMP JUMPDEST PUSH32 0x4E19BE690C034B73B896A80E4645324B1ADA2A2D102CF965CD497DD07F3A1950 PUSH2 0xEDA DUP2 PUSH2 0x14F6 JUMP JUMPDEST PUSH0 DUP4 DUP2 MSTORE PUSH1 0x9 PUSH1 0x20 MSTORE PUSH1 0x40 SWAP1 KECCAK256 PUSH1 0x2 DUP2 ADD SLOAD PUSH1 0x1 PUSH1 0xB8 SHL SWAP1 DIV PUSH1 0xFF AND PUSH2 0xF12 JUMPI PUSH1 0x40 MLOAD PUSH3 0x461BCD PUSH1 0xE5 SHL DUP2 MSTORE PUSH1 0x4 ADD PUSH2 0x85A SWAP1 PUSH2 0x26B1 JUMP JUMPDEST PUSH1 0x2 DUP2 ADD SLOAD PUSH1 0x1 PUSH1 0xA0 SHL SWAP1 DIV PUSH1 0xFF AND DUP1 ISZERO PUSH2 0xF38 JUMPI POP PUSH1 0x2 DUP2 ADD SLOAD PUSH1 0x1 PUSH1 0xA8 SHL SWAP1 DIV PUSH1 0xFF AND JUMPDEST PUSH2 0xF84 JUMPI PUSH1 0x40 MLOAD PUSH3 0x461BCD PUSH1 0xE5 SHL DUP2 MSTORE PUSH1 0x20 PUSH1 0x4 DUP3 ADD MSTORE PUSH1 0x1F PUSH1 0x24 DUP3 ADD MSTORE PUSH32 0x53656C6C6572206F72206275796572206861736E277420617070726F76656400 PUSH1 0x44 DUP3 ADD MSTORE PUSH1 0x64 ADD PUSH2 0x85A JUMP JUMPDEST PUSH0 DUP5 DUP2 MSTORE PUSH1 0x8 PUSH1 0x20 MSTORE PUSH1 0x40 SWAP1 KECCAK256 PUSH1 0x4 ADD SLOAD PUSH1 0xFF AND ISZERO PUSH2 0xFB5 JUMPI PUSH1 0x40 MLOAD PUSH3 0x461BCD PUSH1 0xE5 SHL DUP2 MSTORE PUSH1 0x4 ADD PUSH2 0x85A SWAP1 PUSH2 0x26DD JUMP JUMPDEST PUSH1 0x2 DUP2 ADD DUP1 SLOAD PUSH1 0xFF PUSH1 0xB0 SHL NOT CALLER AND PUSH1 0x1 PUSH3 0xFF0001 PUSH1 0xA0 SHL SUB NOT SWAP1 SWAP2 AND OR PUSH1 0x1 PUSH1 0xB0 SHL OR SWAP1 SSTORE PUSH0 DUP5 DUP2 MSTORE PUSH1 0x8 PUSH1 0x20 SWAP1 DUP2 MSTORE PUSH1 0x40 DUP3 KECCAK256 PUSH1 0x3 ADD DUP1 SLOAD PUSH1 0x1 DUP2 ADD DUP3 SSTORE SWAP1 DUP4 MSTORE SWAP2 KECCAK256 ADD PUSH2 0x1004 DUP5 DUP3 PUSH2 0x25F5 JUMP JUMPDEST POP CALLER PUSH1 0x1 PUSH1 0x1 PUSH1 0xA0 SHL SUB AND DUP5 PUSH32 0xBB079A066630CAB8761841CB47C7C4C785FB83CD31F23BAF8E0C3FD317D9E524 DUP6 PUSH1 0x40 MLOAD PUSH2 0x103F SWAP2 SWAP1 PUSH2 0x2014 JUMP JUMPDEST PUSH1 0x40 MLOAD DUP1 SWAP2 SUB SWAP1 LOG3 PUSH2 0xA68 DUP5 PUSH2 0x19CE JUMP JUMPDEST PUSH1 0xA PUSH1 0x20 MSTORE DUP2 PUSH0 MSTORE PUSH1 0x40 PUSH0 KECCAK256 DUP2 DUP2 SLOAD DUP2 LT PUSH2 0x1069 JUMPI PUSH0 DUP1 REVERT JUMPDEST PUSH0 SWAP2 DUP3 MSTORE PUSH1 0x20 SWAP1 SWAP2 KECCAK256 ADD SLOAD PUSH1 0x1 PUSH1 0x1 PUSH1 0xA0 SHL SUB AND SWAP2 POP DUP3 SWAP1 POP JUMP JUMPDEST PUSH0 DUP3 DUP2 MSTORE PUSH1 0x6 PUSH1 0x20 MSTORE PUSH1 0x40 SWAP1 KECCAK256 PUSH1 0x1 ADD SLOAD PUSH2 0x109E DUP2 PUSH2 0x14F6 JUMP JUMPDEST PUSH2 0xA68 DUP4 DUP4 PUSH2 0x16E4 JUMP JUMPDEST PUSH1 0x8 PUSH1 0x20 MSTORE PUSH0 SWAP1 DUP2 MSTORE PUSH1 0x40 SWAP1 KECCAK256 DUP1 SLOAD DUP2 SWAP1 PUSH2 0x10C2 SWAP1 PUSH2 0x2555 JUMP JUMPDEST DUP1 PUSH1 0x1F ADD PUSH1 0x20 DUP1 SWAP2 DIV MUL PUSH1 0x20 ADD PUSH1 0x40 MLOAD SWAP1 DUP2 ADD PUSH1 0x40 MSTORE DUP1 SWAP3 SWAP2 SWAP1 DUP2 DUP2 MSTORE PUSH1 0x20 ADD DUP3 DUP1 SLOAD PUSH2 0x10EE SWAP1 PUSH2 0x2555 JUMP JUMPDEST DUP1 ISZERO PUSH2 0x1139 JUMPI DUP1 PUSH1 0x1F LT PUSH2 0x1110 JUMPI PUSH2 0x100 DUP1 DUP4 SLOAD DIV MUL DUP4 MSTORE SWAP2 PUSH1 0x20 ADD SWAP2 PUSH2 0x1139 JUMP JUMPDEST DUP3 ADD SWAP2 SWAP1 PUSH0 MSTORE PUSH1 0x20 PUSH0 KECCAK256 SWAP1 JUMPDEST DUP2 SLOAD DUP2 MSTORE SWAP1 PUSH1 0x1 ADD SWAP1 PUSH1 0x20 ADD DUP1 DUP4 GT PUSH2 0x111C JUMPI DUP3 SWAP1 SUB PUSH1 0x1F AND DUP3 ADD SWAP2 JUMPDEST POP POP POP POP POP SWAP1 DUP1 PUSH1 0x1 ADD SLOAD SWAP1 DUP1 PUSH1 0x2 ADD DUP1 SLOAD PUSH2 0x1154 SWAP1 PUSH2 0x2555 JUMP JUMPDEST DUP1 PUSH1 0x1F ADD PUSH1 0x20 DUP1 SWAP2 DIV MUL PUSH1 0x20 ADD PUSH1 0x40 MLOAD SWAP1 DUP2 ADD PUSH1 0x40 MSTORE DUP1 SWAP3 SWAP2 SWAP1 DUP2 DUP2 MSTORE PUSH1 0x20 ADD DUP3 DUP1 SLOAD PUSH2 0x1180 SWAP1 PUSH2 0x2555 JUMP JUMPDEST DUP1 ISZERO PUSH2 0x11CB JUMPI DUP1 PUSH1 0x1F LT PUSH2 0x11A2 JUMPI PUSH2 0x100 DUP1 DUP4 SLOAD DIV MUL DUP4 MSTORE SWAP2 PUSH1 0x20 ADD SWAP2 PUSH2 0x11CB JUMP JUMPDEST DUP3 ADD SWAP2 SWAP1 PUSH0 MSTORE PUSH1 0x20 PUSH0 KECCAK256 SWAP1 JUMPDEST DUP2 SLOAD DUP2 MSTORE SWAP1 PUSH1 0x1 ADD SWAP1 PUSH1 0x20 ADD DUP1 DUP4 GT PUSH2 0x11AE JUMPI DUP3 SWAP1 SUB PUSH1 0x1F AND DUP3 ADD SWAP2 JUMPDEST POP POP POP PUSH1 0x4 SWAP1 SWAP4 ADD SLOAD SWAP2 SWAP3 POP POP PUSH1 0xFF AND DUP5 JUMP JUMPDEST PUSH1 0x1 PUSH1 0x1 PUSH1 0xA0 SHL SUB SWAP2 DUP3 AND PUSH0 SWAP1 DUP2 MSTORE PUSH1 0x5 PUSH1 0x20 SWAP1 DUP2 MSTORE PUSH1 0x40 DUP1 DUP4 KECCAK256 SWAP4 SWAP1 SWAP5 AND DUP3 MSTORE SWAP2 SWAP1 SWAP2 MSTORE KECCAK256 SLOAD PUSH1 0xFF AND SWAP1 JUMP JUMPDEST PUSH0 DUP2 DUP2 MSTORE PUSH1 0xA PUSH1 0x20 SWAP1 DUP2 MSTORE PUSH1 0x40 SWAP2 DUP3 SWAP1 KECCAK256 DUP1 SLOAD DUP4 MLOAD DUP2 DUP5 MUL DUP2 ADD DUP5 ADD SWAP1 SWAP5 MSTORE DUP1 DUP5 MSTORE PUSH1 0x60 SWAP4 SWAP3 DUP4 ADD DUP3 DUP3 DUP1 ISZERO PUSH2 0x1268 JUMPI PUSH1 0x20 MUL DUP3 ADD SWAP2 SWAP1 PUSH0 MSTORE PUSH1 0x20 PUSH0 KECCAK256 SWAP1 JUMPDEST DUP2 SLOAD PUSH1 0x1 PUSH1 0x1 PUSH1 0xA0 SHL SUB AND DUP2 MSTORE PUSH1 0x1 SWAP1 SWAP2 ADD SWAP1 PUSH1 0x20 ADD DUP1 DUP4 GT PUSH2 0x124A JUMPI JUMPDEST POP POP POP POP POP SWAP1 POP SWAP2 SWAP1 POP JUMP JUMPDEST PUSH2 0x12A6 PUSH1 0x40 MLOAD DUP1 PUSH1 0xA0 ADD PUSH1 0x40 MSTORE DUP1 PUSH1 0x60 DUP2 MSTORE PUSH1 0x20 ADD PUSH0 DUP2 MSTORE PUSH1 0x20 ADD PUSH1 0x60 DUP2 MSTORE PUSH1 0x20 ADD PUSH1 0x60 DUP2 MSTORE PUSH1 0x20 ADD PUSH0 ISZERO ISZERO DUP2 MSTORE POP SWAP1 JUMP JUMPDEST PUSH0 DUP3 DUP2 MSTORE PUSH1 0x8 PUSH1 0x20 MSTORE PUSH1 0x40 SWAP1 DUP2 SWAP1 KECCAK256 DUP2 MLOAD PUSH1 0xA0 DUP2 ADD SWAP1 SWAP3 MSTORE DUP1 SLOAD DUP3 SWAP1 DUP3 SWAP1 PUSH2 0x12CD SWAP1 PUSH2 0x2555 JUMP JUMPDEST DUP1 PUSH1 0x1F ADD PUSH1 0x20 DUP1 SWAP2 DIV MUL PUSH1 0x20 ADD PUSH1 0x40 MLOAD SWAP1 DUP2 ADD PUSH1 0x40 MSTORE DUP1 SWAP3 SWAP2 SWAP1 DUP2 DUP2 MSTORE PUSH1 0x20 ADD DUP3 DUP1 SLOAD PUSH2 0x12F9 SWAP1 PUSH2 0x2555 JUMP JUMPDEST DUP1 ISZERO PUSH2 0x1344 JUMPI DUP1 PUSH1 0x1F LT PUSH2 0x131B JUMPI PUSH2 0x100 DUP1 DUP4 SLOAD DIV MUL DUP4 MSTORE SWAP2 PUSH1 0x20 ADD SWAP2 PUSH2 0x1344 JUMP JUMPDEST DUP3 ADD SWAP2 SWAP1 PUSH0 MSTORE PUSH1 0x20 PUSH0 KECCAK256 SWAP1 JUMPDEST DUP2 SLOAD DUP2 MSTORE SWAP1 PUSH1 0x1 ADD SWAP1 PUSH1 0x20 ADD DUP1 DUP4 GT PUSH2 0x1327 JUMPI DUP3 SWAP1 SUB PUSH1 0x1F AND DUP3 ADD SWAP2 JUMPDEST POP POP POP POP POP DUP2 MSTORE PUSH1 0x20 ADD PUSH1 0x1 DUP3 ADD SLOAD DUP2 MSTORE PUSH1 0x20 ADD PUSH1 0x2 DUP3 ADD DUP1 SLOAD PUSH2 0x1367 SWAP1 PUSH2 0x2555 JUMP JUMPDEST DUP1 PUSH1 0x1F ADD PUSH1 0x20 DUP1 SWAP2 DIV MUL PUSH1 0x20 ADD PUSH1 0x40 MLOAD SWAP1 DUP2 ADD PUSH1 0x40 MSTORE DUP1 SWAP3 SWAP2 SWAP1 DUP2 DUP2 MSTORE PUSH1 0x20 ADD DUP3 DUP1 SLOAD PUSH2 0x1393 SWAP1 PUSH2 0x2555 JUMP JUMPDEST DUP1 ISZERO PUSH2 0x13DE JUMPI DUP1 PUSH1 0x1F LT PUSH2 0x13B5 JUMPI PUSH2 0x100 DUP1 DUP4 SLOAD DIV MUL DUP4 MSTORE SWAP2 PUSH1 0x20 ADD SWAP2 PUSH2 0x13DE JUMP JUMPDEST DUP3 ADD SWAP2 SWAP1 PUSH0 MSTORE PUSH1 0x20 PUSH0 KECCAK256 SWAP1 JUMPDEST DUP2 SLOAD DUP2 MSTORE SWAP1 PUSH1 0x1 ADD SWAP1 PUSH1 0x20 ADD DUP1 DUP4 GT PUSH2 0x13C1 JUMPI DUP3 SWAP1 SUB PUSH1 0x1F AND DUP3 ADD SWAP2 JUMPDEST POP POP POP POP POP DUP2 MSTORE PUSH1 0x20 ADD PUSH1 0x3 DUP3 ADD DUP1 SLOAD DUP1 PUSH1 0x20 MUL PUSH1 0x20 ADD PUSH1 0x40 MLOAD SWAP1 DUP2 ADD PUSH1 0x40 MSTORE DUP1 SWAP3 SWAP2 SWAP1 DUP2 DUP2 MSTORE PUSH1 0x20 ADD PUSH0 SWAP1 JUMPDEST DUP3 DUP3 LT ISZERO PUSH2 0x14B3 JUMPI DUP4 DUP3 SWAP1 PUSH0 MSTORE PUSH1 0x20 PUSH0 KECCAK256 ADD DUP1 SLOAD PUSH2 0x1428 SWAP1 PUSH2 0x2555 JUMP JUMPDEST DUP1 PUSH1 0x1F ADD PUSH1 0x20 DUP1 SWAP2 DIV MUL PUSH1 0x20 ADD PUSH1 0x40 MLOAD SWAP1 DUP2 ADD PUSH1 0x40 MSTORE DUP1 SWAP3 SWAP2 SWAP1 DUP2 DUP2 MSTORE PUSH1 0x20 ADD DUP3 DUP1 SLOAD PUSH2 0x1454 SWAP1 PUSH2 0x2555 JUMP JUMPDEST DUP1 ISZERO PUSH2 0x149F JUMPI DUP1 PUSH1 0x1F LT PUSH2 0x1476 JUMPI PUSH2 0x100 DUP1 DUP4 SLOAD DIV MUL DUP4 MSTORE SWAP2 PUSH1 0x20 ADD SWAP2 PUSH2 0x149F JUMP JUMPDEST DUP3 ADD SWAP2 SWAP1 PUSH0 MSTORE PUSH1 0x20 PUSH0 KECCAK256 SWAP1 JUMPDEST DUP2 SLOAD DUP2 MSTORE SWAP1 PUSH1 0x1 ADD SWAP1 PUSH1 0x20 ADD DUP1 DUP4 GT PUSH2 0x1482 JUMPI DUP3 SWAP1 SUB PUSH1 0x1F AND DUP3 ADD SWAP2 JUMPDEST POP POP POP POP POP DUP2 MSTORE PUSH1 0x20 ADD SWAP1 PUSH1 0x1 ADD SWAP1 PUSH2 0x140B JUMP JUMPDEST POP POP POP SWAP1 DUP3 MSTORE POP PUSH1 0x4 SWAP2 SWAP1 SWAP2 ADD SLOAD PUSH1 0xFF AND ISZERO ISZERO PUSH1 0x20 SWAP1 SWAP2 ADD MSTORE SWAP3 SWAP2 POP POP JUMP JUMPDEST PUSH0 PUSH1 0x1 PUSH1 0x1 PUSH1 0xE0 SHL SUB NOT DUP3 AND PUSH4 0x7965DB0B PUSH1 0xE0 SHL EQ DUP1 PUSH2 0x5F1 JUMPI POP PUSH2 0x5F1 DUP3 PUSH2 0x1A7A JUMP JUMPDEST PUSH2 0x1500 DUP2 CALLER PUSH2 0x1AC9 JUMP JUMPDEST POP JUMP JUMPDEST PUSH2 0x81E DUP3 DUP3 PUSH1 0x40 MLOAD DUP1 PUSH1 0x20 ADD PUSH1 0x40 MSTORE DUP1 PUSH0 DUP2 MSTORE POP PUSH2 0x1B02 JUMP JUMPDEST PUSH0 DUP2 DUP2 MSTORE PUSH1 0x2 PUSH1 0x20 MSTORE PUSH1 0x40 DUP2 KECCAK256 SLOAD PUSH1 0x1 PUSH1 0x1 PUSH1 0xA0 SHL SUB AND DUP1 PUSH2 0x5F1 JUMPI PUSH1 0x40 MLOAD PUSH4 0x7E273289 PUSH1 0xE0 SHL DUP2 MSTORE PUSH1 0x4 DUP2 ADD DUP5 SWAP1 MSTORE PUSH1 0x24 ADD PUSH2 0x85A JUMP JUMPDEST PUSH2 0xAC5 DUP4 DUP4 DUP4 PUSH1 0x1 PUSH2 0x1B19 JUMP JUMPDEST PUSH0 DUP3 DUP2 MSTORE PUSH1 0x2 PUSH1 0x20 MSTORE PUSH1 0x40 DUP2 KECCAK256 SLOAD PUSH1 0x1 PUSH1 0x1 PUSH1 0xA0 SHL SUB SWAP1 DUP2 AND SWAP1 DUP4 AND ISZERO PUSH2 0x158D JUMPI PUSH2 0x158D DUP2 DUP5 DUP7 PUSH2 0x1C1D JUMP JUMPDEST PUSH1 0x1 PUSH1 0x1 PUSH1 0xA0 SHL SUB DUP2 AND ISZERO PUSH2 0x15C7 JUMPI PUSH2 0x15A8 PUSH0 DUP6 PUSH0 DUP1 PUSH2 0x1B19 JUMP JUMPDEST PUSH1 0x1 PUSH1 0x1 PUSH1 0xA0 SHL SUB DUP2 AND PUSH0 SWAP1 DUP2 MSTORE PUSH1 0x3 PUSH1 0x20 MSTORE PUSH1 0x40 SWAP1 KECCAK256 DUP1 SLOAD PUSH0 NOT ADD SWAP1 SSTORE JUMPDEST PUSH1 0x1 PUSH1 0x1 PUSH1 0xA0 SHL SUB DUP6 AND ISZERO PUSH2 0x15F5 JUMPI PUSH1 0x1 PUSH1 0x1 PUSH1 0xA0 SHL SUB DUP6 AND PUSH0 SWAP1 DUP2 MSTORE PUSH1 0x3 PUSH1 0x20 MSTORE PUSH1 0x40 SWAP1 KECCAK256 DUP1 SLOAD PUSH1 0x1 ADD SWAP1 SSTORE JUMPDEST PUSH0 DUP5 DUP2 MSTORE PUSH1 0x2 PUSH1 0x20 MSTORE PUSH1 0x40 DUP1 DUP3 KECCAK256 DUP1 SLOAD PUSH1 0x1 PUSH1 0x1 PUSH1 0xA0 SHL SUB NOT AND PUSH1 0x1 PUSH1 0x1 PUSH1 0xA0 SHL SUB DUP10 DUP2 AND SWAP2 DUP3 OR SWAP1 SWAP3 SSTORE SWAP2 MLOAD DUP8 SWAP4 SWAP2 DUP6 AND SWAP2 PUSH32 0xDDF252AD1BE2C89B69C2B068FC378DAA952BA7F163C4A11628F55A4DF523B3EF SWAP2 LOG4 SWAP5 SWAP4 POP POP POP POP JUMP JUMPDEST PUSH0 PUSH2 0x165E DUP4 DUP4 PUSH2 0xDE3 JUMP JUMPDEST PUSH2 0x16DD JUMPI PUSH0 DUP4 DUP2 MSTORE PUSH1 0x6 PUSH1 0x20 SWAP1 DUP2 MSTORE PUSH1 0x40 DUP1 DUP4 KECCAK256 PUSH1 0x1 PUSH1 0x1 PUSH1 0xA0 SHL SUB DUP7 AND DUP5 MSTORE SWAP1 SWAP2 MSTORE SWAP1 KECCAK256 DUP1 SLOAD PUSH1 0xFF NOT AND PUSH1 0x1 OR SWAP1 SSTORE PUSH2 0x1695 CALLER SWAP1 JUMP JUMPDEST PUSH1 0x1 PUSH1 0x1 PUSH1 0xA0 SHL SUB AND DUP3 PUSH1 0x1 PUSH1 0x1 PUSH1 0xA0 SHL SUB AND DUP5 PUSH32 0x2F8788117E7EFF1D82E926EC794901D17C78024A50270940304540A733656F0D PUSH1 0x40 MLOAD PUSH1 0x40 MLOAD DUP1 SWAP2 SUB SWAP1 LOG4 POP PUSH1 0x1 PUSH2 0x5F1 JUMP JUMPDEST POP PUSH0 PUSH2 0x5F1 JUMP JUMPDEST PUSH0 PUSH2 0x16EF DUP4 DUP4 PUSH2 0xDE3 JUMP JUMPDEST ISZERO PUSH2 0x16DD JUMPI PUSH0 DUP4 DUP2 MSTORE PUSH1 0x6 PUSH1 0x20 SWAP1 DUP2 MSTORE PUSH1 0x40 DUP1 DUP4 KECCAK256 PUSH1 0x1 PUSH1 0x1 PUSH1 0xA0 SHL SUB DUP7 AND DUP1 DUP6 MSTORE SWAP3 MSTORE DUP1 DUP4 KECCAK256 DUP1 SLOAD PUSH1 0xFF NOT AND SWAP1 SSTORE MLOAD CALLER SWAP3 DUP7 SWAP2 PUSH32 0xF6391F5C32D9C69D2A47EA670B442974B53935D1EDC7FD64EB21E047A839171B SWAP2 SWAP1 LOG4 POP PUSH1 0x1 PUSH2 0x5F1 JUMP JUMPDEST PUSH1 0x1 PUSH1 0x1 PUSH1 0xA0 SHL SUB DUP4 AND PUSH2 0x1778 JUMPI PUSH1 0x40 MLOAD PUSH4 0xA9FBF51F PUSH1 0xE0 SHL DUP2 MSTORE PUSH0 PUSH1 0x4 DUP3 ADD MSTORE PUSH1 0x24 ADD PUSH2 0x85A JUMP JUMPDEST PUSH1 0x1 PUSH1 0x1 PUSH1 0xA0 SHL SUB DUP3 AND PUSH2 0x17AA JUMPI PUSH1 0x40 MLOAD PUSH4 0xB611743 PUSH1 0xE3 SHL DUP2 MSTORE PUSH1 0x1 PUSH1 0x1 PUSH1 0xA0 SHL SUB DUP4 AND PUSH1 0x4 DUP3 ADD MSTORE PUSH1 0x24 ADD PUSH2 0x85A JUMP JUMPDEST PUSH1 0x1 PUSH1 0x1 PUSH1 0xA0 SHL SUB DUP4 DUP2 AND PUSH0 DUP2 DUP2 MSTORE PUSH1 0x5 PUSH1 0x20 SWAP1 DUP2 MSTORE PUSH1 0x40 DUP1 DUP4 KECCAK256 SWAP5 DUP8 AND DUP1 DUP5 MSTORE SWAP5 DUP3 MSTORE SWAP2 DUP3 SWAP1 KECCAK256 DUP1 SLOAD PUSH1 0xFF NOT AND DUP7 ISZERO ISZERO SWAP1 DUP2 OR SWAP1 SWAP2 SSTORE SWAP2 MLOAD SWAP2 DUP3 MSTORE PUSH32 0x17307EAB39AB6107E8899845AD3D59BD9653F200F220920489CA2B5937696C31 SWAP2 ADD PUSH1 0x40 MLOAD DUP1 SWAP2 SUB SWAP1 LOG3 POP POP POP JUMP JUMPDEST PUSH1 0x1 PUSH1 0x1 PUSH1 0xA0 SHL SUB DUP4 AND EXTCODESIZE ISZERO PUSH2 0x1937 JUMPI PUSH1 0x40 MLOAD PUSH4 0xA85BD01 PUSH1 0xE1 SHL DUP2 MSTORE PUSH1 0x1 PUSH1 0x1 PUSH1 0xA0 SHL SUB DUP5 AND SWAP1 PUSH4 0x150B7A02 SWAP1 PUSH2 0x1858 SWAP1 DUP9 SWAP1 DUP9 SWAP1 DUP8 SWAP1 DUP8 SWAP1 PUSH1 0x4 ADD PUSH2 0x2737 JUMP JUMPDEST PUSH1 0x20 PUSH1 0x40 MLOAD DUP1 DUP4 SUB DUP2 PUSH0 DUP8 GAS CALL SWAP3 POP POP POP DUP1 ISZERO PUSH2 0x1892 JUMPI POP PUSH1 0x40 DUP1 MLOAD PUSH1 0x1F RETURNDATASIZE SWAP1 DUP2 ADD PUSH1 0x1F NOT AND DUP3 ADD SWAP1 SWAP3 MSTORE PUSH2 0x188F SWAP2 DUP2 ADD SWAP1 PUSH2 0x2773 JUMP JUMPDEST PUSH1 0x1 JUMPDEST PUSH2 0x18F9 JUMPI RETURNDATASIZE DUP1 DUP1 ISZERO PUSH2 0x18BF JUMPI PUSH1 0x40 MLOAD SWAP2 POP PUSH1 0x1F NOT PUSH1 0x3F RETURNDATASIZE ADD AND DUP3 ADD PUSH1 0x40 MSTORE RETURNDATASIZE DUP3 MSTORE RETURNDATASIZE PUSH0 PUSH1 0x20 DUP5 ADD RETURNDATACOPY PUSH2 0x18C4 JUMP JUMPDEST PUSH1 0x60 SWAP2 POP JUMPDEST POP DUP1 MLOAD PUSH0 SUB PUSH2 0x18F1 JUMPI PUSH1 0x40 MLOAD PUSH4 0x32505749 PUSH1 0xE1 SHL DUP2 MSTORE PUSH1 0x1 PUSH1 0x1 PUSH1 0xA0 SHL SUB DUP6 AND PUSH1 0x4 DUP3 ADD MSTORE PUSH1 0x24 ADD PUSH2 0x85A JUMP JUMPDEST DUP1 MLOAD PUSH1 0x20 DUP3 ADD REVERT JUMPDEST PUSH1 0x1 PUSH1 0x1 PUSH1 0xE0 SHL SUB NOT DUP2 AND PUSH4 0xA85BD01 PUSH1 0xE1 SHL EQ PUSH2 0x1935 JUMPI PUSH1 0x40 MLOAD PUSH4 0x32505749 PUSH1 0xE1 SHL DUP2 MSTORE PUSH1 0x1 PUSH1 0x1 PUSH1 0xA0 SHL SUB DUP6 AND PUSH1 0x4 DUP3 ADD MSTORE PUSH1 0x24 ADD PUSH2 0x85A JUMP JUMPDEST POP JUMPDEST POP POP POP POP POP JUMP JUMPDEST PUSH1 0x60 PUSH0 PUSH2 0x194A DUP4 PUSH2 0x1C81 JUMP JUMPDEST PUSH1 0x1 ADD SWAP1 POP PUSH0 DUP2 PUSH8 0xFFFFFFFFFFFFFFFF DUP2 GT ISZERO PUSH2 0x1969 JUMPI PUSH2 0x1969 PUSH2 0x2041 JUMP JUMPDEST PUSH1 0x40 MLOAD SWAP1 DUP1 DUP3 MSTORE DUP1 PUSH1 0x1F ADD PUSH1 0x1F NOT AND PUSH1 0x20 ADD DUP3 ADD PUSH1 0x40 MSTORE DUP1 ISZERO PUSH2 0x1993 JUMPI PUSH1 0x20 DUP3 ADD DUP2 DUP1 CALLDATASIZE DUP4 CALLDATACOPY ADD SWAP1 POP JUMPDEST POP SWAP1 POP DUP2 DUP2 ADD PUSH1 0x20 ADD JUMPDEST PUSH0 NOT ADD PUSH16 0x181899199A1A9B1B9C1CB0B131B232B3 PUSH1 0x81 SHL PUSH1 0xA DUP7 MOD BYTE DUP2 MSTORE8 PUSH1 0xA DUP6 DIV SWAP5 POP DUP5 PUSH2 0x199D JUMPI POP SWAP4 SWAP3 POP POP POP JUMP JUMPDEST PUSH0 DUP2 DUP2 MSTORE PUSH1 0x9 PUSH1 0x20 MSTORE PUSH1 0x40 SWAP1 KECCAK256 DUP1 SLOAD PUSH1 0x1 DUP3 ADD SLOAD PUSH1 0x2 DUP4 ADD DUP1 SLOAD PUSH1 0xFF PUSH1 0xB8 SHL NOT AND SWAP1 SSTORE PUSH1 0x1 PUSH1 0x1 PUSH1 0xA0 SHL SUB SWAP2 DUP3 AND SWAP2 AND PUSH2 0x1A09 DUP3 DUP3 DUP7 PUSH2 0x1D58 JUMP JUMPDEST PUSH0 DUP5 DUP2 MSTORE PUSH1 0xA PUSH1 0x20 SWAP1 DUP2 MSTORE PUSH1 0x40 DUP1 DUP4 KECCAK256 DUP1 SLOAD PUSH1 0x1 DUP2 ADD DUP3 SSTORE SWAP1 DUP5 MSTORE SWAP2 DUP4 KECCAK256 SWAP1 SWAP2 ADD DUP1 SLOAD PUSH1 0x1 PUSH1 0x1 PUSH1 0xA0 SHL SUB NOT AND PUSH1 0x1 PUSH1 0x1 PUSH1 0xA0 SHL SUB DUP6 DUP2 AND SWAP2 DUP3 OR SWAP1 SWAP3 SSTORE SWAP2 MLOAD SWAP2 SWAP3 SWAP1 DUP6 AND SWAP2 DUP8 SWAP2 PUSH32 0xE30F4D2A28A67CDB8856AB10670990536F9E43EDBEC16C6C9094A931A58BCE95 SWAP2 LOG4 POP POP POP POP JUMP JUMPDEST PUSH0 PUSH1 0x1 PUSH1 0x1 PUSH1 0xE0 SHL SUB NOT DUP3 AND PUSH4 0x80AC58CD PUSH1 0xE0 SHL EQ DUP1 PUSH2 0x1AAA JUMPI POP PUSH1 0x1 PUSH1 0x1 PUSH1 0xE0 SHL SUB NOT DUP3 AND PUSH4 0x5B5E139F PUSH1 0xE0 SHL EQ JUMPDEST DUP1 PUSH2 0x5F1 JUMPI POP PUSH4 0x1FFC9A7 PUSH1 0xE0 SHL PUSH1 0x1 PUSH1 0x1 PUSH1 0xE0 SHL SUB NOT DUP4 AND EQ PUSH2 0x5F1 JUMP JUMPDEST PUSH2 0x1AD3 DUP3 DUP3 PUSH2 0xDE3 JUMP JUMPDEST PUSH2 0x81E JUMPI PUSH1 0x40 MLOAD PUSH4 0xE2517D3F PUSH1 0xE0 SHL DUP2 MSTORE PUSH1 0x1 PUSH1 0x1 PUSH1 0xA0 SHL SUB DUP3 AND PUSH1 0x4 DUP3 ADD MSTORE PUSH1 0x24 DUP2 ADD DUP4 SWAP1 MSTORE PUSH1 0x44 ADD PUSH2 0x85A JUMP JUMPDEST PUSH2 0x1B0C DUP4 DUP4 PUSH2 0x1E05 JUMP JUMPDEST PUSH2 0xAC5 CALLER PUSH0 DUP6 DUP6 DUP6 PUSH2 0x1816 JUMP JUMPDEST DUP1 DUP1 PUSH2 0x1B2D JUMPI POP PUSH1 0x1 PUSH1 0x1 PUSH1 0xA0 SHL SUB DUP3 AND ISZERO ISZERO JUMPDEST ISZERO PUSH2 0x1BEE JUMPI PUSH0 PUSH2 0x1B3C DUP5 PUSH2 0x151C JUMP JUMPDEST SWAP1 POP PUSH1 0x1 PUSH1 0x1 PUSH1 0xA0 SHL SUB DUP4 AND ISZERO DUP1 ISZERO SWAP1 PUSH2 0x1B68 JUMPI POP DUP3 PUSH1 0x1 PUSH1 0x1 PUSH1 0xA0 SHL SUB AND DUP2 PUSH1 0x1 PUSH1 0x1 PUSH1 0xA0 SHL SUB AND EQ ISZERO JUMPDEST DUP1 ISZERO PUSH2 0x1B7B JUMPI POP PUSH2 0x1B79 DUP2 DUP5 PUSH2 0x11DE JUMP JUMPDEST ISZERO JUMPDEST ISZERO PUSH2 0x1BA4 JUMPI PUSH1 0x40 MLOAD PUSH4 0xA9FBF51F PUSH1 0xE0 SHL DUP2 MSTORE PUSH1 0x1 PUSH1 0x1 PUSH1 0xA0 SHL SUB DUP5 AND PUSH1 0x4 DUP3 ADD MSTORE PUSH1 0x24 ADD PUSH2 0x85A JUMP JUMPDEST DUP2 ISZERO PUSH2 0x1BEC JUMPI DUP4 DUP6 PUSH1 0x1 PUSH1 0x1 PUSH1 0xA0 SHL SUB AND DUP3 PUSH1 0x1 PUSH1 0x1 PUSH1 0xA0 SHL SUB AND PUSH32 0x8C5BE1E5EBEC7D5BD14F71427D1E84F3DD0314C0F7B2291E5B200AC8C7C3B925 PUSH1 0x40 MLOAD PUSH1 0x40 MLOAD DUP1 SWAP2 SUB SWAP1 LOG4 JUMPDEST POP JUMPDEST POP POP PUSH0 SWAP1 DUP2 MSTORE PUSH1 0x4 PUSH1 0x20 MSTORE PUSH1 0x40 SWAP1 KECCAK256 DUP1 SLOAD PUSH1 0x1 PUSH1 0x1 PUSH1 0xA0 SHL SUB NOT AND PUSH1 0x1 PUSH1 0x1 PUSH1 0xA0 SHL SUB SWAP3 SWAP1 SWAP3 AND SWAP2 SWAP1 SWAP2 OR SWAP1 SSTORE JUMP JUMPDEST PUSH2 0x1C28 DUP4 DUP4 DUP4 PUSH2 0x1E66 JUMP JUMPDEST PUSH2 0xAC5 JUMPI PUSH1 0x1 PUSH1 0x1 PUSH1 0xA0 SHL SUB DUP4 AND PUSH2 0x1C56 JUMPI PUSH1 0x40 MLOAD PUSH4 0x7E273289 PUSH1 0xE0 SHL DUP2 MSTORE PUSH1 0x4 DUP2 ADD DUP3 SWAP1 MSTORE PUSH1 0x24 ADD PUSH2 0x85A JUMP JUMPDEST PUSH1 0x40 MLOAD PUSH4 0x177E802F PUSH1 0xE0 SHL DUP2 MSTORE PUSH1 0x1 PUSH1 0x1 PUSH1 0xA0 SHL SUB DUP4 AND PUSH1 0x4 DUP3 ADD MSTORE PUSH1 0x24 DUP2 ADD DUP3 SWAP1 MSTORE PUSH1 0x44 ADD PUSH2 0x85A JUMP JUMPDEST PUSH0 DUP1 PUSH19 0x184F03E93FF9F4DAA797ED6E38ED64BF6A1F01 PUSH1 0x40 SHL DUP4 LT PUSH2 0x1CBF JUMPI PUSH19 0x184F03E93FF9F4DAA797ED6E38ED64BF6A1F01 PUSH1 0x40 SHL DUP4 DIV SWAP3 POP PUSH1 0x40 ADD JUMPDEST PUSH14 0x4EE2D6D415B85ACEF8100000000 DUP4 LT PUSH2 0x1CEB JUMPI PUSH14 0x4EE2D6D415B85ACEF8100000000 DUP4 DIV SWAP3 POP PUSH1 0x20 ADD JUMPDEST PUSH7 0x2386F26FC10000 DUP4 LT PUSH2 0x1D09 JUMPI PUSH7 0x2386F26FC10000 DUP4 DIV SWAP3 POP PUSH1 0x10 ADD JUMPDEST PUSH4 0x5F5E100 DUP4 LT PUSH2 0x1D21 JUMPI PUSH4 0x5F5E100 DUP4 DIV SWAP3 POP PUSH1 0x8 ADD JUMPDEST PUSH2 0x2710 DUP4 LT PUSH2 0x1D35 JUMPI PUSH2 0x2710 DUP4 DIV SWAP3 POP PUSH1 0x4 ADD JUMPDEST PUSH1 0x64 DUP4 LT PUSH2 0x1D47 JUMPI PUSH1 0x64 DUP4 DIV SWAP3 POP PUSH1 0x2 ADD JUMPDEST PUSH1 0xA DUP4 LT PUSH2 0x5F1 JUMPI PUSH1 0x1 ADD SWAP3 SWAP2 POP POP JUMP JUMPDEST PUSH1 0x1 PUSH1 0x1 PUSH1 0xA0 SHL SUB DUP3 AND PUSH2 0x1D81 JUMPI PUSH1 0x40 MLOAD PUSH4 0x32505749 PUSH1 0xE1 SHL DUP2 MSTORE PUSH0 PUSH1 0x4 DUP3 ADD MSTORE PUSH1 0x24 ADD PUSH2 0x85A JUMP JUMPDEST PUSH0 PUSH2 0x1D8D DUP4 DUP4 PUSH0 PUSH2 0x1561 JUMP JUMPDEST SWAP1 POP PUSH1 0x1 PUSH1 0x1 PUSH1 0xA0 SHL SUB DUP2 AND PUSH2 0x1DB9 JUMPI PUSH1 0x40 MLOAD PUSH4 0x7E273289 PUSH1 0xE0 SHL DUP2 MSTORE PUSH1 0x4 DUP2 ADD DUP4 SWAP1 MSTORE PUSH1 0x24 ADD PUSH2 0x85A JUMP JUMPDEST DUP4 PUSH1 0x1 PUSH1 0x1 PUSH1 0xA0 SHL SUB AND DUP2 PUSH1 0x1 PUSH1 0x1 PUSH1 0xA0 SHL SUB AND EQ PUSH2 0xA68 JUMPI PUSH1 0x40 MLOAD PUSH4 0x64283D7B PUSH1 0xE0 SHL DUP2 MSTORE PUSH1 0x1 PUSH1 0x1 PUSH1 0xA0 SHL SUB DUP1 DUP7 AND PUSH1 0x4 DUP4 ADD MSTORE PUSH1 0x24 DUP3 ADD DUP5 SWAP1 MSTORE DUP3 AND PUSH1 0x44 DUP3 ADD MSTORE PUSH1 0x64 ADD PUSH2 0x85A JUMP JUMPDEST PUSH1 0x1 PUSH1 0x1 PUSH1 0xA0 SHL SUB DUP3 AND PUSH2 0x1E2E JUMPI PUSH1 0x40 MLOAD PUSH4 0x32505749 PUSH1 0xE1 SHL DUP2 MSTORE PUSH0 PUSH1 0x4 DUP3 ADD MSTORE PUSH1 0x24 ADD PUSH2 0x85A JUMP JUMPDEST PUSH0 PUSH2 0x1E3A DUP4 DUP4 PUSH0 PUSH2 0x1561 JUMP JUMPDEST SWAP1 POP PUSH1 0x1 PUSH1 0x1 PUSH1 0xA0 SHL SUB DUP2 AND ISZERO PUSH2 0xAC5 JUMPI PUSH1 0x40 MLOAD PUSH4 0x39E35637 PUSH1 0xE1 SHL DUP2 MSTORE PUSH0 PUSH1 0x4 DUP3 ADD MSTORE PUSH1 0x24 ADD PUSH2 0x85A JUMP JUMPDEST PUSH0 PUSH1 0x1 PUSH1 0x1 PUSH1 0xA0 SHL SUB DUP4 AND ISZERO DUP1 ISZERO SWAP1 PUSH2 0x1EC2 JUMPI POP DUP3 PUSH1 0x1 PUSH1 0x1 PUSH1 0xA0 SHL SUB AND DUP5 PUSH1 0x1 PUSH1 0x1 PUSH1 0xA0 SHL SUB AND EQ DUP1 PUSH2 0x1E9F JUMPI POP PUSH2 0x1E9F DUP5 DUP5 PUSH2 0x11DE JUMP JUMPDEST DUP1 PUSH2 0x1EC2 JUMPI POP PUSH0 DUP3 DUP2 MSTORE PUSH1 0x4 PUSH1 0x20 MSTORE PUSH1 0x40 SWAP1 KECCAK256 SLOAD PUSH1 0x1 PUSH1 0x1 PUSH1 0xA0 SHL SUB DUP5 DUP2 AND SWAP2 AND EQ JUMPDEST SWAP5 SWAP4 POP POP POP POP JUMP JUMPDEST DUP3 DUP1 SLOAD DUP3 DUP3 SSTORE SWAP1 PUSH0 MSTORE PUSH1 0x20 PUSH0 KECCAK256 SWAP1 DUP2 ADD SWAP3 DUP3 ISZERO PUSH2 0x1F0E JUMPI SWAP2 PUSH1 0x20 MUL DUP3 ADD JUMPDEST DUP3 DUP2 GT ISZERO PUSH2 0x1F0E JUMPI DUP3 MLOAD DUP3 SWAP1 PUSH2 0x1EFE SWAP1 DUP3 PUSH2 0x25F5 JUMP JUMPDEST POP SWAP2 PUSH1 0x20 ADD SWAP2 SWAP1 PUSH1 0x1 ADD SWAP1 PUSH2 0x1EE8 JUMP JUMPDEST POP PUSH2 0x1F1A SWAP3 SWAP2 POP PUSH2 0x1F1E JUMP JUMPDEST POP SWAP1 JUMP JUMPDEST DUP1 DUP3 GT ISZERO PUSH2 0x1F1A JUMPI PUSH0 PUSH2 0x1F31 DUP3 DUP3 PUSH2 0x1F3A JUMP JUMPDEST POP PUSH1 0x1 ADD PUSH2 0x1F1E JUMP JUMPDEST POP DUP1 SLOAD PUSH2 0x1F46 SWAP1 PUSH2 0x2555 JUMP JUMPDEST PUSH0 DUP3 SSTORE DUP1 PUSH1 0x1F LT PUSH2 0x1F55 JUMPI POP POP JUMP JUMPDEST PUSH1 0x1F ADD PUSH1 0x20 SWAP1 DIV SWAP1 PUSH0 MSTORE PUSH1 0x20 PUSH0 KECCAK256 SWAP1 DUP2 ADD SWAP1 PUSH2 0x1500 SWAP2 SWAP1 JUMPDEST DUP1 DUP3 GT ISZERO PUSH2 0x1F1A JUMPI PUSH0 DUP2 SSTORE PUSH1 0x1 ADD PUSH2 0x1F6D JUMP JUMPDEST PUSH1 0x1 PUSH1 0x1 PUSH1 0xE0 SHL SUB NOT DUP2 AND DUP2 EQ PUSH2 0x1500 JUMPI PUSH0 DUP1 REVERT JUMPDEST PUSH0 PUSH1 0x20 DUP3 DUP5 SUB SLT ISZERO PUSH2 0x1FA5 JUMPI PUSH0 DUP1 REVERT JUMPDEST DUP2 CALLDATALOAD PUSH2 0xEA9 DUP2 PUSH2 0x1F80 JUMP JUMPDEST PUSH0 PUSH1 0x20 DUP3 DUP5 SUB SLT ISZERO PUSH2 0x1FC0 JUMPI PUSH0 DUP1 REVERT JUMPDEST POP CALLDATALOAD SWAP2 SWAP1 POP JUMP JUMPDEST PUSH0 JUMPDEST DUP4 DUP2 LT ISZERO PUSH2 0x1FE1 JUMPI DUP2 DUP2 ADD MLOAD DUP4 DUP3 ADD MSTORE PUSH1 0x20 ADD PUSH2 0x1FC9 JUMP JUMPDEST POP POP PUSH0 SWAP2 ADD MSTORE JUMP JUMPDEST PUSH0 DUP2 MLOAD DUP1 DUP5 MSTORE PUSH2 0x2000 DUP2 PUSH1 0x20 DUP7 ADD PUSH1 0x20 DUP7 ADD PUSH2 0x1FC7 JUMP JUMPDEST PUSH1 0x1F ADD PUSH1 0x1F NOT AND SWAP3 SWAP1 SWAP3 ADD PUSH1 0x20 ADD SWAP3 SWAP2 POP POP JUMP JUMPDEST PUSH1 0x20 DUP2 MSTORE PUSH0 PUSH2 0xEA9 PUSH1 0x20 DUP4 ADD DUP5 PUSH2 0x1FE9 JUMP JUMPDEST DUP1 CALLDATALOAD PUSH1 0x1 PUSH1 0x1 PUSH1 0xA0 SHL SUB DUP2 AND DUP2 EQ PUSH2 0x203C JUMPI PUSH0 DUP1 REVERT JUMPDEST SWAP2 SWAP1 POP JUMP JUMPDEST PUSH4 0x4E487B71 PUSH1 0xE0 SHL PUSH0 MSTORE PUSH1 0x41 PUSH1 0x4 MSTORE PUSH1 0x24 PUSH0 REVERT JUMPDEST PUSH1 0x40 MLOAD PUSH1 0x1F DUP3 ADD PUSH1 0x1F NOT AND DUP2 ADD PUSH8 0xFFFFFFFFFFFFFFFF DUP2 GT DUP3 DUP3 LT OR ISZERO PUSH2 0x207E JUMPI PUSH2 0x207E PUSH2 0x2041 JUMP JUMPDEST PUSH1 0x40 MSTORE SWAP2 SWAP1 POP JUMP JUMPDEST PUSH0 PUSH8 0xFFFFFFFFFFFFFFFF DUP4 GT ISZERO PUSH2 0x209F JUMPI PUSH2 0x209F PUSH2 0x2041 JUMP JUMPDEST PUSH2 0x20B2 PUSH1 0x1F DUP5 ADD PUSH1 0x1F NOT AND PUSH1 0x20 ADD PUSH2 0x2055 JUMP JUMPDEST SWAP1 POP DUP3 DUP2 MSTORE DUP4 DUP4 DUP4 ADD GT ISZERO PUSH2 0x20C5 JUMPI PUSH0 DUP1 REVERT JUMPDEST DUP3 DUP3 PUSH1 0x20 DUP4 ADD CALLDATACOPY PUSH0 PUSH1 0x20 DUP5 DUP4 ADD ADD MSTORE SWAP4 SWAP3 POP POP POP JUMP JUMPDEST PUSH0 DUP3 PUSH1 0x1F DUP4 ADD SLT PUSH2 0x20EA JUMPI PUSH0 DUP1 REVERT JUMPDEST PUSH2 0xEA9 DUP4 DUP4 CALLDATALOAD PUSH1 0x20 DUP6 ADD PUSH2 0x2086 JUMP JUMPDEST PUSH0 DUP1 PUSH0 DUP1 PUSH0 PUSH1 0xA0 DUP7 DUP9 SUB SLT ISZERO PUSH2 0x210D JUMPI PUSH0 DUP1 REVERT JUMPDEST PUSH2 0x2116 DUP7 PUSH2 0x2026 JUMP JUMPDEST SWAP5 POP PUSH1 0x20 DUP1 DUP8 ADD CALLDATALOAD PUSH8 0xFFFFFFFFFFFFFFFF DUP1 DUP3 GT ISZERO PUSH2 0x2133 JUMPI PUSH0 DUP1 REVERT JUMPDEST PUSH2 0x213F DUP11 DUP4 DUP12 ADD PUSH2 0x20DB JUMP JUMPDEST SWAP7 POP PUSH1 0x40 DUP10 ADD CALLDATALOAD SWAP6 POP PUSH1 0x60 DUP10 ADD CALLDATALOAD SWAP2 POP DUP1 DUP3 GT ISZERO PUSH2 0x215B JUMPI PUSH0 DUP1 REVERT JUMPDEST PUSH2 0x2167 DUP11 DUP4 DUP12 ADD PUSH2 0x20DB JUMP JUMPDEST SWAP5 POP PUSH1 0x80 DUP10 ADD CALLDATALOAD SWAP2 POP DUP1 DUP3 GT ISZERO PUSH2 0x217C JUMPI PUSH0 DUP1 REVERT JUMPDEST DUP2 DUP10 ADD SWAP2 POP DUP10 PUSH1 0x1F DUP4 ADD SLT PUSH2 0x218F JUMPI PUSH0 DUP1 REVERT JUMPDEST DUP2 CALLDATALOAD DUP2 DUP2 GT ISZERO PUSH2 0x21A1 JUMPI PUSH2 0x21A1 PUSH2 0x2041 JUMP JUMPDEST DUP1 PUSH1 0x5 SHL PUSH2 0x21B0 DUP6 DUP3 ADD PUSH2 0x2055 JUMP JUMPDEST SWAP2 DUP3 MSTORE DUP4 DUP2 ADD DUP6 ADD SWAP2 DUP6 DUP2 ADD SWAP1 DUP14 DUP5 GT ISZERO PUSH2 0x21C9 JUMPI PUSH0 DUP1 REVERT JUMPDEST DUP7 DUP7 ADD SWAP3 POP JUMPDEST DUP4 DUP4 LT ISZERO PUSH2 0x2203 JUMPI DUP3 CALLDATALOAD DUP6 DUP2 GT ISZERO PUSH2 0x21E5 JUMPI PUSH0 DUP1 REVERT JUMPDEST PUSH2 0x21F3 DUP16 DUP10 DUP4 DUP11 ADD ADD PUSH2 0x20DB JUMP JUMPDEST DUP4 MSTORE POP SWAP2 DUP7 ADD SWAP2 SWAP1 DUP7 ADD SWAP1 PUSH2 0x21CF JUMP JUMPDEST DUP1 SWAP8 POP POP POP POP POP POP POP POP SWAP3 SWAP6 POP SWAP3 SWAP6 SWAP1 SWAP4 POP JUMP JUMPDEST PUSH0 DUP1 PUSH1 0x40 DUP4 DUP6 SUB SLT ISZERO PUSH2 0x2228 JUMPI PUSH0 DUP1 REVERT JUMPDEST PUSH2 0x2231 DUP4 PUSH2 0x2026 JUMP JUMPDEST SWAP5 PUSH1 0x20 SWAP4 SWAP1 SWAP4 ADD CALLDATALOAD SWAP4 POP POP POP JUMP JUMPDEST DUP1 CALLDATALOAD DUP1 ISZERO ISZERO DUP2 EQ PUSH2 0x203C JUMPI PUSH0 DUP1 REVERT JUMPDEST PUSH0 DUP1 PUSH1 0x40 DUP4 DUP6 SUB SLT ISZERO PUSH2 0x225F JUMPI PUSH0 DUP1 REVERT JUMPDEST DUP3 CALLDATALOAD SWAP2 POP PUSH2 0x226F PUSH1 0x20 DUP5 ADD PUSH2 0x223F JUMP JUMPDEST SWAP1 POP SWAP3 POP SWAP3 SWAP1 POP JUMP JUMPDEST PUSH0 DUP1 PUSH0 PUSH1 0x60 DUP5 DUP7 SUB SLT ISZERO PUSH2 0x228A JUMPI PUSH0 DUP1 REVERT JUMPDEST PUSH2 0x2293 DUP5 PUSH2 0x2026 JUMP JUMPDEST SWAP3 POP PUSH2 0x22A1 PUSH1 0x20 DUP6 ADD PUSH2 0x2026 JUMP JUMPDEST SWAP2 POP PUSH1 0x40 DUP5 ADD CALLDATALOAD SWAP1 POP SWAP3 POP SWAP3 POP SWAP3 JUMP JUMPDEST PUSH0 DUP1 PUSH1 0x40 DUP4 DUP6 SUB SLT ISZERO PUSH2 0x22C2 JUMPI PUSH0 DUP1 REVERT JUMPDEST DUP3 CALLDATALOAD SWAP2 POP PUSH2 0x226F PUSH1 0x20 DUP5 ADD PUSH2 0x2026 JUMP JUMPDEST PUSH0 PUSH1 0x20 DUP3 DUP5 SUB SLT ISZERO PUSH2 0x22E2 JUMPI PUSH0 DUP1 REVERT JUMPDEST PUSH2 0xEA9 DUP3 PUSH2 0x2026 JUMP JUMPDEST PUSH0 DUP1 PUSH1 0x40 DUP4 DUP6 SUB SLT ISZERO PUSH2 0x22FC JUMPI PUSH0 DUP1 REVERT JUMPDEST PUSH2 0x2305 DUP4 PUSH2 0x2026 JUMP JUMPDEST SWAP2 POP PUSH2 0x226F PUSH1 0x20 DUP5 ADD PUSH2 0x223F JUMP JUMPDEST PUSH0 DUP1 PUSH0 DUP1 PUSH1 0x80 DUP6 DUP8 SUB SLT ISZERO PUSH2 0x2326 JUMPI PUSH0 DUP1 REVERT JUMPDEST PUSH2 0x232F DUP6 PUSH2 0x2026 JUMP JUMPDEST SWAP4 POP PUSH2 0x233D PUSH1 0x20 DUP7 ADD PUSH2 0x2026 JUMP JUMPDEST SWAP3 POP PUSH1 0x40 DUP6 ADD CALLDATALOAD SWAP2 POP PUSH1 0x60 DUP6 ADD CALLDATALOAD PUSH8 0xFFFFFFFFFFFFFFFF DUP2 GT ISZERO PUSH2 0x235F JUMPI PUSH0 DUP1 REVERT JUMPDEST DUP6 ADD PUSH1 0x1F DUP2 ADD DUP8 SGT PUSH2 0x236F JUMPI PUSH0 DUP1 REVERT JUMPDEST PUSH2 0x237E DUP8 DUP3 CALLDATALOAD PUSH1 0x20 DUP5 ADD PUSH2 0x2086 JUMP JUMPDEST SWAP2 POP POP SWAP3 SWAP6 SWAP2 SWAP5 POP SWAP3 POP JUMP JUMPDEST PUSH0 DUP1 PUSH1 0x40 DUP4 DUP6 SUB SLT ISZERO PUSH2 0x239B JUMPI PUSH0 DUP1 REVERT JUMPDEST DUP3 CALLDATALOAD SWAP2 POP PUSH1 0x20 DUP4 ADD CALLDATALOAD PUSH8 0xFFFFFFFFFFFFFFFF DUP2 GT ISZERO PUSH2 0x23B8 JUMPI PUSH0 DUP1 REVERT JUMPDEST PUSH2 0x23C4 DUP6 DUP3 DUP7 ADD PUSH2 0x20DB JUMP JUMPDEST SWAP2 POP POP SWAP3 POP SWAP3 SWAP1 POP JUMP JUMPDEST PUSH0 DUP1 PUSH1 0x40 DUP4 DUP6 SUB SLT ISZERO PUSH2 0x23DF JUMPI PUSH0 DUP1 REVERT JUMPDEST POP POP DUP1 CALLDATALOAD SWAP3 PUSH1 0x20 SWAP1 SWAP2 ADD CALLDATALOAD SWAP2 POP JUMP JUMPDEST PUSH1 0x80 DUP2 MSTORE PUSH0 PUSH2 0x2400 PUSH1 0x80 DUP4 ADD DUP8 PUSH2 0x1FE9 JUMP JUMPDEST DUP6 PUSH1 0x20 DUP5 ADD MSTORE DUP3 DUP2 SUB PUSH1 0x40 DUP5 ADD MSTORE PUSH2 0x2418 DUP2 DUP7 PUSH2 0x1FE9 JUMP JUMPDEST SWAP2 POP POP DUP3 ISZERO ISZERO PUSH1 0x60 DUP4 ADD MSTORE SWAP6 SWAP5 POP POP POP POP POP JUMP JUMPDEST PUSH0 DUP1 PUSH1 0x40 DUP4 DUP6 SUB SLT ISZERO PUSH2 0x243D JUMPI PUSH0 DUP1 REVERT JUMPDEST PUSH2 0x2446 DUP4 PUSH2 0x2026 JUMP JUMPDEST SWAP2 POP PUSH2 0x226F PUSH1 0x20 DUP5 ADD PUSH2 0x2026 JUMP JUMPDEST PUSH1 0x20 DUP1 DUP3 MSTORE DUP3 MLOAD DUP3 DUP3 ADD DUP2 SWAP1 MSTORE PUSH0 SWAP2 SWAP1 DUP5 DUP3 ADD SWAP1 PUSH1 0x40 DUP6 ADD SWAP1 DUP5 JUMPDEST DUP2 DUP2 LT ISZERO PUSH2 0x2494 JUMPI DUP4 MLOAD PUSH1 0x1 PUSH1 0x1 PUSH1 0xA0 SHL SUB AND DUP4 MSTORE SWAP3 DUP5 ADD SWAP3 SWAP2 DUP5 ADD SWAP2 PUSH1 0x1 ADD PUSH2 0x246F JUMP JUMPDEST POP SWAP1 SWAP7 SWAP6 POP POP POP POP POP POP JUMP JUMPDEST PUSH0 PUSH1 0x20 DUP1 DUP4 MSTORE DUP4 MLOAD PUSH1 0xA0 DUP3 DUP6 ADD MSTORE PUSH2 0x24BB PUSH1 0xC0 DUP6 ADD DUP3 PUSH2 0x1FE9 JUMP JUMPDEST SWAP1 POP DUP2 DUP6 ADD MLOAD PUSH1 0x40 DUP6 ADD MSTORE PUSH1 0x40 DUP6 ADD MLOAD PUSH1 0x1F NOT DUP1 DUP7 DUP5 SUB ADD PUSH1 0x60 DUP8 ADD MSTORE PUSH2 0x24E2 DUP4 DUP4 PUSH2 0x1FE9 JUMP JUMPDEST PUSH1 0x60 DUP9 ADD MLOAD DUP8 DUP3 SUB DUP4 ADD PUSH1 0x80 DUP10 ADD MSTORE DUP1 MLOAD DUP1 DUP4 MSTORE SWAP2 SWAP5 POP DUP6 ADD SWAP3 POP DUP5 DUP5 ADD SWAP1 PUSH1 0x5 DUP2 SWAP1 SHL DUP6 ADD DUP7 ADD PUSH0 JUMPDEST DUP3 DUP2 LT ISZERO PUSH2 0x2538 JUMPI DUP5 DUP8 DUP4 SUB ADD DUP5 MSTORE PUSH2 0x2526 DUP3 DUP8 MLOAD PUSH2 0x1FE9 JUMP JUMPDEST SWAP6 DUP9 ADD SWAP6 SWAP4 DUP9 ADD SWAP4 SWAP2 POP PUSH1 0x1 ADD PUSH2 0x250C JUMP JUMPDEST POP PUSH1 0x80 DUP11 ADD MLOAD DUP1 ISZERO ISZERO PUSH1 0xA0 DUP12 ADD MSTORE SWAP7 POP SWAP10 SWAP9 POP POP POP POP POP POP POP POP POP JUMP JUMPDEST PUSH1 0x1 DUP2 DUP2 SHR SWAP1 DUP3 AND DUP1 PUSH2 0x2569 JUMPI PUSH1 0x7F DUP3 AND SWAP2 POP JUMPDEST PUSH1 0x20 DUP3 LT DUP2 SUB PUSH2 0x2587 JUMPI PUSH4 0x4E487B71 PUSH1 0xE0 SHL PUSH0 MSTORE PUSH1 0x22 PUSH1 0x4 MSTORE PUSH1 0x24 PUSH0 REVERT JUMPDEST POP SWAP2 SWAP1 POP JUMP JUMPDEST PUSH0 PUSH1 0x1 DUP3 ADD PUSH2 0x25AA JUMPI PUSH4 0x4E487B71 PUSH1 0xE0 SHL PUSH0 MSTORE PUSH1 0x11 PUSH1 0x4 MSTORE PUSH1 0x24 PUSH0 REVERT JUMPDEST POP PUSH1 0x1 ADD SWAP1 JUMP JUMPDEST PUSH1 0x1F DUP3 GT ISZERO PUSH2 0xAC5 JUMPI DUP1 PUSH0 MSTORE PUSH1 0x20 PUSH0 KECCAK256 PUSH1 0x1F DUP5 ADD PUSH1 0x5 SHR DUP2 ADD PUSH1 0x20 DUP6 LT ISZERO PUSH2 0x25D6 JUMPI POP DUP1 JUMPDEST PUSH1 0x1F DUP5 ADD PUSH1 0x5 SHR DUP3 ADD SWAP2 POP JUMPDEST DUP2 DUP2 LT ISZERO PUSH2 0x1937 JUMPI PUSH0 DUP2 SSTORE PUSH1 0x1 ADD PUSH2 0x25E2 JUMP JUMPDEST DUP2 MLOAD PUSH8 0xFFFFFFFFFFFFFFFF DUP2 GT ISZERO PUSH2 0x260F JUMPI PUSH2 0x260F PUSH2 0x2041 JUMP JUMPDEST PUSH2 0x2623 DUP2 PUSH2 0x261D DUP5 SLOAD PUSH2 0x2555 JUMP JUMPDEST DUP5 PUSH2 0x25B1 JUMP JUMPDEST PUSH1 0x20 DUP1 PUSH1 0x1F DUP4 GT PUSH1 0x1 DUP2 EQ PUSH2 0x2656 JUMPI PUSH0 DUP5 ISZERO PUSH2 0x263F JUMPI POP DUP6 DUP4 ADD MLOAD JUMPDEST PUSH0 NOT PUSH1 0x3 DUP7 SWAP1 SHL SHR NOT AND PUSH1 0x1 DUP6 SWAP1 SHL OR DUP6 SSTORE PUSH2 0x1935 JUMP JUMPDEST PUSH0 DUP6 DUP2 MSTORE PUSH1 0x20 DUP2 KECCAK256 PUSH1 0x1F NOT DUP7 AND SWAP2 JUMPDEST DUP3 DUP2 LT ISZERO PUSH2 0x2684 JUMPI DUP9 DUP7 ADD MLOAD DUP3 SSTORE SWAP5 DUP5 ADD SWAP5 PUSH1 0x1 SWAP1 SWAP2 ADD SWAP1 DUP5 ADD PUSH2 0x2665 JUMP JUMPDEST POP DUP6 DUP3 LT ISZERO PUSH2 0x26A1 JUMPI DUP8 DUP6 ADD MLOAD PUSH0 NOT PUSH1 0x3 DUP9 SWAP1 SHL PUSH1 0xF8 AND SHR NOT AND DUP2 SSTORE JUMPDEST POP POP POP POP POP PUSH1 0x1 SWAP1 DUP2 SHL ADD SWAP1 SSTORE POP JUMP JUMPDEST PUSH1 0x20 DUP1 DUP3 MSTORE PUSH1 0x12 SWAP1 DUP3 ADD MSTORE PUSH18 0x27379030B1BA34BB32903A3930B739B332B9 PUSH1 0x71 SHL PUSH1 0x40 DUP3 ADD MSTORE PUSH1 0x60 ADD SWAP1 JUMP JUMPDEST PUSH1 0x20 DUP1 DUP3 MSTORE PUSH1 0x12 SWAP1 DUP3 ADD MSTORE PUSH18 0x4C616E6420697320696E2064697370757465 PUSH1 0x70 SHL PUSH1 0x40 DUP3 ADD MSTORE PUSH1 0x60 ADD SWAP1 JUMP JUMPDEST PUSH0 DUP4 MLOAD PUSH2 0x271A DUP2 DUP5 PUSH1 0x20 DUP9 ADD PUSH2 0x1FC7 JUMP JUMPDEST DUP4 MLOAD SWAP1 DUP4 ADD SWAP1 PUSH2 0x272E DUP2 DUP4 PUSH1 0x20 DUP9 ADD PUSH2 0x1FC7 JUMP JUMPDEST ADD SWAP5 SWAP4 POP POP POP POP JUMP JUMPDEST PUSH1 0x1 PUSH1 0x1 PUSH1 0xA0 SHL SUB DUP6 DUP2 AND DUP3 MSTORE DUP5 AND PUSH1 0x20 DUP3 ADD MSTORE PUSH1 0x40 DUP2 ADD DUP4 SWAP1 MSTORE PUSH1 0x80 PUSH1 0x60 DUP3 ADD DUP2 SWAP1 MSTORE PUSH0 SWAP1 PUSH2 0x2769 SWAP1 DUP4 ADD DUP5 PUSH2 0x1FE9 JUMP JUMPDEST SWAP7 SWAP6 POP POP POP POP POP POP JUMP JUMPDEST PUSH0 PUSH1 0x20 DUP3 DUP5 SUB SLT ISZERO PUSH2 0x2783 JUMPI PUSH0 DUP1 REVERT JUMPDEST DUP2 MLOAD PUSH2 0xEA9 DUP2 PUSH2 0x1F80 JUMP INVALID LOG2 PUSH5 0x6970667358 0x22 SLT KECCAK256 INVALID ADD 0xDF 0xAC SMOD SWAP10 0xE8 PUSH23 0xFF1F53B1FCC1739A0EF47A1BABE5E21FB2B105EDA6470D SSTORE PUSH5 0x736F6C6343 STOP ADDMOD XOR STOP CALLER "},"methodIdentifiers":{"ADMIN_BPN_ROLE()":"875cfe3b","AUDITOR_ROLE()":"6e1d616e","BPN_WILAYAH_ROLE()":"8ec455e3","DEFAULT_ADMIN_ROLE()":"a217fddf","NOTARIS_ROLE()":"5911b808","approve(address,uint256)":"095ea7b3","approveTransferBuyer(uint256)":"09d4a345","approveTransferNotaris(uint256,string)":"c89a2bd9","balanceOf(address)":"70a08231","cancelTransfer(uint256)":"59caecb5","getApproved(uint256)":"081812fc","getLandDetails(uint256)":"fe0cb7dc","getOwnershipHistory(uint256)":"f1dbaccb","getRoleAdmin(bytes32)":"248a9ca3","getTotalLands()":"842e7dba","grantRole(bytes32,address)":"2f2ff15d","hasRole(bytes32,address)":"91d14854","isApprovedForAll(address,address)":"e985e9c5","lands(uint256)":"e261f1e5","mintLand(address,string,uint256,string,string[])":"07407dd8","name()":"06fdde03","ownerOf(uint256)":"6352211e","ownershipHistory(uint256,uint256)":"c9cf2adc","proposeTransfer(uint256,address)":"86bde3d1","renounceRole(bytes32,address)":"36568abe","revokeRole(bytes32,address)":"d547741f","safeTransferFrom(address,address,uint256)":"42842e0e","safeTransferFrom(address,address,uint256,bytes)":"b88d4fde","setApprovalForAll(address,bool)":"a22cb465","setEnforcement(uint256,bool)":"1b362b05","supportsInterface(bytes4)":"01ffc9a7","symbol()":"95d89b41","tokenURI(uint256)":"c87b56dd","transferFrom(address,address,uint256)":"23b872dd","transferRequests(uint256)":"03486c40"}}}}}