{
  "_format": "hh-sol-artifact-1",
  "contractName": "LandRegistry",
  "sourceName": "contracts/LandRegistry.sol",
  "abi": [
    {
      "inputs": [],
      "stateMutability": "nonpayable",
      "type": "constructor"
    },
    {
      "anonymous": false,
      "inputs": [
        {
          "indexed": true,
          "internalType": "address",
          "name": "owner",
          "type": "address"
        },
        {
          "indexed": true,
          "internalType": "address",
          "name": "approved",
          "type": "address"
        },
        {
          "indexed": true,
          "internalType": "uint256",
          "name": "tokenId",
          "type": "uint256"
        }
      ],
      "name": "Approval",
      "type": "event"
    },
    {
      "anonymous": false,
      "inputs": [
        {
          "indexed": true,
          "internalType": "address",
          "name": "owner",
          "type": "address"
        },
        {
          "indexed": true,
          "internalType": "address",
          "name": "operator",
          "type": "address"
        },
        {
          "indexed": false,
          "internalType": "bool",
          "name": "approved",
          "type": "bool"
        }
      ],
      "name": "ApprovalForAll",
      "type": "event"
    },
    {
      "anonymous": false,
      "inputs": [
        {
          "indexed": true,
          "internalType": "uint256",
          "name": "tokenId",
          "type": "uint256"
        },
        {
          "indexed": true,
          "internalType": "address",
          "name": "owner",
          "type": "address"
        },
        {
          "indexed": false,
          "internalType": "string",
          "name": "nib",
          "type": "string"
        }
      ],
      "name": "AssetMinted",
      "type": "event"
    },
    {
      "anonymous": false,
      "inputs": [
        {
          "indexed": true,
          "internalType": "uint256",
          "name": "tokenId",
          "type": "uint256"
        },
        {
          "indexed": true,
          "internalType": "address",
          "name": "buyer",
          "type": "address"
        }
      ],
      "name": "BuyerApproved",
      "type": "event"
    },
    {
      "anonymous": false,
      "inputs": [
        {
          "indexed": true,
          "internalType": "uint256",
          "name": "tokenId",
          "type": "uint256"
        },
        {
          "indexed": false,
          "internalType": "bool",
          "name": "isDisputed",
          "type": "bool"
        }
      ],
      "name": "EnforcementStatusChanged",
      "type": "event"
    },
    {
      "anonymous": false,
      "inputs": [
        {
          "indexed": true,
          "internalType": "uint256",
          "name": "requestId",
          "type": "uint256"
        },
        {
          "indexed": true,
          "internalType": "uint256",
          "name": "tokenId",
          "type": "uint256"
        }
      ],
      "name": "LandApproved",
      "type": "event"
    },
    {
      "anonymous": false,
      "inputs": [
        {
          "indexed": true,
          "internalType": "uint256",
          "name": "requestId",
          "type": "uint256"
        }
      ],
      "name": "LandRejected",
      "type": "event"
    },
    {
      "anonymous": false,
      "inputs": [
        {
          "indexed": true,
          "internalType": "uint256",
          "name": "requestId",
          "type": "uint256"
        },
        {
          "indexed": true,
          "internalType": "address",
          "name": "to",
          "type": "address"
        },
        {
          "indexed": false,
          "internalType": "string",
          "name": "nib",
          "type": "string"
        }
      ],
      "name": "LandRequested",
      "type": "event"
    },
    {
      "anonymous": false,
      "inputs": [
        {
          "indexed": true,
          "internalType": "uint256",
          "name": "tokenId",
          "type": "uint256"
        },
        {
          "indexed": true,
          "internalType": "address",
          "name": "notaris",
          "type": "address"
        },
        {
          "indexed": false,
          "internalType": "string",
          "name": "ajbIpfsHash",
          "type": "string"
        }
      ],
      "name": "NotarisApproved",
      "type": "event"
    },
    {
      "anonymous": false,
      "inputs": [
        {
          "indexed": true,
          "internalType": "bytes32",
          "name": "role",
          "type": "bytes32"
        },
        {
          "indexed": true,
          "internalType": "bytes32",
          "name": "previousAdminRole",
          "type": "bytes32"
        },
        {
          "indexed": true,
          "internalType": "bytes32",
          "name": "newAdminRole",
          "type": "bytes32"
        }
      ],
      "name": "RoleAdminChanged",
      "type": "event"
    },
    {
      "anonymous": false,
      "inputs": [
        {
          "indexed": true,
          "internalType": "bytes32",
          "name": "role",
          "type": "bytes32"
        },
        {
          "indexed": true,
          "internalType": "address",
          "name": "account",
          "type": "address"
        },
        {
          "indexed": true,
          "internalType": "address",
          "name": "sender",
          "type": "address"
        }
      ],
      "name": "RoleGranted",
      "type": "event"
    },
    {
      "anonymous": false,
      "inputs": [
        {
          "indexed": true,
          "internalType": "bytes32",
          "name": "role",
          "type": "bytes32"
        },
        {
          "indexed": true,
          "internalType": "address",
          "name": "account",
          "type": "address"
        },
        {
          "indexed": true,
          "internalType": "address",
          "name": "sender",
          "type": "address"
        }
      ],
      "name": "RoleRevoked",
      "type": "event"
    },
    {
      "anonymous": false,
      "inputs": [
        {
          "indexed": true,
          "internalType": "address",
          "name": "from",
          "type": "address"
        },
        {
          "indexed": true,
          "internalType": "address",
          "name": "to",
          "type": "address"
        },
        {
          "indexed": true,
          "internalType": "uint256",
          "name": "tokenId",
          "type": "uint256"
        }
      ],
      "name": "Transfer",
      "type": "event"
    },
    {
      "anonymous": false,
      "inputs": [
        {
          "indexed": true,
          "internalType": "uint256",
          "name": "tokenId",
          "type": "uint256"
        },
        {
          "indexed": true,
          "internalType": "address",
          "name": "seller",
          "type": "address"
        },
        {
          "indexed": true,
          "internalType": "address",
          "name": "buyer",
          "type": "address"
        }
      ],
      "name": "TransferCompleted",
      "type": "event"
    },
    {
      "anonymous": false,
      "inputs": [
        {
          "indexed": true,
          "internalType": "uint256",
          "name": "tokenId",
          "type": "uint256"
        },
        {
          "indexed": true,
          "internalType": "address",
          "name": "seller",
          "type": "address"
        },
        {
          "indexed": true,
          "internalType": "address",
          "name": "buyer",
          "type": "address"
        }
      ],
      "name": "TransferProposed",
      "type": "event"
    },
    {
      "inputs": [],
      "name": "ADMIN_BPN_ROLE",
      "outputs": [
        {
          "internalType": "bytes32",
          "name": "",
          "type": "bytes32"
        }
      ],
      "stateMutability": "view",
      "type": "function"
    },
    {
      "inputs": [],
      "name": "AUDITOR_ROLE",
      "outputs": [
        {
          "internalType": "bytes32",
          "name": "",
          "type": "bytes32"
        }
      ],
      "stateMutability": "view",
      "type": "function"
    },
    {
      "inputs": [],
      "name": "BPN_WILAYAH_ROLE",
      "outputs": [
        {
          "internalType": "bytes32",
          "name": "",
          "type": "bytes32"
        }
      ],
      "stateMutability": "view",
      "type": "function"
    },
    {
      "inputs": [],
      "name": "DEFAULT_ADMIN_ROLE",
      "outputs": [
        {
          "internalType": "bytes32",
          "name": "",
          "type": "bytes32"
        }
      ],
      "stateMutability": "view",
      "type": "function"
    },
    {
      "inputs": [],
      "name": "NOTARIS_ROLE",
      "outputs": [
        {
          "internalType": "bytes32",
          "name": "",
          "type": "bytes32"
        }
      ],
      "stateMutability": "view",
      "type": "function"
    },
    {
      "inputs": [
        {
          "internalType": "address",
          "name": "to",
          "type": "address"
        },
        {
          "internalType": "uint256",
          "name": "tokenId",
          "type": "uint256"
        }
      ],
      "name": "approve",
      "outputs": [],
      "stateMutability": "nonpayable",
      "type": "function"
    },
    {
      "inputs": [
        {
          "internalType": "uint256",
          "name": "requestId",
          "type": "uint256"
        }
      ],
      "name": "approveLandRequest",
      "outputs": [],
      "stateMutability": "nonpayable",
      "type": "function"
    },
    {
      "inputs": [
        {
          "internalType": "uint256",
          "name": "tokenId",
          "type": "uint256"
        }
      ],
      "name": "approveTransferBuyer",
      "outputs": [],
      "stateMutability": "nonpayable",
      "type": "function"
    },
    {
      "inputs": [
        {
          "internalType": "uint256",
          "name": "tokenId",
          "type": "uint256"
        },
        {
          "internalType": "string",
          "name": "ajbIpfsHash",
          "type": "string"
        }
      ],
      "name": "approveTransferNotaris",
      "outputs": [],
      "stateMutability": "nonpayable",
      "type": "function"
    },
    {
      "inputs": [
        {
          "internalType": "address",
          "name": "owner",
          "type": "address"
        }
      ],
      "name": "balanceOf",
      "outputs": [
        {
          "internalType": "uint256",
          "name": "",
          "type": "uint256"
        }
      ],
      "stateMutability": "view",
      "type": "function"
    },
    {
      "inputs": [
        {
          "internalType": "uint256",
          "name": "tokenId",
          "type": "uint256"
        }
      ],
      "name": "cancelTransfer",
      "outputs": [],
      "stateMutability": "nonpayable",
      "type": "function"
    },
    {
      "inputs": [
        {
          "internalType": "uint256",
          "name": "tokenId",
          "type": "uint256"
        }
      ],
      "name": "getApproved",
      "outputs": [
        {
          "internalType": "address",
          "name": "",
          "type": "address"
        }
      ],
      "stateMutability": "view",
      "type": "function"
    },
    {
      "inputs": [
        {
          "internalType": "uint256",
          "name": "tokenId",
          "type": "uint256"
        }
      ],
      "name": "getLandDetails",
      "outputs": [
        {
          "components": [
            {
              "internalType": "string",
              "name": "gpsCoordinates",
              "type": "string"
            },
            {
              "internalType": "uint256",
              "name": "area",
              "type": "uint256"
            },
            {
              "internalType": "string",
              "name": "nib",
              "type": "string"
            },
            {
              "internalType": "string[]",
              "name": "ipfsHashes",
              "type": "string[]"
            },
            {
              "internalType": "bool",
              "name": "isDisputed",
              "type": "bool"
            }
          ],
          "internalType": "struct LandRegistry.Land",
          "name": "",
          "type": "tuple"
        }
      ],
      "stateMutability": "view",
      "type": "function"
    },
    {
      "inputs": [
        {
          "internalType": "uint256",
          "name": "tokenId",
          "type": "uint256"
        }
      ],
      "name": "getOwnershipHistory",
      "outputs": [
        {
          "internalType": "address[]",
          "name": "",
          "type": "address[]"
        }
      ],
      "stateMutability": "view",
      "type": "function"
    },
    {
      "inputs": [
        {
          "internalType": "uint256",
          "name": "requestId",
          "type": "uint256"
        }
      ],
      "name": "getRequestDetails",
      "outputs": [
        {
          "components": [
            {
              "internalType": "address",
              "name": "to",
              "type": "address"
            },
            {
              "internalType": "string",
              "name": "gpsCoordinates",
              "type": "string"
            },
            {
              "internalType": "uint256",
              "name": "area",
              "type": "uint256"
            },
            {
              "internalType": "string",
              "name": "nib",
              "type": "string"
            },
            {
              "internalType": "string[]",
              "name": "ipfsHashes",
              "type": "string[]"
            },
            {
              "internalType": "bool",
              "name": "isProcessed",
              "type": "bool"
            },
            {
              "internalType": "bool",
              "name": "isRejected",
              "type": "bool"
            }
          ],
          "internalType": "struct LandRegistry.LandRequest",
          "name": "",
          "type": "tuple"
        }
      ],
      "stateMutability": "view",
      "type": "function"
    },
    {
      "inputs": [
        {
          "internalType": "bytes32",
          "name": "role",
          "type": "bytes32"
        }
      ],
      "name": "getRoleAdmin",
      "outputs": [
        {
          "internalType": "bytes32",
          "name": "",
          "type": "bytes32"
        }
      ],
      "stateMutability": "view",
      "type": "function"
    },
    {
      "inputs": [
        {
          "internalType": "string",
          "name": "nib",
          "type": "string"
        }
      ],
      "name": "getTokenByNIB",
      "outputs": [
        {
          "internalType": "uint256",
          "name": "tokenId",
          "type": "uint256"
        },
        {
          "internalType": "bool",
          "name": "found",
          "type": "bool"
        }
      ],
      "stateMutability": "view",
      "type": "function"
    },
    {
      "inputs": [
        {
          "internalType": "address",
          "name": "owner",
          "type": "address"
        }
      ],
      "name": "getTokensByOwner",
      "outputs": [
        {
          "internalType": "uint256[]",
          "name": "",
          "type": "uint256[]"
        }
      ],
      "stateMutability": "view",
      "type": "function"
    },
    {
      "inputs": [],
      "name": "getTotalLands",
      "outputs": [
        {
          "internalType": "uint256",
          "name": "",
          "type": "uint256"
        }
      ],
      "stateMutability": "view",
      "type": "function"
    },
    {
      "inputs": [],
      "name": "getTotalRequests",
      "outputs": [
        {
          "internalType": "uint256",
          "name": "",
          "type": "uint256"
        }
      ],
      "stateMutability": "view",
      "type": "function"
    },
    {
      "inputs": [
        {
          "internalType": "uint256",
          "name": "tokenId",
          "type": "uint256"
        }
      ],
      "name": "getTransferStatus",
      "outputs": [
        {
          "internalType": "bool",
          "name": "isActive",
          "type": "bool"
        },
        {
          "internalType": "address",
          "name": "seller",
          "type": "address"
        },
        {
          "internalType": "address",
          "name": "buyer",
          "type": "address"
        },
        {
          "internalType": "bool",
          "name": "sellerApproved",
          "type": "bool"
        },
        {
          "internalType": "bool",
          "name": "buyerApproved",
          "type": "bool"
        },
        {
          "internalType": "bool",
          "name": "notarisApproved",
          "type": "bool"
        }
      ],
      "stateMutability": "view",
      "type": "function"
    },
    {
      "inputs": [
        {
          "internalType": "bytes32",
          "name": "role",
          "type": "bytes32"
        },
        {
          "internalType": "address",
          "name": "account",
          "type": "address"
        }
      ],
      "name": "grantRole",
      "outputs": [],
      "stateMutability": "nonpayable",
      "type": "function"
    },
    {
      "inputs": [
        {
          "internalType": "bytes32",
          "name": "role",
          "type": "bytes32"
        },
        {
          "internalType": "address",
          "name": "account",
          "type": "address"
        }
      ],
      "name": "hasRole",
      "outputs": [
        {
          "internalType": "bool",
          "name": "",
          "type": "bool"
        }
      ],
      "stateMutability": "view",
      "type": "function"
    },
    {
      "inputs": [
        {
          "internalType": "address",
          "name": "owner",
          "type": "address"
        },
        {
          "internalType": "address",
          "name": "operator",
          "type": "address"
        }
      ],
      "name": "isApprovedForAll",
      "outputs": [
        {
          "internalType": "bool",
          "name": "",
          "type": "bool"
        }
      ],
      "stateMutability": "view",
      "type": "function"
    },
    {
      "inputs": [
        {
          "internalType": "uint256",
          "name": "",
          "type": "uint256"
        }
      ],
      "name": "landRequests",
      "outputs": [
        {
          "internalType": "address",
          "name": "to",
          "type": "address"
        },
        {
          "internalType": "string",
          "name": "gpsCoordinates",
          "type": "string"
        },
        {
          "internalType": "uint256",
          "name": "area",
          "type": "uint256"
        },
        {
          "internalType": "string",
          "name": "nib",
          "type": "string"
        },
        {
          "internalType": "bool",
          "name": "isProcessed",
          "type": "bool"
        },
        {
          "internalType": "bool",
          "name": "isRejected",
          "type": "bool"
        }
      ],
      "stateMutability": "view",
      "type": "function"
    },
    {
      "inputs": [
        {
          "internalType": "uint256",
          "name": "",
          "type": "uint256"
        }
      ],
      "name": "lands",
      "outputs": [
        {
          "internalType": "string",
          "name": "gpsCoordinates",
          "type": "string"
        },
        {
          "internalType": "uint256",
          "name": "area",
          "type": "uint256"
        },
        {
          "internalType": "string",
          "name": "nib",
          "type": "string"
        },
        {
          "internalType": "bool",
          "name": "isDisputed",
          "type": "bool"
        }
      ],
      "stateMutability": "view",
      "type": "function"
    },
    {
      "inputs": [
        {
          "internalType": "address",
          "name": "to",
          "type": "address"
        },
        {
          "internalType": "string",
          "name": "gpsCoordinates",
          "type": "string"
        },
        {
          "internalType": "uint256",
          "name": "area",
          "type": "uint256"
        },
        {
          "internalType": "string",
          "name": "nib",
          "type": "string"
        },
        {
          "internalType": "string[]",
          "name": "ipfsHashes",
          "type": "string[]"
        }
      ],
      "name": "mintLand",
      "outputs": [],
      "stateMutability": "nonpayable",
      "type": "function"
    },
    {
      "inputs": [],
      "name": "name",
      "outputs": [
        {
          "internalType": "string",
          "name": "",
          "type": "string"
        }
      ],
      "stateMutability": "view",
      "type": "function"
    },
    {
      "inputs": [
        {
          "internalType": "uint256",
          "name": "tokenId",
          "type": "uint256"
        }
      ],
      "name": "ownerOf",
      "outputs": [
        {
          "internalType": "address",
          "name": "",
          "type": "address"
        }
      ],
      "stateMutability": "view",
      "type": "function"
    },
    {
      "inputs": [
        {
          "internalType": "uint256",
          "name": "",
          "type": "uint256"
        },
        {
          "internalType": "uint256",
          "name": "",
          "type": "uint256"
        }
      ],
      "name": "ownershipHistory",
      "outputs": [
        {
          "internalType": "address",
          "name": "",
          "type": "address"
        }
      ],
      "stateMutability": "view",
      "type": "function"
    },
    {
      "inputs": [
        {
          "internalType": "uint256",
          "name": "tokenId",
          "type": "uint256"
        },
        {
          "internalType": "address",
          "name": "buyer",
          "type": "address"
        }
      ],
      "name": "proposeTransfer",
      "outputs": [],
      "stateMutability": "nonpayable",
      "type": "function"
    },
    {
      "inputs": [
        {
          "internalType": "uint256",
          "name": "requestId",
          "type": "uint256"
        }
      ],
      "name": "rejectLandRequest",
      "outputs": [],
      "stateMutability": "nonpayable",
      "type": "function"
    },
    {
      "inputs": [
        {
          "internalType": "bytes32",
          "name": "role",
          "type": "bytes32"
        },
        {
          "internalType": "address",
          "name": "account",
          "type": "address"
        }
      ],
      "name": "renounceRole",
      "outputs": [],
      "stateMutability": "nonpayable",
      "type": "function"
    },
    {
      "inputs": [
        {
          "internalType": "address",
          "name": "to",
          "type": "address"
        },
        {
          "internalType": "string",
          "name": "gpsCoordinates",
          "type": "string"
        },
        {
          "internalType": "uint256",
          "name": "area",
          "type": "uint256"
        },
        {
          "internalType": "string",
          "name": "nib",
          "type": "string"
        },
        {
          "internalType": "string[]",
          "name": "ipfsHashes",
          "type": "string[]"
        }
      ],
      "name": "requestLandMinting",
      "outputs": [],
      "stateMutability": "nonpayable",
      "type": "function"
    },
    {
      "inputs": [
        {
          "internalType": "bytes32",
          "name": "role",
          "type": "bytes32"
        },
        {
          "internalType": "address",
          "name": "account",
          "type": "address"
        }
      ],
      "name": "revokeRole",
      "outputs": [],
      "stateMutability": "nonpayable",
      "type": "function"
    },
    {
      "inputs": [
        {
          "internalType": "address",
          "name": "from",
          "type": "address"
        },
        {
          "internalType": "address",
          "name": "to",
          "type": "address"
        },
        {
          "internalType": "uint256",
          "name": "tokenId",
          "type": "uint256"
        }
      ],
      "name": "safeTransferFrom",
      "outputs": [],
      "stateMutability": "nonpayable",
      "type": "function"
    },
    {
      "inputs": [
        {
          "internalType": "address",
          "name": "from",
          "type": "address"
        },
        {
          "internalType": "address",
          "name": "to",
          "type": "address"
        },
        {
          "internalType": "uint256",
          "name": "tokenId",
          "type": "uint256"
        },
        {
          "internalType": "bytes",
          "name": "data",
          "type": "bytes"
        }
      ],
      "name": "safeTransferFrom",
      "outputs": [],
      "stateMutability": "nonpayable",
      "type": "function"
    },
    {
      "inputs": [
        {
          "internalType": "address",
          "name": "operator",
          "type": "address"
        },
        {
          "internalType": "bool",
          "name": "approved",
          "type": "bool"
        }
      ],
      "name": "setApprovalForAll",
      "outputs": [],
      "stateMutability": "nonpayable",
      "type": "function"
    },
    {
      "inputs": [
        {
          "internalType": "uint256",
          "name": "tokenId",
          "type": "uint256"
        },
        {
          "internalType": "bool",
          "name": "isDisputed",
          "type": "bool"
        }
      ],
      "name": "setEnforcement",
      "outputs": [],
      "stateMutability": "nonpayable",
      "type": "function"
    },
    {
      "inputs": [
        {
          "internalType": "bytes4",
          "name": "interfaceId",
          "type": "bytes4"
        }
      ],
      "name": "supportsInterface",
      "outputs": [
        {
          "internalType": "bool",
          "name": "",
          "type": "bool"
        }
      ],
      "stateMutability": "view",
      "type": "function"
    },
    {
      "inputs": [],
      "name": "symbol",
      "outputs": [
        {
          "internalType": "string",
          "name": "",
          "type": "string"
        }
      ],
      "stateMutability": "view",
      "type": "function"
    },
    {
      "inputs": [
        {
          "internalType": "uint256",
          "name": "tokenId",
          "type": "uint256"
        }
      ],
      "name": "tokenURI",
      "outputs": [
        {
          "internalType": "string",
          "name": "",
          "type": "string"
        }
      ],
      "stateMutability": "view",
      "type": "function"
    },
    {
      "inputs": [
        {
          "internalType": "address",
          "name": "from",
          "type": "address"
        },
        {
          "internalType": "address",
          "name": "to",
          "type": "address"
        },
        {
          "internalType": "uint256",
          "name": "tokenId",
          "type": "uint256"
        }
      ],
      "name": "transferFrom",
      "outputs": [],
      "stateMutability": "nonpayable",
      "type": "function"
    },
    {
      "inputs": [
        {
          "internalType": "uint256",
          "name": "",
          "type": "uint256"
        }
      ],
      "name": "transferRequests",
      "outputs": [
        {
          "internalType": "address",
          "name": "seller",
          "type": "address"
        },
        {
          "internalType": "address",
          "name": "buyer",
          "type": "address"
        },
        {
          "internalType": "address",
          "name": "notaris",
          "type": "address"
        },
        {
          "internalType": "bool",
          "name": "sellerApproved",
          "type": "bool"
        },
        {
          "internalType": "bool",
          "name": "buyerApproved",
          "type": "bool"
        },
        {
          "internalType": "bool",
          "name": "notarisApproved",
          "type": "bool"
        },
        {
          "internalType": "bool",
          "name": "isActive",
          "type": "bool"
        }
      ],
      "stateMutability": "view",
      "type": "function"
    }
  ],
  "bytecode": "0x60806040523480156200001157600080fd5b50604051806040016040528060098152602001682630b7322a37b5b2b760b91b8152506040518060400160405280600381526020016213139160ea1b81525081600090816200006191906200022a565b5060016200007082826200022a565b506200008291506000905033620000e0565b620000ae7f9856acbf9ca422c521e08bc1d8e706e2db0b5830f4d56f698b78d8c01c86949133620000e0565b620000da7f3b6c71f6d44639d5b3e40f2ef3056c3385a1e68a255a703ac23442c1c3be357d33620000e0565b620002f6565b60008281526006602090815260408083206001600160a01b038516845290915290205460ff16620001815760008281526006602090815260408083206001600160a01b03851684529091529020805460ff19166001179055620001403390565b6001600160a01b0316816001600160a01b0316837f2f8788117e7eff1d82e926ec794901d17c78024a50270940304540a733656f0d60405160405180910390a45b5050565b634e487b7160e01b600052604160045260246000fd5b600181811c90821680620001b057607f821691505b602082108103620001d157634e487b7160e01b600052602260045260246000fd5b50919050565b601f8211156200022557600081815260208120601f850160051c81016020861015620002005750805b601f850160051c820191505b8181101562000221578281556001016200020c565b5050505b505050565b81516001600160401b0381111562000246576200024662000185565b6200025e816200025784546200019b565b84620001d7565b602080601f8311600181146200029657600084156200027d5750858301515b600019600386901b1c1916600185901b17855562000221565b600085815260208120601f198616915b82811015620002c757888601518255948401946001909101908401620002a6565b5085821015620002e65787850151600019600388901b60f8161c191681555b5050505050600190811b01905550565b613f3e80620003066000396000f3fe608060405234801561001057600080fd5b50600436106102745760003560e01c806370a0823111610151578063c87b56dd116100c3578063e8b185da11610087578063e8b185da1461072d578063e985e9c514610740578063f0e22d521461077c578063f1dbaccb14610784578063f34d4c63146107a4578063fe0cb7dc146107c457600080fd5b8063c87b56dd146106be578063c89a2bd9146106d1578063c9cf2adc146106e4578063d547741f146106f7578063e261f1e51461070a57600080fd5b806391d148541161011557806391d14854146105cd57806395d89b41146105e0578063a217fddf146105e8578063a22cb465146105f0578063b88d4fde14610603578063b93c37701461061657600080fd5b806370a0823114610563578063842e7dba1461057657806386bde3d11461057e578063875cfe3b146105915780638ec455e3146105a657600080fd5b806336568abe116101ea57806359caecb5116101ae57806359caecb5146104b65780635e621479146104c95780636243f051146104f15780636352211e146105045780636a29b8d7146105175780636e1d616e1461053c57600080fd5b806336568abe1461043657806340398d671461044957806342842e0e146104695780634445ac4d1461047c5780635911b8081461048f57600080fd5b8063095ea7b31161023c578063095ea7b3146103a657806309d4a345146103b95780631b362b05146103cc57806323b872dd146103df578063248a9ca3146103f25780632f2ff15d1461042357600080fd5b806301ffc9a71461027957806303486c40146102a157806306fdde031461035157806307407dd814610366578063081812fc1461037b575b600080fd5b61028c610287366004613235565b6107e4565b60405190151581526020015b60405180910390f35b6103076102af366004613252565b600b602052600090815260409020805460018201546002909201546001600160a01b039182169282169181169060ff600160a01b8204811691600160a81b8104821691600160b01b8204811691600160b81b90041687565b604080516001600160a01b03988916815296881660208801529490961693850193909352901515606084015215156080830152151560a082015290151560c082015260e001610298565b6103596107f5565b60405161029891906132bb565b6103796103743660046133a2565b610887565b005b61038e610389366004613252565b6109f0565b6040516001600160a01b039091168152602001610298565b6103796103b43660046134cd565b610a17565b6103796103c7366004613252565b610b31565b6103796103da36600461350e565b610c2e565b6103796103ed36600461353a565b610cdd565b610415610400366004613252565b60009081526006602052604090206001015490565b604051908152602001610298565b61037961043136600461357b565b610d0e565b61037961044436600461357b565b610d33565b61045c6104573660046135ab565b610db1565b60405161029891906135c8565b61037961047736600461353a565b610f6f565b61037961048a366004613252565b610f8a565b6104157f4e19be690c034b73b896a80e4645324b1ada2a2d102cf965cd497dd07f3a195081565b6103796104c4366004613252565b6113cd565b6104dc6104d736600461360c565b611478565b60408051928352901515602083015201610298565b6103796104ff3660046133a2565b6114ec565b61038e610512366004613252565b61164e565b61052a610525366004613252565b6116ae565b60405161029896959493929190613641565b6104157f59a1c48e5837ad7a7f3dcedcbe129bf3249ec4fbf651fd4f5e2600ead39fe2f581565b6104156105713660046135ab565b611803565b600754610415565b61037961058c36600461357b565b611889565b610415600080516020613ee983398151915281565b6104157f3b6c71f6d44639d5b3e40f2ef3056c3385a1e68a255a703ac23442c1c3be357d81565b61028c6105db36600461357b565b611a92565b610359611abd565b610415600081565b6103796105fe366004613698565b611acc565b6103796106113660046136c4565b611ad7565b61067d610624366004613252565b6000908152600b602052604090206002810154815460019092015460ff600160b81b83048116946001600160a01b039485169490921692600160a01b8104821692600160a81b8204831692600160b01b90920490911690565b6040805196151587526001600160a01b03958616602088015293909416928501929092521515606084015215156080830152151560a082015260c001610298565b6103596106cc366004613252565b611b0f565b6103796106df366004613744565b611b83565b61038e6106f236600461378b565b611d26565b61037961070536600461357b565b611d5e565b61071d610718366004613252565b611d83565b60405161029894939291906137ad565b61037961073b366004613252565b611ebe565b61028c61074e3660046137ec565b6001600160a01b03918216600090815260056020908152604080832093909416825291909152205460ff1690565b600854610415565b610797610792366004613252565b611fcb565b604051610298919061381a565b6107b76107b2366004613252565b612037565b60405161029891906138b0565b6107d76107d2366004613252565b6122de565b6040516102989190613947565b60006107ef82612548565b92915050565b606060008054610804906139c2565b80601f0160208091040260200160405190810160405280929190818152602001828054610830906139c2565b801561087d5780601f106108525761010080835404028352916020019161087d565b820191906000526020600020905b81548152906001019060200180831161086057829003601f168201915b5050505050905090565b7f3b6c71f6d44639d5b3e40f2ef3056c3385a1e68a255a703ac23442c1c3be357d6108b18161256d565b60078054600091826108c283613a12565b909155506040805160a081018252888152602080820189905281830188905260608201879052600060808301819052848152600a909152919091208151929350909181906109109082613a79565b50602082015160018201556040820151600282019061092f9082613a79565b506060820151805161094b916003840191602090910190613162565b50608091909101516004909101805460ff1916911515919091179055610971878261257a565b6000818152600c602090815260408083208054600181018255908452919092200180546001600160a01b0319166001600160a01b038a16908117909155905182907fa30dd43fc057b356acd774161b6c8743df78c9bd58d7f492dd56d00121dda6b5906109df9088906132bb565b60405180910390a350505050505050565b60006109fb82612594565b506000908152600460205260409020546001600160a01b031690565b6000610a228261164e565b9050806001600160a01b0316836001600160a01b031603610a945760405162461bcd60e51b815260206004820152602160248201527f4552433732313a20617070726f76616c20746f2063757272656e74206f776e656044820152603960f91b60648201526084015b60405180910390fd5b336001600160a01b0382161480610ab05750610ab0813361074e565b610b225760405162461bcd60e51b815260206004820152603d60248201527f4552433732313a20617070726f76652063616c6c6572206973206e6f7420746f60448201527f6b656e206f776e6572206f7220617070726f76656420666f7220616c6c0000006064820152608401610a8b565b610b2c83836125f3565b505050565b6000818152600b602052604090206002810154600160b81b900460ff16610b6a5760405162461bcd60e51b8152600401610a8b90613b39565b60018101546001600160a01b03163314610bb65760405162461bcd60e51b815260206004820152600d60248201526c2737ba103a343290313abcb2b960991b6044820152606401610a8b565b6000828152600a602052604090206004015460ff1615610be85760405162461bcd60e51b8152600401610a8b90613b65565b60028101805460ff60a81b1916600160a81b179055604051339083907fcf93094854a81f1a3d7c99633cff4dac98837e96ebc9d5529993dea33242cc6790600090a35050565b610c46600080516020613ee983398151915233611a92565b610c835760405162461bcd60e51b815260206004820152600e60248201526d139bdd08185d5d1a1bdc9a5e995960921b6044820152606401610a8b565b6000828152600a6020908152604091829020600401805460ff1916841515908117909155915191825283917f388370698ea03650624022e5f43e8cb1f902ba526ee8287ff865709bc3946437910160405180910390a25050565b610ce73382612661565b610d035760405162461bcd60e51b8152600401610a8b90613b91565b610b2c8383836126e0565b600082815260066020526040902060010154610d298161256d565b610b2c8383612844565b6001600160a01b0381163314610da35760405162461bcd60e51b815260206004820152602f60248201527f416363657373436f6e74726f6c3a2063616e206f6e6c792072656e6f756e636560448201526e103937b632b9903337b91039b2b63360891b6064820152608401610a8b565b610dad82826128ca565b5050565b6007546060906000805b82811015610e5b576040516331a9108f60e11b8152600481018290523090636352211e90602401602060405180830381865afa925050508015610e1b575060408051601f3d908101601f19168201909252610e1891810190613bde565b60015b15610e4957856001600160a01b0316816001600160a01b031603610e475782610e4381613a12565b9350505b505b80610e5381613a12565b915050610dbb565b5060008167ffffffffffffffff811115610e7757610e776132e3565b604051908082528060200260200182016040528015610ea0578160200160208202803683370190505b5090506000805b84811015610f64576040516331a9108f60e11b8152600481018290523090636352211e90602401602060405180830381865afa925050508015610f07575060408051601f3d908101601f19168201909252610f0491810190613bde565b60015b15610f5257876001600160a01b0316816001600160a01b031603610f5057818484610f3181613a12565b955081518110610f4357610f43613bfb565b6020026020010181815250505b505b80610f5c81613a12565b915050610ea7565b509095945050505050565b610b2c83838360405180602001604052806000815250611ad7565b600080516020613ee9833981519152610fa28161256d565b6000828152600960205260409020600581015460ff16156110015760405162461bcd60e51b815260206004820152601960248201527814995c5d595cdd08185b1c9958591e481c1c9bd8d95cdcd959603a1b6044820152606401610a8b565b6005810154610100900460ff16156110565760405162461bcd60e51b815260206004820152601860248201527714995c5d595cdd08185b1c9958591e481c995a9958dd195960421b6044820152606401610a8b565b600780546000918261106783613a12565b9190505590506040518060a00160405280836001018054611087906139c2565b80601f01602080910402602001604051908101604052809291908181526020018280546110b3906139c2565b80156111005780601f106110d557610100808354040283529160200191611100565b820191906000526020600020905b8154815290600101906020018083116110e357829003601f168201915b5050505050815260200183600201548152602001836003018054611123906139c2565b80601f016020809104026020016040519081016040528092919081815260200182805461114f906139c2565b801561119c5780601f106111715761010080835404028352916020019161119c565b820191906000526020600020905b81548152906001019060200180831161117f57829003601f168201915b5050505050815260200183600401805480602002602001604051908101604052809291908181526020016000905b828210156112765783829060005260206000200180546111e9906139c2565b80601f0160208091040260200160405190810160405280929190818152602001828054611215906139c2565b80156112625780601f1061123757610100808354040283529160200191611262565b820191906000526020600020905b81548152906001019060200180831161124557829003601f168201915b5050505050815260200190600101906111ca565b5050509082525060006020918201819052838152600a90915260409020815181906112a19082613a79565b5060208201516001820155604082015160028201906112c09082613a79565b50606082015180516112dc916003840191602090910190613162565b50608091909101516004909101805491151560ff199283161790556005830180549091166001179055815461131a906001600160a01b03168261257a565b6000818152600c60209081526040808320855481546001810183559185529290932090920180546001600160a01b0319166001600160a01b039283161790558354915191169082907fa30dd43fc057b356acd774161b6c8743df78c9bd58d7f492dd56d00121dda6b590611392906003870190613c11565b60405180910390a3604051819085907f80c07e5180f4a154e4adf43327ef47a76fdf66557ce3a828241bad33606d918690600090a350505050565b6000818152600b602052604090206002810154600160b81b900460ff166114065760405162461bcd60e51b8152600401610a8b90613b39565b80546001600160a01b031633148061142a575060018101546001600160a01b031633145b6114675760405162461bcd60e51b815260206004820152600e60248201526d139bdd08185d5d1a1bdc9a5e995960921b6044820152606401610a8b565b600201805460ff60b81b1916905550565b6007546000908190815b818110156114df578480519060200120600a60008381526020019081526020016000206002016040516114b59190613c9c565b6040518091039020036114cd57946001945092505050565b806114d781613a12565b915050611482565b5060009485945092505050565b7f3b6c71f6d44639d5b3e40f2ef3056c3385a1e68a255a703ac23442c1c3be357d6115168161256d565b600880546000918261152783613a12565b909155506040805160e0810182526001600160a01b038a8116825260208083018b81528385018b9052606084018a905260808401899052600060a0850181905260c085018190528681526009909252939020825181546001600160a01b031916921691909117815591519293509160018201906115a49082613a79565b5060408201516002820155606082015160038201906115c39082613a79565b50608082015180516115df916004840191602090910190613162565b5060a08201516005909101805460c09093015115156101000261ff00199215159290921661ffff19909316929092171790556040516001600160a01b0388169082907f60a6f71d35a977ce4dc4493a5752edd1965b1f343bce0e351d88b5ac90c84247906109df9088906132bb565b6000818152600260205260408120546001600160a01b0316806107ef5760405162461bcd60e51b8152602060048201526018602482015277115490cdcc8c4e881a5b9d985b1a59081d1bdad95b88125160421b6044820152606401610a8b565b600960205260009081526040902080546001820180546001600160a01b0390921692916116da906139c2565b80601f0160208091040260200160405190810160405280929190818152602001828054611706906139c2565b80156117535780601f1061172857610100808354040283529160200191611753565b820191906000526020600020905b81548152906001019060200180831161173657829003601f168201915b50505050509080600201549080600301805461176e906139c2565b80601f016020809104026020016040519081016040528092919081815260200182805461179a906139c2565b80156117e75780601f106117bc576101008083540402835291602001916117e7565b820191906000526020600020905b8154815290600101906020018083116117ca57829003601f168201915b5050506005909301549192505060ff8082169161010090041686565b60006001600160a01b03821661186d5760405162461bcd60e51b815260206004820152602960248201527f4552433732313a2061646472657373207a65726f206973206e6f7420612076616044820152683634b21037bbb732b960b91b6064820152608401610a8b565b506001600160a01b031660009081526003602052604090205490565b336118938361164e565b6001600160a01b0316146118d95760405162461bcd60e51b815260206004820152600d60248201526c2737ba103a34329037bbb732b960991b6044820152606401610a8b565b6000828152600a602052604090206004015460ff161561190b5760405162461bcd60e51b8152600401610a8b90613b65565b6000828152600b6020526040902060020154600160b81b900460ff161561196d5760405162461bcd60e51b8152602060048201526016602482015275416374697665207472616e736665722065786973747360501b6044820152606401610a8b565b6040805160e081018252338082526001600160a01b038481166020808501828152600086880181815260016060890181815260808a0184815260a08b0185815260c08c018481528f8752600b9098528c86209b518c54908b166001600160a01b0319918216178d559651938c018054948b16949097169390931790955591516002909901805492519451915195511515600160b81b0260ff60b81b19961515600160b01b0260ff60b01b19931515600160a81b029390931661ffff60a81b19961515600160a01b026001600160a81b03199095169b9099169a909a179290921793909316959095179190911791909116949094179091559251909185917fc1d91ef3905e00972bebbb95768bc866bdc68d24a68dde011efaa8a39c879d5d9190a45050565b60009182526006602090815260408084206001600160a01b0393909316845291905290205460ff1690565b606060018054610804906139c2565b610dad338383612931565b611ae13383612661565b611afd5760405162461bcd60e51b8152600401610a8b90613b91565b611b09848484846129ff565b50505050565b6060611b1a82612594565b6000611b3160408051602081019091526000815290565b90506000815111611b515760405180602001604052806000815250611b7c565b80611b5b84612a32565b604051602001611b6c929190613d12565b6040516020818303038152906040525b9392505050565b7f4e19be690c034b73b896a80e4645324b1ada2a2d102cf965cd497dd07f3a1950611bad8161256d565b6000838152600b602052604090206002810154600160b81b900460ff16611be65760405162461bcd60e51b8152600401610a8b90613b39565b6002810154600160a01b900460ff168015611c0c57506002810154600160a81b900460ff165b611c585760405162461bcd60e51b815260206004820152601f60248201527f53656c6c6572206f72206275796572206861736e277420617070726f766564006044820152606401610a8b565b6000848152600a602052604090206004015460ff1615611c8a5760405162461bcd60e51b8152600401610a8b90613b65565b60028101805460ff60b01b193316600162ff000160a01b031990911617600160b01b1790556000848152600a6020908152604082206003018054600181018255908352912001611cda8482613a79565b50336001600160a01b0316847fbb079a066630cab8761841cb47c7c4c785fb83cd31f23baf8e0c3fd317d9e52485604051611d1591906132bb565b60405180910390a3611b0984612ac6565b600c6020528160005260406000208181548110611d4257600080fd5b6000918252602090912001546001600160a01b03169150829050565b600082815260066020526040902060010154611d798161256d565b610b2c83836128ca565b600a60205260009081526040902080548190611d9e906139c2565b80601f0160208091040260200160405190810160405280929190818152602001828054611dca906139c2565b8015611e175780601f10611dec57610100808354040283529160200191611e17565b820191906000526020600020905b815481529060010190602001808311611dfa57829003601f168201915b505050505090806001015490806002018054611e32906139c2565b80601f0160208091040260200160405190810160405280929190818152602001828054611e5e906139c2565b8015611eab5780601f10611e8057610100808354040283529160200191611eab565b820191906000526020600020905b815481529060010190602001808311611e8e57829003601f168201915b5050506004909301549192505060ff1684565b600080516020613ee9833981519152611ed68161256d565b6000828152600960205260409020600581015460ff1615611f355760405162461bcd60e51b815260206004820152601960248201527814995c5d595cdd08185b1c9958591e481c1c9bd8d95cdcd959603a1b6044820152606401610a8b565b6005810154610100900460ff1615611f8a5760405162461bcd60e51b815260206004820152601860248201527714995c5d595cdd08185b1c9958591e481c995a9958dd195960421b6044820152606401610a8b565b60058101805461ff00191661010017905560405183907fad423fb43b7443196fd254deba8687812bcdc897e7490d594b86c44891a612b190600090a2505050565b6000818152600c602090815260409182902080548351818402810184019094528084526060939283018282801561202b57602002820191906000526020600020905b81546001600160a01b0316815260019091019060200180831161200d575b50505050509050919050565b6120846040518060e0016040528060006001600160a01b03168152602001606081526020016000815260200160608152602001606081526020016000151581526020016000151581525090565b600082815260096020908152604091829020825160e0810190935280546001600160a01b0316835260018101805491928401916120c0906139c2565b80601f01602080910402602001604051908101604052809291908181526020018280546120ec906139c2565b80156121395780601f1061210e57610100808354040283529160200191612139565b820191906000526020600020905b81548152906001019060200180831161211c57829003601f168201915b505050505081526020016002820154815260200160038201805461215c906139c2565b80601f0160208091040260200160405190810160405280929190818152602001828054612188906139c2565b80156121d55780601f106121aa576101008083540402835291602001916121d5565b820191906000526020600020905b8154815290600101906020018083116121b857829003601f168201915b5050505050815260200160048201805480602002602001604051908101604052809291908181526020016000905b828210156122af578382906000526020600020018054612222906139c2565b80601f016020809104026020016040519081016040528092919081815260200182805461224e906139c2565b801561229b5780601f106122705761010080835404028352916020019161229b565b820191906000526020600020905b81548152906001019060200180831161227e57829003601f168201915b505050505081526020019060010190612203565b505050908252506005919091015460ff8082161515602084015261010090910416151560409091015292915050565b6123126040518060a00160405280606081526020016000815260200160608152602001606081526020016000151581525090565b6000828152600a602052604090819020815160a0810190925280548290829061233a906139c2565b80601f0160208091040260200160405190810160405280929190818152602001828054612366906139c2565b80156123b35780601f10612388576101008083540402835291602001916123b3565b820191906000526020600020905b81548152906001019060200180831161239657829003601f168201915b50505050508152602001600182015481526020016002820180546123d6906139c2565b80601f0160208091040260200160405190810160405280929190818152602001828054612402906139c2565b801561244f5780601f106124245761010080835404028352916020019161244f565b820191906000526020600020905b81548152906001019060200180831161243257829003601f168201915b5050505050815260200160038201805480602002602001604051908101604052809291908181526020016000905b8282101561252957838290600052602060002001805461249c906139c2565b80601f01602080910402602001604051908101604052809291908181526020018280546124c8906139c2565b80156125155780601f106124ea57610100808354040283529160200191612515565b820191906000526020600020905b8154815290600101906020018083116124f857829003601f168201915b50505050508152602001906001019061247d565b505050908252506004919091015460ff16151560209091015292915050565b60006001600160e01b03198216637965db0b60e01b14806107ef57506107ef82612b74565b6125778133612bc4565b50565b610dad828260405180602001604052806000815250612c1d565b6000818152600260205260409020546001600160a01b03166125775760405162461bcd60e51b8152602060048201526018602482015277115490cdcc8c4e881a5b9d985b1a59081d1bdad95b88125160421b6044820152606401610a8b565b600081815260046020526040902080546001600160a01b0319166001600160a01b03841690811790915581906126288261164e565b6001600160a01b03167f8c5be1e5ebec7d5bd14f71427d1e84f3dd0314c0f7b2291e5b200ac8c7c3b92560405160405180910390a45050565b60008061266d8361164e565b9050806001600160a01b0316846001600160a01b031614806126b457506001600160a01b0380821660009081526005602090815260408083209388168352929052205460ff165b806126d85750836001600160a01b03166126cd846109f0565b6001600160a01b0316145b949350505050565b826001600160a01b03166126f38261164e565b6001600160a01b0316146127195760405162461bcd60e51b8152600401610a8b90613d41565b6001600160a01b03821661277b5760405162461bcd60e51b8152602060048201526024808201527f4552433732313a207472616e7366657220746f20746865207a65726f206164646044820152637265737360e01b6064820152608401610a8b565b826001600160a01b031661278e8261164e565b6001600160a01b0316146127b45760405162461bcd60e51b8152600401610a8b90613d41565b600081815260046020908152604080832080546001600160a01b03199081169091556001600160a01b0387811680865260038552838620805460001901905590871680865283862080546001019055868652600290945282852080549092168417909155905184937fddf252ad1be2c89b69c2b068fc378daa952ba7f163c4a11628f55a4df523b3ef91a4505050565b61284e8282611a92565b610dad5760008281526006602090815260408083206001600160a01b03851684529091529020805460ff191660011790556128863390565b6001600160a01b0316816001600160a01b0316837f2f8788117e7eff1d82e926ec794901d17c78024a50270940304540a733656f0d60405160405180910390a45050565b6128d48282611a92565b15610dad5760008281526006602090815260408083206001600160a01b0385168085529252808320805460ff1916905551339285917ff6391f5c32d9c69d2a47ea670b442974b53935d1edc7fd64eb21e047a839171b9190a45050565b816001600160a01b0316836001600160a01b0316036129925760405162461bcd60e51b815260206004820152601960248201527f4552433732313a20617070726f766520746f2063616c6c6572000000000000006044820152606401610a8b565b6001600160a01b03838116600081815260056020908152604080832094871680845294825291829020805460ff191686151590811790915591519182527f17307eab39ab6107e8899845ad3d59bd9653f200f220920489ca2b5937696c31910160405180910390a3505050565b612a0a8484846126e0565b612a1684848484612c50565b611b095760405162461bcd60e51b8152600401610a8b90613d86565b60606000612a3f83612d51565b600101905060008167ffffffffffffffff811115612a5f57612a5f6132e3565b6040519080825280601f01601f191660200182016040528015612a89576020820181803683370190505b5090508181016020015b600019016f181899199a1a9b1b9c1cb0b131b232b360811b600a86061a8153600a8504945084612a93575b509392505050565b6000818152600b602052604090208054600182015460028301805460ff60b81b191690556001600160a01b039182169116612b028282866126e0565b6000848152600c60209081526040808320805460018101825590845291832090910180546001600160a01b0319166001600160a01b03858116918217909255915191929085169187917fe30f4d2a28a67cdb8856ab10670990536f9e43edbec16c6c9094a931a58bce9591a450505050565b60006001600160e01b031982166380ac58cd60e01b1480612ba557506001600160e01b03198216635b5e139f60e01b145b806107ef57506301ffc9a760e01b6001600160e01b03198316146107ef565b612bce8282611a92565b610dad57612bdb81612e29565b612be6836020612e3b565b604051602001612bf7929190613dd8565b60408051601f198184030181529082905262461bcd60e51b8252610a8b916004016132bb565b612c278383612fd7565b612c346000848484612c50565b610b2c5760405162461bcd60e51b8152600401610a8b90613d86565b60006001600160a01b0384163b15612d4657604051630a85bd0160e11b81526001600160a01b0385169063150b7a0290612c94903390899088908890600401613e4d565b6020604051808303816000875af1925050508015612ccf575060408051601f3d908101601f19168201909252612ccc91810190613e8a565b60015b612d2c573d808015612cfd576040519150601f19603f3d011682016040523d82523d6000602084013e612d02565b606091505b508051600003612d245760405162461bcd60e51b8152600401610a8b90613d86565b805181602001fd5b6001600160e01b031916630a85bd0160e11b1490506126d8565b506001949350505050565b60008072184f03e93ff9f4daa797ed6e38ed64bf6a1f0160401b8310612d905772184f03e93ff9f4daa797ed6e38ed64bf6a1f0160401b830492506040015b6d04ee2d6d415b85acef81000000008310612dbc576d04ee2d6d415b85acef8100000000830492506020015b662386f26fc100008310612dda57662386f26fc10000830492506010015b6305f5e1008310612df2576305f5e100830492506008015b6127108310612e0657612710830492506004015b60648310612e18576064830492506002015b600a83106107ef5760010192915050565b60606107ef6001600160a01b03831660145b60606000612e4a836002613ea7565b612e55906002613ebe565b67ffffffffffffffff811115612e6d57612e6d6132e3565b6040519080825280601f01601f191660200182016040528015612e97576020820181803683370190505b509050600360fc1b81600081518110612eb257612eb2613bfb565b60200101906001600160f81b031916908160001a905350600f60fb1b81600181518110612ee157612ee1613bfb565b60200101906001600160f81b031916908160001a9053506000612f05846002613ea7565b612f10906001613ebe565b90505b6001811115612f88576f181899199a1a9b1b9c1cb0b131b232b360811b85600f1660108110612f4457612f44613bfb565b1a60f81b828281518110612f5a57612f5a613bfb565b60200101906001600160f81b031916908160001a90535060049490941c93612f8181613ed1565b9050612f13565b508315611b7c5760405162461bcd60e51b815260206004820181905260248201527f537472696e67733a20686578206c656e67746820696e73756666696369656e746044820152606401610a8b565b6001600160a01b03821661302d5760405162461bcd60e51b815260206004820181905260248201527f4552433732313a206d696e7420746f20746865207a65726f20616464726573736044820152606401610a8b565b6000818152600260205260409020546001600160a01b0316156130925760405162461bcd60e51b815260206004820152601c60248201527f4552433732313a20746f6b656e20616c7265616479206d696e746564000000006044820152606401610a8b565b6000818152600260205260409020546001600160a01b0316156130f75760405162461bcd60e51b815260206004820152601c60248201527f4552433732313a20746f6b656e20616c7265616479206d696e746564000000006044820152606401610a8b565b6001600160a01b038216600081815260036020908152604080832080546001019055848352600290915280822080546001600160a01b0319168417905551839291907fddf252ad1be2c89b69c2b068fc378daa952ba7f163c4a11628f55a4df523b3ef908290a45050565b8280548282559060005260206000209081019282156131a8579160200282015b828111156131a857825182906131989082613a79565b5091602001919060010190613182565b506131b49291506131b8565b5090565b808211156131b45760006131cc82826131d5565b506001016131b8565b5080546131e1906139c2565b6000825580601f106131f1575050565b601f01602090049060005260206000209081019061257791905b808211156131b4576000815560010161320b565b6001600160e01b03198116811461257757600080fd5b60006020828403121561324757600080fd5b8135611b7c8161321f565b60006020828403121561326457600080fd5b5035919050565b60005b8381101561328657818101518382015260200161326e565b50506000910152565b600081518084526132a781602086016020860161326b565b601f01601f19169290920160200192915050565b602081526000611b7c602083018461328f565b6001600160a01b038116811461257757600080fd5b634e487b7160e01b600052604160045260246000fd5b604051601f8201601f1916810167ffffffffffffffff81118282101715613322576133226132e3565b604052919050565b600067ffffffffffffffff831115613344576133446132e3565b613357601f8401601f19166020016132f9565b905082815283838301111561336b57600080fd5b828260208301376000602084830101529392505050565b600082601f83011261339357600080fd5b611b7c8383356020850161332a565b600080600080600060a086880312156133ba57600080fd5b85356133c5816132ce565b945060208681013567ffffffffffffffff808211156133e357600080fd5b6133ef8a838b01613382565b965060408901359550606089013591508082111561340c57600080fd5b6134188a838b01613382565b9450608089013591508082111561342e57600080fd5b818901915089601f83011261344257600080fd5b813581811115613454576134546132e3565b8060051b6134638582016132f9565b918252838101850191858101908d84111561347d57600080fd5b86860192505b838310156134b95782358581111561349b5760008081fd5b6134a98f89838a0101613382565b8352509186019190860190613483565b809750505050505050509295509295909350565b600080604083850312156134e057600080fd5b82356134eb816132ce565b946020939093013593505050565b8035801515811461350957600080fd5b919050565b6000806040838503121561352157600080fd5b82359150613531602084016134f9565b90509250929050565b60008060006060848603121561354f57600080fd5b833561355a816132ce565b9250602084013561356a816132ce565b929592945050506040919091013590565b6000806040838503121561358e57600080fd5b8235915060208301356135a0816132ce565b809150509250929050565b6000602082840312156135bd57600080fd5b8135611b7c816132ce565b6020808252825182820181905260009190848201906040850190845b81811015613600578351835292840192918401916001016135e4565b50909695505050505050565b60006020828403121561361e57600080fd5b813567ffffffffffffffff81111561363557600080fd5b6126d884828501613382565b6001600160a01b038716815260c0602082018190526000906136659083018861328f565b866040840152828103606084015261367d818761328f565b9415156080840152505090151560a090910152949350505050565b600080604083850312156136ab57600080fd5b82356136b6816132ce565b9150613531602084016134f9565b600080600080608085870312156136da57600080fd5b84356136e5816132ce565b935060208501356136f5816132ce565b925060408501359150606085013567ffffffffffffffff81111561371857600080fd5b8501601f8101871361372957600080fd5b6137388782356020840161332a565b91505092959194509250565b6000806040838503121561375757600080fd5b82359150602083013567ffffffffffffffff81111561377557600080fd5b61378185828601613382565b9150509250929050565b6000806040838503121561379e57600080fd5b50508035926020909101359150565b6080815260006137c0608083018761328f565b85602084015282810360408401526137d8818661328f565b915050821515606083015295945050505050565b600080604083850312156137ff57600080fd5b823561380a816132ce565b915060208301356135a0816132ce565b6020808252825182820181905260009190848201906040850190845b818110156136005783516001600160a01b031683529284019291840191600101613836565b600081518084526020808501808196508360051b8101915082860160005b858110156138a357828403895261389184835161328f565b98850198935090840190600101613879565b5091979650505050505050565b602080825282516001600160a01b03168282015282015160e060408301526000906138df61010084018261328f565b9050604084015160608401526060840151601f1980858403016080860152613907838361328f565b925060808601519150808584030160a086015250613925828261385b565b91505060a0840151151560c084015260c0840151612abe60e085018215159052565b602081526000825160a0602084015261396360c084018261328f565b9050602084015160408401526040840151601f198085840301606086015261398b838361328f565b92506060860151915080858403016080860152506139a9828261385b565b9150506080840151151560a08401528091505092915050565b600181811c908216806139d657607f821691505b6020821081036139f657634e487b7160e01b600052602260045260246000fd5b50919050565b634e487b7160e01b600052601160045260246000fd5b600060018201613a2457613a246139fc565b5060010190565b601f821115610b2c57600081815260208120601f850160051c81016020861015613a525750805b601f850160051c820191505b81811015613a7157828155600101613a5e565b505050505050565b815167ffffffffffffffff811115613a9357613a936132e3565b613aa781613aa184546139c2565b84613a2b565b602080601f831160018114613adc5760008415613ac45750858301515b600019600386901b1c1916600185901b178555613a71565b600085815260208120601f198616915b82811015613b0b57888601518255948401946001909101908401613aec565b5085821015613b295787850151600019600388901b60f8161c191681555b5050505050600190811b01905550565b60208082526012908201527127379030b1ba34bb32903a3930b739b332b960711b604082015260600190565b6020808252601290820152714c616e6420697320696e206469737075746560701b604082015260600190565b6020808252602d908201527f4552433732313a2063616c6c6572206973206e6f7420746f6b656e206f776e6560408201526c1c881bdc88185c1c1c9bdd9959609a1b606082015260800190565b600060208284031215613bf057600080fd5b8151611b7c816132ce565b634e487b7160e01b600052603260045260246000fd5b6000602080835260008454613c25816139c2565b80848701526040600180841660008114613c465760018114613c6057613c8e565b60ff1985168984015283151560051b890183019550613c8e565b896000528660002060005b85811015613c865781548b8201860152908301908801613c6b565b8a0184019650505b509398975050505050505050565b6000808354613caa816139c2565b60018281168015613cc25760018114613cd757613d06565b60ff1984168752821515830287019450613d06565b8760005260208060002060005b85811015613cfd5781548a820152908401908201613ce4565b50505082870194505b50929695505050505050565b60008351613d2481846020880161326b565b835190830190613d3881836020880161326b565b01949350505050565b60208082526025908201527f4552433732313a207472616e736665722066726f6d20696e636f72726563742060408201526437bbb732b960d91b606082015260800190565b60208082526032908201527f4552433732313a207472616e7366657220746f206e6f6e20455243373231526560408201527131b2b4bb32b91034b6b83632b6b2b73a32b960711b606082015260800190565b7f416363657373436f6e74726f6c3a206163636f756e7420000000000000000000815260008351613e1081601785016020880161326b565b7001034b99036b4b9b9b4b733903937b6329607d1b6017918401918201528351613e4181602884016020880161326b565b01602801949350505050565b6001600160a01b0385811682528416602082015260408101839052608060608201819052600090613e809083018461328f565b9695505050505050565b600060208284031215613e9c57600080fd5b8151611b7c8161321f565b80820281158282048414176107ef576107ef6139fc565b808201808211156107ef576107ef6139fc565b600081613ee057613ee06139fc565b50600019019056fe9856acbf9ca422c521e08bc1d8e706e2db0b5830f4d56f698b78d8c01c869491a26469706673582212208c80f372529301cae6ea9782b763b6e9760a4060725acb12d282183cebac045764736f6c63430008130033",
  "linkReferences": {},
  "deployedLinkReferences": {}
}