{
  "_format": "hh-sol-artifact-1",
  "contractName": "AccessControl",
  "sourceName": "contracts/access/AccessControl.sol",
  "abi": [
    {
      "inputs": [],
      "stateMutability": "nonpayable",
      "type": "constructor"
    },
    {
      "anonymous": false,
      "inputs": [
        {
          "indexed": true,
          "internalType": "address",
          "name": "previousOwner",
          "type": "address"
        },
        {
          "indexed": true,
          "internalType": "address",
          "name": "newOwner",
          "type": "address"
        }
      ],
      "name": "OwnershipTransferred",
      "type": "event"
    },
    {
      "anonymous": false,
      "inputs": [
        {
          "indexed": true,
          "internalType": "address",
          "name": "account",
          "type": "address"
        },
        {
          "indexed": false,
          "internalType": "string",
          "name": "institution",
          "type": "string"
        },
        {
          "indexed": false,
          "internalType": "uint256",
          "name": "timestamp",
          "type": "uint256"
        }
      ],
      "name": "VerificatorAppointed",
      "type": "event"
    },
    {
      "anonymous": false,
      "inputs": [
        {
          "indexed": true,
          "internalType": "address",
          "name": "account",
          "type": "address"
        },
        {
          "indexed": false,
          "internalType": "uint256",
          "name": "timestamp",
          "type": "uint256"
        }
      ],
      "name": "VerificatorRemoved",
      "type": "event"
    },
    {
      "inputs": [
        {
          "internalType": "address",
          "name": "_account",
          "type": "address"
        },
        {
          "internalType": "string",
          "name": "_institution",
          "type": "string"
        }
      ],
      "name": "appointVerificator",
      "outputs": [],
      "stateMutability": "nonpayable",
      "type": "function"
    },
    {
      "inputs": [
        {
          "internalType": "address",
          "name": "_account",
          "type": "address"
        }
      ],
      "name": "getValidatorInstitution",
      "outputs": [
        {
          "internalType": "string",
          "name": "",
          "type": "string"
        }
      ],
      "stateMutability": "view",
      "type": "function"
    },
    {
      "inputs": [
        {
          "internalType": "address",
          "name": "",
          "type": "address"
        }
      ],
      "name": "isVerificator",
      "outputs": [
        {
          "internalType": "bool",
          "name": "",
          "type": "bool"
        }
      ],
      "stateMutability": "view",
      "type": "function"
    },
    {
      "inputs": [],
      "name": "owner",
      "outputs": [
        {
          "internalType": "address",
          "name": "",
          "type": "address"
        }
      ],
      "stateMutability": "view",
      "type": "function"
    },
    {
      "inputs": [
        {
          "internalType": "address",
          "name": "_account",
          "type": "address"
        }
      ],
      "name": "removeVerificator",
      "outputs": [],
      "stateMutability": "nonpayable",
      "type": "function"
    },
    {
      "inputs": [
        {
          "internalType": "address",
          "name": "_newOwner",
          "type": "address"
        }
      ],
      "name": "transferOwnership",
      "outputs": [],
      "stateMutability": "nonpayable",
      "type": "function"
    },
    {
      "inputs": [
        {
          "internalType": "address",
          "name": "",
          "type": "address"
        }
      ],
      "name": "validatorInstitution",
      "outputs": [
        {
          "internalType": "string",
          "name": "",
          "type": "string"
        }
      ],
      "stateMutability": "view",
      "type": "function"
    }
  ],
  "bytecode": "0x608060405234801561001057600080fd5b50600080546001600160a01b0319163390811782556040519091907f8be0079c531659141344cd1fd0a4f28419497f9722a3daafe3b4186f6b6457e0908290a361099e8061005f6000396000f3fe608060405234801561001057600080fd5b506004361061007d5760003560e01c80638da5cb5b1161005b5780638da5cb5b146100ed578063ce14a79614610118578063e0c92e6e1461012d578063f2fde38b1461014057600080fd5b8063320ea024146100825780634a8ee02e146100ba5780637f362644146100da575b600080fd5b6100a5610090366004610692565b60016020526000908152604090205460ff1681565b60405190151581526020015b60405180910390f35b6100cd6100c8366004610692565b610153565b6040516100b191906106b4565b6100cd6100e8366004610692565b6101ff565b600054610100906001600160a01b031681565b6040516001600160a01b0390911681526020016100b1565b61012b610126366004610702565b610299565b005b61012b61013b366004610692565b610487565b61012b61014e366004610692565b61058a565b6001600160a01b038116600090815260026020526040902080546060919061017a90610785565b80601f01602080910402602001604051908101604052809291908181526020018280546101a690610785565b80156101f35780601f106101c8576101008083540402835291602001916101f3565b820191906000526020600020905b8154815290600101906020018083116101d657829003601f168201915b50505050509050919050565b6002602052600090815260409020805461021890610785565b80601f016020809104026020016040519081016040528092919081815260200182805461024490610785565b80156102915780601f1061026657610100808354040283529160200191610291565b820191906000526020600020905b81548152906001019060200180831161027457829003601f168201915b505050505081565b6000546001600160a01b031633146102cc5760405162461bcd60e51b81526004016102c3906107bf565b60405180910390fd5b6001600160a01b0383166103225760405162461bcd60e51b815260206004820152601d60248201527f42616e6742616e673a20416c616d617420746964616b2076616c69642e00000060448201526064016102c3565b6001600160a01b03831660009081526001602052604090205460ff16156103a75760405162461bcd60e51b815260206004820152603360248201527f42616e6742616e673a20416c616d6174207375646168207465726461667461726044820152721039b2b130b3b0b4902b30b634b230ba37b91760691b60648201526084016102c3565b806104045760405162461bcd60e51b815260206004820152602760248201527f42616e6742616e673a20496e7374697475736920746964616b20626f6c65682060448201526635b7b9b7b7339760c91b60648201526084016102c3565b6001600160a01b0383166000908152600160208181526040808420805460ff191690931790925560029052902061043c82848361086e565b50826001600160a01b03167ffb3b64a42b282bc23da575145ed55d9e46aa4837735afe1e16764fe7d5912b1e83834260405161047a9392919061092f565b60405180910390a2505050565b6000546001600160a01b031633146104b15760405162461bcd60e51b81526004016102c3906107bf565b6001600160a01b03811660009081526001602052604090205460ff1661052d5760405162461bcd60e51b815260206004820152602b60248201527f42616e6742616e673a20416c616d61742062756b616e2056616c696461746f7260448201526a103a32b93230b33a30b91760a91b60648201526084016102c3565b6001600160a01b03811660008181526001602052604090819020805460ff19169055517fce724dc124506c293a05fd1c4bcb9b7268a1b62b42632275721f486e232dc0d29061057f9042815260200190565b60405180910390a250565b6000546001600160a01b031633146105b45760405162461bcd60e51b81526004016102c3906107bf565b6001600160a01b03811661061b5760405162461bcd60e51b815260206004820152602860248201527f42616e6742616e673a20416c616d6174206f776e65722062617275207469646160448201526735903b30b634b21760c11b60648201526084016102c3565b600080546040516001600160a01b03808516939216917f8be0079c531659141344cd1fd0a4f28419497f9722a3daafe3b4186f6b6457e091a3600080546001600160a01b0319166001600160a01b0392909216919091179055565b80356001600160a01b038116811461068d57600080fd5b919050565b6000602082840312156106a457600080fd5b6106ad82610676565b9392505050565b600060208083528351808285015260005b818110156106e1578581018301518582016040015282016106c5565b506000604082860101526040601f19601f8301168501019250505092915050565b60008060006040848603121561071757600080fd5b61072084610676565b9250602084013567ffffffffffffffff8082111561073d57600080fd5b818601915086601f83011261075157600080fd5b81358181111561076057600080fd5b87602082850101111561077257600080fd5b6020830194508093505050509250925092565b600181811c9082168061079957607f821691505b6020821081036107b957634e487b7160e01b600052602260045260246000fd5b50919050565b6020808252602a908201527f42616e6742616e673a20416b736573206469746f6c616b2e2048616e796120536040820152693ab832b920b236b4b71760b11b606082015260800190565b634e487b7160e01b600052604160045260246000fd5b601f82111561086957600081815260208120601f850160051c810160208610156108465750805b601f850160051c820191505b8181101561086557828155600101610852565b5050505b505050565b67ffffffffffffffff83111561088657610886610809565b61089a836108948354610785565b8361081f565b6000601f8411600181146108ce57600085156108b65750838201355b600019600387901b1c1916600186901b178355610928565b600083815260209020601f19861690835b828110156108ff57868501358255602094850194600190920191016108df565b508682101561091c5760001960f88860031b161c19848701351681555b505060018560011b0183555b5050505050565b604081528260408201528284606083013760006060848301015260006060601f19601f860116830101905082602083015294935050505056fea2646970667358221220a2ad2e40650ab684e79e4a580f590a5f05edf63055fc4c9f59b64bdd22ea807c64736f6c63430008140033",
  "linkReferences": {},
  "deployedLinkReferences": {}
}