{
  "_format": "hh-sol-artifact-1",
  "contractName": "LandRegistry",
  "sourceName": "contracts/LandRegistry.sol",
  "abi": [
    {
      "inputs": [],
      "stateMutability": "nonpayable",
      "type": "constructor"
    },
    {
      "anonymous": false,
      "inputs": [
        {
          "indexed": true,
          "internalType": "address",
          "name": "owner",
          "type": "address"
        },
        {
          "indexed": true,
          "internalType": "address",
          "name": "approved",
          "type": "address"
        },
        {
          "indexed": true,
          "internalType": "uint256",
          "name": "tokenId",
          "type": "uint256"
        }
      ],
      "name": "Approval",
      "type": "event"
    },
    {
      "anonymous": false,
      "inputs": [
        {
          "indexed": true,
          "internalType": "address",
          "name": "owner",
          "type": "address"
        },
        {
          "indexed": true,
          "internalType": "address",
          "name": "operator",
          "type": "address"
        },
        {
          "indexed": false,
          "internalType": "bool",
          "name": "approved",
          "type": "bool"
        }
      ],
      "name": "ApprovalForAll",
      "type": "event"
    },
    {
      "anonymous": false,
      "inputs": [
        {
          "indexed": true,
          "internalType": "uint256",
          "name": "tokenId",
          "type": "uint256"
        },
        {
          "indexed": true,
          "internalType": "address",
          "name": "owner",
          "type": "address"
        },
        {
          "indexed": false,
          "internalType": "string",
          "name": "nib",
          "type": "string"
        }
      ],
      "name": "AssetMinted",
      "type": "event"
    },
    {
      "anonymous": false,
      "inputs": [
        {
          "indexed": true,
          "internalType": "uint256",
          "name": "tokenId",
          "type": "uint256"
        },
        {
          "indexed": false,
          "internalType": "bool",
          "name": "isDisputed",
          "type": "bool"
        }
      ],
      "name": "EnforcementStatusChanged",
      "type": "event"
    },
    {
      "anonymous": false,
      "inputs": [
        {
          "indexed": true,
          "internalType": "uint256",
          "name": "requestId",
          "type": "uint256"
        },
        {
          "indexed": true,
          "internalType": "uint256",
          "name": "tokenId",
          "type": "uint256"
        }
      ],
      "name": "LandApproved",
      "type": "event"
    },
    {
      "anonymous": false,
      "inputs": [
        {
          "indexed": true,
          "internalType": "uint256",
          "name": "requestId",
          "type": "uint256"
        }
      ],
      "name": "LandRejected",
      "type": "event"
    },
    {
      "anonymous": false,
      "inputs": [
        {
          "indexed": true,
          "internalType": "uint256",
          "name": "requestId",
          "type": "uint256"
        },
        {
          "indexed": true,
          "internalType": "address",
          "name": "to",
          "type": "address"
        },
        {
          "indexed": false,
          "internalType": "string",
          "name": "nib",
          "type": "string"
        }
      ],
      "name": "LandRequested",
      "type": "event"
    },
    {
      "anonymous": false,
      "inputs": [
        {
          "indexed": true,
          "internalType": "bytes32",
          "name": "role",
          "type": "bytes32"
        },
        {
          "indexed": true,
          "internalType": "bytes32",
          "name": "previousAdminRole",
          "type": "bytes32"
        },
        {
          "indexed": true,
          "internalType": "bytes32",
          "name": "newAdminRole",
          "type": "bytes32"
        }
      ],
      "name": "RoleAdminChanged",
      "type": "event"
    },
    {
      "anonymous": false,
      "inputs": [
        {
          "indexed": true,
          "internalType": "bytes32",
          "name": "role",
          "type": "bytes32"
        },
        {
          "indexed": true,
          "internalType": "address",
          "name": "account",
          "type": "address"
        },
        {
          "indexed": true,
          "internalType": "address",
          "name": "sender",
          "type": "address"
        }
      ],
      "name": "RoleGranted",
      "type": "event"
    },
    {
      "anonymous": false,
      "inputs": [
        {
          "indexed": true,
          "internalType": "bytes32",
          "name": "role",
          "type": "bytes32"
        },
        {
          "indexed": true,
          "internalType": "address",
          "name": "account",
          "type": "address"
        },
        {
          "indexed": true,
          "internalType": "address",
          "name": "sender",
          "type": "address"
        }
      ],
      "name": "RoleRevoked",
      "type": "event"
    },
    {
      "anonymous": false,
      "inputs": [
        {
          "indexed": true,
          "internalType": "address",
          "name": "from",
          "type": "address"
        },
        {
          "indexed": true,
          "internalType": "address",
          "name": "to",
          "type": "address"
        },
        {
          "indexed": true,
          "internalType": "uint256",
          "name": "tokenId",
          "type": "uint256"
        }
      ],
      "name": "Transfer",
      "type": "event"
    },
    {
      "anonymous": false,
      "inputs": [
        {
          "indexed": true,
          "internalType": "uint256",
          "name": "tokenId",
          "type": "uint256"
        },
        {
          "indexed": true,
          "internalType": "address",
          "name": "seller",
          "type": "address"
        }
      ],
      "name": "TransferCancelled",
      "type": "event"
    },
    {
      "anonymous": false,
      "inputs": [
        {
          "indexed": true,
          "internalType": "uint256",
          "name": "tokenId",
          "type": "uint256"
        },
        {
          "indexed": true,
          "internalType": "address",
          "name": "seller",
          "type": "address"
        },
        {
          "indexed": true,
          "internalType": "address",
          "name": "buyer",
          "type": "address"
        }
      ],
      "name": "TransferCompleted",
      "type": "event"
    },
    {
      "anonymous": false,
      "inputs": [
        {
          "indexed": true,
          "internalType": "uint256",
          "name": "tokenId",
          "type": "uint256"
        },
        {
          "indexed": true,
          "internalType": "address",
          "name": "seller",
          "type": "address"
        },
        {
          "indexed": true,
          "internalType": "address",
          "name": "buyer",
          "type": "address"
        }
      ],
      "name": "TransferProposed",
      "type": "event"
    },
    {
      "inputs": [],
      "name": "ADMIN_BPN_ROLE",
      "outputs": [
        {
          "internalType": "bytes32",
          "name": "",
          "type": "bytes32"
        }
      ],
      "stateMutability": "view",
      "type": "function"
    },
    {
      "inputs": [],
      "name": "AUDITOR_ROLE",
      "outputs": [
        {
          "internalType": "bytes32",
          "name": "",
          "type": "bytes32"
        }
      ],
      "stateMutability": "view",
      "type": "function"
    },
    {
      "inputs": [],
      "name": "BPN_WILAYAH_ROLE",
      "outputs": [
        {
          "internalType": "bytes32",
          "name": "",
          "type": "bytes32"
        }
      ],
      "stateMutability": "view",
      "type": "function"
    },
    {
      "inputs": [],
      "name": "DEFAULT_ADMIN_ROLE",
      "outputs": [
        {
          "internalType": "bytes32",
          "name": "",
          "type": "bytes32"
        }
      ],
      "stateMutability": "view",
      "type": "function"
    },
    {
      "inputs": [],
      "name": "NOTARIS_ROLE",
      "outputs": [
        {
          "internalType": "bytes32",
          "name": "",
          "type": "bytes32"
        }
      ],
      "stateMutability": "view",
      "type": "function"
    },
    {
      "inputs": [
        {
          "internalType": "address",
          "name": "to",
          "type": "address"
        },
        {
          "internalType": "uint256",
          "name": "tokenId",
          "type": "uint256"
        }
      ],
      "name": "approve",
      "outputs": [],
      "stateMutability": "nonpayable",
      "type": "function"
    },
    {
      "inputs": [
        {
          "internalType": "uint256",
          "name": "requestId",
          "type": "uint256"
        }
      ],
      "name": "approveLandRequest",
      "outputs": [],
      "stateMutability": "nonpayable",
      "type": "function"
    },
    {
      "inputs": [
        {
          "internalType": "uint256",
          "name": "tokenId",
          "type": "uint256"
        }
      ],
      "name": "approveTransferBuyer",
      "outputs": [],
      "stateMutability": "nonpayable",
      "type": "function"
    },
    {
      "inputs": [
        {
          "internalType": "uint256",
          "name": "tokenId",
          "type": "uint256"
        },
        {
          "internalType": "string",
          "name": "ajbIpfsHash",
          "type": "string"
        }
      ],
      "name": "approveTransferNotaris",
      "outputs": [],
      "stateMutability": "nonpayable",
      "type": "function"
    },
    {
      "inputs": [
        {
          "internalType": "address",
          "name": "owner",
          "type": "address"
        }
      ],
      "name": "balanceOf",
      "outputs": [
        {
          "internalType": "uint256",
          "name": "",
          "type": "uint256"
        }
      ],
      "stateMutability": "view",
      "type": "function"
    },
    {
      "inputs": [
        {
          "internalType": "uint256",
          "name": "tokenId",
          "type": "uint256"
        }
      ],
      "name": "cancelTransfer",
      "outputs": [],
      "stateMutability": "nonpayable",
      "type": "function"
    },
    {
      "inputs": [
        {
          "internalType": "uint256",
          "name": "tokenId",
          "type": "uint256"
        }
      ],
      "name": "getApproved",
      "outputs": [
        {
          "internalType": "address",
          "name": "",
          "type": "address"
        }
      ],
      "stateMutability": "view",
      "type": "function"
    },
    {
      "inputs": [
        {
          "internalType": "uint256",
          "name": "tokenId",
          "type": "uint256"
        }
      ],
      "name": "getLandDetails",
      "outputs": [
        {
          "internalType": "string",
          "name": "gpsCoordinates",
          "type": "string"
        },
        {
          "internalType": "uint256",
          "name": "area",
          "type": "uint256"
        },
        {
          "internalType": "string",
          "name": "nib",
          "type": "string"
        },
        {
          "internalType": "string[]",
          "name": "ipfsHashes",
          "type": "string[]"
        },
        {
          "internalType": "bool",
          "name": "isDisputed",
          "type": "bool"
        }
      ],
      "stateMutability": "view",
      "type": "function"
    },
    {
      "inputs": [
        {
          "internalType": "uint256",
          "name": "tokenId",
          "type": "uint256"
        }
      ],
      "name": "getOwnershipHistory",
      "outputs": [
        {
          "internalType": "address[]",
          "name": "",
          "type": "address[]"
        }
      ],
      "stateMutability": "view",
      "type": "function"
    },
    {
      "inputs": [
        {
          "internalType": "uint256",
          "name": "requestId",
          "type": "uint256"
        }
      ],
      "name": "getRequestDetails",
      "outputs": [
        {
          "internalType": "address",
          "name": "to",
          "type": "address"
        },
        {
          "internalType": "string",
          "name": "nib",
          "type": "string"
        },
        {
          "internalType": "uint256",
          "name": "area",
          "type": "uint256"
        },
        {
          "internalType": "string",
          "name": "gpsCoordinates",
          "type": "string"
        },
        {
          "internalType": "bool",
          "name": "isProcessed",
          "type": "bool"
        },
        {
          "internalType": "bool",
          "name": "isRejected",
          "type": "bool"
        },
        {
          "internalType": "string[]",
          "name": "ipfsHashes",
          "type": "string[]"
        }
      ],
      "stateMutability": "view",
      "type": "function"
    },
    {
      "inputs": [
        {
          "internalType": "bytes32",
          "name": "role",
          "type": "bytes32"
        }
      ],
      "name": "getRoleAdmin",
      "outputs": [
        {
          "internalType": "bytes32",
          "name": "",
          "type": "bytes32"
        }
      ],
      "stateMutability": "view",
      "type": "function"
    },
    {
      "inputs": [
        {
          "internalType": "string",
          "name": "nib",
          "type": "string"
        }
      ],
      "name": "getTokenByNIB",
      "outputs": [
        {
          "internalType": "uint256",
          "name": "tokenId",
          "type": "uint256"
        },
        {
          "internalType": "bool",
          "name": "found",
          "type": "bool"
        }
      ],
      "stateMutability": "view",
      "type": "function"
    },
    {
      "inputs": [],
      "name": "getTotalLands",
      "outputs": [
        {
          "internalType": "uint256",
          "name": "",
          "type": "uint256"
        }
      ],
      "stateMutability": "view",
      "type": "function"
    },
    {
      "inputs": [],
      "name": "getTotalRequests",
      "outputs": [
        {
          "internalType": "uint256",
          "name": "",
          "type": "uint256"
        }
      ],
      "stateMutability": "view",
      "type": "function"
    },
    {
      "inputs": [
        {
          "internalType": "bytes32",
          "name": "role",
          "type": "bytes32"
        },
        {
          "internalType": "address",
          "name": "account",
          "type": "address"
        }
      ],
      "name": "grantRole",
      "outputs": [],
      "stateMutability": "nonpayable",
      "type": "function"
    },
    {
      "inputs": [
        {
          "internalType": "bytes32",
          "name": "role",
          "type": "bytes32"
        },
        {
          "internalType": "address",
          "name": "account",
          "type": "address"
        }
      ],
      "name": "hasRole",
      "outputs": [
        {
          "internalType": "bool",
          "name": "",
          "type": "bool"
        }
      ],
      "stateMutability": "view",
      "type": "function"
    },
    {
      "inputs": [
        {
          "internalType": "address",
          "name": "owner",
          "type": "address"
        },
        {
          "internalType": "address",
          "name": "operator",
          "type": "address"
        }
      ],
      "name": "isApprovedForAll",
      "outputs": [
        {
          "internalType": "bool",
          "name": "",
          "type": "bool"
        }
      ],
      "stateMutability": "view",
      "type": "function"
    },
    {
      "inputs": [
        {
          "internalType": "uint256",
          "name": "",
          "type": "uint256"
        }
      ],
      "name": "landRequests",
      "outputs": [
        {
          "internalType": "address",
          "name": "to",
          "type": "address"
        },
        {
          "internalType": "string",
          "name": "gpsCoordinates",
          "type": "string"
        },
        {
          "internalType": "uint256",
          "name": "area",
          "type": "uint256"
        },
        {
          "internalType": "string",
          "name": "nib",
          "type": "string"
        },
        {
          "internalType": "bool",
          "name": "isProcessed",
          "type": "bool"
        },
        {
          "internalType": "bool",
          "name": "isRejected",
          "type": "bool"
        }
      ],
      "stateMutability": "view",
      "type": "function"
    },
    {
      "inputs": [
        {
          "internalType": "uint256",
          "name": "",
          "type": "uint256"
        }
      ],
      "name": "lands",
      "outputs": [
        {
          "internalType": "string",
          "name": "gpsCoordinates",
          "type": "string"
        },
        {
          "internalType": "uint256",
          "name": "area",
          "type": "uint256"
        },
        {
          "internalType": "string",
          "name": "nib",
          "type": "string"
        },
        {
          "internalType": "bool",
          "name": "isDisputed",
          "type": "bool"
        }
      ],
      "stateMutability": "view",
      "type": "function"
    },
    {
      "inputs": [
        {
          "internalType": "address",
          "name": "to",
          "type": "address"
        },
        {
          "internalType": "string",
          "name": "gpsCoordinates",
          "type": "string"
        },
        {
          "internalType": "uint256",
          "name": "area",
          "type": "uint256"
        },
        {
          "internalType": "string",
          "name": "nib",
          "type": "string"
        },
        {
          "internalType": "string[]",
          "name": "ipfsHashes",
          "type": "string[]"
        }
      ],
      "name": "mintLand",
      "outputs": [],
      "stateMutability": "nonpayable",
      "type": "function"
    },
    {
      "inputs": [],
      "name": "name",
      "outputs": [
        {
          "internalType": "string",
          "name": "",
          "type": "string"
        }
      ],
      "stateMutability": "view",
      "type": "function"
    },
    {
      "inputs": [
        {
          "internalType": "address",
          "name": "",
          "type": "address"
        },
        {
          "internalType": "address",
          "name": "",
          "type": "address"
        },
        {
          "internalType": "uint256",
          "name": "",
          "type": "uint256"
        },
        {
          "internalType": "bytes",
          "name": "",
          "type": "bytes"
        }
      ],
      "name": "onERC721Received",
      "outputs": [
        {
          "internalType": "bytes4",
          "name": "",
          "type": "bytes4"
        }
      ],
      "stateMutability": "pure",
      "type": "function"
    },
    {
      "inputs": [
        {
          "internalType": "uint256",
          "name": "tokenId",
          "type": "uint256"
        }
      ],
      "name": "ownerOf",
      "outputs": [
        {
          "internalType": "address",
          "name": "",
          "type": "address"
        }
      ],
      "stateMutability": "view",
      "type": "function"
    },
    {
      "inputs": [
        {
          "internalType": "uint256",
          "name": "",
          "type": "uint256"
        },
        {
          "internalType": "uint256",
          "name": "",
          "type": "uint256"
        }
      ],
      "name": "ownershipHistory",
      "outputs": [
        {
          "internalType": "address",
          "name": "",
          "type": "address"
        }
      ],
      "stateMutability": "view",
      "type": "function"
    },
    {
      "inputs": [
        {
          "internalType": "uint256",
          "name": "tokenId",
          "type": "uint256"
        },
        {
          "internalType": "address",
          "name": "buyer",
          "type": "address"
        }
      ],
      "name": "proposeTransfer",
      "outputs": [],
      "stateMutability": "nonpayable",
      "type": "function"
    },
    {
      "inputs": [
        {
          "internalType": "uint256",
          "name": "requestId",
          "type": "uint256"
        }
      ],
      "name": "rejectLandRequest",
      "outputs": [],
      "stateMutability": "nonpayable",
      "type": "function"
    },
    {
      "inputs": [
        {
          "internalType": "bytes32",
          "name": "role",
          "type": "bytes32"
        },
        {
          "internalType": "address",
          "name": "account",
          "type": "address"
        }
      ],
      "name": "renounceRole",
      "outputs": [],
      "stateMutability": "nonpayable",
      "type": "function"
    },
    {
      "inputs": [
        {
          "internalType": "address",
          "name": "to",
          "type": "address"
        },
        {
          "internalType": "string",
          "name": "gpsCoordinates",
          "type": "string"
        },
        {
          "internalType": "uint256",
          "name": "area",
          "type": "uint256"
        },
        {
          "internalType": "string",
          "name": "nib",
          "type": "string"
        },
        {
          "internalType": "string[]",
          "name": "ipfsHashes",
          "type": "string[]"
        }
      ],
      "name": "requestLandMinting",
      "outputs": [],
      "stateMutability": "nonpayable",
      "type": "function"
    },
    {
      "inputs": [
        {
          "internalType": "bytes32",
          "name": "role",
          "type": "bytes32"
        },
        {
          "internalType": "address",
          "name": "account",
          "type": "address"
        }
      ],
      "name": "revokeRole",
      "outputs": [],
      "stateMutability": "nonpayable",
      "type": "function"
    },
    {
      "inputs": [
        {
          "internalType": "address",
          "name": "from",
          "type": "address"
        },
        {
          "internalType": "address",
          "name": "to",
          "type": "address"
        },
        {
          "internalType": "uint256",
          "name": "tokenId",
          "type": "uint256"
        }
      ],
      "name": "safeTransferFrom",
      "outputs": [],
      "stateMutability": "nonpayable",
      "type": "function"
    },
    {
      "inputs": [
        {
          "internalType": "address",
          "name": "from",
          "type": "address"
        },
        {
          "internalType": "address",
          "name": "to",
          "type": "address"
        },
        {
          "internalType": "uint256",
          "name": "tokenId",
          "type": "uint256"
        },
        {
          "internalType": "bytes",
          "name": "data",
          "type": "bytes"
        }
      ],
      "name": "safeTransferFrom",
      "outputs": [],
      "stateMutability": "nonpayable",
      "type": "function"
    },
    {
      "inputs": [
        {
          "internalType": "address",
          "name": "operator",
          "type": "address"
        },
        {
          "internalType": "bool",
          "name": "approved",
          "type": "bool"
        }
      ],
      "name": "setApprovalForAll",
      "outputs": [],
      "stateMutability": "nonpayable",
      "type": "function"
    },
    {
      "inputs": [
        {
          "internalType": "uint256",
          "name": "tokenId",
          "type": "uint256"
        },
        {
          "internalType": "bool",
          "name": "isDisputed",
          "type": "bool"
        }
      ],
      "name": "setEnforcement",
      "outputs": [],
      "stateMutability": "nonpayable",
      "type": "function"
    },
    {
      "inputs": [
        {
          "internalType": "bytes4",
          "name": "interfaceId",
          "type": "bytes4"
        }
      ],
      "name": "supportsInterface",
      "outputs": [
        {
          "internalType": "bool",
          "name": "",
          "type": "bool"
        }
      ],
      "stateMutability": "view",
      "type": "function"
    },
    {
      "inputs": [],
      "name": "symbol",
      "outputs": [
        {
          "internalType": "string",
          "name": "",
          "type": "string"
        }
      ],
      "stateMutability": "view",
      "type": "function"
    },
    {
      "inputs": [
        {
          "internalType": "uint256",
          "name": "tokenId",
          "type": "uint256"
        }
      ],
      "name": "tokenURI",
      "outputs": [
        {
          "internalType": "string",
          "name": "",
          "type": "string"
        }
      ],
      "stateMutability": "view",
      "type": "function"
    },
    {
      "inputs": [
        {
          "internalType": "address",
          "name": "from",
          "type": "address"
        },
        {
          "internalType": "address",
          "name": "to",
          "type": "address"
        },
        {
          "internalType": "uint256",
          "name": "tokenId",
          "type": "uint256"
        }
      ],
      "name": "transferFrom",
      "outputs": [],
      "stateMutability": "nonpayable",
      "type": "function"
    },
    {
      "inputs": [
        {
          "internalType": "uint256",
          "name": "",
          "type": "uint256"
        }
      ],
      "name": "transferRequests",
      "outputs": [
        {
          "internalType": "address",
          "name": "seller",
          "type": "address"
        },
        {
          "internalType": "address",
          "name": "buyer",
          "type": "address"
        },
        {
          "internalType": "address",
          "name": "notaris",
          "type": "address"
        },
        {
          "internalType": "bool",
          "name": "sellerApproved",
          "type": "bool"
        },
        {
          "internalType": "bool",
          "name": "buyerApproved",
          "type": "bool"
        },
        {
          "internalType": "bool",
          "name": "notarisApproved",
          "type": "bool"
        },
        {
          "internalType": "bool",
          "name": "isActive",
          "type": "bool"
        }
      ],
      "stateMutability": "view",
      "type": "function"
    }
  ],
  "bytecode": "0x60806040523480156200001157600080fd5b50604051806040016040528060098152602001682630b7322a37b5b2b760b91b8152506040518060400160405280600381526020016213139160ea1b81525081600090816200006191906200022a565b5060016200007082826200022a565b506200008291506000905033620000e0565b620000ae7f9856acbf9ca422c521e08bc1d8e706e2db0b5830f4d56f698b78d8c01c86949133620000e0565b620000da7f3b6c71f6d44639d5b3e40f2ef3056c3385a1e68a255a703ac23442c1c3be357d33620000e0565b620002f6565b60008281526006602090815260408083206001600160a01b038516845290915290205460ff16620001815760008281526006602090815260408083206001600160a01b03851684529091529020805460ff19166001179055620001403390565b6001600160a01b0316816001600160a01b0316837f2f8788117e7eff1d82e926ec794901d17c78024a50270940304540a733656f0d60405160405180910390a45b5050565b634e487b7160e01b600052604160045260246000fd5b600181811c90821680620001b057607f821691505b602082108103620001d157634e487b7160e01b600052602260045260246000fd5b50919050565b601f8211156200022557600081815260208120601f850160051c81016020861015620002005750805b601f850160051c820191505b8181101562000221578281556001016200020c565b5050505b505050565b81516001600160401b0381111562000246576200024662000185565b6200025e816200025784546200019b565b84620001d7565b602080601f8311600181146200029657600084156200027d5750858301515b600019600386901b1c1916600185901b17855562000221565b600085815260208120601f198616915b82811015620002c757888601518255948401946001909101908401620002a6565b5085821015620002e65787850151600019600388901b60f8161c191681555b5050505050600190811b01905550565b613baa80620003066000396000f3fe608060405234801561001057600080fd5b50600436106102695760003560e01c80636e1d616e11610151578063c87b56dd116100c3578063e8b185da11610087578063e8b185da14610692578063e985e9c5146106a5578063f0e22d52146106e1578063f1dbaccb146106e9578063f34d4c6314610709578063fe0cb7dc1461072f57600080fd5b8063c87b56dd14610623578063c89a2bd914610636578063c9cf2adc14610649578063d547741f1461065c578063e261f1e51461066f57600080fd5b80638ec455e3116101155780638ec455e3146105b357806391d14854146105da57806395d89b41146105ed578063a217fddf146105f5578063a22cb465146105fd578063b88d4fde1461061057600080fd5b80636e1d616e1461054957806370a0823114610570578063842e7dba1461058357806386bde3d11461058b578063875cfe3b1461059e57600080fd5b8063248a9ca3116101ea5780635911b808116101ae5780635911b8081461049c57806359caecb5146104c35780635e621479146104d65780636243f051146104fe5780636352211e146105115780636a29b8d71461052457600080fd5b8063248a9ca31461041f5780632f2ff15d1461045057806336568abe1461046357806342842e0e146104765780634445ac4d1461048957600080fd5b8063095ea7b311610231578063095ea7b31461039b57806309d4a345146103ae578063150b7a02146103c15780631b362b05146103f957806323b872dd1461040c57600080fd5b806301ffc9a71461026e57806303486c401461029657806306fdde031461034657806307407dd81461035b578063081812fc14610370575b600080fd5b61028161027c366004612ed7565b610753565b60405190151581526020015b60405180910390f35b6102fc6102a4366004612ef4565b600b602052600090815260409020805460018201546002909201546001600160a01b039182169282169181169060ff600160a01b8204811691600160a81b8104821691600160b01b8204811691600160b81b90041687565b604080516001600160a01b03988916815296881660208801529490961693850193909352901515606084015215156080830152151560a082015290151560c082015260e00161028d565b61034e610764565b60405161028d9190612f5d565b61036e61036936600461304b565b6107f6565b005b61038361037e366004612ef4565b61094d565b6040516001600160a01b03909116815260200161028d565b61036e6103a9366004613174565b610974565b61036e6103bc366004612ef4565b610a8e565b6103e06103cf36600461319e565b630a85bd0160e11b95945050505050565b6040516001600160e01b0319909116815260200161028d565b61036e610407366004613249565b610b2a565b61036e61041a366004613275565b610b9d565b61044261042d366004612ef4565b60009081526006602052604090206001015490565b60405190815260200161028d565b61036e61045e3660046132b1565b610bce565b61036e6104713660046132b1565b610bf3565b61036e610484366004613275565b610c71565b61036e610497366004612ef4565b610c8c565b6104427f4e19be690c034b73b896a80e4645324b1ada2a2d102cf965cd497dd07f3a195081565b61036e6104d1366004612ef4565b611092565b6104e96104e43660046132d4565b611196565b6040805192835290151560208301520161028d565b61036e61050c36600461304b565b61122f565b61038361051f366004612ef4565b611391565b610537610532366004612ef4565b6113f1565b60405161028d96959493929190613309565b6104427f59a1c48e5837ad7a7f3dcedcbe129bf3249ec4fbf651fd4f5e2600ead39fe2f581565b61044261057e366004613360565b611546565b600754610442565b61036e6105993660046132b1565b6115cc565b610442600080516020613b5583398151915281565b6104427f3b6c71f6d44639d5b3e40f2ef3056c3385a1e68a255a703ac23442c1c3be357d81565b6102816105e83660046132b1565b611816565b61034e611841565b610442600081565b61036e61060b36600461337b565b611850565b61036e61061e3660046133a5565b61185b565b61034e610631366004612ef4565b611893565b61036e610644366004613421565b611907565b610383610657366004613468565b611a8f565b61036e61066a3660046132b1565b611ac7565b61068261067d366004612ef4565b611aec565b60405161028d949392919061348a565b61036e6106a0366004612ef4565b611c27565b6102816106b33660046134c9565b6001600160a01b03918216600090815260056020908152604080832093909416825291909152205460ff1690565b600854610442565b6106fc6106f7366004612ef4565b611cf5565b60405161028d91906134f3565b61071c610717366004612ef4565b611d61565b60405161028d9796959493929190613595565b61074261073d366004612ef4565b611fb8565b60405161028d959493929190613603565b600061075e826121eb565b92915050565b60606000805461077390613657565b80601f016020809104026020016040519081016040528092919081815260200182805461079f90613657565b80156107ec5780601f106107c1576101008083540402835291602001916107ec565b820191906000526020600020905b8154815290600101906020018083116107cf57829003601f168201915b5050505050905090565b600080516020613b5583398151915261080e81612210565b600780546000918261081f836136a7565b909155506040805160a08101825288815260208082018990528183018890526060820187905260006080830181905284815260099091529190912081519293509091819061086d908261370e565b50602082015160018201556040820151600282019061088c908261370e565b50606082015180516108a8916003840191602090910190612e04565b50608091909101516004909101805460ff19169115159190911790556108ce878261221d565b6000818152600c602090815260408083208054600181018255908452919092200180546001600160a01b0319166001600160a01b038a16908117909155905182907fa30dd43fc057b356acd774161b6c8743df78c9bd58d7f492dd56d00121dda6b59061093c908890612f5d565b60405180910390a350505050505050565b600061095882612237565b506000908152600460205260409020546001600160a01b031690565b600061097f82611391565b9050806001600160a01b0316836001600160a01b0316036109f15760405162461bcd60e51b815260206004820152602160248201527f4552433732313a20617070726f76616c20746f2063757272656e74206f776e656044820152603960f91b60648201526084015b60405180910390fd5b336001600160a01b0382161480610a0d5750610a0d81336106b3565b610a7f5760405162461bcd60e51b815260206004820152603d60248201527f4552433732313a20617070726f76652063616c6c6572206973206e6f7420746f60448201527f6b656e206f776e6572206f7220617070726f76656420666f7220616c6c00000060648201526084016109e8565b610a898383612296565b505050565b6000818152600b602052604090206002810154600160b81b900460ff16610ac75760405162461bcd60e51b81526004016109e8906137ce565b60018101546001600160a01b03163314610b135760405162461bcd60e51b815260206004820152600d60248201526c42756b616e2070656d62656c6960981b60448201526064016109e8565b600201805460ff60a81b1916600160a81b17905550565b600080516020613b55833981519152610b4281612210565b600083815260096020908152604091829020600401805460ff1916851515908117909155915191825284917f388370698ea03650624022e5f43e8cb1f902ba526ee8287ff865709bc3946437910160405180910390a2505050565b610ba73382612304565b610bc35760405162461bcd60e51b81526004016109e8906137fe565b610a89838383612383565b600082815260066020526040902060010154610be981612210565b610a8983836124e7565b6001600160a01b0381163314610c635760405162461bcd60e51b815260206004820152602f60248201527f416363657373436f6e74726f6c3a2063616e206f6e6c792072656e6f756e636560448201526e103937b632b9903337b91039b2b63360891b60648201526084016109e8565b610c6d828261256d565b5050565b610a898383836040518060200160405280600081525061185b565b600080516020613b55833981519152610ca481612210565b6000828152600a60205260409020600581015460ff16158015610cd157506005810154610100900460ff16155b610d195760405162461bcd60e51b815260206004820152601960248201527814995c5d595cdd08185b1c9958591e481c1c9bd8d95cdcd959603a1b60448201526064016109e8565b60058101805460ff191660011790556007805460009182610d39836136a7565b9190505590506040518060a00160405280836001018054610d5990613657565b80601f0160208091040260200160405190810160405280929190818152602001828054610d8590613657565b8015610dd25780601f10610da757610100808354040283529160200191610dd2565b820191906000526020600020905b815481529060010190602001808311610db557829003601f168201915b5050505050815260200183600201548152602001836003018054610df590613657565b80601f0160208091040260200160405190810160405280929190818152602001828054610e2190613657565b8015610e6e5780601f10610e4357610100808354040283529160200191610e6e565b820191906000526020600020905b815481529060010190602001808311610e5157829003601f168201915b5050505050815260200183600401805480602002602001604051908101604052809291908181526020016000905b82821015610f48578382906000526020600020018054610ebb90613657565b80601f0160208091040260200160405190810160405280929190818152602001828054610ee790613657565b8015610f345780601f10610f0957610100808354040283529160200191610f34565b820191906000526020600020905b815481529060010190602001808311610f1757829003601f168201915b505050505081526020019060010190610e9c565b505050908252506000602091820181905283815260099091526040902081518190610f73908261370e565b506020820151600182015560408201516002820190610f92908261370e565b5060608201518051610fae916003840191602090910190612e04565b50608091909101516004909101805460ff19169115159190911790558154610fdf906001600160a01b03168261221d565b6000818152600c60209081526040808320855481546001810183559185529290932090920180546001600160a01b0319166001600160a01b039283161790558354915191169082907fa30dd43fc057b356acd774161b6c8743df78c9bd58d7f492dd56d00121dda6b59061105790600387019061384b565b60405180910390a3604051819085907f80c07e5180f4a154e4adf43327ef47a76fdf66557ce3a828241bad33606d918690600090a350505050565b6000818152600b602052604090206002810154600160b81b900460ff166110cb5760405162461bcd60e51b81526004016109e8906137ce565b80546001600160a01b03163314806110f657506110f6600080516020613b5583398151915233611816565b6111335760405162461bcd60e51b815260206004820152600e60248201526d5469616461206175746f7269746960901b60448201526064016109e8565b60028101805460ff60b81b1916905580546111599030906001600160a01b031684612383565b80546040516001600160a01b039091169083907fad5d1da63a71147a146daa2d4c6cdc9ab57b00bd41306f855d0afe41c5ed284090600090a35050565b60008060005b60075481101561122357836040516020016111b791906138d6565b60408051601f1981840301815282825280516020918201206000858152600983529290922091926111ec9260020191016138f2565b6040516020818303038152906040528051906020012003611211579360019350915050565b8061121b816136a7565b91505061119c565b50600093849350915050565b7f3b6c71f6d44639d5b3e40f2ef3056c3385a1e68a255a703ac23442c1c3be357d61125981612210565b600880546000918261126a836136a7565b909155506040805160e0810182526001600160a01b038a8116825260208083018b81528385018b9052606084018a905260808401899052600060a0850181905260c08501819052868152600a909252939020825181546001600160a01b031916921691909117815591519293509160018201906112e7908261370e565b506040820151600282015560608201516003820190611306908261370e565b5060808201518051611322916004840191602090910190612e04565b5060a08201516005909101805460c09093015115156101000261ff00199215159290921661ffff19909316929092171790556040516001600160a01b0388169082907f60a6f71d35a977ce4dc4493a5752edd1965b1f343bce0e351d88b5ac90c842479061093c908890612f5d565b6000818152600260205260408120546001600160a01b03168061075e5760405162461bcd60e51b8152602060048201526018602482015277115490cdcc8c4e881a5b9d985b1a59081d1bdad95b88125160421b60448201526064016109e8565b600a60205260009081526040902080546001820180546001600160a01b03909216929161141d90613657565b80601f016020809104026020016040519081016040528092919081815260200182805461144990613657565b80156114965780601f1061146b57610100808354040283529160200191611496565b820191906000526020600020905b81548152906001019060200180831161147957829003601f168201915b5050505050908060020154908060030180546114b190613657565b80601f01602080910402602001604051908101604052809291908181526020018280546114dd90613657565b801561152a5780601f106114ff5761010080835404028352916020019161152a565b820191906000526020600020905b81548152906001019060200180831161150d57829003601f168201915b5050506005909301549192505060ff8082169161010090041686565b60006001600160a01b0382166115b05760405162461bcd60e51b815260206004820152602960248201527f4552433732313a2061646472657373207a65726f206973206e6f7420612076616044820152683634b21037bbb732b960b91b60648201526084016109e8565b506001600160a01b031660009081526003602052604090205490565b336115d683611391565b6001600160a01b03161461161c5760405162461bcd60e51b815260206004820152600d60248201526c42756b616e2070656d696c696b60981b60448201526064016109e8565b60008281526009602052604090206004015460ff16156116755760405162461bcd60e51b815260206004820152601460248201527354616e61682064616c616d2073656e676b65746160601b60448201526064016109e8565b6000828152600b6020526040902060020154600160b81b900460ff16156116de5760405162461bcd60e51b815260206004820152601a60248201527f5065726d6f686f6e616e20616b7469662073756461682061646100000000000060448201526064016109e8565b6040805160e081018252338082526001600160a01b03848116602080850191825260008587018181526001606088018181526080890184815260a08a0185815260c08b018481528e8752600b9097529a909420985189549088166001600160a01b0319918216178a55955191890180549288169290961691909117909455516002909601805493519151975192511515600160b81b0260ff60b81b19931515600160b01b0260ff60b01b19991515600160a81b029990991661ffff60a81b19931515600160a01b026001600160a81b031990961698909616979097179390931716929092179490941716919091179091556117da903084612383565b6040516001600160a01b03821690339084907fc1d91ef3905e00972bebbb95768bc866bdc68d24a68dde011efaa8a39c879d5d90600090a45050565b60009182526006602090815260408084206001600160a01b0393909316845291905290205460ff1690565b60606001805461077390613657565b610c6d3383836125d4565b6118653383612304565b6118815760405162461bcd60e51b81526004016109e8906137fe565b61188d848484846126a2565b50505050565b606061189e82612237565b60006118b560408051602081019091526000815290565b905060008151116118d55760405180602001604052806000815250611900565b806118df846126d5565b6040516020016118f0929190613968565b6040516020818303038152906040525b9392505050565b7f4e19be690c034b73b896a80e4645324b1ada2a2d102cf965cd497dd07f3a195061193181612210565b6000838152600b602052604090206002810154600160b81b900460ff1661196a5760405162461bcd60e51b81526004016109e8906137ce565b6002810154600160a01b900460ff16801561199057506002810154600160a81b900460ff165b6119dc5760405162461bcd60e51b815260206004820152601c60248201527f50656e6a75616c2f50656d62656c692062656c756d20736574756a750000000060448201526064016109e8565b60008481526009602052604090206004015460ff1615611a355760405162461bcd60e51b815260206004820152601460248201527354616e61682064616c616d2073656e676b65746160601b60448201526064016109e8565b60028101805460ff60b01b193316600162ff000160a01b031990911617600160b01b179055600084815260096020908152604082206003018054600181018255908352912001611a85848261370e565b5061188d84612768565b600c6020528160005260406000208181548110611aab57600080fd5b6000918252602090912001546001600160a01b03169150829050565b600082815260066020526040902060010154611ae281612210565b610a89838361256d565b600960205260009081526040902080548190611b0790613657565b80601f0160208091040260200160405190810160405280929190818152602001828054611b3390613657565b8015611b805780601f10611b5557610100808354040283529160200191611b80565b820191906000526020600020905b815481529060010190602001808311611b6357829003601f168201915b505050505090806001015490806002018054611b9b90613657565b80601f0160208091040260200160405190810160405280929190818152602001828054611bc790613657565b8015611c145780601f10611be957610100808354040283529160200191611c14565b820191906000526020600020905b815481529060010190602001808311611bf757829003601f168201915b5050506004909301549192505060ff1684565b600080516020613b55833981519152611c3f81612210565b6000828152600a60205260409020600581015460ff16158015611c6c57506005810154610100900460ff16155b611cb45760405162461bcd60e51b815260206004820152601960248201527814995c5d595cdd08185b1c9958591e481c1c9bd8d95cdcd959603a1b60448201526064016109e8565b60058101805461ff00191661010017905560405183907fad423fb43b7443196fd254deba8687812bcdc897e7490d594b86c44891a612b190600090a2505050565b6000818152600c6020908152604091829020805483518184028101840190945280845260609392830182828015611d5557602002820191906000526020600020905b81546001600160a01b03168152600190910190602001808311611d37575b50505050509050919050565b6000818152600a60205260408120805460028201546005830154600384018054606095879587958795869588956001600160a01b0390941693909291600186019160ff808316926101009004169060048801908690611dbf90613657565b80601f0160208091040260200160405190810160405280929190818152602001828054611deb90613657565b8015611e385780601f10611e0d57610100808354040283529160200191611e38565b820191906000526020600020905b815481529060010190602001808311611e1b57829003601f168201915b50505050509550838054611e4b90613657565b80601f0160208091040260200160405190810160405280929190818152602001828054611e7790613657565b8015611ec45780601f10611e9957610100808354040283529160200191611ec4565b820191906000526020600020905b815481529060010190602001808311611ea757829003601f168201915b5050505050935080805480602002602001604051908101604052809291908181526020016000905b82821015611f98578382906000526020600020018054611f0b90613657565b80601f0160208091040260200160405190810160405280929190818152602001828054611f3790613657565b8015611f845780601f10611f5957610100808354040283529160200191611f84565b820191906000526020600020905b815481529060010190602001808311611f6757829003601f168201915b505050505081526020019060010190611eec565b505050509050975097509750975097509750975050919395979092949650565b6000818152600960205260408120600181015460048201548254606094938593849386938392916002840191600385019160ff16908590611ff890613657565b80601f016020809104026020016040519081016040528092919081815260200182805461202490613657565b80156120715780601f1061204657610100808354040283529160200191612071565b820191906000526020600020905b81548152906001019060200180831161205457829003601f168201915b5050505050945082805461208490613657565b80601f01602080910402602001604051908101604052809291908181526020018280546120b090613657565b80156120fd5780601f106120d2576101008083540402835291602001916120fd565b820191906000526020600020905b8154815290600101906020018083116120e057829003601f168201915b5050505050925081805480602002602001604051908101604052809291908181526020016000905b828210156121d157838290600052602060002001805461214490613657565b80601f016020809104026020016040519081016040528092919081815260200182805461217090613657565b80156121bd5780601f10612192576101008083540402835291602001916121bd565b820191906000526020600020905b8154815290600101906020018083116121a057829003601f168201915b505050505081526020019060010190612125565b505050509150955095509550955095505091939590929450565b60006001600160e01b03198216637965db0b60e01b148061075e575061075e82612816565b61221a8133612866565b50565b610c6d8282604051806020016040528060008152506128bf565b6000818152600260205260409020546001600160a01b031661221a5760405162461bcd60e51b8152602060048201526018602482015277115490cdcc8c4e881a5b9d985b1a59081d1bdad95b88125160421b60448201526064016109e8565b600081815260046020526040902080546001600160a01b0319166001600160a01b03841690811790915581906122cb82611391565b6001600160a01b03167f8c5be1e5ebec7d5bd14f71427d1e84f3dd0314c0f7b2291e5b200ac8c7c3b92560405160405180910390a45050565b60008061231083611391565b9050806001600160a01b0316846001600160a01b0316148061235757506001600160a01b0380821660009081526005602090815260408083209388168352929052205460ff165b8061237b5750836001600160a01b03166123708461094d565b6001600160a01b0316145b949350505050565b826001600160a01b031661239682611391565b6001600160a01b0316146123bc5760405162461bcd60e51b81526004016109e890613997565b6001600160a01b03821661241e5760405162461bcd60e51b8152602060048201526024808201527f4552433732313a207472616e7366657220746f20746865207a65726f206164646044820152637265737360e01b60648201526084016109e8565b826001600160a01b031661243182611391565b6001600160a01b0316146124575760405162461bcd60e51b81526004016109e890613997565b600081815260046020908152604080832080546001600160a01b03199081169091556001600160a01b0387811680865260038552838620805460001901905590871680865283862080546001019055868652600290945282852080549092168417909155905184937fddf252ad1be2c89b69c2b068fc378daa952ba7f163c4a11628f55a4df523b3ef91a4505050565b6124f18282611816565b610c6d5760008281526006602090815260408083206001600160a01b03851684529091529020805460ff191660011790556125293390565b6001600160a01b0316816001600160a01b0316837f2f8788117e7eff1d82e926ec794901d17c78024a50270940304540a733656f0d60405160405180910390a45050565b6125778282611816565b15610c6d5760008281526006602090815260408083206001600160a01b0385168085529252808320805460ff1916905551339285917ff6391f5c32d9c69d2a47ea670b442974b53935d1edc7fd64eb21e047a839171b9190a45050565b816001600160a01b0316836001600160a01b0316036126355760405162461bcd60e51b815260206004820152601960248201527f4552433732313a20617070726f766520746f2063616c6c65720000000000000060448201526064016109e8565b6001600160a01b03838116600081815260056020908152604080832094871680845294825291829020805460ff191686151590811790915591519182527f17307eab39ab6107e8899845ad3d59bd9653f200f220920489ca2b5937696c31910160405180910390a3505050565b6126ad848484612383565b6126b9848484846128f2565b61188d5760405162461bcd60e51b81526004016109e8906139dc565b606060006126e2836129f3565b600101905060008167ffffffffffffffff81111561270257612702612f8c565b6040519080825280601f01601f19166020018201604052801561272c576020820181803683370190505b5090508181016020015b600019016f181899199a1a9b1b9c1cb0b131b232b360811b600a86061a8153600a850494508461273657509392505050565b6000818152600b602052604090206001810154815460028301805460ff60b81b191690556001600160a01b0391821691166127a4308386612383565b6000848152600c60209081526040808320805460018101825590845291832090910180546001600160a01b0319166001600160a01b03868116918217909255915191929084169187917fe30f4d2a28a67cdb8856ab10670990536f9e43edbec16c6c9094a931a58bce9591a450505050565b60006001600160e01b031982166380ac58cd60e01b148061284757506001600160e01b03198216635b5e139f60e01b145b8061075e57506301ffc9a760e01b6001600160e01b031983161461075e565b6128708282611816565b610c6d5761287d81612acb565b612888836020612add565b604051602001612899929190613a2e565b60408051601f198184030181529082905262461bcd60e51b82526109e891600401612f5d565b6128c98383612c79565b6128d660008484846128f2565b610a895760405162461bcd60e51b81526004016109e8906139dc565b60006001600160a01b0384163b156129e857604051630a85bd0160e11b81526001600160a01b0385169063150b7a0290612936903390899088908890600401613aa3565b6020604051808303816000875af1925050508015612971575060408051601f3d908101601f1916820190925261296e91810190613ae0565b60015b6129ce573d80801561299f576040519150601f19603f3d011682016040523d82523d6000602084013e6129a4565b606091505b5080516000036129c65760405162461bcd60e51b81526004016109e8906139dc565b805181602001fd5b6001600160e01b031916630a85bd0160e11b14905061237b565b506001949350505050565b60008072184f03e93ff9f4daa797ed6e38ed64bf6a1f0160401b8310612a325772184f03e93ff9f4daa797ed6e38ed64bf6a1f0160401b830492506040015b6d04ee2d6d415b85acef81000000008310612a5e576d04ee2d6d415b85acef8100000000830492506020015b662386f26fc100008310612a7c57662386f26fc10000830492506010015b6305f5e1008310612a94576305f5e100830492506008015b6127108310612aa857612710830492506004015b60648310612aba576064830492506002015b600a831061075e5760010192915050565b606061075e6001600160a01b03831660145b60606000612aec836002613afd565b612af7906002613b14565b67ffffffffffffffff811115612b0f57612b0f612f8c565b6040519080825280601f01601f191660200182016040528015612b39576020820181803683370190505b509050600360fc1b81600081518110612b5457612b54613b27565b60200101906001600160f81b031916908160001a905350600f60fb1b81600181518110612b8357612b83613b27565b60200101906001600160f81b031916908160001a9053506000612ba7846002613afd565b612bb2906001613b14565b90505b6001811115612c2a576f181899199a1a9b1b9c1cb0b131b232b360811b85600f1660108110612be657612be6613b27565b1a60f81b828281518110612bfc57612bfc613b27565b60200101906001600160f81b031916908160001a90535060049490941c93612c2381613b3d565b9050612bb5565b5083156119005760405162461bcd60e51b815260206004820181905260248201527f537472696e67733a20686578206c656e67746820696e73756666696369656e7460448201526064016109e8565b6001600160a01b038216612ccf5760405162461bcd60e51b815260206004820181905260248201527f4552433732313a206d696e7420746f20746865207a65726f206164647265737360448201526064016109e8565b6000818152600260205260409020546001600160a01b031615612d345760405162461bcd60e51b815260206004820152601c60248201527f4552433732313a20746f6b656e20616c7265616479206d696e7465640000000060448201526064016109e8565b6000818152600260205260409020546001600160a01b031615612d995760405162461bcd60e51b815260206004820152601c60248201527f4552433732313a20746f6b656e20616c7265616479206d696e7465640000000060448201526064016109e8565b6001600160a01b038216600081815260036020908152604080832080546001019055848352600290915280822080546001600160a01b0319168417905551839291907fddf252ad1be2c89b69c2b068fc378daa952ba7f163c4a11628f55a4df523b3ef908290a45050565b828054828255906000526020600020908101928215612e4a579160200282015b82811115612e4a5782518290612e3a908261370e565b5091602001919060010190612e24565b50612e56929150612e5a565b5090565b80821115612e56576000612e6e8282612e77565b50600101612e5a565b508054612e8390613657565b6000825580601f10612e93575050565b601f01602090049060005260206000209081019061221a91905b80821115612e565760008155600101612ead565b6001600160e01b03198116811461221a57600080fd5b600060208284031215612ee957600080fd5b813561190081612ec1565b600060208284031215612f0657600080fd5b5035919050565b60005b83811015612f28578181015183820152602001612f10565b50506000910152565b60008151808452612f49816020860160208601612f0d565b601f01601f19169290920160200192915050565b6020815260006119006020830184612f31565b80356001600160a01b0381168114612f8757600080fd5b919050565b634e487b7160e01b600052604160045260246000fd5b604051601f8201601f1916810167ffffffffffffffff81118282101715612fcb57612fcb612f8c565b604052919050565b600067ffffffffffffffff831115612fed57612fed612f8c565b613000601f8401601f1916602001612fa2565b905082815283838301111561301457600080fd5b828260208301376000602084830101529392505050565b600082601f83011261303c57600080fd5b61190083833560208501612fd3565b600080600080600060a0868803121561306357600080fd5b61306c86612f70565b945060208087013567ffffffffffffffff8082111561308a57600080fd5b6130968a838b0161302b565b96506040890135955060608901359150808211156130b357600080fd5b6130bf8a838b0161302b565b945060808901359150808211156130d557600080fd5b818901915089601f8301126130e957600080fd5b8135818111156130fb576130fb612f8c565b8060051b61310a858201612fa2565b918252838101850191858101908d84111561312457600080fd5b86860192505b83831015613160578235858111156131425760008081fd5b6131508f89838a010161302b565b835250918601919086019061312a565b809750505050505050509295509295909350565b6000806040838503121561318757600080fd5b61319083612f70565b946020939093013593505050565b6000806000806000608086880312156131b657600080fd5b6131bf86612f70565b94506131cd60208701612f70565b935060408601359250606086013567ffffffffffffffff808211156131f157600080fd5b818801915088601f83011261320557600080fd5b81358181111561321457600080fd5b89602082850101111561322657600080fd5b9699959850939650602001949392505050565b80358015158114612f8757600080fd5b6000806040838503121561325c57600080fd5b8235915061326c60208401613239565b90509250929050565b60008060006060848603121561328a57600080fd5b61329384612f70565b92506132a160208501612f70565b9150604084013590509250925092565b600080604083850312156132c457600080fd5b8235915061326c60208401612f70565b6000602082840312156132e657600080fd5b813567ffffffffffffffff8111156132fd57600080fd5b61237b8482850161302b565b6001600160a01b038716815260c06020820181905260009061332d90830188612f31565b86604084015282810360608401526133458187612f31565b9415156080840152505090151560a090910152949350505050565b60006020828403121561337257600080fd5b61190082612f70565b6000806040838503121561338e57600080fd5b61339783612f70565b915061326c60208401613239565b600080600080608085870312156133bb57600080fd5b6133c485612f70565b93506133d260208601612f70565b925060408501359150606085013567ffffffffffffffff8111156133f557600080fd5b8501601f8101871361340657600080fd5b61341587823560208401612fd3565b91505092959194509250565b6000806040838503121561343457600080fd5b82359150602083013567ffffffffffffffff81111561345257600080fd5b61345e8582860161302b565b9150509250929050565b6000806040838503121561347b57600080fd5b50508035926020909101359150565b60808152600061349d6080830187612f31565b85602084015282810360408401526134b58186612f31565b915050821515606083015295945050505050565b600080604083850312156134dc57600080fd5b6134e583612f70565b915061326c60208401612f70565b6020808252825182820181905260009190848201906040850190845b818110156135345783516001600160a01b03168352928401929184019160010161350f565b50909695505050505050565b600081518084526020808501808196508360051b8101915082860160005b85811015613588578284038952613576848351612f31565b9885019893509084019060010161355e565b5091979650505050505050565b6001600160a01b038816815260e0602082018190526000906135b990830189612f31565b87604084015282810360608401526135d18188612f31565b9050851515608084015284151560a084015282810360c08401526135f58185613540565b9a9950505050505050505050565b60a08152600061361660a0830188612f31565b866020840152828103604084015261362e8187612f31565b905082810360608401526136428186613540565b91505082151560808301529695505050505050565b600181811c9082168061366b57607f821691505b60208210810361368b57634e487b7160e01b600052602260045260246000fd5b50919050565b634e487b7160e01b600052601160045260246000fd5b6000600182016136b9576136b9613691565b5060010190565b601f821115610a8957600081815260208120601f850160051c810160208610156136e75750805b601f850160051c820191505b81811015613706578281556001016136f3565b505050505050565b815167ffffffffffffffff81111561372857613728612f8c565b61373c816137368454613657565b846136c0565b602080601f83116001811461377157600084156137595750858301515b600019600386901b1c1916600185901b178555613706565b600085815260208120601f198616915b828110156137a057888601518255948401946001909101908401613781565b50858210156137be5787850151600019600388901b60f8161c191681555b5050505050600190811b01905550565b6020808252601690820152752a34b0b230903832b936b7b437b730b71030b5ba34b360511b604082015260600190565b6020808252602d908201527f4552433732313a2063616c6c6572206973206e6f7420746f6b656e206f776e6560408201526c1c881bdc88185c1c1c9bdd9959609a1b606082015260800190565b600060208083526000845461385f81613657565b80848701526040600180841660008114613880576001811461389a576138c8565b60ff1985168984015283151560051b8901830195506138c8565b896000528660002060005b858110156138c05781548b82018601529083019088016138a5565b8a0184019650505b509398975050505050505050565b600082516138e8818460208701612f0d565b9190910192915050565b600080835461390081613657565b60018281168015613918576001811461392d5761395c565b60ff198416875282151583028701945061395c565b8760005260208060002060005b858110156139535781548a82015290840190820161393a565b50505082870194505b50929695505050505050565b6000835161397a818460208801612f0d565b83519083019061398e818360208801612f0d565b01949350505050565b60208082526025908201527f4552433732313a207472616e736665722066726f6d20696e636f72726563742060408201526437bbb732b960d91b606082015260800190565b60208082526032908201527f4552433732313a207472616e7366657220746f206e6f6e20455243373231526560408201527131b2b4bb32b91034b6b83632b6b2b73a32b960711b606082015260800190565b7f416363657373436f6e74726f6c3a206163636f756e7420000000000000000000815260008351613a66816017850160208801612f0d565b7001034b99036b4b9b9b4b733903937b6329607d1b6017918401918201528351613a97816028840160208801612f0d565b01602801949350505050565b6001600160a01b0385811682528416602082015260408101839052608060608201819052600090613ad690830184612f31565b9695505050505050565b600060208284031215613af257600080fd5b815161190081612ec1565b808202811582820484141761075e5761075e613691565b8082018082111561075e5761075e613691565b634e487b7160e01b600052603260045260246000fd5b600081613b4c57613b4c613691565b50600019019056fe9856acbf9ca422c521e08bc1d8e706e2db0b5830f4d56f698b78d8c01c869491a26469706673582212207f9b97c978eb438139251a77ffa2ec2f6e0cb5be5e8abc9e80e1b011ccedbca164736f6c63430008130033",
  "linkReferences": {},
  "deployedLinkReferences": {}
}