{
  "_format": "hh-sol-artifact-1",
  "contractName": "LandRegistry",
  "sourceName": "contracts/LandRegistry.sol",
  "abi": [
    {
      "inputs": [],
      "stateMutability": "nonpayable",
      "type": "constructor"
    },
    {
      "anonymous": false,
      "inputs": [
        {
          "indexed": true,
          "internalType": "address",
          "name": "owner",
          "type": "address"
        },
        {
          "indexed": true,
          "internalType": "address",
          "name": "approved",
          "type": "address"
        },
        {
          "indexed": true,
          "internalType": "uint256",
          "name": "tokenId",
          "type": "uint256"
        }
      ],
      "name": "Approval",
      "type": "event"
    },
    {
      "anonymous": false,
      "inputs": [
        {
          "indexed": true,
          "internalType": "address",
          "name": "owner",
          "type": "address"
        },
        {
          "indexed": true,
          "internalType": "address",
          "name": "operator",
          "type": "address"
        },
        {
          "indexed": false,
          "internalType": "bool",
          "name": "approved",
          "type": "bool"
        }
      ],
      "name": "ApprovalForAll",
      "type": "event"
    },
    {
      "anonymous": false,
      "inputs": [
        {
          "indexed": true,
          "internalType": "uint256",
          "name": "tokenId",
          "type": "uint256"
        },
        {
          "indexed": true,
          "internalType": "address",
          "name": "owner",
          "type": "address"
        },
        {
          "indexed": false,
          "internalType": "string",
          "name": "nib",
          "type": "string"
        }
      ],
      "name": "AssetMinted",
      "type": "event"
    },
    {
      "anonymous": false,
      "inputs": [
        {
          "indexed": true,
          "internalType": "uint256",
          "name": "tokenId",
          "type": "uint256"
        },
        {
          "indexed": false,
          "internalType": "bool",
          "name": "isDisputed",
          "type": "bool"
        }
      ],
      "name": "EnforcementStatusChanged",
      "type": "event"
    },
    {
      "anonymous": false,
      "inputs": [
        {
          "indexed": true,
          "internalType": "bytes32",
          "name": "role",
          "type": "bytes32"
        },
        {
          "indexed": true,
          "internalType": "bytes32",
          "name": "previousAdminRole",
          "type": "bytes32"
        },
        {
          "indexed": true,
          "internalType": "bytes32",
          "name": "newAdminRole",
          "type": "bytes32"
        }
      ],
      "name": "RoleAdminChanged",
      "type": "event"
    },
    {
      "anonymous": false,
      "inputs": [
        {
          "indexed": true,
          "internalType": "bytes32",
          "name": "role",
          "type": "bytes32"
        },
        {
          "indexed": true,
          "internalType": "address",
          "name": "account",
          "type": "address"
        },
        {
          "indexed": true,
          "internalType": "address",
          "name": "sender",
          "type": "address"
        }
      ],
      "name": "RoleGranted",
      "type": "event"
    },
    {
      "anonymous": false,
      "inputs": [
        {
          "indexed": true,
          "internalType": "bytes32",
          "name": "role",
          "type": "bytes32"
        },
        {
          "indexed": true,
          "internalType": "address",
          "name": "account",
          "type": "address"
        },
        {
          "indexed": true,
          "internalType": "address",
          "name": "sender",
          "type": "address"
        }
      ],
      "name": "RoleRevoked",
      "type": "event"
    },
    {
      "anonymous": false,
      "inputs": [
        {
          "indexed": true,
          "internalType": "address",
          "name": "from",
          "type": "address"
        },
        {
          "indexed": true,
          "internalType": "address",
          "name": "to",
          "type": "address"
        },
        {
          "indexed": true,
          "internalType": "uint256",
          "name": "tokenId",
          "type": "uint256"
        }
      ],
      "name": "Transfer",
      "type": "event"
    },
    {
      "anonymous": false,
      "inputs": [
        {
          "indexed": true,
          "internalType": "uint256",
          "name": "tokenId",
          "type": "uint256"
        },
        {
          "indexed": true,
          "internalType": "address",
          "name": "seller",
          "type": "address"
        }
      ],
      "name": "TransferCancelled",
      "type": "event"
    },
    {
      "anonymous": false,
      "inputs": [
        {
          "indexed": true,
          "internalType": "uint256",
          "name": "tokenId",
          "type": "uint256"
        },
        {
          "indexed": true,
          "internalType": "address",
          "name": "seller",
          "type": "address"
        },
        {
          "indexed": true,
          "internalType": "address",
          "name": "buyer",
          "type": "address"
        }
      ],
      "name": "TransferCompleted",
      "type": "event"
    },
    {
      "anonymous": false,
      "inputs": [
        {
          "indexed": true,
          "internalType": "uint256",
          "name": "tokenId",
          "type": "uint256"
        },
        {
          "indexed": true,
          "internalType": "address",
          "name": "seller",
          "type": "address"
        },
        {
          "indexed": true,
          "internalType": "address",
          "name": "buyer",
          "type": "address"
        }
      ],
      "name": "TransferProposed",
      "type": "event"
    },
    {
      "inputs": [],
      "name": "ADMIN_BPN_ROLE",
      "outputs": [
        {
          "internalType": "bytes32",
          "name": "",
          "type": "bytes32"
        }
      ],
      "stateMutability": "view",
      "type": "function"
    },
    {
      "inputs": [],
      "name": "AUDITOR_ROLE",
      "outputs": [
        {
          "internalType": "bytes32",
          "name": "",
          "type": "bytes32"
        }
      ],
      "stateMutability": "view",
      "type": "function"
    },
    {
      "inputs": [],
      "name": "BPN_WILAYAH_ROLE",
      "outputs": [
        {
          "internalType": "bytes32",
          "name": "",
          "type": "bytes32"
        }
      ],
      "stateMutability": "view",
      "type": "function"
    },
    {
      "inputs": [],
      "name": "DEFAULT_ADMIN_ROLE",
      "outputs": [
        {
          "internalType": "bytes32",
          "name": "",
          "type": "bytes32"
        }
      ],
      "stateMutability": "view",
      "type": "function"
    },
    {
      "inputs": [],
      "name": "NOTARIS_ROLE",
      "outputs": [
        {
          "internalType": "bytes32",
          "name": "",
          "type": "bytes32"
        }
      ],
      "stateMutability": "view",
      "type": "function"
    },
    {
      "inputs": [
        {
          "internalType": "address",
          "name": "to",
          "type": "address"
        },
        {
          "internalType": "uint256",
          "name": "tokenId",
          "type": "uint256"
        }
      ],
      "name": "approve",
      "outputs": [],
      "stateMutability": "nonpayable",
      "type": "function"
    },
    {
      "inputs": [
        {
          "internalType": "uint256",
          "name": "tokenId",
          "type": "uint256"
        }
      ],
      "name": "approveTransferBuyer",
      "outputs": [],
      "stateMutability": "nonpayable",
      "type": "function"
    },
    {
      "inputs": [
        {
          "internalType": "uint256",
          "name": "tokenId",
          "type": "uint256"
        },
        {
          "internalType": "string",
          "name": "ajbIpfsHash",
          "type": "string"
        }
      ],
      "name": "approveTransferNotaris",
      "outputs": [],
      "stateMutability": "nonpayable",
      "type": "function"
    },
    {
      "inputs": [
        {
          "internalType": "address",
          "name": "owner",
          "type": "address"
        }
      ],
      "name": "balanceOf",
      "outputs": [
        {
          "internalType": "uint256",
          "name": "",
          "type": "uint256"
        }
      ],
      "stateMutability": "view",
      "type": "function"
    },
    {
      "inputs": [
        {
          "internalType": "uint256",
          "name": "tokenId",
          "type": "uint256"
        }
      ],
      "name": "cancelTransfer",
      "outputs": [],
      "stateMutability": "nonpayable",
      "type": "function"
    },
    {
      "inputs": [
        {
          "internalType": "uint256",
          "name": "tokenId",
          "type": "uint256"
        }
      ],
      "name": "getApproved",
      "outputs": [
        {
          "internalType": "address",
          "name": "",
          "type": "address"
        }
      ],
      "stateMutability": "view",
      "type": "function"
    },
    {
      "inputs": [
        {
          "internalType": "uint256",
          "name": "tokenId",
          "type": "uint256"
        }
      ],
      "name": "getLandDetails",
      "outputs": [
        {
          "internalType": "string",
          "name": "gpsCoordinates",
          "type": "string"
        },
        {
          "internalType": "uint256",
          "name": "area",
          "type": "uint256"
        },
        {
          "internalType": "string",
          "name": "nib",
          "type": "string"
        },
        {
          "internalType": "string[]",
          "name": "ipfsHashes",
          "type": "string[]"
        },
        {
          "internalType": "bool",
          "name": "isDisputed",
          "type": "bool"
        }
      ],
      "stateMutability": "view",
      "type": "function"
    },
    {
      "inputs": [
        {
          "internalType": "uint256",
          "name": "requestId",
          "type": "uint256"
        }
      ],
      "name": "getRequestDetails",
      "outputs": [
        {
          "internalType": "address",
          "name": "to",
          "type": "address"
        },
        {
          "internalType": "string",
          "name": "nib",
          "type": "string"
        },
        {
          "internalType": "uint256",
          "name": "area",
          "type": "uint256"
        },
        {
          "internalType": "string",
          "name": "gpsCoordinates",
          "type": "string"
        },
        {
          "internalType": "bool",
          "name": "isProcessed",
          "type": "bool"
        },
        {
          "internalType": "bool",
          "name": "isRejected",
          "type": "bool"
        }
      ],
      "stateMutability": "view",
      "type": "function"
    },
    {
      "inputs": [
        {
          "internalType": "bytes32",
          "name": "role",
          "type": "bytes32"
        }
      ],
      "name": "getRoleAdmin",
      "outputs": [
        {
          "internalType": "bytes32",
          "name": "",
          "type": "bytes32"
        }
      ],
      "stateMutability": "view",
      "type": "function"
    },
    {
      "inputs": [
        {
          "internalType": "string",
          "name": "nib",
          "type": "string"
        }
      ],
      "name": "getTokenByNIB",
      "outputs": [
        {
          "internalType": "uint256",
          "name": "tokenId",
          "type": "uint256"
        },
        {
          "internalType": "bool",
          "name": "found",
          "type": "bool"
        }
      ],
      "stateMutability": "view",
      "type": "function"
    },
    {
      "inputs": [],
      "name": "getTotalLands",
      "outputs": [
        {
          "internalType": "uint256",
          "name": "",
          "type": "uint256"
        }
      ],
      "stateMutability": "view",
      "type": "function"
    },
    {
      "inputs": [],
      "name": "getTotalRequests",
      "outputs": [
        {
          "internalType": "uint256",
          "name": "",
          "type": "uint256"
        }
      ],
      "stateMutability": "view",
      "type": "function"
    },
    {
      "inputs": [
        {
          "internalType": "bytes32",
          "name": "role",
          "type": "bytes32"
        },
        {
          "internalType": "address",
          "name": "account",
          "type": "address"
        }
      ],
      "name": "grantRole",
      "outputs": [],
      "stateMutability": "nonpayable",
      "type": "function"
    },
    {
      "inputs": [
        {
          "internalType": "bytes32",
          "name": "role",
          "type": "bytes32"
        },
        {
          "internalType": "address",
          "name": "account",
          "type": "address"
        }
      ],
      "name": "hasRole",
      "outputs": [
        {
          "internalType": "bool",
          "name": "",
          "type": "bool"
        }
      ],
      "stateMutability": "view",
      "type": "function"
    },
    {
      "inputs": [
        {
          "internalType": "address",
          "name": "owner",
          "type": "address"
        },
        {
          "internalType": "address",
          "name": "operator",
          "type": "address"
        }
      ],
      "name": "isApprovedForAll",
      "outputs": [
        {
          "internalType": "bool",
          "name": "",
          "type": "bool"
        }
      ],
      "stateMutability": "view",
      "type": "function"
    },
    {
      "inputs": [
        {
          "internalType": "uint256",
          "name": "",
          "type": "uint256"
        }
      ],
      "name": "lands",
      "outputs": [
        {
          "internalType": "string",
          "name": "gpsCoordinates",
          "type": "string"
        },
        {
          "internalType": "uint256",
          "name": "area",
          "type": "uint256"
        },
        {
          "internalType": "string",
          "name": "nib",
          "type": "string"
        },
        {
          "internalType": "bool",
          "name": "isDisputed",
          "type": "bool"
        }
      ],
      "stateMutability": "view",
      "type": "function"
    },
    {
      "inputs": [
        {
          "internalType": "address",
          "name": "to",
          "type": "address"
        },
        {
          "internalType": "string",
          "name": "gpsCoordinates",
          "type": "string"
        },
        {
          "internalType": "uint256",
          "name": "area",
          "type": "uint256"
        },
        {
          "internalType": "string",
          "name": "nib",
          "type": "string"
        },
        {
          "internalType": "string[]",
          "name": "ipfsHashes",
          "type": "string[]"
        }
      ],
      "name": "mintLand",
      "outputs": [],
      "stateMutability": "nonpayable",
      "type": "function"
    },
    {
      "inputs": [],
      "name": "name",
      "outputs": [
        {
          "internalType": "string",
          "name": "",
          "type": "string"
        }
      ],
      "stateMutability": "view",
      "type": "function"
    },
    {
      "inputs": [
        {
          "internalType": "address",
          "name": "",
          "type": "address"
        },
        {
          "internalType": "address",
          "name": "",
          "type": "address"
        },
        {
          "internalType": "uint256",
          "name": "",
          "type": "uint256"
        },
        {
          "internalType": "bytes",
          "name": "",
          "type": "bytes"
        }
      ],
      "name": "onERC721Received",
      "outputs": [
        {
          "internalType": "bytes4",
          "name": "",
          "type": "bytes4"
        }
      ],
      "stateMutability": "pure",
      "type": "function"
    },
    {
      "inputs": [
        {
          "internalType": "uint256",
          "name": "tokenId",
          "type": "uint256"
        }
      ],
      "name": "ownerOf",
      "outputs": [
        {
          "internalType": "address",
          "name": "",
          "type": "address"
        }
      ],
      "stateMutability": "view",
      "type": "function"
    },
    {
      "inputs": [
        {
          "internalType": "uint256",
          "name": "",
          "type": "uint256"
        },
        {
          "internalType": "uint256",
          "name": "",
          "type": "uint256"
        }
      ],
      "name": "ownershipHistory",
      "outputs": [
        {
          "internalType": "address",
          "name": "",
          "type": "address"
        }
      ],
      "stateMutability": "view",
      "type": "function"
    },
    {
      "inputs": [
        {
          "internalType": "uint256",
          "name": "tokenId",
          "type": "uint256"
        },
        {
          "internalType": "address",
          "name": "buyer",
          "type": "address"
        }
      ],
      "name": "proposeTransfer",
      "outputs": [],
      "stateMutability": "nonpayable",
      "type": "function"
    },
    {
      "inputs": [
        {
          "internalType": "bytes32",
          "name": "role",
          "type": "bytes32"
        },
        {
          "internalType": "address",
          "name": "account",
          "type": "address"
        }
      ],
      "name": "renounceRole",
      "outputs": [],
      "stateMutability": "nonpayable",
      "type": "function"
    },
    {
      "inputs": [
        {
          "internalType": "bytes32",
          "name": "role",
          "type": "bytes32"
        },
        {
          "internalType": "address",
          "name": "account",
          "type": "address"
        }
      ],
      "name": "revokeRole",
      "outputs": [],
      "stateMutability": "nonpayable",
      "type": "function"
    },
    {
      "inputs": [
        {
          "internalType": "address",
          "name": "from",
          "type": "address"
        },
        {
          "internalType": "address",
          "name": "to",
          "type": "address"
        },
        {
          "internalType": "uint256",
          "name": "tokenId",
          "type": "uint256"
        }
      ],
      "name": "safeTransferFrom",
      "outputs": [],
      "stateMutability": "nonpayable",
      "type": "function"
    },
    {
      "inputs": [
        {
          "internalType": "address",
          "name": "from",
          "type": "address"
        },
        {
          "internalType": "address",
          "name": "to",
          "type": "address"
        },
        {
          "internalType": "uint256",
          "name": "tokenId",
          "type": "uint256"
        },
        {
          "internalType": "bytes",
          "name": "data",
          "type": "bytes"
        }
      ],
      "name": "safeTransferFrom",
      "outputs": [],
      "stateMutability": "nonpayable",
      "type": "function"
    },
    {
      "inputs": [
        {
          "internalType": "address",
          "name": "operator",
          "type": "address"
        },
        {
          "internalType": "bool",
          "name": "approved",
          "type": "bool"
        }
      ],
      "name": "setApprovalForAll",
      "outputs": [],
      "stateMutability": "nonpayable",
      "type": "function"
    },
    {
      "inputs": [
        {
          "internalType": "uint256",
          "name": "tokenId",
          "type": "uint256"
        },
        {
          "internalType": "bool",
          "name": "isDisputed",
          "type": "bool"
        }
      ],
      "name": "setEnforcement",
      "outputs": [],
      "stateMutability": "nonpayable",
      "type": "function"
    },
    {
      "inputs": [
        {
          "internalType": "bytes4",
          "name": "interfaceId",
          "type": "bytes4"
        }
      ],
      "name": "supportsInterface",
      "outputs": [
        {
          "internalType": "bool",
          "name": "",
          "type": "bool"
        }
      ],
      "stateMutability": "view",
      "type": "function"
    },
    {
      "inputs": [],
      "name": "symbol",
      "outputs": [
        {
          "internalType": "string",
          "name": "",
          "type": "string"
        }
      ],
      "stateMutability": "view",
      "type": "function"
    },
    {
      "inputs": [
        {
          "internalType": "uint256",
          "name": "tokenId",
          "type": "uint256"
        }
      ],
      "name": "tokenURI",
      "outputs": [
        {
          "internalType": "string",
          "name": "",
          "type": "string"
        }
      ],
      "stateMutability": "view",
      "type": "function"
    },
    {
      "inputs": [
        {
          "internalType": "address",
          "name": "from",
          "type": "address"
        },
        {
          "internalType": "address",
          "name": "to",
          "type": "address"
        },
        {
          "internalType": "uint256",
          "name": "tokenId",
          "type": "uint256"
        }
      ],
      "name": "transferFrom",
      "outputs": [],
      "stateMutability": "nonpayable",
      "type": "function"
    },
    {
      "inputs": [
        {
          "internalType": "uint256",
          "name": "",
          "type": "uint256"
        }
      ],
      "name": "transferRequests",
      "outputs": [
        {
          "internalType": "address",
          "name": "seller",
          "type": "address"
        },
        {
          "internalType": "address",
          "name": "buyer",
          "type": "address"
        },
        {
          "internalType": "address",
          "name": "notaris",
          "type": "address"
        },
        {
          "internalType": "bool",
          "name": "sellerApproved",
          "type": "bool"
        },
        {
          "internalType": "bool",
          "name": "buyerApproved",
          "type": "bool"
        },
        {
          "internalType": "bool",
          "name": "notarisApproved",
          "type": "bool"
        },
        {
          "internalType": "bool",
          "name": "isActive",
          "type": "bool"
        }
      ],
      "stateMutability": "view",
      "type": "function"
    }
  ],
  "bytecode": "0x60806040523480156200001157600080fd5b50604051806040016040528060098152602001682630b7322a37b5b2b760b91b8152506040518060400160405280600381526020016213139160ea1b81525081600090816200006191906200022a565b5060016200007082826200022a565b506200008291506000905033620000e0565b620000ae7f9856acbf9ca422c521e08bc1d8e706e2db0b5830f4d56f698b78d8c01c86949133620000e0565b620000da7f3b6c71f6d44639d5b3e40f2ef3056c3385a1e68a255a703ac23442c1c3be357d33620000e0565b620002f6565b60008281526006602090815260408083206001600160a01b038516845290915290205460ff16620001815760008281526006602090815260408083206001600160a01b03851684529091529020805460ff19166001179055620001403390565b6001600160a01b0316816001600160a01b0316837f2f8788117e7eff1d82e926ec794901d17c78024a50270940304540a733656f0d60405160405180910390a45b5050565b634e487b7160e01b600052604160045260246000fd5b600181811c90821680620001b057607f821691505b602082108103620001d157634e487b7160e01b600052602260045260246000fd5b50919050565b601f8211156200022557600081815260208120601f850160051c81016020861015620002005750805b601f850160051c820191505b8181101562000221578281556001016200020c565b5050505b505050565b81516001600160401b0381111562000246576200024662000185565b6200025e816200025784546200019b565b84620001d7565b602080601f8311600181146200029657600084156200027d5750858301515b600019600386901b1c1916600185901b17855562000221565b600085815260208120601f198616915b82811015620002c757888601518255948401946001909101908401620002a6565b5085821015620002e65787850151600019600388901b60f8161c191681555b5050505050600190811b01905550565b6130cb80620003066000396000f3fe608060405234801561001057600080fd5b50600436106102325760003560e01c806370a0823111610130578063b88d4fde116100b8578063e261f1e51161007c578063e261f1e5146105ff578063e985e9c514610622578063f0e22d5214610501578063f34d4c631461065e578063fe0cb7dc1461068357600080fd5b8063b88d4fde146105a0578063c87b56dd146105b3578063c89a2bd9146105c6578063c9cf2adc146105d9578063d547741f146105ec57600080fd5b80638ec455e3116100ff5780638ec455e31461054357806391d148541461056a57806395d89b411461057d578063a217fddf14610585578063a22cb4651461058d57600080fd5b806370a08231146104ee578063842e7dba1461050157806386bde3d114610509578063875cfe3b1461051c57600080fd5b806323b872dd116101be5780635911b808116101825780635911b8081461045257806359caecb5146104795780635e6214791461048c5780636352211e146104b45780636e1d616e146104c757600080fd5b806323b872dd146103d5578063248a9ca3146103e85780632f2ff15d1461041957806336568abe1461042c57806342842e0e1461043f57600080fd5b8063081812fc11610205578063081812fc14610339578063095ea7b31461036457806309d4a34514610377578063150b7a021461038a5780631b362b05146103c257600080fd5b806301ffc9a71461023757806303486c401461025f57806306fdde031461030f57806307407dd814610324575b600080fd5b61024a610245366004612574565b6106a7565b60405190151581526020015b60405180910390f35b6102c561026d366004612591565b6009602052600090815260409020805460018201546002909201546001600160a01b039182169282169181169060ff600160a01b8204811691600160a81b8104821691600160b01b8204811691600160b81b90041687565b604080516001600160a01b03988916815296881660208801529490961693850193909352901515606084015215156080830152151560a082015290151560c082015260e001610256565b6103176106b8565b60405161025691906125fa565b6103376103323660046126e8565b61074a565b005b61034c610347366004612591565b6108b3565b6040516001600160a01b039091168152602001610256565b610337610372366004612811565b6108da565b610337610385366004612591565b6109f4565b6103a961039836600461283b565b630a85bd0160e11b95945050505050565b6040516001600160e01b03199091168152602001610256565b6103376103d03660046128e6565b610a90565b6103376103e3366004612912565b610b15565b61040b6103f6366004612591565b60009081526006602052604090206001015490565b604051908152602001610256565b61033761042736600461294e565b610b46565b61033761043a36600461294e565b610b6b565b61033761044d366004612912565b610be9565b61040b7f4e19be690c034b73b896a80e4645324b1ada2a2d102cf965cd497dd07f3a195081565b610337610487366004612591565b610c04565b61049f61049a366004612971565b610d1a565b60408051928352901515602083015201610256565b61034c6104c2366004612591565b610db3565b61040b7f59a1c48e5837ad7a7f3dcedcbe129bf3249ec4fbf651fd4f5e2600ead39fe2f581565b61040b6104fc3660046129a6565b610e13565b60075461040b565b61033761051736600461294e565b610e99565b61040b7f9856acbf9ca422c521e08bc1d8e706e2db0b5830f4d56f698b78d8c01c86949181565b61040b7f3b6c71f6d44639d5b3e40f2ef3056c3385a1e68a255a703ac23442c1c3be357d81565b61024a61057836600461294e565b6110e3565b61031761110e565b61040b600081565b61033761059b3660046129c1565b61111d565b6103376105ae3660046129eb565b611128565b6103176105c1366004612591565b611160565b6103376105d4366004612a67565b6111d4565b61034c6105e7366004612aae565b61135c565b6103376105fa36600461294e565b611394565b61061261060d366004612591565b6113b9565b6040516102569493929190612ad0565b61024a610630366004612b0f565b6001600160a01b03918216600090815260056020908152604080832093909416825291909152205460ff1690565b61067161066c366004612591565b6114f4565b60405161025696959493929190612b39565b610696610691366004612591565b611655565b604051610256959493929190612b90565b60006106b282611888565b92915050565b6060600080546106c790612c2d565b80601f01602080910402602001604051908101604052809291908181526020018280546106f390612c2d565b80156107405780601f1061071557610100808354040283529160200191610740565b820191906000526020600020905b81548152906001019060200180831161072357829003601f168201915b5050505050905090565b7f3b6c71f6d44639d5b3e40f2ef3056c3385a1e68a255a703ac23442c1c3be357d610774816118ad565b600780546000918261078583612c7d565b909155506040805160a0810182528881526020808201899052818301889052606082018790526000608083018190528481526008909152919091208151929350909181906107d39082612ce4565b5060208201516001820155604082015160028201906107f29082612ce4565b506060820151805161080e9160038401916020909101906124a1565b50608091909101516004909101805460ff191691151591909117905561083487826118ba565b6000818152600a602090815260408083208054600181018255908452919092200180546001600160a01b0319166001600160a01b038a16908117909155905182907fa30dd43fc057b356acd774161b6c8743df78c9bd58d7f492dd56d00121dda6b5906108a29088906125fa565b60405180910390a350505050505050565b60006108be826118d4565b506000908152600460205260409020546001600160a01b031690565b60006108e582610db3565b9050806001600160a01b0316836001600160a01b0316036109575760405162461bcd60e51b815260206004820152602160248201527f4552433732313a20617070726f76616c20746f2063757272656e74206f776e656044820152603960f91b60648201526084015b60405180910390fd5b336001600160a01b038216148061097357506109738133610630565b6109e55760405162461bcd60e51b815260206004820152603d60248201527f4552433732313a20617070726f76652063616c6c6572206973206e6f7420746f60448201527f6b656e206f776e6572206f7220617070726f76656420666f7220616c6c000000606482015260840161094e565b6109ef8383611933565b505050565b60008181526009602052604090206002810154600160b81b900460ff16610a2d5760405162461bcd60e51b815260040161094e90612da4565b60018101546001600160a01b03163314610a795760405162461bcd60e51b815260206004820152600d60248201526c42756b616e2070656d62656c6960981b604482015260640161094e565b600201805460ff60a81b1916600160a81b17905550565b7f9856acbf9ca422c521e08bc1d8e706e2db0b5830f4d56f698b78d8c01c869491610aba816118ad565b600083815260086020908152604091829020600401805460ff1916851515908117909155915191825284917f388370698ea03650624022e5f43e8cb1f902ba526ee8287ff865709bc3946437910160405180910390a2505050565b610b1f33826119a1565b610b3b5760405162461bcd60e51b815260040161094e90612dd4565b6109ef838383611a20565b600082815260066020526040902060010154610b61816118ad565b6109ef8383611b84565b6001600160a01b0381163314610bdb5760405162461bcd60e51b815260206004820152602f60248201527f416363657373436f6e74726f6c3a2063616e206f6e6c792072656e6f756e636560448201526e103937b632b9903337b91039b2b63360891b606482015260840161094e565b610be58282611c0a565b5050565b6109ef83838360405180602001604052806000815250611128565b60008181526009602052604090206002810154600160b81b900460ff16610c3d5760405162461bcd60e51b815260040161094e90612da4565b80546001600160a01b0316331480610c7a5750610c7a7f9856acbf9ca422c521e08bc1d8e706e2db0b5830f4d56f698b78d8c01c869491336110e3565b610cb75760405162461bcd60e51b815260206004820152600e60248201526d5469616461206175746f7269746960901b604482015260640161094e565b60028101805460ff60b81b191690558054610cdd9030906001600160a01b031684611a20565b80546040516001600160a01b039091169083907fad5d1da63a71147a146daa2d4c6cdc9ab57b00bd41306f855d0afe41c5ed284090600090a35050565b60008060005b600754811015610da75783604051602001610d3b9190612e21565b60408051601f198184030181528282528051602091820120600085815260088352929092209192610d70926002019101612e3d565b6040516020818303038152906040528051906020012003610d95579360019350915050565b80610d9f81612c7d565b915050610d20565b50600093849350915050565b6000818152600260205260408120546001600160a01b0316806106b25760405162461bcd60e51b8152602060048201526018602482015277115490cdcc8c4e881a5b9d985b1a59081d1bdad95b88125160421b604482015260640161094e565b60006001600160a01b038216610e7d5760405162461bcd60e51b815260206004820152602960248201527f4552433732313a2061646472657373207a65726f206973206e6f7420612076616044820152683634b21037bbb732b960b91b606482015260840161094e565b506001600160a01b031660009081526003602052604090205490565b33610ea383610db3565b6001600160a01b031614610ee95760405162461bcd60e51b815260206004820152600d60248201526c42756b616e2070656d696c696b60981b604482015260640161094e565b60008281526008602052604090206004015460ff1615610f425760405162461bcd60e51b815260206004820152601460248201527354616e61682064616c616d2073656e676b65746160601b604482015260640161094e565b600082815260096020526040902060020154600160b81b900460ff1615610fab5760405162461bcd60e51b815260206004820152601a60248201527f5065726d6f686f6e616e20616b74696620737564616820616461000000000000604482015260640161094e565b6040805160e081018252338082526001600160a01b03848116602080850191825260008587018181526001606088018181526080890184815260a08a0185815260c08b018481528e875260099097529a909420985189549088166001600160a01b0319918216178a55955191890180549288169290961691909117909455516002909601805493519151975192511515600160b81b0260ff60b81b19931515600160b01b0260ff60b01b19991515600160a81b029990991661ffff60a81b19931515600160a01b026001600160a81b031990961698909616979097179390931716929092179490941716919091179091556110a7903084611a20565b6040516001600160a01b03821690339084907fc1d91ef3905e00972bebbb95768bc866bdc68d24a68dde011efaa8a39c879d5d90600090a45050565b60009182526006602090815260408084206001600160a01b0393909316845291905290205460ff1690565b6060600180546106c790612c2d565b610be5338383611c71565b61113233836119a1565b61114e5760405162461bcd60e51b815260040161094e90612dd4565b61115a84848484611d3f565b50505050565b606061116b826118d4565b600061118260408051602081019091526000815290565b905060008151116111a257604051806020016040528060008152506111cd565b806111ac84611d72565b6040516020016111bd929190612eb3565b6040516020818303038152906040525b9392505050565b7f4e19be690c034b73b896a80e4645324b1ada2a2d102cf965cd497dd07f3a19506111fe816118ad565b60008381526009602052604090206002810154600160b81b900460ff166112375760405162461bcd60e51b815260040161094e90612da4565b6002810154600160a01b900460ff16801561125d57506002810154600160a81b900460ff165b6112a95760405162461bcd60e51b815260206004820152601c60248201527f50656e6a75616c2f50656d62656c692062656c756d20736574756a7500000000604482015260640161094e565b60008481526008602052604090206004015460ff16156113025760405162461bcd60e51b815260206004820152601460248201527354616e61682064616c616d2073656e676b65746160601b604482015260640161094e565b60028101805460ff60b01b193316600162ff000160a01b031990911617600160b01b1790556000848152600860209081526040822060030180546001810182559083529120016113528482612ce4565b5061115a84611e05565b600a602052816000526040600020818154811061137857600080fd5b6000918252602090912001546001600160a01b03169150829050565b6000828152600660205260409020600101546113af816118ad565b6109ef8383611c0a565b6008602052600090815260409020805481906113d490612c2d565b80601f016020809104026020016040519081016040528092919081815260200182805461140090612c2d565b801561144d5780601f106114225761010080835404028352916020019161144d565b820191906000526020600020905b81548152906001019060200180831161143057829003601f168201915b50505050509080600101549080600201805461146890612c2d565b80601f016020809104026020016040519081016040528092919081815260200182805461149490612c2d565b80156114e15780601f106114b6576101008083540402835291602001916114e1565b820191906000526020600020905b8154815290600101906020018083116114c457829003601f168201915b5050506004909301549192505060ff1684565b6000818152600860205260408120606090829082908290819061151688610db3565b816002018260010154836000016001600084805461153390612c2d565b80601f016020809104026020016040519081016040528092919081815260200182805461155f90612c2d565b80156115ac5780601f10611581576101008083540402835291602001916115ac565b820191906000526020600020905b81548152906001019060200180831161158f57829003601f168201915b505050505094508280546115bf90612c2d565b80601f01602080910402602001604051908101604052809291908181526020018280546115eb90612c2d565b80156116385780601f1061160d57610100808354040283529160200191611638565b820191906000526020600020905b81548152906001019060200180831161161b57829003601f168201915b505050505092509650965096509650965096505091939550919395565b6000818152600860205260408120600181015460048201548254606094938593849386938392916002840191600385019160ff1690859061169590612c2d565b80601f01602080910402602001604051908101604052809291908181526020018280546116c190612c2d565b801561170e5780601f106116e35761010080835404028352916020019161170e565b820191906000526020600020905b8154815290600101906020018083116116f157829003601f168201915b5050505050945082805461172190612c2d565b80601f016020809104026020016040519081016040528092919081815260200182805461174d90612c2d565b801561179a5780601f1061176f5761010080835404028352916020019161179a565b820191906000526020600020905b81548152906001019060200180831161177d57829003601f168201915b5050505050925081805480602002602001604051908101604052809291908181526020016000905b8282101561186e5783829060005260206000200180546117e190612c2d565b80601f016020809104026020016040519081016040528092919081815260200182805461180d90612c2d565b801561185a5780601f1061182f5761010080835404028352916020019161185a565b820191906000526020600020905b81548152906001019060200180831161183d57829003601f168201915b5050505050815260200190600101906117c2565b505050509150955095509550955095505091939590929450565b60006001600160e01b03198216637965db0b60e01b14806106b257506106b282611eb3565b6118b78133611f03565b50565b610be5828260405180602001604052806000815250611f5c565b6000818152600260205260409020546001600160a01b03166118b75760405162461bcd60e51b8152602060048201526018602482015277115490cdcc8c4e881a5b9d985b1a59081d1bdad95b88125160421b604482015260640161094e565b600081815260046020526040902080546001600160a01b0319166001600160a01b038416908117909155819061196882610db3565b6001600160a01b03167f8c5be1e5ebec7d5bd14f71427d1e84f3dd0314c0f7b2291e5b200ac8c7c3b92560405160405180910390a45050565b6000806119ad83610db3565b9050806001600160a01b0316846001600160a01b031614806119f457506001600160a01b0380821660009081526005602090815260408083209388168352929052205460ff165b80611a185750836001600160a01b0316611a0d846108b3565b6001600160a01b0316145b949350505050565b826001600160a01b0316611a3382610db3565b6001600160a01b031614611a595760405162461bcd60e51b815260040161094e90612ee2565b6001600160a01b038216611abb5760405162461bcd60e51b8152602060048201526024808201527f4552433732313a207472616e7366657220746f20746865207a65726f206164646044820152637265737360e01b606482015260840161094e565b826001600160a01b0316611ace82610db3565b6001600160a01b031614611af45760405162461bcd60e51b815260040161094e90612ee2565b600081815260046020908152604080832080546001600160a01b03199081169091556001600160a01b0387811680865260038552838620805460001901905590871680865283862080546001019055868652600290945282852080549092168417909155905184937fddf252ad1be2c89b69c2b068fc378daa952ba7f163c4a11628f55a4df523b3ef91a4505050565b611b8e82826110e3565b610be55760008281526006602090815260408083206001600160a01b03851684529091529020805460ff19166001179055611bc63390565b6001600160a01b0316816001600160a01b0316837f2f8788117e7eff1d82e926ec794901d17c78024a50270940304540a733656f0d60405160405180910390a45050565b611c1482826110e3565b15610be55760008281526006602090815260408083206001600160a01b0385168085529252808320805460ff1916905551339285917ff6391f5c32d9c69d2a47ea670b442974b53935d1edc7fd64eb21e047a839171b9190a45050565b816001600160a01b0316836001600160a01b031603611cd25760405162461bcd60e51b815260206004820152601960248201527f4552433732313a20617070726f766520746f2063616c6c657200000000000000604482015260640161094e565b6001600160a01b03838116600081815260056020908152604080832094871680845294825291829020805460ff191686151590811790915591519182527f17307eab39ab6107e8899845ad3d59bd9653f200f220920489ca2b5937696c31910160405180910390a3505050565b611d4a848484611a20565b611d5684848484611f8f565b61115a5760405162461bcd60e51b815260040161094e90612f27565b60606000611d7f83612090565b600101905060008167ffffffffffffffff811115611d9f57611d9f612629565b6040519080825280601f01601f191660200182016040528015611dc9576020820181803683370190505b5090508181016020015b600019016f181899199a1a9b1b9c1cb0b131b232b360811b600a86061a8153600a8504945084611dd357509392505050565b60008181526009602052604090206001810154815460028301805460ff60b81b191690556001600160a01b039182169116611e41308386611a20565b6000848152600a60209081526040808320805460018101825590845291832090910180546001600160a01b0319166001600160a01b03868116918217909255915191929084169187917fe30f4d2a28a67cdb8856ab10670990536f9e43edbec16c6c9094a931a58bce9591a450505050565b60006001600160e01b031982166380ac58cd60e01b1480611ee457506001600160e01b03198216635b5e139f60e01b145b806106b257506301ffc9a760e01b6001600160e01b03198316146106b2565b611f0d82826110e3565b610be557611f1a81612168565b611f2583602061217a565b604051602001611f36929190612f79565b60408051601f198184030181529082905262461bcd60e51b825261094e916004016125fa565b611f668383612316565b611f736000848484611f8f565b6109ef5760405162461bcd60e51b815260040161094e90612f27565b60006001600160a01b0384163b1561208557604051630a85bd0160e11b81526001600160a01b0385169063150b7a0290611fd3903390899088908890600401612fee565b6020604051808303816000875af192505050801561200e575060408051601f3d908101601f1916820190925261200b91810190613021565b60015b61206b573d80801561203c576040519150601f19603f3d011682016040523d82523d6000602084013e612041565b606091505b5080516000036120635760405162461bcd60e51b815260040161094e90612f27565b805181602001fd5b6001600160e01b031916630a85bd0160e11b149050611a18565b506001949350505050565b60008072184f03e93ff9f4daa797ed6e38ed64bf6a1f0160401b83106120cf5772184f03e93ff9f4daa797ed6e38ed64bf6a1f0160401b830492506040015b6d04ee2d6d415b85acef810000000083106120fb576d04ee2d6d415b85acef8100000000830492506020015b662386f26fc10000831061211957662386f26fc10000830492506010015b6305f5e1008310612131576305f5e100830492506008015b612710831061214557612710830492506004015b60648310612157576064830492506002015b600a83106106b25760010192915050565b60606106b26001600160a01b03831660145b6060600061218983600261303e565b612194906002613055565b67ffffffffffffffff8111156121ac576121ac612629565b6040519080825280601f01601f1916602001820160405280156121d6576020820181803683370190505b509050600360fc1b816000815181106121f1576121f1613068565b60200101906001600160f81b031916908160001a905350600f60fb1b8160018151811061222057612220613068565b60200101906001600160f81b031916908160001a905350600061224484600261303e565b61224f906001613055565b90505b60018111156122c7576f181899199a1a9b1b9c1cb0b131b232b360811b85600f166010811061228357612283613068565b1a60f81b82828151811061229957612299613068565b60200101906001600160f81b031916908160001a90535060049490941c936122c08161307e565b9050612252565b5083156111cd5760405162461bcd60e51b815260206004820181905260248201527f537472696e67733a20686578206c656e67746820696e73756666696369656e74604482015260640161094e565b6001600160a01b03821661236c5760405162461bcd60e51b815260206004820181905260248201527f4552433732313a206d696e7420746f20746865207a65726f2061646472657373604482015260640161094e565b6000818152600260205260409020546001600160a01b0316156123d15760405162461bcd60e51b815260206004820152601c60248201527f4552433732313a20746f6b656e20616c7265616479206d696e74656400000000604482015260640161094e565b6000818152600260205260409020546001600160a01b0316156124365760405162461bcd60e51b815260206004820152601c60248201527f4552433732313a20746f6b656e20616c7265616479206d696e74656400000000604482015260640161094e565b6001600160a01b038216600081815260036020908152604080832080546001019055848352600290915280822080546001600160a01b0319168417905551839291907fddf252ad1be2c89b69c2b068fc378daa952ba7f163c4a11628f55a4df523b3ef908290a45050565b8280548282559060005260206000209081019282156124e7579160200282015b828111156124e757825182906124d79082612ce4565b50916020019190600101906124c1565b506124f39291506124f7565b5090565b808211156124f357600061250b8282612514565b506001016124f7565b50805461252090612c2d565b6000825580601f10612530575050565b601f0160209004906000526020600020908101906118b791905b808211156124f3576000815560010161254a565b6001600160e01b0319811681146118b757600080fd5b60006020828403121561258657600080fd5b81356111cd8161255e565b6000602082840312156125a357600080fd5b5035919050565b60005b838110156125c55781810151838201526020016125ad565b50506000910152565b600081518084526125e68160208601602086016125aa565b601f01601f19169290920160200192915050565b6020815260006111cd60208301846125ce565b80356001600160a01b038116811461262457600080fd5b919050565b634e487b7160e01b600052604160045260246000fd5b604051601f8201601f1916810167ffffffffffffffff8111828210171561266857612668612629565b604052919050565b600067ffffffffffffffff83111561268a5761268a612629565b61269d601f8401601f191660200161263f565b90508281528383830111156126b157600080fd5b828260208301376000602084830101529392505050565b600082601f8301126126d957600080fd5b6111cd83833560208501612670565b600080600080600060a0868803121561270057600080fd5b6127098661260d565b945060208087013567ffffffffffffffff8082111561272757600080fd5b6127338a838b016126c8565b965060408901359550606089013591508082111561275057600080fd5b61275c8a838b016126c8565b9450608089013591508082111561277257600080fd5b818901915089601f83011261278657600080fd5b81358181111561279857612798612629565b8060051b6127a785820161263f565b918252838101850191858101908d8411156127c157600080fd5b86860192505b838310156127fd578235858111156127df5760008081fd5b6127ed8f89838a01016126c8565b83525091860191908601906127c7565b809750505050505050509295509295909350565b6000806040838503121561282457600080fd5b61282d8361260d565b946020939093013593505050565b60008060008060006080868803121561285357600080fd5b61285c8661260d565b945061286a6020870161260d565b935060408601359250606086013567ffffffffffffffff8082111561288e57600080fd5b818801915088601f8301126128a257600080fd5b8135818111156128b157600080fd5b8960208285010111156128c357600080fd5b9699959850939650602001949392505050565b8035801515811461262457600080fd5b600080604083850312156128f957600080fd5b82359150612909602084016128d6565b90509250929050565b60008060006060848603121561292757600080fd5b6129308461260d565b925061293e6020850161260d565b9150604084013590509250925092565b6000806040838503121561296157600080fd5b823591506129096020840161260d565b60006020828403121561298357600080fd5b813567ffffffffffffffff81111561299a57600080fd5b611a18848285016126c8565b6000602082840312156129b857600080fd5b6111cd8261260d565b600080604083850312156129d457600080fd5b6129dd8361260d565b9150612909602084016128d6565b60008060008060808587031215612a0157600080fd5b612a0a8561260d565b9350612a186020860161260d565b925060408501359150606085013567ffffffffffffffff811115612a3b57600080fd5b8501601f81018713612a4c57600080fd5b612a5b87823560208401612670565b91505092959194509250565b60008060408385031215612a7a57600080fd5b82359150602083013567ffffffffffffffff811115612a9857600080fd5b612aa4858286016126c8565b9150509250929050565b60008060408385031215612ac157600080fd5b50508035926020909101359150565b608081526000612ae360808301876125ce565b8560208401528281036040840152612afb81866125ce565b915050821515606083015295945050505050565b60008060408385031215612b2257600080fd5b612b2b8361260d565b91506129096020840161260d565b6001600160a01b038716815260c060208201819052600090612b5d908301886125ce565b8660408401528281036060840152612b7581876125ce565b9415156080840152505090151560a090910152949350505050565b60a081526000612ba360a08301886125ce565b602087818501528382036040850152612bbc82886125ce565b915083820360608501528186518084528284019150828160051b85010183890160005b83811015612c0d57601f19878403018552612bfb8383516125ce565b94860194925090850190600101612bdf565b505087151560808801529450612c239350505050565b9695505050505050565b600181811c90821680612c4157607f821691505b602082108103612c6157634e487b7160e01b600052602260045260246000fd5b50919050565b634e487b7160e01b600052601160045260246000fd5b600060018201612c8f57612c8f612c67565b5060010190565b601f8211156109ef57600081815260208120601f850160051c81016020861015612cbd5750805b601f850160051c820191505b81811015612cdc57828155600101612cc9565b505050505050565b815167ffffffffffffffff811115612cfe57612cfe612629565b612d1281612d0c8454612c2d565b84612c96565b602080601f831160018114612d475760008415612d2f5750858301515b600019600386901b1c1916600185901b178555612cdc565b600085815260208120601f198616915b82811015612d7657888601518255948401946001909101908401612d57565b5085821015612d945787850151600019600388901b60f8161c191681555b5050505050600190811b01905550565b6020808252601690820152752a34b0b230903832b936b7b437b730b71030b5ba34b360511b604082015260600190565b6020808252602d908201527f4552433732313a2063616c6c6572206973206e6f7420746f6b656e206f776e6560408201526c1c881bdc88185c1c1c9bdd9959609a1b606082015260800190565b60008251612e338184602087016125aa565b9190910192915050565b6000808354612e4b81612c2d565b60018281168015612e635760018114612e7857612ea7565b60ff1984168752821515830287019450612ea7565b8760005260208060002060005b85811015612e9e5781548a820152908401908201612e85565b50505082870194505b50929695505050505050565b60008351612ec58184602088016125aa565b835190830190612ed98183602088016125aa565b01949350505050565b60208082526025908201527f4552433732313a207472616e736665722066726f6d20696e636f72726563742060408201526437bbb732b960d91b606082015260800190565b60208082526032908201527f4552433732313a207472616e7366657220746f206e6f6e20455243373231526560408201527131b2b4bb32b91034b6b83632b6b2b73a32b960711b606082015260800190565b7f416363657373436f6e74726f6c3a206163636f756e7420000000000000000000815260008351612fb18160178501602088016125aa565b7001034b99036b4b9b9b4b733903937b6329607d1b6017918401918201528351612fe28160288401602088016125aa565b01602801949350505050565b6001600160a01b0385811682528416602082015260408101839052608060608201819052600090612c23908301846125ce565b60006020828403121561303357600080fd5b81516111cd8161255e565b80820281158282048414176106b2576106b2612c67565b808201808211156106b2576106b2612c67565b634e487b7160e01b600052603260045260246000fd5b60008161308d5761308d612c67565b50600019019056fea2646970667358221220bcce327c7c4dd4b8d49a50567205f97c017edefd9544cc87e58963fecda677ee64736f6c63430008130033",
  "linkReferences": {},
  "deployedLinkReferences": {}
}