{
  "_format": "hh-sol-artifact-1",
  "contractName": "LandRegistry",
  "sourceName": "contracts/LandRegistry.sol",
  "abi": [
    {
      "inputs": [],
      "stateMutability": "nonpayable",
      "type": "constructor"
    },
    {
      "inputs": [],
      "name": "AccessControlBadConfirmation",
      "type": "error"
    },
    {
      "inputs": [
        {
          "internalType": "address",
          "name": "account",
          "type": "address"
        },
        {
          "internalType": "bytes32",
          "name": "neededRole",
          "type": "bytes32"
        }
      ],
      "name": "AccessControlUnauthorizedAccount",
      "type": "error"
    },
    {
      "inputs": [
        {
          "internalType": "address",
          "name": "sender",
          "type": "address"
        },
        {
          "internalType": "uint256",
          "name": "tokenId",
          "type": "uint256"
        },
        {
          "internalType": "address",
          "name": "owner",
          "type": "address"
        }
      ],
      "name": "ERC721IncorrectOwner",
      "type": "error"
    },
    {
      "inputs": [
        {
          "internalType": "address",
          "name": "operator",
          "type": "address"
        },
        {
          "internalType": "uint256",
          "name": "tokenId",
          "type": "uint256"
        }
      ],
      "name": "ERC721InsufficientApproval",
      "type": "error"
    },
    {
      "inputs": [
        {
          "internalType": "address",
          "name": "approver",
          "type": "address"
        }
      ],
      "name": "ERC721InvalidApprover",
      "type": "error"
    },
    {
      "inputs": [
        {
          "internalType": "address",
          "name": "operator",
          "type": "address"
        }
      ],
      "name": "ERC721InvalidOperator",
      "type": "error"
    },
    {
      "inputs": [
        {
          "internalType": "address",
          "name": "owner",
          "type": "address"
        }
      ],
      "name": "ERC721InvalidOwner",
      "type": "error"
    },
    {
      "inputs": [
        {
          "internalType": "address",
          "name": "receiver",
          "type": "address"
        }
      ],
      "name": "ERC721InvalidReceiver",
      "type": "error"
    },
    {
      "inputs": [
        {
          "internalType": "address",
          "name": "sender",
          "type": "address"
        }
      ],
      "name": "ERC721InvalidSender",
      "type": "error"
    },
    {
      "inputs": [
        {
          "internalType": "uint256",
          "name": "tokenId",
          "type": "uint256"
        }
      ],
      "name": "ERC721NonexistentToken",
      "type": "error"
    },
    {
      "anonymous": false,
      "inputs": [
        {
          "indexed": true,
          "internalType": "address",
          "name": "owner",
          "type": "address"
        },
        {
          "indexed": true,
          "internalType": "address",
          "name": "approved",
          "type": "address"
        },
        {
          "indexed": true,
          "internalType": "uint256",
          "name": "tokenId",
          "type": "uint256"
        }
      ],
      "name": "Approval",
      "type": "event"
    },
    {
      "anonymous": false,
      "inputs": [
        {
          "indexed": true,
          "internalType": "address",
          "name": "owner",
          "type": "address"
        },
        {
          "indexed": true,
          "internalType": "address",
          "name": "operator",
          "type": "address"
        },
        {
          "indexed": false,
          "internalType": "bool",
          "name": "approved",
          "type": "bool"
        }
      ],
      "name": "ApprovalForAll",
      "type": "event"
    },
    {
      "anonymous": false,
      "inputs": [
        {
          "indexed": true,
          "internalType": "uint256",
          "name": "tokenId",
          "type": "uint256"
        },
        {
          "indexed": true,
          "internalType": "address",
          "name": "owner",
          "type": "address"
        },
        {
          "indexed": false,
          "internalType": "string",
          "name": "nib",
          "type": "string"
        }
      ],
      "name": "AssetMinted",
      "type": "event"
    },
    {
      "anonymous": false,
      "inputs": [
        {
          "indexed": true,
          "internalType": "uint256",
          "name": "tokenId",
          "type": "uint256"
        },
        {
          "indexed": true,
          "internalType": "address",
          "name": "buyer",
          "type": "address"
        }
      ],
      "name": "BuyerApproved",
      "type": "event"
    },
    {
      "anonymous": false,
      "inputs": [
        {
          "indexed": true,
          "internalType": "uint256",
          "name": "tokenId",
          "type": "uint256"
        },
        {
          "indexed": false,
          "internalType": "bool",
          "name": "isDisputed",
          "type": "bool"
        }
      ],
      "name": "EnforcementStatusChanged",
      "type": "event"
    },
    {
      "anonymous": false,
      "inputs": [
        {
          "indexed": true,
          "internalType": "uint256",
          "name": "tokenId",
          "type": "uint256"
        },
        {
          "indexed": true,
          "internalType": "address",
          "name": "notaris",
          "type": "address"
        },
        {
          "indexed": false,
          "internalType": "string",
          "name": "ajbIpfsHash",
          "type": "string"
        }
      ],
      "name": "NotarisApproved",
      "type": "event"
    },
    {
      "anonymous": false,
      "inputs": [
        {
          "indexed": true,
          "internalType": "bytes32",
          "name": "role",
          "type": "bytes32"
        },
        {
          "indexed": true,
          "internalType": "bytes32",
          "name": "previousAdminRole",
          "type": "bytes32"
        },
        {
          "indexed": true,
          "internalType": "bytes32",
          "name": "newAdminRole",
          "type": "bytes32"
        }
      ],
      "name": "RoleAdminChanged",
      "type": "event"
    },
    {
      "anonymous": false,
      "inputs": [
        {
          "indexed": true,
          "internalType": "bytes32",
          "name": "role",
          "type": "bytes32"
        },
        {
          "indexed": true,
          "internalType": "address",
          "name": "account",
          "type": "address"
        },
        {
          "indexed": true,
          "internalType": "address",
          "name": "sender",
          "type": "address"
        }
      ],
      "name": "RoleGranted",
      "type": "event"
    },
    {
      "anonymous": false,
      "inputs": [
        {
          "indexed": true,
          "internalType": "bytes32",
          "name": "role",
          "type": "bytes32"
        },
        {
          "indexed": true,
          "internalType": "address",
          "name": "account",
          "type": "address"
        },
        {
          "indexed": true,
          "internalType": "address",
          "name": "sender",
          "type": "address"
        }
      ],
      "name": "RoleRevoked",
      "type": "event"
    },
    {
      "anonymous": false,
      "inputs": [
        {
          "indexed": true,
          "internalType": "address",
          "name": "from",
          "type": "address"
        },
        {
          "indexed": true,
          "internalType": "address",
          "name": "to",
          "type": "address"
        },
        {
          "indexed": true,
          "internalType": "uint256",
          "name": "tokenId",
          "type": "uint256"
        }
      ],
      "name": "Transfer",
      "type": "event"
    },
    {
      "anonymous": false,
      "inputs": [
        {
          "indexed": true,
          "internalType": "uint256",
          "name": "tokenId",
          "type": "uint256"
        },
        {
          "indexed": true,
          "internalType": "address",
          "name": "seller",
          "type": "address"
        },
        {
          "indexed": true,
          "internalType": "address",
          "name": "buyer",
          "type": "address"
        }
      ],
      "name": "TransferCompleted",
      "type": "event"
    },
    {
      "anonymous": false,
      "inputs": [
        {
          "indexed": true,
          "internalType": "uint256",
          "name": "tokenId",
          "type": "uint256"
        },
        {
          "indexed": true,
          "internalType": "address",
          "name": "seller",
          "type": "address"
        },
        {
          "indexed": true,
          "internalType": "address",
          "name": "buyer",
          "type": "address"
        }
      ],
      "name": "TransferProposed",
      "type": "event"
    },
    {
      "inputs": [],
      "name": "ADMIN_BPN_ROLE",
      "outputs": [
        {
          "internalType": "bytes32",
          "name": "",
          "type": "bytes32"
        }
      ],
      "stateMutability": "view",
      "type": "function"
    },
    {
      "inputs": [],
      "name": "AUDITOR_ROLE",
      "outputs": [
        {
          "internalType": "bytes32",
          "name": "",
          "type": "bytes32"
        }
      ],
      "stateMutability": "view",
      "type": "function"
    },
    {
      "inputs": [],
      "name": "BPN_WILAYAH_ROLE",
      "outputs": [
        {
          "internalType": "bytes32",
          "name": "",
          "type": "bytes32"
        }
      ],
      "stateMutability": "view",
      "type": "function"
    },
    {
      "inputs": [],
      "name": "DEFAULT_ADMIN_ROLE",
      "outputs": [
        {
          "internalType": "bytes32",
          "name": "",
          "type": "bytes32"
        }
      ],
      "stateMutability": "view",
      "type": "function"
    },
    {
      "inputs": [],
      "name": "NOTARIS_ROLE",
      "outputs": [
        {
          "internalType": "bytes32",
          "name": "",
          "type": "bytes32"
        }
      ],
      "stateMutability": "view",
      "type": "function"
    },
    {
      "inputs": [
        {
          "internalType": "address",
          "name": "to",
          "type": "address"
        },
        {
          "internalType": "uint256",
          "name": "tokenId",
          "type": "uint256"
        }
      ],
      "name": "approve",
      "outputs": [],
      "stateMutability": "nonpayable",
      "type": "function"
    },
    {
      "inputs": [
        {
          "internalType": "uint256",
          "name": "tokenId",
          "type": "uint256"
        }
      ],
      "name": "approveTransferBuyer",
      "outputs": [],
      "stateMutability": "nonpayable",
      "type": "function"
    },
    {
      "inputs": [
        {
          "internalType": "uint256",
          "name": "tokenId",
          "type": "uint256"
        },
        {
          "internalType": "string",
          "name": "ajbIpfsHash",
          "type": "string"
        }
      ],
      "name": "approveTransferNotaris",
      "outputs": [],
      "stateMutability": "nonpayable",
      "type": "function"
    },
    {
      "inputs": [
        {
          "internalType": "address",
          "name": "owner",
          "type": "address"
        }
      ],
      "name": "balanceOf",
      "outputs": [
        {
          "internalType": "uint256",
          "name": "",
          "type": "uint256"
        }
      ],
      "stateMutability": "view",
      "type": "function"
    },
    {
      "inputs": [
        {
          "internalType": "uint256",
          "name": "tokenId",
          "type": "uint256"
        }
      ],
      "name": "cancelTransfer",
      "outputs": [],
      "stateMutability": "nonpayable",
      "type": "function"
    },
    {
      "inputs": [
        {
          "internalType": "uint256",
          "name": "tokenId",
          "type": "uint256"
        }
      ],
      "name": "getApproved",
      "outputs": [
        {
          "internalType": "address",
          "name": "",
          "type": "address"
        }
      ],
      "stateMutability": "view",
      "type": "function"
    },
    {
      "inputs": [
        {
          "internalType": "uint256",
          "name": "tokenId",
          "type": "uint256"
        }
      ],
      "name": "getLandDetails",
      "outputs": [
        {
          "components": [
            {
              "internalType": "string",
              "name": "gpsCoordinates",
              "type": "string"
            },
            {
              "internalType": "uint256",
              "name": "area",
              "type": "uint256"
            },
            {
              "internalType": "string",
              "name": "nib",
              "type": "string"
            },
            {
              "internalType": "string[]",
              "name": "ipfsHashes",
              "type": "string[]"
            },
            {
              "internalType": "bool",
              "name": "isDisputed",
              "type": "bool"
            }
          ],
          "internalType": "struct LandRegistry.Land",
          "name": "",
          "type": "tuple"
        }
      ],
      "stateMutability": "view",
      "type": "function"
    },
    {
      "inputs": [
        {
          "internalType": "uint256",
          "name": "tokenId",
          "type": "uint256"
        }
      ],
      "name": "getOwnershipHistory",
      "outputs": [
        {
          "internalType": "address[]",
          "name": "",
          "type": "address[]"
        }
      ],
      "stateMutability": "view",
      "type": "function"
    },
    {
      "inputs": [
        {
          "internalType": "bytes32",
          "name": "role",
          "type": "bytes32"
        }
      ],
      "name": "getRoleAdmin",
      "outputs": [
        {
          "internalType": "bytes32",
          "name": "",
          "type": "bytes32"
        }
      ],
      "stateMutability": "view",
      "type": "function"
    },
    {
      "inputs": [],
      "name": "getTotalLands",
      "outputs": [
        {
          "internalType": "uint256",
          "name": "",
          "type": "uint256"
        }
      ],
      "stateMutability": "view",
      "type": "function"
    },
    {
      "inputs": [
        {
          "internalType": "bytes32",
          "name": "role",
          "type": "bytes32"
        },
        {
          "internalType": "address",
          "name": "account",
          "type": "address"
        }
      ],
      "name": "grantRole",
      "outputs": [],
      "stateMutability": "nonpayable",
      "type": "function"
    },
    {
      "inputs": [
        {
          "internalType": "bytes32",
          "name": "role",
          "type": "bytes32"
        },
        {
          "internalType": "address",
          "name": "account",
          "type": "address"
        }
      ],
      "name": "hasRole",
      "outputs": [
        {
          "internalType": "bool",
          "name": "",
          "type": "bool"
        }
      ],
      "stateMutability": "view",
      "type": "function"
    },
    {
      "inputs": [
        {
          "internalType": "address",
          "name": "owner",
          "type": "address"
        },
        {
          "internalType": "address",
          "name": "operator",
          "type": "address"
        }
      ],
      "name": "isApprovedForAll",
      "outputs": [
        {
          "internalType": "bool",
          "name": "",
          "type": "bool"
        }
      ],
      "stateMutability": "view",
      "type": "function"
    },
    {
      "inputs": [
        {
          "internalType": "uint256",
          "name": "",
          "type": "uint256"
        }
      ],
      "name": "lands",
      "outputs": [
        {
          "internalType": "string",
          "name": "gpsCoordinates",
          "type": "string"
        },
        {
          "internalType": "uint256",
          "name": "area",
          "type": "uint256"
        },
        {
          "internalType": "string",
          "name": "nib",
          "type": "string"
        },
        {
          "internalType": "bool",
          "name": "isDisputed",
          "type": "bool"
        }
      ],
      "stateMutability": "view",
      "type": "function"
    },
    {
      "inputs": [
        {
          "internalType": "address",
          "name": "to",
          "type": "address"
        },
        {
          "internalType": "string",
          "name": "gpsCoordinates",
          "type": "string"
        },
        {
          "internalType": "uint256",
          "name": "area",
          "type": "uint256"
        },
        {
          "internalType": "string",
          "name": "nib",
          "type": "string"
        },
        {
          "internalType": "string[]",
          "name": "ipfsHashes",
          "type": "string[]"
        }
      ],
      "name": "mintLand",
      "outputs": [],
      "stateMutability": "nonpayable",
      "type": "function"
    },
    {
      "inputs": [],
      "name": "name",
      "outputs": [
        {
          "internalType": "string",
          "name": "",
          "type": "string"
        }
      ],
      "stateMutability": "view",
      "type": "function"
    },
    {
      "inputs": [
        {
          "internalType": "uint256",
          "name": "tokenId",
          "type": "uint256"
        }
      ],
      "name": "ownerOf",
      "outputs": [
        {
          "internalType": "address",
          "name": "",
          "type": "address"
        }
      ],
      "stateMutability": "view",
      "type": "function"
    },
    {
      "inputs": [
        {
          "internalType": "uint256",
          "name": "",
          "type": "uint256"
        },
        {
          "internalType": "uint256",
          "name": "",
          "type": "uint256"
        }
      ],
      "name": "ownershipHistory",
      "outputs": [
        {
          "internalType": "address",
          "name": "",
          "type": "address"
        }
      ],
      "stateMutability": "view",
      "type": "function"
    },
    {
      "inputs": [
        {
          "internalType": "uint256",
          "name": "tokenId",
          "type": "uint256"
        },
        {
          "internalType": "address",
          "name": "buyer",
          "type": "address"
        }
      ],
      "name": "proposeTransfer",
      "outputs": [],
      "stateMutability": "nonpayable",
      "type": "function"
    },
    {
      "inputs": [
        {
          "internalType": "bytes32",
          "name": "role",
          "type": "bytes32"
        },
        {
          "internalType": "address",
          "name": "callerConfirmation",
          "type": "address"
        }
      ],
      "name": "renounceRole",
      "outputs": [],
      "stateMutability": "nonpayable",
      "type": "function"
    },
    {
      "inputs": [
        {
          "internalType": "bytes32",
          "name": "role",
          "type": "bytes32"
        },
        {
          "internalType": "address",
          "name": "account",
          "type": "address"
        }
      ],
      "name": "revokeRole",
      "outputs": [],
      "stateMutability": "nonpayable",
      "type": "function"
    },
    {
      "inputs": [
        {
          "internalType": "address",
          "name": "from",
          "type": "address"
        },
        {
          "internalType": "address",
          "name": "to",
          "type": "address"
        },
        {
          "internalType": "uint256",
          "name": "tokenId",
          "type": "uint256"
        }
      ],
      "name": "safeTransferFrom",
      "outputs": [],
      "stateMutability": "nonpayable",
      "type": "function"
    },
    {
      "inputs": [
        {
          "internalType": "address",
          "name": "from",
          "type": "address"
        },
        {
          "internalType": "address",
          "name": "to",
          "type": "address"
        },
        {
          "internalType": "uint256",
          "name": "tokenId",
          "type": "uint256"
        },
        {
          "internalType": "bytes",
          "name": "data",
          "type": "bytes"
        }
      ],
      "name": "safeTransferFrom",
      "outputs": [],
      "stateMutability": "nonpayable",
      "type": "function"
    },
    {
      "inputs": [
        {
          "internalType": "address",
          "name": "operator",
          "type": "address"
        },
        {
          "internalType": "bool",
          "name": "approved",
          "type": "bool"
        }
      ],
      "name": "setApprovalForAll",
      "outputs": [],
      "stateMutability": "nonpayable",
      "type": "function"
    },
    {
      "inputs": [
        {
          "internalType": "uint256",
          "name": "tokenId",
          "type": "uint256"
        },
        {
          "internalType": "bool",
          "name": "isDisputed",
          "type": "bool"
        }
      ],
      "name": "setEnforcement",
      "outputs": [],
      "stateMutability": "nonpayable",
      "type": "function"
    },
    {
      "inputs": [
        {
          "internalType": "bytes4",
          "name": "interfaceId",
          "type": "bytes4"
        }
      ],
      "name": "supportsInterface",
      "outputs": [
        {
          "internalType": "bool",
          "name": "",
          "type": "bool"
        }
      ],
      "stateMutability": "view",
      "type": "function"
    },
    {
      "inputs": [],
      "name": "symbol",
      "outputs": [
        {
          "internalType": "string",
          "name": "",
          "type": "string"
        }
      ],
      "stateMutability": "view",
      "type": "function"
    },
    {
      "inputs": [
        {
          "internalType": "uint256",
          "name": "tokenId",
          "type": "uint256"
        }
      ],
      "name": "tokenURI",
      "outputs": [
        {
          "internalType": "string",
          "name": "",
          "type": "string"
        }
      ],
      "stateMutability": "view",
      "type": "function"
    },
    {
      "inputs": [
        {
          "internalType": "address",
          "name": "from",
          "type": "address"
        },
        {
          "internalType": "address",
          "name": "to",
          "type": "address"
        },
        {
          "internalType": "uint256",
          "name": "tokenId",
          "type": "uint256"
        }
      ],
      "name": "transferFrom",
      "outputs": [],
      "stateMutability": "nonpayable",
      "type": "function"
    },
    {
      "inputs": [
        {
          "internalType": "uint256",
          "name": "",
          "type": "uint256"
        }
      ],
      "name": "transferRequests",
      "outputs": [
        {
          "internalType": "address",
          "name": "seller",
          "type": "address"
        },
        {
          "internalType": "address",
          "name": "buyer",
          "type": "address"
        },
        {
          "internalType": "address",
          "name": "notaris",
          "type": "address"
        },
        {
          "internalType": "bool",
          "name": "sellerApproved",
          "type": "bool"
        },
        {
          "internalType": "bool",
          "name": "buyerApproved",
          "type": "bool"
        },
        {
          "internalType": "bool",
          "name": "notarisApproved",
          "type": "bool"
        },
        {
          "internalType": "bool",
          "name": "isActive",
          "type": "bool"
        }
      ],
      "stateMutability": "view",
      "type": "function"
    }
  ],
  "bytecode": "0x608060405234801562000010575f80fd5b50604051806040016040528060098152602001682630b7322a37b5b2b760b91b8152506040518060400160405280600381526020016213139160ea1b815250815f90816200005f91906200022e565b5060016200006e82826200022e565b506200007f91505f905033620000e0565b50620000ac7f9856acbf9ca422c521e08bc1d8e706e2db0b5830f4d56f698b78d8c01c86949133620000e0565b50620000d97f3b6c71f6d44639d5b3e40f2ef3056c3385a1e68a255a703ac23442c1c3be357d33620000e0565b50620002fa565b5f8281526006602090815260408083206001600160a01b038516845290915281205460ff1662000187575f8381526006602090815260408083206001600160a01b03861684529091529020805460ff191660011790556200013e3390565b6001600160a01b0316826001600160a01b0316847f2f8788117e7eff1d82e926ec794901d17c78024a50270940304540a733656f0d60405160405180910390a45060016200018a565b505f5b92915050565b634e487b7160e01b5f52604160045260245ffd5b600181811c90821680620001b957607f821691505b602082108103620001d857634e487b7160e01b5f52602260045260245ffd5b50919050565b601f8211156200022957805f5260205f20601f840160051c81016020851015620002055750805b601f840160051c820191505b8181101562000226575f815560010162000211565b50505b505050565b81516001600160401b038111156200024a576200024a62000190565b62000262816200025b8454620001a4565b84620001de565b602080601f83116001811462000298575f8415620002805750858301515b5f19600386901b1c1916600185901b178555620002f2565b5f85815260208120601f198616915b82811015620002c857888601518255948401946001909101908401620002a7565b5085821015620002e657878501515f19600388901b60f8161c191681555b505060018460011b0185555b505050505050565b6127c480620003085f395ff3fe608060405234801561000f575f80fd5b5060043610610208575f3560e01c806370a082311161011f578063b88d4fde116100a9578063d547741f11610079578063d547741f1461055e578063e261f1e514610571578063e985e9c514610594578063f1dbaccb146105a7578063fe0cb7dc146105c7575f80fd5b8063b88d4fde14610512578063c87b56dd14610525578063c89a2bd914610538578063c9cf2adc1461054b575f80fd5b80638ec455e3116100ef5780638ec455e3146104b657806391d14854146104dd57806395d89b41146104f0578063a217fddf146104f8578063a22cb465146104ff575f80fd5b806370a0823114610461578063842e7dba1461047457806386bde3d11461047c578063875cfe3b1461048f575f80fd5b806323b872dd116101a057806342842e0e1161017057806342842e0e146103da5780635911b808146103ed57806359caecb5146104145780636352211e146104275780636e1d616e1461043a575f80fd5b806323b872dd14610371578063248a9ca3146103845780632f2ff15d146103b457806336568abe146103c7575f80fd5b8063081812fc116101db578063081812fc1461030d578063095ea7b31461033857806309d4a3451461034b5780631b362b051461035e575f80fd5b806301ffc9a71461020c57806303486c401461023457806306fdde03146102e357806307407dd8146102f8575b5f80fd5b61021f61021a366004611f95565b6105e7565b60405190151581526020015b60405180910390f35b610299610242366004611fb0565b60096020525f90815260409020805460018201546002909201546001600160a01b039182169282169181169060ff600160a01b8204811691600160a81b8104821691600160b01b8204811691600160b81b90041687565b604080516001600160a01b03988916815296881660208801529490961693850193909352901515606084015215156080830152151560a082015290151560c082015260e00161022b565b6102eb6105f7565b60405161022b9190612014565b61030b6103063660046120f9565b610686565b005b61032061031b366004611fb0565b6107ec565b6040516001600160a01b03909116815260200161022b565b61030b610346366004612217565b610813565b61030b610359366004611fb0565b610822565b61030b61036c36600461224e565b610925565b61030b61037f366004612278565b6109e5565b6103a6610392366004611fb0565b5f9081526006602052604090206001015490565b60405190815260200161022b565b61030b6103c23660046122b1565b610a6e565b61030b6103d53660046122b1565b610a92565b61030b6103e8366004612278565b610aca565b6103a67f4e19be690c034b73b896a80e4645324b1ada2a2d102cf965cd497dd07f3a195081565b61030b610422366004611fb0565b610ae4565b610320610435366004611fb0565b610b8e565b6103a67f59a1c48e5837ad7a7f3dcedcbe129bf3249ec4fbf651fd4f5e2600ead39fe2f581565b6103a661046f3660046122d2565b610b98565b6007546103a6565b61030b61048a3660046122b1565b610bdd565b6103a67f9856acbf9ca422c521e08bc1d8e706e2db0b5830f4d56f698b78d8c01c86949181565b6103a67f3b6c71f6d44639d5b3e40f2ef3056c3385a1e68a255a703ac23442c1c3be357d81565b61021f6104eb3660046122b1565b610de3565b6102eb610e0d565b6103a65f81565b61030b61050d3660046122eb565b610e1c565b61030b610520366004612313565b610e27565b6102eb610533366004611fb0565b610e3f565b61030b61054636600461238a565b610eb0565b6103206105593660046123ce565b611050565b61030b61056c3660046122b1565b611084565b61058461057f366004611fb0565b6110a8565b60405161022b94939291906123ee565b61021f6105a236600461242c565b6111de565b6105ba6105b5366004611fb0565b61120b565b60405161022b9190612454565b6105da6105d5366004611fb0565b611274565b60405161022b91906124a0565b5f6105f1826114d2565b92915050565b60605f805461060590612555565b80601f016020809104026020016040519081016040528092919081815260200182805461063190612555565b801561067c5780601f106106535761010080835404028352916020019161067c565b820191905f5260205f20905b81548152906001019060200180831161065f57829003601f168201915b5050505050905090565b7f3b6c71f6d44639d5b3e40f2ef3056c3385a1e68a255a703ac23442c1c3be357d6106b0816114f6565b600780545f91826106c08361258d565b909155506040805160a0810182528881526020808201899052818301889052606082018790525f6080830181905284815260089091529190912081519293509091819061070d90826125f5565b50602082015160018201556040820151600282019061072c90826125f5565b5060608201518051610748916003840191602090910190611eca565b50608091909101516004909101805460ff191691151591909117905561076e8782611503565b5f818152600a602090815260408083208054600181018255908452919092200180546001600160a01b0319166001600160a01b038a16908117909155905182907fa30dd43fc057b356acd774161b6c8743df78c9bd58d7f492dd56d00121dda6b5906107db908890612014565b60405180910390a350505050505050565b5f6107f68261151c565b505f828152600460205260409020546001600160a01b03166105f1565b61081e828233611554565b5050565b5f8181526009602052604090206002810154600160b81b900460ff166108635760405162461bcd60e51b815260040161085a906126b1565b60405180910390fd5b60018101546001600160a01b031633146108af5760405162461bcd60e51b815260206004820152600d60248201526c2737ba103a343290313abcb2b960991b604482015260640161085a565b5f8281526008602052604090206004015460ff16156108e05760405162461bcd60e51b815260040161085a906126dd565b60028101805460ff60a81b1916600160a81b179055604051339083907fcf93094854a81f1a3d7c99633cff4dac98837e96ebc9d5529993dea33242cc67905f90a35050565b61094f7f9856acbf9ca422c521e08bc1d8e706e2db0b5830f4d56f698b78d8c01c86949133610de3565b61098c5760405162461bcd60e51b815260206004820152600e60248201526d139bdd08185d5d1a1bdc9a5e995960921b604482015260640161085a565b5f82815260086020908152604091829020600401805460ff1916841515908117909155915191825283917f388370698ea03650624022e5f43e8cb1f902ba526ee8287ff865709bc3946437910160405180910390a25050565b6001600160a01b038216610a0e57604051633250574960e11b81525f600482015260240161085a565b5f610a1a838333611561565b9050836001600160a01b0316816001600160a01b031614610a68576040516364283d7b60e01b81526001600160a01b038086166004830152602482018490528216604482015260640161085a565b50505050565b5f82815260066020526040902060010154610a88816114f6565b610a688383611653565b6001600160a01b0381163314610abb5760405163334bd91960e11b815260040160405180910390fd5b610ac582826116e4565b505050565b610ac583838360405180602001604052805f815250610e27565b5f8181526009602052604090206002810154600160b81b900460ff16610b1c5760405162461bcd60e51b815260040161085a906126b1565b80546001600160a01b0316331480610b40575060018101546001600160a01b031633145b610b7d5760405162461bcd60e51b815260206004820152600e60248201526d139bdd08185d5d1a1bdc9a5e995960921b604482015260640161085a565b600201805460ff60b81b1916905550565b5f6105f18261151c565b5f6001600160a01b038216610bc2576040516322718ad960e21b81525f600482015260240161085a565b506001600160a01b03165f9081526003602052604090205490565b33610be783610b8e565b6001600160a01b031614610c2d5760405162461bcd60e51b815260206004820152600d60248201526c2737ba103a34329037bbb732b960991b604482015260640161085a565b5f8281526008602052604090206004015460ff1615610c5e5760405162461bcd60e51b815260040161085a906126dd565b5f82815260096020526040902060020154600160b81b900460ff1615610cbf5760405162461bcd60e51b8152602060048201526016602482015275416374697665207472616e736665722065786973747360501b604482015260640161085a565b6040805160e081018252338082526001600160a01b0384811660208085018281525f86880181815260016060890181815260808a0184815260a08b0185815260c08c018481528f875260099098528c86209b518c54908b166001600160a01b0319918216178d559651938c018054948b16949097169390931790955591516002909901805492519451915195511515600160b81b0260ff60b81b19961515600160b01b0260ff60b01b19931515600160a81b029390931661ffff60a81b19961515600160a01b026001600160a81b03199095169b9099169a909a179290921793909316959095179190911791909116949094179091559251909185917fc1d91ef3905e00972bebbb95768bc866bdc68d24a68dde011efaa8a39c879d5d9190a45050565b5f9182526006602090815260408084206001600160a01b0393909316845291905290205460ff1690565b60606001805461060590612555565b61081e33838361174f565b610e328484846109e5565b610a683385858585611816565b6060610e4a8261151c565b505f610e6060408051602081019091525f815290565b90505f815111610e7e5760405180602001604052805f815250610ea9565b80610e888461193e565b604051602001610e99929190612709565b6040516020818303038152906040525b9392505050565b7f4e19be690c034b73b896a80e4645324b1ada2a2d102cf965cd497dd07f3a1950610eda816114f6565b5f8381526009602052604090206002810154600160b81b900460ff16610f125760405162461bcd60e51b815260040161085a906126b1565b6002810154600160a01b900460ff168015610f3857506002810154600160a81b900460ff165b610f845760405162461bcd60e51b815260206004820152601f60248201527f53656c6c6572206f72206275796572206861736e277420617070726f76656400604482015260640161085a565b5f8481526008602052604090206004015460ff1615610fb55760405162461bcd60e51b815260040161085a906126dd565b60028101805460ff60b01b193316600162ff000160a01b031990911617600160b01b1790555f8481526008602090815260408220600301805460018101825590835291200161100484826125f5565b50336001600160a01b0316847fbb079a066630cab8761841cb47c7c4c785fb83cd31f23baf8e0c3fd317d9e5248560405161103f9190612014565b60405180910390a3610a68846119ce565b600a602052815f5260405f208181548110611069575f80fd5b5f918252602090912001546001600160a01b03169150829050565b5f8281526006602052604090206001015461109e816114f6565b610a6883836116e4565b60086020525f90815260409020805481906110c290612555565b80601f01602080910402602001604051908101604052809291908181526020018280546110ee90612555565b80156111395780601f1061111057610100808354040283529160200191611139565b820191905f5260205f20905b81548152906001019060200180831161111c57829003601f168201915b50505050509080600101549080600201805461115490612555565b80601f016020809104026020016040519081016040528092919081815260200182805461118090612555565b80156111cb5780601f106111a2576101008083540402835291602001916111cb565b820191905f5260205f20905b8154815290600101906020018083116111ae57829003601f168201915b5050506004909301549192505060ff1684565b6001600160a01b039182165f90815260056020908152604080832093909416825291909152205460ff1690565b5f818152600a602090815260409182902080548351818402810184019094528084526060939283018282801561126857602002820191905f5260205f20905b81546001600160a01b0316815260019091019060200180831161124a575b50505050509050919050565b6112a66040518060a00160405280606081526020015f815260200160608152602001606081526020015f151581525090565b5f8281526008602052604090819020815160a081019092528054829082906112cd90612555565b80601f01602080910402602001604051908101604052809291908181526020018280546112f990612555565b80156113445780601f1061131b57610100808354040283529160200191611344565b820191905f5260205f20905b81548152906001019060200180831161132757829003601f168201915b505050505081526020016001820154815260200160028201805461136790612555565b80601f016020809104026020016040519081016040528092919081815260200182805461139390612555565b80156113de5780601f106113b5576101008083540402835291602001916113de565b820191905f5260205f20905b8154815290600101906020018083116113c157829003601f168201915b5050505050815260200160038201805480602002602001604051908101604052809291908181526020015f905b828210156114b3578382905f5260205f2001805461142890612555565b80601f016020809104026020016040519081016040528092919081815260200182805461145490612555565b801561149f5780601f106114765761010080835404028352916020019161149f565b820191905f5260205f20905b81548152906001019060200180831161148257829003601f168201915b50505050508152602001906001019061140b565b505050908252506004919091015460ff16151560209091015292915050565b5f6001600160e01b03198216637965db0b60e01b14806105f157506105f182611a7a565b6115008133611ac9565b50565b61081e828260405180602001604052805f815250611b02565b5f818152600260205260408120546001600160a01b0316806105f157604051637e27328960e01b81526004810184905260240161085a565b610ac58383836001611b19565b5f828152600260205260408120546001600160a01b039081169083161561158d5761158d818486611c1d565b6001600160a01b038116156115c7576115a85f855f80611b19565b6001600160a01b0381165f90815260036020526040902080545f190190555b6001600160a01b038516156115f5576001600160a01b0385165f908152600360205260409020805460010190555b5f8481526002602052604080822080546001600160a01b0319166001600160a01b0389811691821790925591518793918516917fddf252ad1be2c89b69c2b068fc378daa952ba7f163c4a11628f55a4df523b3ef91a4949350505050565b5f61165e8383610de3565b6116dd575f8381526006602090815260408083206001600160a01b03861684529091529020805460ff191660011790556116953390565b6001600160a01b0316826001600160a01b0316847f2f8788117e7eff1d82e926ec794901d17c78024a50270940304540a733656f0d60405160405180910390a45060016105f1565b505f6105f1565b5f6116ef8383610de3565b156116dd575f8381526006602090815260408083206001600160a01b0386168085529252808320805460ff1916905551339286917ff6391f5c32d9c69d2a47ea670b442974b53935d1edc7fd64eb21e047a839171b9190a45060016105f1565b6001600160a01b0383166117785760405163a9fbf51f60e01b81525f600482015260240161085a565b6001600160a01b0382166117aa57604051630b61174360e31b81526001600160a01b038316600482015260240161085a565b6001600160a01b038381165f81815260056020908152604080832094871680845294825291829020805460ff191686151590811790915591519182527f17307eab39ab6107e8899845ad3d59bd9653f200f220920489ca2b5937696c31910160405180910390a3505050565b6001600160a01b0383163b1561193757604051630a85bd0160e11b81526001600160a01b0384169063150b7a0290611858908890889087908790600401612737565b6020604051808303815f875af1925050508015611892575060408051601f3d908101601f1916820190925261188f91810190612773565b60015b6118f9573d8080156118bf576040519150601f19603f3d011682016040523d82523d5f602084013e6118c4565b606091505b5080515f036118f157604051633250574960e11b81526001600160a01b038516600482015260240161085a565b805160208201fd5b6001600160e01b03198116630a85bd0160e11b1461193557604051633250574960e11b81526001600160a01b038516600482015260240161085a565b505b5050505050565b60605f61194a83611c81565b60010190505f8167ffffffffffffffff81111561196957611969612041565b6040519080825280601f01601f191660200182016040528015611993576020820181803683370190505b5090508181016020015b5f19016f181899199a1a9b1b9c1cb0b131b232b360811b600a86061a8153600a850494508461199d57509392505050565b5f8181526009602052604090208054600182015460028301805460ff60b81b191690556001600160a01b039182169116611a09828286611d58565b5f848152600a60209081526040808320805460018101825590845291832090910180546001600160a01b0319166001600160a01b03858116918217909255915191929085169187917fe30f4d2a28a67cdb8856ab10670990536f9e43edbec16c6c9094a931a58bce9591a450505050565b5f6001600160e01b031982166380ac58cd60e01b1480611aaa57506001600160e01b03198216635b5e139f60e01b145b806105f157506301ffc9a760e01b6001600160e01b03198316146105f1565b611ad38282610de3565b61081e5760405163e2517d3f60e01b81526001600160a01b03821660048201526024810183905260440161085a565b611b0c8383611e05565b610ac5335f858585611816565b8080611b2d57506001600160a01b03821615155b15611bee575f611b3c8461151c565b90506001600160a01b03831615801590611b685750826001600160a01b0316816001600160a01b031614155b8015611b7b5750611b7981846111de565b155b15611ba45760405163a9fbf51f60e01b81526001600160a01b038416600482015260240161085a565b8115611bec5783856001600160a01b0316826001600160a01b03167f8c5be1e5ebec7d5bd14f71427d1e84f3dd0314c0f7b2291e5b200ac8c7c3b92560405160405180910390a45b505b50505f90815260046020526040902080546001600160a01b0319166001600160a01b0392909216919091179055565b611c28838383611e66565b610ac5576001600160a01b038316611c5657604051637e27328960e01b81526004810182905260240161085a565b60405163177e802f60e01b81526001600160a01b03831660048201526024810182905260440161085a565b5f8072184f03e93ff9f4daa797ed6e38ed64bf6a1f0160401b8310611cbf5772184f03e93ff9f4daa797ed6e38ed64bf6a1f0160401b830492506040015b6d04ee2d6d415b85acef81000000008310611ceb576d04ee2d6d415b85acef8100000000830492506020015b662386f26fc100008310611d0957662386f26fc10000830492506010015b6305f5e1008310611d21576305f5e100830492506008015b6127108310611d3557612710830492506004015b60648310611d47576064830492506002015b600a83106105f15760010192915050565b6001600160a01b038216611d8157604051633250574960e11b81525f600482015260240161085a565b5f611d8d83835f611561565b90506001600160a01b038116611db957604051637e27328960e01b81526004810183905260240161085a565b836001600160a01b0316816001600160a01b031614610a68576040516364283d7b60e01b81526001600160a01b038086166004830152602482018490528216604482015260640161085a565b6001600160a01b038216611e2e57604051633250574960e11b81525f600482015260240161085a565b5f611e3a83835f611561565b90506001600160a01b03811615610ac5576040516339e3563760e11b81525f600482015260240161085a565b5f6001600160a01b03831615801590611ec25750826001600160a01b0316846001600160a01b03161480611e9f5750611e9f84846111de565b80611ec257505f828152600460205260409020546001600160a01b038481169116145b949350505050565b828054828255905f5260205f20908101928215611f0e579160200282015b82811115611f0e5782518290611efe90826125f5565b5091602001919060010190611ee8565b50611f1a929150611f1e565b5090565b80821115611f1a575f611f318282611f3a565b50600101611f1e565b508054611f4690612555565b5f825580601f10611f55575050565b601f0160209004905f5260205f209081019061150091905b80821115611f1a575f8155600101611f6d565b6001600160e01b031981168114611500575f80fd5b5f60208284031215611fa5575f80fd5b8135610ea981611f80565b5f60208284031215611fc0575f80fd5b5035919050565b5f5b83811015611fe1578181015183820152602001611fc9565b50505f910152565b5f8151808452612000816020860160208601611fc7565b601f01601f19169290920160200192915050565b602081525f610ea96020830184611fe9565b80356001600160a01b038116811461203c575f80fd5b919050565b634e487b7160e01b5f52604160045260245ffd5b604051601f8201601f1916810167ffffffffffffffff8111828210171561207e5761207e612041565b604052919050565b5f67ffffffffffffffff83111561209f5761209f612041565b6120b2601f8401601f1916602001612055565b90508281528383830111156120c5575f80fd5b828260208301375f602084830101529392505050565b5f82601f8301126120ea575f80fd5b610ea983833560208501612086565b5f805f805f60a0868803121561210d575f80fd5b61211686612026565b945060208087013567ffffffffffffffff80821115612133575f80fd5b61213f8a838b016120db565b965060408901359550606089013591508082111561215b575f80fd5b6121678a838b016120db565b9450608089013591508082111561217c575f80fd5b818901915089601f83011261218f575f80fd5b8135818111156121a1576121a1612041565b8060051b6121b0858201612055565b918252838101850191858101908d8411156121c9575f80fd5b86860192505b83831015612203578235858111156121e5575f80fd5b6121f38f89838a01016120db565b83525091860191908601906121cf565b809750505050505050509295509295909350565b5f8060408385031215612228575f80fd5b61223183612026565b946020939093013593505050565b8035801515811461203c575f80fd5b5f806040838503121561225f575f80fd5b8235915061226f6020840161223f565b90509250929050565b5f805f6060848603121561228a575f80fd5b61229384612026565b92506122a160208501612026565b9150604084013590509250925092565b5f80604083850312156122c2575f80fd5b8235915061226f60208401612026565b5f602082840312156122e2575f80fd5b610ea982612026565b5f80604083850312156122fc575f80fd5b61230583612026565b915061226f6020840161223f565b5f805f8060808587031215612326575f80fd5b61232f85612026565b935061233d60208601612026565b925060408501359150606085013567ffffffffffffffff81111561235f575f80fd5b8501601f8101871361236f575f80fd5b61237e87823560208401612086565b91505092959194509250565b5f806040838503121561239b575f80fd5b82359150602083013567ffffffffffffffff8111156123b8575f80fd5b6123c4858286016120db565b9150509250929050565b5f80604083850312156123df575f80fd5b50508035926020909101359150565b608081525f6124006080830187611fe9565b85602084015282810360408401526124188186611fe9565b915050821515606083015295945050505050565b5f806040838503121561243d575f80fd5b61244683612026565b915061226f60208401612026565b602080825282518282018190525f9190848201906040850190845b818110156124945783516001600160a01b03168352928401929184019160010161246f565b50909695505050505050565b5f6020808352835160a0828501526124bb60c0850182611fe9565b90508185015160408501526040850151601f19808684030160608701526124e28383611fe9565b60608801518782038301608089015280518083529194508501925084840190600581901b850186015f5b828110156125385784878303018452612526828751611fe9565b9588019593880193915060010161250c565b5060808a015180151560a08b015296509998505050505050505050565b600181811c9082168061256957607f821691505b60208210810361258757634e487b7160e01b5f52602260045260245ffd5b50919050565b5f600182016125aa57634e487b7160e01b5f52601160045260245ffd5b5060010190565b601f821115610ac557805f5260205f20601f840160051c810160208510156125d65750805b601f840160051c820191505b81811015611937575f81556001016125e2565b815167ffffffffffffffff81111561260f5761260f612041565b6126238161261d8454612555565b846125b1565b602080601f831160018114612656575f841561263f5750858301515b5f19600386901b1c1916600185901b178555611935565b5f85815260208120601f198616915b8281101561268457888601518255948401946001909101908401612665565b50858210156126a157878501515f19600388901b60f8161c191681555b5050505050600190811b01905550565b60208082526012908201527127379030b1ba34bb32903a3930b739b332b960711b604082015260600190565b6020808252601290820152714c616e6420697320696e206469737075746560701b604082015260600190565b5f835161271a818460208801611fc7565b83519083019061272e818360208801611fc7565b01949350505050565b6001600160a01b03858116825284166020820152604081018390526080606082018190525f9061276990830184611fe9565b9695505050505050565b5f60208284031215612783575f80fd5b8151610ea981611f8056fea2646970667358221220fe01dfac0799e876ff1f53b1fcc1739a0ef47a1babe5e21fb2b105eda6470d5564736f6c63430008180033",
  "linkReferences": {},
  "deployedLinkReferences": {}
}