{
  "_format": "hh-sol-artifact-1",
  "contractName": "LandRegistry",
  "sourceName": "contracts/LandRegistry.sol",
  "abi": [
    {
      "inputs": [],
      "stateMutability": "nonpayable",
      "type": "constructor"
    },
    {
      "inputs": [],
      "name": "AccessControlBadConfirmation",
      "type": "error"
    },
    {
      "inputs": [
        {
          "internalType": "address",
          "name": "account",
          "type": "address"
        },
        {
          "internalType": "bytes32",
          "name": "neededRole",
          "type": "bytes32"
        }
      ],
      "name": "AccessControlUnauthorizedAccount",
      "type": "error"
    },
    {
      "inputs": [
        {
          "internalType": "address",
          "name": "sender",
          "type": "address"
        },
        {
          "internalType": "uint256",
          "name": "tokenId",
          "type": "uint256"
        },
        {
          "internalType": "address",
          "name": "owner",
          "type": "address"
        }
      ],
      "name": "ERC721IncorrectOwner",
      "type": "error"
    },
    {
      "inputs": [
        {
          "internalType": "address",
          "name": "operator",
          "type": "address"
        },
        {
          "internalType": "uint256",
          "name": "tokenId",
          "type": "uint256"
        }
      ],
      "name": "ERC721InsufficientApproval",
      "type": "error"
    },
    {
      "inputs": [
        {
          "internalType": "address",
          "name": "approver",
          "type": "address"
        }
      ],
      "name": "ERC721InvalidApprover",
      "type": "error"
    },
    {
      "inputs": [
        {
          "internalType": "address",
          "name": "operator",
          "type": "address"
        }
      ],
      "name": "ERC721InvalidOperator",
      "type": "error"
    },
    {
      "inputs": [
        {
          "internalType": "address",
          "name": "owner",
          "type": "address"
        }
      ],
      "name": "ERC721InvalidOwner",
      "type": "error"
    },
    {
      "inputs": [
        {
          "internalType": "address",
          "name": "receiver",
          "type": "address"
        }
      ],
      "name": "ERC721InvalidReceiver",
      "type": "error"
    },
    {
      "inputs": [
        {
          "internalType": "address",
          "name": "sender",
          "type": "address"
        }
      ],
      "name": "ERC721InvalidSender",
      "type": "error"
    },
    {
      "inputs": [
        {
          "internalType": "uint256",
          "name": "tokenId",
          "type": "uint256"
        }
      ],
      "name": "ERC721NonexistentToken",
      "type": "error"
    },
    {
      "anonymous": false,
      "inputs": [
        {
          "indexed": true,
          "internalType": "address",
          "name": "owner",
          "type": "address"
        },
        {
          "indexed": true,
          "internalType": "address",
          "name": "approved",
          "type": "address"
        },
        {
          "indexed": true,
          "internalType": "uint256",
          "name": "tokenId",
          "type": "uint256"
        }
      ],
      "name": "Approval",
      "type": "event"
    },
    {
      "anonymous": false,
      "inputs": [
        {
          "indexed": true,
          "internalType": "address",
          "name": "owner",
          "type": "address"
        },
        {
          "indexed": true,
          "internalType": "address",
          "name": "operator",
          "type": "address"
        },
        {
          "indexed": false,
          "internalType": "bool",
          "name": "approved",
          "type": "bool"
        }
      ],
      "name": "ApprovalForAll",
      "type": "event"
    },
    {
      "anonymous": false,
      "inputs": [
        {
          "indexed": true,
          "internalType": "uint256",
          "name": "tokenId",
          "type": "uint256"
        },
        {
          "indexed": true,
          "internalType": "address",
          "name": "owner",
          "type": "address"
        },
        {
          "indexed": false,
          "internalType": "string",
          "name": "nib",
          "type": "string"
        }
      ],
      "name": "AssetMinted",
      "type": "event"
    },
    {
      "anonymous": false,
      "inputs": [
        {
          "indexed": true,
          "internalType": "uint256",
          "name": "tokenId",
          "type": "uint256"
        },
        {
          "indexed": true,
          "internalType": "address",
          "name": "buyer",
          "type": "address"
        }
      ],
      "name": "BuyerApproved",
      "type": "event"
    },
    {
      "anonymous": false,
      "inputs": [
        {
          "indexed": true,
          "internalType": "uint256",
          "name": "tokenId",
          "type": "uint256"
        },
        {
          "indexed": false,
          "internalType": "bool",
          "name": "isDisputed",
          "type": "bool"
        }
      ],
      "name": "EnforcementStatusChanged",
      "type": "event"
    },
    {
      "anonymous": false,
      "inputs": [
        {
          "indexed": true,
          "internalType": "uint256",
          "name": "tokenId",
          "type": "uint256"
        },
        {
          "indexed": true,
          "internalType": "address",
          "name": "notaris",
          "type": "address"
        },
        {
          "indexed": false,
          "internalType": "string",
          "name": "ajbIpfsHash",
          "type": "string"
        }
      ],
      "name": "NotarisApproved",
      "type": "event"
    },
    {
      "anonymous": false,
      "inputs": [
        {
          "indexed": true,
          "internalType": "bytes32",
          "name": "role",
          "type": "bytes32"
        },
        {
          "indexed": true,
          "internalType": "bytes32",
          "name": "previousAdminRole",
          "type": "bytes32"
        },
        {
          "indexed": true,
          "internalType": "bytes32",
          "name": "newAdminRole",
          "type": "bytes32"
        }
      ],
      "name": "RoleAdminChanged",
      "type": "event"
    },
    {
      "anonymous": false,
      "inputs": [
        {
          "indexed": true,
          "internalType": "bytes32",
          "name": "role",
          "type": "bytes32"
        },
        {
          "indexed": true,
          "internalType": "address",
          "name": "account",
          "type": "address"
        },
        {
          "indexed": true,
          "internalType": "address",
          "name": "sender",
          "type": "address"
        }
      ],
      "name": "RoleGranted",
      "type": "event"
    },
    {
      "anonymous": false,
      "inputs": [
        {
          "indexed": true,
          "internalType": "bytes32",
          "name": "role",
          "type": "bytes32"
        },
        {
          "indexed": true,
          "internalType": "address",
          "name": "account",
          "type": "address"
        },
        {
          "indexed": true,
          "internalType": "address",
          "name": "sender",
          "type": "address"
        }
      ],
      "name": "RoleRevoked",
      "type": "event"
    },
    {
      "anonymous": false,
      "inputs": [
        {
          "indexed": true,
          "internalType": "address",
          "name": "from",
          "type": "address"
        },
        {
          "indexed": true,
          "internalType": "address",
          "name": "to",
          "type": "address"
        },
        {
          "indexed": true,
          "internalType": "uint256",
          "name": "tokenId",
          "type": "uint256"
        }
      ],
      "name": "Transfer",
      "type": "event"
    },
    {
      "anonymous": false,
      "inputs": [
        {
          "indexed": true,
          "internalType": "uint256",
          "name": "tokenId",
          "type": "uint256"
        },
        {
          "indexed": true,
          "internalType": "address",
          "name": "seller",
          "type": "address"
        },
        {
          "indexed": true,
          "internalType": "address",
          "name": "buyer",
          "type": "address"
        }
      ],
      "name": "TransferCompleted",
      "type": "event"
    },
    {
      "anonymous": false,
      "inputs": [
        {
          "indexed": true,
          "internalType": "uint256",
          "name": "tokenId",
          "type": "uint256"
        },
        {
          "indexed": true,
          "internalType": "address",
          "name": "seller",
          "type": "address"
        },
        {
          "indexed": true,
          "internalType": "address",
          "name": "buyer",
          "type": "address"
        }
      ],
      "name": "TransferProposed",
      "type": "event"
    },
    {
      "inputs": [],
      "name": "ADMIN_BPN_ROLE",
      "outputs": [
        {
          "internalType": "bytes32",
          "name": "",
          "type": "bytes32"
        }
      ],
      "stateMutability": "view",
      "type": "function"
    },
    {
      "inputs": [],
      "name": "AUDITOR_ROLE",
      "outputs": [
        {
          "internalType": "bytes32",
          "name": "",
          "type": "bytes32"
        }
      ],
      "stateMutability": "view",
      "type": "function"
    },
    {
      "inputs": [],
      "name": "BPN_WILAYAH_ROLE",
      "outputs": [
        {
          "internalType": "bytes32",
          "name": "",
          "type": "bytes32"
        }
      ],
      "stateMutability": "view",
      "type": "function"
    },
    {
      "inputs": [],
      "name": "DEFAULT_ADMIN_ROLE",
      "outputs": [
        {
          "internalType": "bytes32",
          "name": "",
          "type": "bytes32"
        }
      ],
      "stateMutability": "view",
      "type": "function"
    },
    {
      "inputs": [],
      "name": "NOTARIS_ROLE",
      "outputs": [
        {
          "internalType": "bytes32",
          "name": "",
          "type": "bytes32"
        }
      ],
      "stateMutability": "view",
      "type": "function"
    },
    {
      "inputs": [
        {
          "internalType": "address",
          "name": "to",
          "type": "address"
        },
        {
          "internalType": "uint256",
          "name": "tokenId",
          "type": "uint256"
        }
      ],
      "name": "approve",
      "outputs": [],
      "stateMutability": "nonpayable",
      "type": "function"
    },
    {
      "inputs": [
        {
          "internalType": "uint256",
          "name": "tokenId",
          "type": "uint256"
        }
      ],
      "name": "approveTransferBuyer",
      "outputs": [],
      "stateMutability": "nonpayable",
      "type": "function"
    },
    {
      "inputs": [
        {
          "internalType": "uint256",
          "name": "tokenId",
          "type": "uint256"
        },
        {
          "internalType": "string",
          "name": "ajbIpfsHash",
          "type": "string"
        }
      ],
      "name": "approveTransferNotaris",
      "outputs": [],
      "stateMutability": "nonpayable",
      "type": "function"
    },
    {
      "inputs": [
        {
          "internalType": "address",
          "name": "owner",
          "type": "address"
        }
      ],
      "name": "balanceOf",
      "outputs": [
        {
          "internalType": "uint256",
          "name": "",
          "type": "uint256"
        }
      ],
      "stateMutability": "view",
      "type": "function"
    },
    {
      "inputs": [
        {
          "internalType": "uint256",
          "name": "tokenId",
          "type": "uint256"
        }
      ],
      "name": "cancelTransfer",
      "outputs": [],
      "stateMutability": "nonpayable",
      "type": "function"
    },
    {
      "inputs": [
        {
          "internalType": "uint256",
          "name": "tokenId",
          "type": "uint256"
        }
      ],
      "name": "getApproved",
      "outputs": [
        {
          "internalType": "address",
          "name": "",
          "type": "address"
        }
      ],
      "stateMutability": "view",
      "type": "function"
    },
    {
      "inputs": [
        {
          "internalType": "uint256",
          "name": "tokenId",
          "type": "uint256"
        }
      ],
      "name": "getLandDetails",
      "outputs": [
        {
          "components": [
            {
              "internalType": "string",
              "name": "gpsCoordinates",
              "type": "string"
            },
            {
              "internalType": "uint256",
              "name": "area",
              "type": "uint256"
            },
            {
              "internalType": "string",
              "name": "nib",
              "type": "string"
            },
            {
              "internalType": "string[]",
              "name": "ipfsHashes",
              "type": "string[]"
            },
            {
              "internalType": "bool",
              "name": "isDisputed",
              "type": "bool"
            }
          ],
          "internalType": "struct LandRegistry.Land",
          "name": "",
          "type": "tuple"
        }
      ],
      "stateMutability": "view",
      "type": "function"
    },
    {
      "inputs": [
        {
          "internalType": "uint256",
          "name": "tokenId",
          "type": "uint256"
        }
      ],
      "name": "getOwnershipHistory",
      "outputs": [
        {
          "internalType": "address[]",
          "name": "",
          "type": "address[]"
        }
      ],
      "stateMutability": "view",
      "type": "function"
    },
    {
      "inputs": [
        {
          "internalType": "bytes32",
          "name": "role",
          "type": "bytes32"
        }
      ],
      "name": "getRoleAdmin",
      "outputs": [
        {
          "internalType": "bytes32",
          "name": "",
          "type": "bytes32"
        }
      ],
      "stateMutability": "view",
      "type": "function"
    },
    {
      "inputs": [
        {
          "internalType": "bytes32",
          "name": "role",
          "type": "bytes32"
        },
        {
          "internalType": "address",
          "name": "account",
          "type": "address"
        }
      ],
      "name": "grantRole",
      "outputs": [],
      "stateMutability": "nonpayable",
      "type": "function"
    },
    {
      "inputs": [
        {
          "internalType": "bytes32",
          "name": "role",
          "type": "bytes32"
        },
        {
          "internalType": "address",
          "name": "account",
          "type": "address"
        }
      ],
      "name": "hasRole",
      "outputs": [
        {
          "internalType": "bool",
          "name": "",
          "type": "bool"
        }
      ],
      "stateMutability": "view",
      "type": "function"
    },
    {
      "inputs": [
        {
          "internalType": "address",
          "name": "owner",
          "type": "address"
        },
        {
          "internalType": "address",
          "name": "operator",
          "type": "address"
        }
      ],
      "name": "isApprovedForAll",
      "outputs": [
        {
          "internalType": "bool",
          "name": "",
          "type": "bool"
        }
      ],
      "stateMutability": "view",
      "type": "function"
    },
    {
      "inputs": [
        {
          "internalType": "uint256",
          "name": "",
          "type": "uint256"
        }
      ],
      "name": "lands",
      "outputs": [
        {
          "internalType": "string",
          "name": "gpsCoordinates",
          "type": "string"
        },
        {
          "internalType": "uint256",
          "name": "area",
          "type": "uint256"
        },
        {
          "internalType": "string",
          "name": "nib",
          "type": "string"
        },
        {
          "internalType": "bool",
          "name": "isDisputed",
          "type": "bool"
        }
      ],
      "stateMutability": "view",
      "type": "function"
    },
    {
      "inputs": [
        {
          "internalType": "address",
          "name": "to",
          "type": "address"
        },
        {
          "internalType": "string",
          "name": "gpsCoordinates",
          "type": "string"
        },
        {
          "internalType": "uint256",
          "name": "area",
          "type": "uint256"
        },
        {
          "internalType": "string",
          "name": "nib",
          "type": "string"
        },
        {
          "internalType": "string[]",
          "name": "ipfsHashes",
          "type": "string[]"
        }
      ],
      "name": "mintLand",
      "outputs": [],
      "stateMutability": "nonpayable",
      "type": "function"
    },
    {
      "inputs": [],
      "name": "name",
      "outputs": [
        {
          "internalType": "string",
          "name": "",
          "type": "string"
        }
      ],
      "stateMutability": "view",
      "type": "function"
    },
    {
      "inputs": [
        {
          "internalType": "uint256",
          "name": "tokenId",
          "type": "uint256"
        }
      ],
      "name": "ownerOf",
      "outputs": [
        {
          "internalType": "address",
          "name": "",
          "type": "address"
        }
      ],
      "stateMutability": "view",
      "type": "function"
    },
    {
      "inputs": [
        {
          "internalType": "uint256",
          "name": "",
          "type": "uint256"
        },
        {
          "internalType": "uint256",
          "name": "",
          "type": "uint256"
        }
      ],
      "name": "ownershipHistory",
      "outputs": [
        {
          "internalType": "address",
          "name": "",
          "type": "address"
        }
      ],
      "stateMutability": "view",
      "type": "function"
    },
    {
      "inputs": [
        {
          "internalType": "uint256",
          "name": "tokenId",
          "type": "uint256"
        },
        {
          "internalType": "address",
          "name": "buyer",
          "type": "address"
        }
      ],
      "name": "proposeTransfer",
      "outputs": [],
      "stateMutability": "nonpayable",
      "type": "function"
    },
    {
      "inputs": [
        {
          "internalType": "bytes32",
          "name": "role",
          "type": "bytes32"
        },
        {
          "internalType": "address",
          "name": "callerConfirmation",
          "type": "address"
        }
      ],
      "name": "renounceRole",
      "outputs": [],
      "stateMutability": "nonpayable",
      "type": "function"
    },
    {
      "inputs": [
        {
          "internalType": "bytes32",
          "name": "role",
          "type": "bytes32"
        },
        {
          "internalType": "address",
          "name": "account",
          "type": "address"
        }
      ],
      "name": "revokeRole",
      "outputs": [],
      "stateMutability": "nonpayable",
      "type": "function"
    },
    {
      "inputs": [
        {
          "internalType": "address",
          "name": "from",
          "type": "address"
        },
        {
          "internalType": "address",
          "name": "to",
          "type": "address"
        },
        {
          "internalType": "uint256",
          "name": "tokenId",
          "type": "uint256"
        }
      ],
      "name": "safeTransferFrom",
      "outputs": [],
      "stateMutability": "nonpayable",
      "type": "function"
    },
    {
      "inputs": [
        {
          "internalType": "address",
          "name": "from",
          "type": "address"
        },
        {
          "internalType": "address",
          "name": "to",
          "type": "address"
        },
        {
          "internalType": "uint256",
          "name": "tokenId",
          "type": "uint256"
        },
        {
          "internalType": "bytes",
          "name": "data",
          "type": "bytes"
        }
      ],
      "name": "safeTransferFrom",
      "outputs": [],
      "stateMutability": "nonpayable",
      "type": "function"
    },
    {
      "inputs": [
        {
          "internalType": "address",
          "name": "operator",
          "type": "address"
        },
        {
          "internalType": "bool",
          "name": "approved",
          "type": "bool"
        }
      ],
      "name": "setApprovalForAll",
      "outputs": [],
      "stateMutability": "nonpayable",
      "type": "function"
    },
    {
      "inputs": [
        {
          "internalType": "uint256",
          "name": "tokenId",
          "type": "uint256"
        },
        {
          "internalType": "bool",
          "name": "isDisputed",
          "type": "bool"
        }
      ],
      "name": "setEnforcement",
      "outputs": [],
      "stateMutability": "nonpayable",
      "type": "function"
    },
    {
      "inputs": [
        {
          "internalType": "bytes4",
          "name": "interfaceId",
          "type": "bytes4"
        }
      ],
      "name": "supportsInterface",
      "outputs": [
        {
          "internalType": "bool",
          "name": "",
          "type": "bool"
        }
      ],
      "stateMutability": "view",
      "type": "function"
    },
    {
      "inputs": [],
      "name": "symbol",
      "outputs": [
        {
          "internalType": "string",
          "name": "",
          "type": "string"
        }
      ],
      "stateMutability": "view",
      "type": "function"
    },
    {
      "inputs": [
        {
          "internalType": "uint256",
          "name": "tokenId",
          "type": "uint256"
        }
      ],
      "name": "tokenURI",
      "outputs": [
        {
          "internalType": "string",
          "name": "",
          "type": "string"
        }
      ],
      "stateMutability": "view",
      "type": "function"
    },
    {
      "inputs": [
        {
          "internalType": "address",
          "name": "from",
          "type": "address"
        },
        {
          "internalType": "address",
          "name": "to",
          "type": "address"
        },
        {
          "internalType": "uint256",
          "name": "tokenId",
          "type": "uint256"
        }
      ],
      "name": "transferFrom",
      "outputs": [],
      "stateMutability": "nonpayable",
      "type": "function"
    },
    {
      "inputs": [
        {
          "internalType": "uint256",
          "name": "",
          "type": "uint256"
        }
      ],
      "name": "transferRequests",
      "outputs": [
        {
          "internalType": "address",
          "name": "seller",
          "type": "address"
        },
        {
          "internalType": "address",
          "name": "buyer",
          "type": "address"
        },
        {
          "internalType": "address",
          "name": "notaris",
          "type": "address"
        },
        {
          "internalType": "bool",
          "name": "sellerApproved",
          "type": "bool"
        },
        {
          "internalType": "bool",
          "name": "buyerApproved",
          "type": "bool"
        },
        {
          "internalType": "bool",
          "name": "notarisApproved",
          "type": "bool"
        },
        {
          "internalType": "bool",
          "name": "isActive",
          "type": "bool"
        }
      ],
      "stateMutability": "view",
      "type": "function"
    }
  ],
  "bytecode": "0x608060405234801562000010575f80fd5b50604051806040016040528060098152602001682630b7322a37b5b2b760b91b8152506040518060400160405280600381526020016213139160ea1b815250815f90816200005f919062000201565b5060016200006e828262000201565b506200007f91505f905033620000b3565b50620000ac7f9856acbf9ca422c521e08bc1d8e706e2db0b5830f4d56f698b78d8c01c86949133620000b3565b50620002cd565b5f8281526006602090815260408083206001600160a01b038516845290915281205460ff166200015a575f8381526006602090815260408083206001600160a01b03861684529091529020805460ff19166001179055620001113390565b6001600160a01b0316826001600160a01b0316847f2f8788117e7eff1d82e926ec794901d17c78024a50270940304540a733656f0d60405160405180910390a45060016200015d565b505f5b92915050565b634e487b7160e01b5f52604160045260245ffd5b600181811c908216806200018c57607f821691505b602082108103620001ab57634e487b7160e01b5f52602260045260245ffd5b50919050565b601f821115620001fc57805f5260205f20601f840160051c81016020851015620001d85750805b601f840160051c820191505b81811015620001f9575f8155600101620001e4565b50505b505050565b81516001600160401b038111156200021d576200021d62000163565b62000235816200022e845462000177565b84620001b1565b602080601f8311600181146200026b575f8415620002535750858301515b5f19600386901b1c1916600185901b178555620002c5565b5f85815260208120601f198616915b828110156200029b578886015182559484019460019091019084016200027a565b5085821015620002b957878501515f19600388901b60f8161c191681555b505060018460011b0185555b505050505050565b6127b180620002db5f395ff3fe608060405234801561000f575f80fd5b50600436106101fd575f3560e01c806370a0823111610114578063b88d4fde116100a9578063d547741f11610079578063d547741f1461054b578063e261f1e51461055e578063e985e9c514610581578063f1dbaccb14610594578063fe0cb7dc146105b4575f80fd5b8063b88d4fde146104ff578063c87b56dd14610512578063c89a2bd914610525578063c9cf2adc14610538575f80fd5b806391d14854116100e457806391d14854146104ca57806395d89b41146104dd578063a217fddf146104e5578063a22cb465146104ec575f80fd5b806370a082311461045657806386bde3d114610469578063875cfe3b1461047c5780638ec455e3146104a3575f80fd5b806323b872dd1161019557806342842e0e1161016557806342842e0e146103cf5780635911b808146103e257806359caecb5146104095780636352211e1461041c5780636e1d616e1461042f575f80fd5b806323b872dd14610366578063248a9ca3146103795780632f2ff15d146103a957806336568abe146103bc575f80fd5b8063081812fc116101d0578063081812fc14610302578063095ea7b31461032d57806309d4a345146103405780631b362b0514610353575f80fd5b806301ffc9a71461020157806303486c401461022957806306fdde03146102d857806307407dd8146102ed575b5f80fd5b61021461020f366004611f82565b6105d4565b60405190151581526020015b60405180910390f35b61028e610237366004611f9d565b60096020525f90815260409020805460018201546002909201546001600160a01b039182169282169181169060ff600160a01b8204811691600160a81b8104821691600160b01b8204811691600160b81b90041687565b604080516001600160a01b03988916815296881660208801529490961693850193909352901515606084015215156080830152151560a082015290151560c082015260e001610220565b6102e06105e4565b6040516102209190612001565b6103006102fb3660046120e6565b610673565b005b610315610310366004611f9d565b6107d9565b6040516001600160a01b039091168152602001610220565b61030061033b366004612204565b610800565b61030061034e366004611f9d565b61080f565b61030061036136600461223b565b610912565b610300610374366004612265565b6109d2565b61039b610387366004611f9d565b5f9081526006602052604090206001015490565b604051908152602001610220565b6103006103b736600461229e565b610a5b565b6103006103ca36600461229e565b610a7f565b6103006103dd366004612265565b610ab7565b61039b7f4e19be690c034b73b896a80e4645324b1ada2a2d102cf965cd497dd07f3a195081565b610300610417366004611f9d565b610ad1565b61031561042a366004611f9d565b610b7b565b61039b7f59a1c48e5837ad7a7f3dcedcbe129bf3249ec4fbf651fd4f5e2600ead39fe2f581565b61039b6104643660046122bf565b610b85565b61030061047736600461229e565b610bca565b61039b7f9856acbf9ca422c521e08bc1d8e706e2db0b5830f4d56f698b78d8c01c86949181565b61039b7f3b6c71f6d44639d5b3e40f2ef3056c3385a1e68a255a703ac23442c1c3be357d81565b6102146104d836600461229e565b610dd0565b6102e0610dfa565b61039b5f81565b6103006104fa3660046122d8565b610e09565b61030061050d366004612300565b610e14565b6102e0610520366004611f9d565b610e2c565b610300610533366004612377565b610e9d565b6103156105463660046123bb565b61103d565b61030061055936600461229e565b611071565b61057161056c366004611f9d565b611095565b60405161022094939291906123db565b61021461058f366004612419565b6111cb565b6105a76105a2366004611f9d565b6111f8565b6040516102209190612441565b6105c76105c2366004611f9d565b611261565b604051610220919061248d565b5f6105de826114bf565b92915050565b60605f80546105f290612542565b80601f016020809104026020016040519081016040528092919081815260200182805461061e90612542565b80156106695780601f1061064057610100808354040283529160200191610669565b820191905f5260205f20905b81548152906001019060200180831161064c57829003601f168201915b5050505050905090565b7f3b6c71f6d44639d5b3e40f2ef3056c3385a1e68a255a703ac23442c1c3be357d61069d816114e3565b600780545f91826106ad8361257a565b909155506040805160a0810182528881526020808201899052818301889052606082018790525f608083018190528481526008909152919091208151929350909181906106fa90826125e2565b50602082015160018201556040820151600282019061071990826125e2565b5060608201518051610735916003840191602090910190611eb7565b50608091909101516004909101805460ff191691151591909117905561075b87826114f0565b5f818152600a602090815260408083208054600181018255908452919092200180546001600160a01b0319166001600160a01b038a16908117909155905182907fa30dd43fc057b356acd774161b6c8743df78c9bd58d7f492dd56d00121dda6b5906107c8908890612001565b60405180910390a350505050505050565b5f6107e382611509565b505f828152600460205260409020546001600160a01b03166105de565b61080b828233611541565b5050565b5f8181526009602052604090206002810154600160b81b900460ff166108505760405162461bcd60e51b81526004016108479061269e565b60405180910390fd5b60018101546001600160a01b0316331461089c5760405162461bcd60e51b815260206004820152600d60248201526c2737ba103a343290313abcb2b960991b6044820152606401610847565b5f8281526008602052604090206004015460ff16156108cd5760405162461bcd60e51b8152600401610847906126ca565b60028101805460ff60a81b1916600160a81b179055604051339083907fcf93094854a81f1a3d7c99633cff4dac98837e96ebc9d5529993dea33242cc67905f90a35050565b61093c7f9856acbf9ca422c521e08bc1d8e706e2db0b5830f4d56f698b78d8c01c86949133610dd0565b6109795760405162461bcd60e51b815260206004820152600e60248201526d139bdd08185d5d1a1bdc9a5e995960921b6044820152606401610847565b5f82815260086020908152604091829020600401805460ff1916841515908117909155915191825283917f388370698ea03650624022e5f43e8cb1f902ba526ee8287ff865709bc3946437910160405180910390a25050565b6001600160a01b0382166109fb57604051633250574960e11b81525f6004820152602401610847565b5f610a0783833361154e565b9050836001600160a01b0316816001600160a01b031614610a55576040516364283d7b60e01b81526001600160a01b0380861660048301526024820184905282166044820152606401610847565b50505050565b5f82815260066020526040902060010154610a75816114e3565b610a558383611640565b6001600160a01b0381163314610aa85760405163334bd91960e11b815260040160405180910390fd5b610ab282826116d1565b505050565b610ab283838360405180602001604052805f815250610e14565b5f8181526009602052604090206002810154600160b81b900460ff16610b095760405162461bcd60e51b81526004016108479061269e565b80546001600160a01b0316331480610b2d575060018101546001600160a01b031633145b610b6a5760405162461bcd60e51b815260206004820152600e60248201526d139bdd08185d5d1a1bdc9a5e995960921b6044820152606401610847565b600201805460ff60b81b1916905550565b5f6105de82611509565b5f6001600160a01b038216610baf576040516322718ad960e21b81525f6004820152602401610847565b506001600160a01b03165f9081526003602052604090205490565b33610bd483610b7b565b6001600160a01b031614610c1a5760405162461bcd60e51b815260206004820152600d60248201526c2737ba103a34329037bbb732b960991b6044820152606401610847565b5f8281526008602052604090206004015460ff1615610c4b5760405162461bcd60e51b8152600401610847906126ca565b5f82815260096020526040902060020154600160b81b900460ff1615610cac5760405162461bcd60e51b8152602060048201526016602482015275416374697665207472616e736665722065786973747360501b6044820152606401610847565b6040805160e081018252338082526001600160a01b0384811660208085018281525f86880181815260016060890181815260808a0184815260a08b0185815260c08c018481528f875260099098528c86209b518c54908b166001600160a01b0319918216178d559651938c018054948b16949097169390931790955591516002909901805492519451915195511515600160b81b0260ff60b81b19961515600160b01b0260ff60b01b19931515600160a81b029390931661ffff60a81b19961515600160a01b026001600160a81b03199095169b9099169a909a179290921793909316959095179190911791909116949094179091559251909185917fc1d91ef3905e00972bebbb95768bc866bdc68d24a68dde011efaa8a39c879d5d9190a45050565b5f9182526006602090815260408084206001600160a01b0393909316845291905290205460ff1690565b6060600180546105f290612542565b61080b33838361173c565b610e1f8484846109d2565b610a553385858585611803565b6060610e3782611509565b505f610e4d60408051602081019091525f815290565b90505f815111610e6b5760405180602001604052805f815250610e96565b80610e758461192b565b604051602001610e869291906126f6565b6040516020818303038152906040525b9392505050565b7f4e19be690c034b73b896a80e4645324b1ada2a2d102cf965cd497dd07f3a1950610ec7816114e3565b5f8381526009602052604090206002810154600160b81b900460ff16610eff5760405162461bcd60e51b81526004016108479061269e565b6002810154600160a01b900460ff168015610f2557506002810154600160a81b900460ff165b610f715760405162461bcd60e51b815260206004820152601f60248201527f53656c6c6572206f72206275796572206861736e277420617070726f766564006044820152606401610847565b5f8481526008602052604090206004015460ff1615610fa25760405162461bcd60e51b8152600401610847906126ca565b60028101805460ff60b01b193316600162ff000160a01b031990911617600160b01b1790555f84815260086020908152604082206003018054600181018255908352912001610ff184826125e2565b50336001600160a01b0316847fbb079a066630cab8761841cb47c7c4c785fb83cd31f23baf8e0c3fd317d9e5248560405161102c9190612001565b60405180910390a3610a55846119bb565b600a602052815f5260405f208181548110611056575f80fd5b5f918252602090912001546001600160a01b03169150829050565b5f8281526006602052604090206001015461108b816114e3565b610a5583836116d1565b60086020525f90815260409020805481906110af90612542565b80601f01602080910402602001604051908101604052809291908181526020018280546110db90612542565b80156111265780601f106110fd57610100808354040283529160200191611126565b820191905f5260205f20905b81548152906001019060200180831161110957829003601f168201915b50505050509080600101549080600201805461114190612542565b80601f016020809104026020016040519081016040528092919081815260200182805461116d90612542565b80156111b85780601f1061118f576101008083540402835291602001916111b8565b820191905f5260205f20905b81548152906001019060200180831161119b57829003601f168201915b5050506004909301549192505060ff1684565b6001600160a01b039182165f90815260056020908152604080832093909416825291909152205460ff1690565b5f818152600a602090815260409182902080548351818402810184019094528084526060939283018282801561125557602002820191905f5260205f20905b81546001600160a01b03168152600190910190602001808311611237575b50505050509050919050565b6112936040518060a00160405280606081526020015f815260200160608152602001606081526020015f151581525090565b5f8281526008602052604090819020815160a081019092528054829082906112ba90612542565b80601f01602080910402602001604051908101604052809291908181526020018280546112e690612542565b80156113315780601f1061130857610100808354040283529160200191611331565b820191905f5260205f20905b81548152906001019060200180831161131457829003601f168201915b505050505081526020016001820154815260200160028201805461135490612542565b80601f016020809104026020016040519081016040528092919081815260200182805461138090612542565b80156113cb5780601f106113a2576101008083540402835291602001916113cb565b820191905f5260205f20905b8154815290600101906020018083116113ae57829003601f168201915b5050505050815260200160038201805480602002602001604051908101604052809291908181526020015f905b828210156114a0578382905f5260205f2001805461141590612542565b80601f016020809104026020016040519081016040528092919081815260200182805461144190612542565b801561148c5780601f106114635761010080835404028352916020019161148c565b820191905f5260205f20905b81548152906001019060200180831161146f57829003601f168201915b5050505050815260200190600101906113f8565b505050908252506004919091015460ff16151560209091015292915050565b5f6001600160e01b03198216637965db0b60e01b14806105de57506105de82611a67565b6114ed8133611ab6565b50565b61080b828260405180602001604052805f815250611aef565b5f818152600260205260408120546001600160a01b0316806105de57604051637e27328960e01b815260048101849052602401610847565b610ab28383836001611b06565b5f828152600260205260408120546001600160a01b039081169083161561157a5761157a818486611c0a565b6001600160a01b038116156115b4576115955f855f80611b06565b6001600160a01b0381165f90815260036020526040902080545f190190555b6001600160a01b038516156115e2576001600160a01b0385165f908152600360205260409020805460010190555b5f8481526002602052604080822080546001600160a01b0319166001600160a01b0389811691821790925591518793918516917fddf252ad1be2c89b69c2b068fc378daa952ba7f163c4a11628f55a4df523b3ef91a4949350505050565b5f61164b8383610dd0565b6116ca575f8381526006602090815260408083206001600160a01b03861684529091529020805460ff191660011790556116823390565b6001600160a01b0316826001600160a01b0316847f2f8788117e7eff1d82e926ec794901d17c78024a50270940304540a733656f0d60405160405180910390a45060016105de565b505f6105de565b5f6116dc8383610dd0565b156116ca575f8381526006602090815260408083206001600160a01b0386168085529252808320805460ff1916905551339286917ff6391f5c32d9c69d2a47ea670b442974b53935d1edc7fd64eb21e047a839171b9190a45060016105de565b6001600160a01b0383166117655760405163a9fbf51f60e01b81525f6004820152602401610847565b6001600160a01b03821661179757604051630b61174360e31b81526001600160a01b0383166004820152602401610847565b6001600160a01b038381165f81815260056020908152604080832094871680845294825291829020805460ff191686151590811790915591519182527f17307eab39ab6107e8899845ad3d59bd9653f200f220920489ca2b5937696c31910160405180910390a3505050565b6001600160a01b0383163b1561192457604051630a85bd0160e11b81526001600160a01b0384169063150b7a0290611845908890889087908790600401612724565b6020604051808303815f875af192505050801561187f575060408051601f3d908101601f1916820190925261187c91810190612760565b60015b6118e6573d8080156118ac576040519150601f19603f3d011682016040523d82523d5f602084013e6118b1565b606091505b5080515f036118de57604051633250574960e11b81526001600160a01b0385166004820152602401610847565b805160208201fd5b6001600160e01b03198116630a85bd0160e11b1461192257604051633250574960e11b81526001600160a01b0385166004820152602401610847565b505b5050505050565b60605f61193783611c6e565b60010190505f8167ffffffffffffffff8111156119565761195661202e565b6040519080825280601f01601f191660200182016040528015611980576020820181803683370190505b5090508181016020015b5f19016f181899199a1a9b1b9c1cb0b131b232b360811b600a86061a8153600a850494508461198a57509392505050565b5f8181526009602052604090208054600182015460028301805460ff60b81b191690556001600160a01b0391821691166119f6828286611d45565b5f848152600a60209081526040808320805460018101825590845291832090910180546001600160a01b0319166001600160a01b03858116918217909255915191929085169187917fe30f4d2a28a67cdb8856ab10670990536f9e43edbec16c6c9094a931a58bce9591a450505050565b5f6001600160e01b031982166380ac58cd60e01b1480611a9757506001600160e01b03198216635b5e139f60e01b145b806105de57506301ffc9a760e01b6001600160e01b03198316146105de565b611ac08282610dd0565b61080b5760405163e2517d3f60e01b81526001600160a01b038216600482015260248101839052604401610847565b611af98383611df2565b610ab2335f858585611803565b8080611b1a57506001600160a01b03821615155b15611bdb575f611b2984611509565b90506001600160a01b03831615801590611b555750826001600160a01b0316816001600160a01b031614155b8015611b685750611b6681846111cb565b155b15611b915760405163a9fbf51f60e01b81526001600160a01b0384166004820152602401610847565b8115611bd95783856001600160a01b0316826001600160a01b03167f8c5be1e5ebec7d5bd14f71427d1e84f3dd0314c0f7b2291e5b200ac8c7c3b92560405160405180910390a45b505b50505f90815260046020526040902080546001600160a01b0319166001600160a01b0392909216919091179055565b611c15838383611e53565b610ab2576001600160a01b038316611c4357604051637e27328960e01b815260048101829052602401610847565b60405163177e802f60e01b81526001600160a01b038316600482015260248101829052604401610847565b5f8072184f03e93ff9f4daa797ed6e38ed64bf6a1f0160401b8310611cac5772184f03e93ff9f4daa797ed6e38ed64bf6a1f0160401b830492506040015b6d04ee2d6d415b85acef81000000008310611cd8576d04ee2d6d415b85acef8100000000830492506020015b662386f26fc100008310611cf657662386f26fc10000830492506010015b6305f5e1008310611d0e576305f5e100830492506008015b6127108310611d2257612710830492506004015b60648310611d34576064830492506002015b600a83106105de5760010192915050565b6001600160a01b038216611d6e57604051633250574960e11b81525f6004820152602401610847565b5f611d7a83835f61154e565b90506001600160a01b038116611da657604051637e27328960e01b815260048101839052602401610847565b836001600160a01b0316816001600160a01b031614610a55576040516364283d7b60e01b81526001600160a01b0380861660048301526024820184905282166044820152606401610847565b6001600160a01b038216611e1b57604051633250574960e11b81525f6004820152602401610847565b5f611e2783835f61154e565b90506001600160a01b03811615610ab2576040516339e3563760e11b81525f6004820152602401610847565b5f6001600160a01b03831615801590611eaf5750826001600160a01b0316846001600160a01b03161480611e8c5750611e8c84846111cb565b80611eaf57505f828152600460205260409020546001600160a01b038481169116145b949350505050565b828054828255905f5260205f20908101928215611efb579160200282015b82811115611efb5782518290611eeb90826125e2565b5091602001919060010190611ed5565b50611f07929150611f0b565b5090565b80821115611f07575f611f1e8282611f27565b50600101611f0b565b508054611f3390612542565b5f825580601f10611f42575050565b601f0160209004905f5260205f20908101906114ed91905b80821115611f07575f8155600101611f5a565b6001600160e01b0319811681146114ed575f80fd5b5f60208284031215611f92575f80fd5b8135610e9681611f6d565b5f60208284031215611fad575f80fd5b5035919050565b5f5b83811015611fce578181015183820152602001611fb6565b50505f910152565b5f8151808452611fed816020860160208601611fb4565b601f01601f19169290920160200192915050565b602081525f610e966020830184611fd6565b80356001600160a01b0381168114612029575f80fd5b919050565b634e487b7160e01b5f52604160045260245ffd5b604051601f8201601f1916810167ffffffffffffffff8111828210171561206b5761206b61202e565b604052919050565b5f67ffffffffffffffff83111561208c5761208c61202e565b61209f601f8401601f1916602001612042565b90508281528383830111156120b2575f80fd5b828260208301375f602084830101529392505050565b5f82601f8301126120d7575f80fd5b610e9683833560208501612073565b5f805f805f60a086880312156120fa575f80fd5b61210386612013565b945060208087013567ffffffffffffffff80821115612120575f80fd5b61212c8a838b016120c8565b9650604089013595506060890135915080821115612148575f80fd5b6121548a838b016120c8565b94506080890135915080821115612169575f80fd5b818901915089601f83011261217c575f80fd5b81358181111561218e5761218e61202e565b8060051b61219d858201612042565b918252838101850191858101908d8411156121b6575f80fd5b86860192505b838310156121f0578235858111156121d2575f80fd5b6121e08f89838a01016120c8565b83525091860191908601906121bc565b809750505050505050509295509295909350565b5f8060408385031215612215575f80fd5b61221e83612013565b946020939093013593505050565b80358015158114612029575f80fd5b5f806040838503121561224c575f80fd5b8235915061225c6020840161222c565b90509250929050565b5f805f60608486031215612277575f80fd5b61228084612013565b925061228e60208501612013565b9150604084013590509250925092565b5f80604083850312156122af575f80fd5b8235915061225c60208401612013565b5f602082840312156122cf575f80fd5b610e9682612013565b5f80604083850312156122e9575f80fd5b6122f283612013565b915061225c6020840161222c565b5f805f8060808587031215612313575f80fd5b61231c85612013565b935061232a60208601612013565b925060408501359150606085013567ffffffffffffffff81111561234c575f80fd5b8501601f8101871361235c575f80fd5b61236b87823560208401612073565b91505092959194509250565b5f8060408385031215612388575f80fd5b82359150602083013567ffffffffffffffff8111156123a5575f80fd5b6123b1858286016120c8565b9150509250929050565b5f80604083850312156123cc575f80fd5b50508035926020909101359150565b608081525f6123ed6080830187611fd6565b85602084015282810360408401526124058186611fd6565b915050821515606083015295945050505050565b5f806040838503121561242a575f80fd5b61243383612013565b915061225c60208401612013565b602080825282518282018190525f9190848201906040850190845b818110156124815783516001600160a01b03168352928401929184019160010161245c565b50909695505050505050565b5f6020808352835160a0828501526124a860c0850182611fd6565b90508185015160408501526040850151601f19808684030160608701526124cf8383611fd6565b60608801518782038301608089015280518083529194508501925084840190600581901b850186015f5b828110156125255784878303018452612513828751611fd6565b958801959388019391506001016124f9565b5060808a015180151560a08b015296509998505050505050505050565b600181811c9082168061255657607f821691505b60208210810361257457634e487b7160e01b5f52602260045260245ffd5b50919050565b5f6001820161259757634e487b7160e01b5f52601160045260245ffd5b5060010190565b601f821115610ab257805f5260205f20601f840160051c810160208510156125c35750805b601f840160051c820191505b81811015611924575f81556001016125cf565b815167ffffffffffffffff8111156125fc576125fc61202e565b6126108161260a8454612542565b8461259e565b602080601f831160018114612643575f841561262c5750858301515b5f19600386901b1c1916600185901b178555611922565b5f85815260208120601f198616915b8281101561267157888601518255948401946001909101908401612652565b508582101561268e57878501515f19600388901b60f8161c191681555b5050505050600190811b01905550565b60208082526012908201527127379030b1ba34bb32903a3930b739b332b960711b604082015260600190565b6020808252601290820152714c616e6420697320696e206469737075746560701b604082015260600190565b5f8351612707818460208801611fb4565b83519083019061271b818360208801611fb4565b01949350505050565b6001600160a01b03858116825284166020820152604081018390526080606082018190525f9061275690830184611fd6565b9695505050505050565b5f60208284031215612770575f80fd5b8151610e9681611f6d56fea26469706673582212204c7ebb0a29f5999ea34dda48140f2640232c2eaa4270365181d9da1b3d9ac5f364736f6c63430008180033",
  "linkReferences": {},
  "deployedLinkReferences": {}
}