{
  "_format": "hh-sol-artifact-1",
  "contractName": "LandRegistry",
  "sourceName": "contracts/LandRegistry.sol",
  "abi": [
    {
      "inputs": [],
      "stateMutability": "nonpayable",
      "type": "constructor"
    },
    {
      "inputs": [],
      "name": "AccessControlBadConfirmation",
      "type": "error"
    },
    {
      "inputs": [
        {
          "internalType": "address",
          "name": "account",
          "type": "address"
        },
        {
          "internalType": "bytes32",
          "name": "neededRole",
          "type": "bytes32"
        }
      ],
      "name": "AccessControlUnauthorizedAccount",
      "type": "error"
    },
    {
      "inputs": [
        {
          "internalType": "address",
          "name": "sender",
          "type": "address"
        },
        {
          "internalType": "uint256",
          "name": "tokenId",
          "type": "uint256"
        },
        {
          "internalType": "address",
          "name": "owner",
          "type": "address"
        }
      ],
      "name": "ERC721IncorrectOwner",
      "type": "error"
    },
    {
      "inputs": [
        {
          "internalType": "address",
          "name": "operator",
          "type": "address"
        },
        {
          "internalType": "uint256",
          "name": "tokenId",
          "type": "uint256"
        }
      ],
      "name": "ERC721InsufficientApproval",
      "type": "error"
    },
    {
      "inputs": [
        {
          "internalType": "address",
          "name": "approver",
          "type": "address"
        }
      ],
      "name": "ERC721InvalidApprover",
      "type": "error"
    },
    {
      "inputs": [
        {
          "internalType": "address",
          "name": "operator",
          "type": "address"
        }
      ],
      "name": "ERC721InvalidOperator",
      "type": "error"
    },
    {
      "inputs": [
        {
          "internalType": "address",
          "name": "owner",
          "type": "address"
        }
      ],
      "name": "ERC721InvalidOwner",
      "type": "error"
    },
    {
      "inputs": [
        {
          "internalType": "address",
          "name": "receiver",
          "type": "address"
        }
      ],
      "name": "ERC721InvalidReceiver",
      "type": "error"
    },
    {
      "inputs": [
        {
          "internalType": "address",
          "name": "sender",
          "type": "address"
        }
      ],
      "name": "ERC721InvalidSender",
      "type": "error"
    },
    {
      "inputs": [
        {
          "internalType": "uint256",
          "name": "tokenId",
          "type": "uint256"
        }
      ],
      "name": "ERC721NonexistentToken",
      "type": "error"
    },
    {
      "anonymous": false,
      "inputs": [
        {
          "indexed": true,
          "internalType": "address",
          "name": "owner",
          "type": "address"
        },
        {
          "indexed": true,
          "internalType": "address",
          "name": "approved",
          "type": "address"
        },
        {
          "indexed": true,
          "internalType": "uint256",
          "name": "tokenId",
          "type": "uint256"
        }
      ],
      "name": "Approval",
      "type": "event"
    },
    {
      "anonymous": false,
      "inputs": [
        {
          "indexed": true,
          "internalType": "address",
          "name": "owner",
          "type": "address"
        },
        {
          "indexed": true,
          "internalType": "address",
          "name": "operator",
          "type": "address"
        },
        {
          "indexed": false,
          "internalType": "bool",
          "name": "approved",
          "type": "bool"
        }
      ],
      "name": "ApprovalForAll",
      "type": "event"
    },
    {
      "anonymous": false,
      "inputs": [
        {
          "indexed": true,
          "internalType": "uint256",
          "name": "tokenId",
          "type": "uint256"
        },
        {
          "indexed": true,
          "internalType": "address",
          "name": "owner",
          "type": "address"
        },
        {
          "indexed": false,
          "internalType": "string",
          "name": "nib",
          "type": "string"
        }
      ],
      "name": "AssetMinted",
      "type": "event"
    },
    {
      "anonymous": false,
      "inputs": [
        {
          "indexed": true,
          "internalType": "uint256",
          "name": "tokenId",
          "type": "uint256"
        },
        {
          "indexed": true,
          "internalType": "address",
          "name": "buyer",
          "type": "address"
        }
      ],
      "name": "BuyerApproved",
      "type": "event"
    },
    {
      "anonymous": false,
      "inputs": [
        {
          "indexed": true,
          "internalType": "uint256",
          "name": "tokenId",
          "type": "uint256"
        },
        {
          "indexed": false,
          "internalType": "bool",
          "name": "isDisputed",
          "type": "bool"
        }
      ],
      "name": "EnforcementStatusChanged",
      "type": "event"
    },
    {
      "anonymous": false,
      "inputs": [
        {
          "indexed": true,
          "internalType": "uint256",
          "name": "requestId",
          "type": "uint256"
        },
        {
          "indexed": true,
          "internalType": "uint256",
          "name": "tokenId",
          "type": "uint256"
        }
      ],
      "name": "LandApproved",
      "type": "event"
    },
    {
      "anonymous": false,
      "inputs": [
        {
          "indexed": true,
          "internalType": "uint256",
          "name": "requestId",
          "type": "uint256"
        }
      ],
      "name": "LandRejected",
      "type": "event"
    },
    {
      "anonymous": false,
      "inputs": [
        {
          "indexed": true,
          "internalType": "uint256",
          "name": "requestId",
          "type": "uint256"
        },
        {
          "indexed": true,
          "internalType": "address",
          "name": "to",
          "type": "address"
        },
        {
          "indexed": false,
          "internalType": "string",
          "name": "nib",
          "type": "string"
        }
      ],
      "name": "LandRequested",
      "type": "event"
    },
    {
      "anonymous": false,
      "inputs": [
        {
          "indexed": true,
          "internalType": "uint256",
          "name": "tokenId",
          "type": "uint256"
        },
        {
          "indexed": true,
          "internalType": "address",
          "name": "notaris",
          "type": "address"
        },
        {
          "indexed": false,
          "internalType": "string",
          "name": "ajbIpfsHash",
          "type": "string"
        }
      ],
      "name": "NotarisApproved",
      "type": "event"
    },
    {
      "anonymous": false,
      "inputs": [
        {
          "indexed": true,
          "internalType": "bytes32",
          "name": "role",
          "type": "bytes32"
        },
        {
          "indexed": true,
          "internalType": "bytes32",
          "name": "previousAdminRole",
          "type": "bytes32"
        },
        {
          "indexed": true,
          "internalType": "bytes32",
          "name": "newAdminRole",
          "type": "bytes32"
        }
      ],
      "name": "RoleAdminChanged",
      "type": "event"
    },
    {
      "anonymous": false,
      "inputs": [
        {
          "indexed": true,
          "internalType": "bytes32",
          "name": "role",
          "type": "bytes32"
        },
        {
          "indexed": true,
          "internalType": "address",
          "name": "account",
          "type": "address"
        },
        {
          "indexed": true,
          "internalType": "address",
          "name": "sender",
          "type": "address"
        }
      ],
      "name": "RoleGranted",
      "type": "event"
    },
    {
      "anonymous": false,
      "inputs": [
        {
          "indexed": true,
          "internalType": "bytes32",
          "name": "role",
          "type": "bytes32"
        },
        {
          "indexed": true,
          "internalType": "address",
          "name": "account",
          "type": "address"
        },
        {
          "indexed": true,
          "internalType": "address",
          "name": "sender",
          "type": "address"
        }
      ],
      "name": "RoleRevoked",
      "type": "event"
    },
    {
      "anonymous": false,
      "inputs": [
        {
          "indexed": true,
          "internalType": "address",
          "name": "from",
          "type": "address"
        },
        {
          "indexed": true,
          "internalType": "address",
          "name": "to",
          "type": "address"
        },
        {
          "indexed": true,
          "internalType": "uint256",
          "name": "tokenId",
          "type": "uint256"
        }
      ],
      "name": "Transfer",
      "type": "event"
    },
    {
      "anonymous": false,
      "inputs": [
        {
          "indexed": true,
          "internalType": "uint256",
          "name": "tokenId",
          "type": "uint256"
        },
        {
          "indexed": true,
          "internalType": "address",
          "name": "seller",
          "type": "address"
        },
        {
          "indexed": true,
          "internalType": "address",
          "name": "buyer",
          "type": "address"
        }
      ],
      "name": "TransferCompleted",
      "type": "event"
    },
    {
      "anonymous": false,
      "inputs": [
        {
          "indexed": true,
          "internalType": "uint256",
          "name": "tokenId",
          "type": "uint256"
        },
        {
          "indexed": true,
          "internalType": "address",
          "name": "seller",
          "type": "address"
        },
        {
          "indexed": true,
          "internalType": "address",
          "name": "buyer",
          "type": "address"
        }
      ],
      "name": "TransferProposed",
      "type": "event"
    },
    {
      "inputs": [],
      "name": "ADMIN_BPN_ROLE",
      "outputs": [
        {
          "internalType": "bytes32",
          "name": "",
          "type": "bytes32"
        }
      ],
      "stateMutability": "view",
      "type": "function"
    },
    {
      "inputs": [],
      "name": "AUDITOR_ROLE",
      "outputs": [
        {
          "internalType": "bytes32",
          "name": "",
          "type": "bytes32"
        }
      ],
      "stateMutability": "view",
      "type": "function"
    },
    {
      "inputs": [],
      "name": "BPN_WILAYAH_ROLE",
      "outputs": [
        {
          "internalType": "bytes32",
          "name": "",
          "type": "bytes32"
        }
      ],
      "stateMutability": "view",
      "type": "function"
    },
    {
      "inputs": [],
      "name": "DEFAULT_ADMIN_ROLE",
      "outputs": [
        {
          "internalType": "bytes32",
          "name": "",
          "type": "bytes32"
        }
      ],
      "stateMutability": "view",
      "type": "function"
    },
    {
      "inputs": [],
      "name": "NOTARIS_ROLE",
      "outputs": [
        {
          "internalType": "bytes32",
          "name": "",
          "type": "bytes32"
        }
      ],
      "stateMutability": "view",
      "type": "function"
    },
    {
      "inputs": [
        {
          "internalType": "address",
          "name": "to",
          "type": "address"
        },
        {
          "internalType": "uint256",
          "name": "tokenId",
          "type": "uint256"
        }
      ],
      "name": "approve",
      "outputs": [],
      "stateMutability": "nonpayable",
      "type": "function"
    },
    {
      "inputs": [
        {
          "internalType": "uint256",
          "name": "requestId",
          "type": "uint256"
        }
      ],
      "name": "approveLandRequest",
      "outputs": [],
      "stateMutability": "nonpayable",
      "type": "function"
    },
    {
      "inputs": [
        {
          "internalType": "uint256",
          "name": "tokenId",
          "type": "uint256"
        }
      ],
      "name": "approveTransferBuyer",
      "outputs": [],
      "stateMutability": "nonpayable",
      "type": "function"
    },
    {
      "inputs": [
        {
          "internalType": "uint256",
          "name": "tokenId",
          "type": "uint256"
        },
        {
          "internalType": "string",
          "name": "ajbIpfsHash",
          "type": "string"
        }
      ],
      "name": "approveTransferNotaris",
      "outputs": [],
      "stateMutability": "nonpayable",
      "type": "function"
    },
    {
      "inputs": [
        {
          "internalType": "address",
          "name": "owner",
          "type": "address"
        }
      ],
      "name": "balanceOf",
      "outputs": [
        {
          "internalType": "uint256",
          "name": "",
          "type": "uint256"
        }
      ],
      "stateMutability": "view",
      "type": "function"
    },
    {
      "inputs": [
        {
          "internalType": "uint256",
          "name": "tokenId",
          "type": "uint256"
        }
      ],
      "name": "cancelTransfer",
      "outputs": [],
      "stateMutability": "nonpayable",
      "type": "function"
    },
    {
      "inputs": [
        {
          "internalType": "uint256",
          "name": "tokenId",
          "type": "uint256"
        }
      ],
      "name": "getApproved",
      "outputs": [
        {
          "internalType": "address",
          "name": "",
          "type": "address"
        }
      ],
      "stateMutability": "view",
      "type": "function"
    },
    {
      "inputs": [
        {
          "internalType": "uint256",
          "name": "tokenId",
          "type": "uint256"
        }
      ],
      "name": "getLandDetails",
      "outputs": [
        {
          "components": [
            {
              "internalType": "string",
              "name": "gpsCoordinates",
              "type": "string"
            },
            {
              "internalType": "uint256",
              "name": "area",
              "type": "uint256"
            },
            {
              "internalType": "string",
              "name": "nib",
              "type": "string"
            },
            {
              "internalType": "string[]",
              "name": "ipfsHashes",
              "type": "string[]"
            },
            {
              "internalType": "bool",
              "name": "isDisputed",
              "type": "bool"
            }
          ],
          "internalType": "struct LandRegistry.Land",
          "name": "",
          "type": "tuple"
        }
      ],
      "stateMutability": "view",
      "type": "function"
    },
    {
      "inputs": [
        {
          "internalType": "uint256",
          "name": "tokenId",
          "type": "uint256"
        }
      ],
      "name": "getOwnershipHistory",
      "outputs": [
        {
          "internalType": "address[]",
          "name": "",
          "type": "address[]"
        }
      ],
      "stateMutability": "view",
      "type": "function"
    },
    {
      "inputs": [
        {
          "internalType": "uint256",
          "name": "requestId",
          "type": "uint256"
        }
      ],
      "name": "getRequestDetails",
      "outputs": [
        {
          "components": [
            {
              "internalType": "address",
              "name": "to",
              "type": "address"
            },
            {
              "internalType": "string",
              "name": "gpsCoordinates",
              "type": "string"
            },
            {
              "internalType": "uint256",
              "name": "area",
              "type": "uint256"
            },
            {
              "internalType": "string",
              "name": "nib",
              "type": "string"
            },
            {
              "internalType": "string[]",
              "name": "ipfsHashes",
              "type": "string[]"
            },
            {
              "internalType": "bool",
              "name": "isProcessed",
              "type": "bool"
            },
            {
              "internalType": "bool",
              "name": "isRejected",
              "type": "bool"
            }
          ],
          "internalType": "struct LandRegistry.LandRequest",
          "name": "",
          "type": "tuple"
        }
      ],
      "stateMutability": "view",
      "type": "function"
    },
    {
      "inputs": [
        {
          "internalType": "bytes32",
          "name": "role",
          "type": "bytes32"
        }
      ],
      "name": "getRoleAdmin",
      "outputs": [
        {
          "internalType": "bytes32",
          "name": "",
          "type": "bytes32"
        }
      ],
      "stateMutability": "view",
      "type": "function"
    },
    {
      "inputs": [
        {
          "internalType": "string",
          "name": "nib",
          "type": "string"
        }
      ],
      "name": "getTokenByNIB",
      "outputs": [
        {
          "internalType": "uint256",
          "name": "tokenId",
          "type": "uint256"
        },
        {
          "internalType": "bool",
          "name": "found",
          "type": "bool"
        }
      ],
      "stateMutability": "view",
      "type": "function"
    },
    {
      "inputs": [
        {
          "internalType": "address",
          "name": "owner",
          "type": "address"
        }
      ],
      "name": "getTokensByOwner",
      "outputs": [
        {
          "internalType": "uint256[]",
          "name": "",
          "type": "uint256[]"
        }
      ],
      "stateMutability": "view",
      "type": "function"
    },
    {
      "inputs": [],
      "name": "getTotalLands",
      "outputs": [
        {
          "internalType": "uint256",
          "name": "",
          "type": "uint256"
        }
      ],
      "stateMutability": "view",
      "type": "function"
    },
    {
      "inputs": [],
      "name": "getTotalRequests",
      "outputs": [
        {
          "internalType": "uint256",
          "name": "",
          "type": "uint256"
        }
      ],
      "stateMutability": "view",
      "type": "function"
    },
    {
      "inputs": [
        {
          "internalType": "uint256",
          "name": "tokenId",
          "type": "uint256"
        }
      ],
      "name": "getTransferStatus",
      "outputs": [
        {
          "internalType": "bool",
          "name": "isActive",
          "type": "bool"
        },
        {
          "internalType": "address",
          "name": "seller",
          "type": "address"
        },
        {
          "internalType": "address",
          "name": "buyer",
          "type": "address"
        },
        {
          "internalType": "bool",
          "name": "sellerApproved",
          "type": "bool"
        },
        {
          "internalType": "bool",
          "name": "buyerApproved",
          "type": "bool"
        },
        {
          "internalType": "bool",
          "name": "notarisApproved",
          "type": "bool"
        }
      ],
      "stateMutability": "view",
      "type": "function"
    },
    {
      "inputs": [
        {
          "internalType": "bytes32",
          "name": "role",
          "type": "bytes32"
        },
        {
          "internalType": "address",
          "name": "account",
          "type": "address"
        }
      ],
      "name": "grantRole",
      "outputs": [],
      "stateMutability": "nonpayable",
      "type": "function"
    },
    {
      "inputs": [
        {
          "internalType": "bytes32",
          "name": "role",
          "type": "bytes32"
        },
        {
          "internalType": "address",
          "name": "account",
          "type": "address"
        }
      ],
      "name": "hasRole",
      "outputs": [
        {
          "internalType": "bool",
          "name": "",
          "type": "bool"
        }
      ],
      "stateMutability": "view",
      "type": "function"
    },
    {
      "inputs": [
        {
          "internalType": "address",
          "name": "owner",
          "type": "address"
        },
        {
          "internalType": "address",
          "name": "operator",
          "type": "address"
        }
      ],
      "name": "isApprovedForAll",
      "outputs": [
        {
          "internalType": "bool",
          "name": "",
          "type": "bool"
        }
      ],
      "stateMutability": "view",
      "type": "function"
    },
    {
      "inputs": [
        {
          "internalType": "uint256",
          "name": "",
          "type": "uint256"
        }
      ],
      "name": "landRequests",
      "outputs": [
        {
          "internalType": "address",
          "name": "to",
          "type": "address"
        },
        {
          "internalType": "string",
          "name": "gpsCoordinates",
          "type": "string"
        },
        {
          "internalType": "uint256",
          "name": "area",
          "type": "uint256"
        },
        {
          "internalType": "string",
          "name": "nib",
          "type": "string"
        },
        {
          "internalType": "bool",
          "name": "isProcessed",
          "type": "bool"
        },
        {
          "internalType": "bool",
          "name": "isRejected",
          "type": "bool"
        }
      ],
      "stateMutability": "view",
      "type": "function"
    },
    {
      "inputs": [
        {
          "internalType": "uint256",
          "name": "",
          "type": "uint256"
        }
      ],
      "name": "lands",
      "outputs": [
        {
          "internalType": "string",
          "name": "gpsCoordinates",
          "type": "string"
        },
        {
          "internalType": "uint256",
          "name": "area",
          "type": "uint256"
        },
        {
          "internalType": "string",
          "name": "nib",
          "type": "string"
        },
        {
          "internalType": "bool",
          "name": "isDisputed",
          "type": "bool"
        }
      ],
      "stateMutability": "view",
      "type": "function"
    },
    {
      "inputs": [
        {
          "internalType": "address",
          "name": "to",
          "type": "address"
        },
        {
          "internalType": "string",
          "name": "gpsCoordinates",
          "type": "string"
        },
        {
          "internalType": "uint256",
          "name": "area",
          "type": "uint256"
        },
        {
          "internalType": "string",
          "name": "nib",
          "type": "string"
        },
        {
          "internalType": "string[]",
          "name": "ipfsHashes",
          "type": "string[]"
        }
      ],
      "name": "mintLand",
      "outputs": [],
      "stateMutability": "nonpayable",
      "type": "function"
    },
    {
      "inputs": [],
      "name": "name",
      "outputs": [
        {
          "internalType": "string",
          "name": "",
          "type": "string"
        }
      ],
      "stateMutability": "view",
      "type": "function"
    },
    {
      "inputs": [
        {
          "internalType": "uint256",
          "name": "tokenId",
          "type": "uint256"
        }
      ],
      "name": "ownerOf",
      "outputs": [
        {
          "internalType": "address",
          "name": "",
          "type": "address"
        }
      ],
      "stateMutability": "view",
      "type": "function"
    },
    {
      "inputs": [
        {
          "internalType": "uint256",
          "name": "",
          "type": "uint256"
        },
        {
          "internalType": "uint256",
          "name": "",
          "type": "uint256"
        }
      ],
      "name": "ownershipHistory",
      "outputs": [
        {
          "internalType": "address",
          "name": "",
          "type": "address"
        }
      ],
      "stateMutability": "view",
      "type": "function"
    },
    {
      "inputs": [
        {
          "internalType": "uint256",
          "name": "tokenId",
          "type": "uint256"
        },
        {
          "internalType": "address",
          "name": "buyer",
          "type": "address"
        }
      ],
      "name": "proposeTransfer",
      "outputs": [],
      "stateMutability": "nonpayable",
      "type": "function"
    },
    {
      "inputs": [
        {
          "internalType": "uint256",
          "name": "requestId",
          "type": "uint256"
        }
      ],
      "name": "rejectLandRequest",
      "outputs": [],
      "stateMutability": "nonpayable",
      "type": "function"
    },
    {
      "inputs": [
        {
          "internalType": "bytes32",
          "name": "role",
          "type": "bytes32"
        },
        {
          "internalType": "address",
          "name": "callerConfirmation",
          "type": "address"
        }
      ],
      "name": "renounceRole",
      "outputs": [],
      "stateMutability": "nonpayable",
      "type": "function"
    },
    {
      "inputs": [
        {
          "internalType": "address",
          "name": "to",
          "type": "address"
        },
        {
          "internalType": "string",
          "name": "gpsCoordinates",
          "type": "string"
        },
        {
          "internalType": "uint256",
          "name": "area",
          "type": "uint256"
        },
        {
          "internalType": "string",
          "name": "nib",
          "type": "string"
        },
        {
          "internalType": "string[]",
          "name": "ipfsHashes",
          "type": "string[]"
        }
      ],
      "name": "requestLandMinting",
      "outputs": [],
      "stateMutability": "nonpayable",
      "type": "function"
    },
    {
      "inputs": [
        {
          "internalType": "bytes32",
          "name": "role",
          "type": "bytes32"
        },
        {
          "internalType": "address",
          "name": "account",
          "type": "address"
        }
      ],
      "name": "revokeRole",
      "outputs": [],
      "stateMutability": "nonpayable",
      "type": "function"
    },
    {
      "inputs": [
        {
          "internalType": "address",
          "name": "from",
          "type": "address"
        },
        {
          "internalType": "address",
          "name": "to",
          "type": "address"
        },
        {
          "internalType": "uint256",
          "name": "tokenId",
          "type": "uint256"
        }
      ],
      "name": "safeTransferFrom",
      "outputs": [],
      "stateMutability": "nonpayable",
      "type": "function"
    },
    {
      "inputs": [
        {
          "internalType": "address",
          "name": "from",
          "type": "address"
        },
        {
          "internalType": "address",
          "name": "to",
          "type": "address"
        },
        {
          "internalType": "uint256",
          "name": "tokenId",
          "type": "uint256"
        },
        {
          "internalType": "bytes",
          "name": "data",
          "type": "bytes"
        }
      ],
      "name": "safeTransferFrom",
      "outputs": [],
      "stateMutability": "nonpayable",
      "type": "function"
    },
    {
      "inputs": [
        {
          "internalType": "address",
          "name": "operator",
          "type": "address"
        },
        {
          "internalType": "bool",
          "name": "approved",
          "type": "bool"
        }
      ],
      "name": "setApprovalForAll",
      "outputs": [],
      "stateMutability": "nonpayable",
      "type": "function"
    },
    {
      "inputs": [
        {
          "internalType": "uint256",
          "name": "tokenId",
          "type": "uint256"
        },
        {
          "internalType": "bool",
          "name": "isDisputed",
          "type": "bool"
        }
      ],
      "name": "setEnforcement",
      "outputs": [],
      "stateMutability": "nonpayable",
      "type": "function"
    },
    {
      "inputs": [
        {
          "internalType": "bytes4",
          "name": "interfaceId",
          "type": "bytes4"
        }
      ],
      "name": "supportsInterface",
      "outputs": [
        {
          "internalType": "bool",
          "name": "",
          "type": "bool"
        }
      ],
      "stateMutability": "view",
      "type": "function"
    },
    {
      "inputs": [],
      "name": "symbol",
      "outputs": [
        {
          "internalType": "string",
          "name": "",
          "type": "string"
        }
      ],
      "stateMutability": "view",
      "type": "function"
    },
    {
      "inputs": [
        {
          "internalType": "uint256",
          "name": "tokenId",
          "type": "uint256"
        }
      ],
      "name": "tokenURI",
      "outputs": [
        {
          "internalType": "string",
          "name": "",
          "type": "string"
        }
      ],
      "stateMutability": "view",
      "type": "function"
    },
    {
      "inputs": [
        {
          "internalType": "address",
          "name": "from",
          "type": "address"
        },
        {
          "internalType": "address",
          "name": "to",
          "type": "address"
        },
        {
          "internalType": "uint256",
          "name": "tokenId",
          "type": "uint256"
        }
      ],
      "name": "transferFrom",
      "outputs": [],
      "stateMutability": "nonpayable",
      "type": "function"
    },
    {
      "inputs": [
        {
          "internalType": "uint256",
          "name": "",
          "type": "uint256"
        }
      ],
      "name": "transferRequests",
      "outputs": [
        {
          "internalType": "address",
          "name": "seller",
          "type": "address"
        },
        {
          "internalType": "address",
          "name": "buyer",
          "type": "address"
        },
        {
          "internalType": "address",
          "name": "notaris",
          "type": "address"
        },
        {
          "internalType": "bool",
          "name": "sellerApproved",
          "type": "bool"
        },
        {
          "internalType": "bool",
          "name": "buyerApproved",
          "type": "bool"
        },
        {
          "internalType": "bool",
          "name": "notarisApproved",
          "type": "bool"
        },
        {
          "internalType": "bool",
          "name": "isActive",
          "type": "bool"
        }
      ],
      "stateMutability": "view",
      "type": "function"
    }
  ],
  "bytecode": "0x608060405234801562000010575f80fd5b50604051806040016040528060098152602001682630b7322a37b5b2b760b91b8152506040518060400160405280600381526020016213139160ea1b815250815f90816200005f91906200022e565b5060016200006e82826200022e565b506200007f91505f905033620000e0565b50620000ac7f9856acbf9ca422c521e08bc1d8e706e2db0b5830f4d56f698b78d8c01c86949133620000e0565b50620000d97f3b6c71f6d44639d5b3e40f2ef3056c3385a1e68a255a703ac23442c1c3be357d33620000e0565b50620002fa565b5f8281526006602090815260408083206001600160a01b038516845290915281205460ff1662000187575f8381526006602090815260408083206001600160a01b03861684529091529020805460ff191660011790556200013e3390565b6001600160a01b0316826001600160a01b0316847f2f8788117e7eff1d82e926ec794901d17c78024a50270940304540a733656f0d60405160405180910390a45060016200018a565b505f5b92915050565b634e487b7160e01b5f52604160045260245ffd5b600181811c90821680620001b957607f821691505b602082108103620001d857634e487b7160e01b5f52602260045260245ffd5b50919050565b601f8211156200022957805f5260205f20601f840160051c81016020851015620002055750805b601f840160051c820191505b8181101562000226575f815560010162000211565b50505b505050565b81516001600160401b038111156200024a576200024a62000190565b62000262816200025b8454620001a4565b84620001de565b602080601f83116001811462000298575f8415620002805750858301515b5f19600386901b1c1916600185901b178555620002f2565b5f85815260208120601f198616915b82811015620002c857888601518255948401946001909101908401620002a7565b5085821015620002e657878501515f19600388901b60f8161c191681555b505060018460011b0185555b505050505050565b6138e880620003085f395ff3fe608060405234801561000f575f80fd5b506004361061026b575f3560e01c806370a082311161014b578063c87b56dd116100bf578063e8b185da11610084578063e8b185da1461071e578063e985e9c514610731578063f0e22d5214610744578063f1dbaccb1461074c578063f34d4c631461076c578063fe0cb7dc1461078c575f80fd5b8063c87b56dd146106af578063c89a2bd9146106c2578063c9cf2adc146106d5578063d547741f146106e8578063e261f1e5146106fb575f80fd5b806391d148541161011057806391d14854146105c057806395d89b41146105d3578063a217fddf146105db578063a22cb465146105e2578063b88d4fde146105f5578063b93c377014610608575f80fd5b806370a0823114610557578063842e7dba1461056a57806386bde3d114610572578063875cfe3b146105855780638ec455e314610599575f80fd5b806336568abe116101e257806359caecb5116101a757806359caecb5146104aa5780635e621479146104bd5780636243f051146104e55780636352211e146104f85780636a29b8d71461050b5780636e1d616e14610530575f80fd5b806336568abe1461042a57806340398d671461043d57806342842e0e1461045d5780634445ac4d146104705780635911b80814610483575f80fd5b8063095ea7b311610233578063095ea7b31461039b57806309d4a345146103ae5780631b362b05146103c157806323b872dd146103d4578063248a9ca3146103e75780632f2ff15d14610417575f80fd5b806301ffc9a71461026f57806303486c401461029757806306fdde031461034657806307407dd81461035b578063081812fc14610370575b5f80fd5b61028261027d366004612ddc565b6107ac565b60405190151581526020015b60405180910390f35b6102fc6102a5366004612df7565b600b6020525f90815260409020805460018201546002909201546001600160a01b039182169282169181169060ff600160a01b8204811691600160a81b8104821691600160b01b8204811691600160b81b90041687565b604080516001600160a01b03988916815296881660208801529490961693850193909352901515606084015215156080830152151560a082015290151560c082015260e00161028e565b61034e6107bc565b60405161028e9190612e5b565b61036e610369366004612f39565b61084b565b005b61038361037e366004612df7565b6109b1565b6040516001600160a01b03909116815260200161028e565b61036e6103a9366004613059565b6109d8565b61036e6103bc366004612df7565b6109e7565b61036e6103cf366004613097565b610aea565b61036e6103e23660046130c1565b610b97565b6104096103f5366004612df7565b5f9081526006602052604090206001015490565b60405190815260200161028e565b61036e6104253660046130ff565b610c20565b61036e6104383660046130ff565b610c44565b61045061044b36600461312d565b610c7c565b60405161028e9190613148565b61036e61046b3660046130c1565b610e23565b61036e61047e366004612df7565b610e3d565b6104097f4e19be690c034b73b896a80e4645324b1ada2a2d102cf965cd497dd07f3a195081565b61036e6104b8366004612df7565b611271565b6104d06104cb36600461318b565b61131b565b6040805192835290151560208301520161028e565b61036e6104f3366004612f39565b611381565b610383610506366004612df7565b6114e1565b61051e610519366004612df7565b6114eb565b60405161028e969594939291906131bd565b6104097f59a1c48e5837ad7a7f3dcedcbe129bf3249ec4fbf651fd4f5e2600ead39fe2f581565b61040961056536600461312d565b61163b565b600754610409565b61036e6105803660046130ff565b611680565b6104095f8051602061389383398151915281565b6104097f3b6c71f6d44639d5b3e40f2ef3056c3385a1e68a255a703ac23442c1c3be357d81565b6102826105ce3660046130ff565b611886565b61034e6118b0565b6104095f81565b61036e6105f0366004613213565b6118bf565b61036e61060336600461323d565b6118ca565b61066e610616366004612df7565b5f908152600b602052604090206002810154815460019092015460ff600160b81b83048116946001600160a01b039485169490921692600160a01b8104821692600160a81b8204831692600160b01b90920490911690565b6040805196151587526001600160a01b03958616602088015293909416928501929092521515606084015215156080830152151560a082015260c00161028e565b61034e6106bd366004612df7565b6118e2565b61036e6106d03660046132b8565b611953565b6103836106e33660046132fc565b611af3565b61036e6106f63660046130ff565b611b27565b61070e610709366004612df7565b611b4b565b60405161028e949392919061331c565b61036e61072c366004612df7565b611c81565b61028261073f36600461335a565b611d8b565b600854610409565b61075f61075a366004612df7565b611db8565b60405161028e9190613386565b61077f61077a366004612df7565b611e21565b60405161028e919061341e565b61079f61079a366004612df7565b6120ba565b60405161028e91906134b4565b5f6107b682612318565b92915050565b60605f80546107ca9061352e565b80601f01602080910402602001604051908101604052809291908181526020018280546107f69061352e565b80156108415780601f1061081857610100808354040283529160200191610841565b820191905f5260205f20905b81548152906001019060200180831161082457829003601f168201915b5050505050905090565b7f3b6c71f6d44639d5b3e40f2ef3056c3385a1e68a255a703ac23442c1c3be357d6108758161233c565b600780545f918261088583613566565b909155506040805160a0810182528881526020808201899052818301889052606082018790525f60808301819052848152600a909152919091208151929350909181906108d290826135ce565b5060208201516001820155604082015160028201906108f190826135ce565b506060820151805161090d916003840191602090910190612d11565b50608091909101516004909101805460ff19169115159190911790556109338782612349565b5f818152600c602090815260408083208054600181018255908452919092200180546001600160a01b0319166001600160a01b038a16908117909155905182907fa30dd43fc057b356acd774161b6c8743df78c9bd58d7f492dd56d00121dda6b5906109a0908890612e5b565b60405180910390a350505050505050565b5f6109bb82612362565b505f828152600460205260409020546001600160a01b03166107b6565b6109e382823361239a565b5050565b5f818152600b602052604090206002810154600160b81b900460ff16610a285760405162461bcd60e51b8152600401610a1f9061368a565b60405180910390fd5b60018101546001600160a01b03163314610a745760405162461bcd60e51b815260206004820152600d60248201526c2737ba103a343290313abcb2b960991b6044820152606401610a1f565b5f828152600a602052604090206004015460ff1615610aa55760405162461bcd60e51b8152600401610a1f906136b6565b60028101805460ff60a81b1916600160a81b179055604051339083907fcf93094854a81f1a3d7c99633cff4dac98837e96ebc9d5529993dea33242cc67905f90a35050565b610b015f8051602061389383398151915233611886565b610b3e5760405162461bcd60e51b815260206004820152600e60248201526d139bdd08185d5d1a1bdc9a5e995960921b6044820152606401610a1f565b5f828152600a6020908152604091829020600401805460ff1916841515908117909155915191825283917f388370698ea03650624022e5f43e8cb1f902ba526ee8287ff865709bc3946437910160405180910390a25050565b6001600160a01b038216610bc057604051633250574960e11b81525f6004820152602401610a1f565b5f610bcc8383336123a7565b9050836001600160a01b0316816001600160a01b031614610c1a576040516364283d7b60e01b81526001600160a01b0380861660048301526024820184905282166044820152606401610a1f565b50505050565b5f82815260066020526040902060010154610c3a8161233c565b610c1a8383612499565b6001600160a01b0381163314610c6d5760405163334bd91960e11b815260040160405180910390fd5b610c77828261252a565b505050565b6007546060905f805b82811015610d1b576040516331a9108f60e11b8152600481018290523090636352211e90602401602060405180830381865afa925050508015610ce5575060408051601f3d908101601f19168201909252610ce2918101906136e2565b60015b15610d1357856001600160a01b0316816001600160a01b031603610d115782610d0d81613566565b9350505b505b600101610c85565b505f8167ffffffffffffffff811115610d3657610d36612e81565b604051908082528060200260200182016040528015610d5f578160200160208202803683370190505b5090505f805b84811015610e18576040516331a9108f60e11b8152600481018290523090636352211e90602401602060405180830381865afa925050508015610dc5575060408051601f3d908101601f19168201909252610dc2918101906136e2565b60015b15610e1057876001600160a01b0316816001600160a01b031603610e0e57818484610def81613566565b955081518110610e0157610e016136fd565b6020026020010181815250505b505b600101610d65565b509095945050505050565b610c7783838360405180602001604052805f8152506118ca565b5f80516020613893833981519152610e548161233c565b5f828152600960205260409020600581015460ff1615610eb25760405162461bcd60e51b815260206004820152601960248201527814995c5d595cdd08185b1c9958591e481c1c9bd8d95cdcd959603a1b6044820152606401610a1f565b6005810154610100900460ff1615610f075760405162461bcd60e51b815260206004820152601860248201527714995c5d595cdd08185b1c9958591e481c995a9958dd195960421b6044820152606401610a1f565b600780545f9182610f1783613566565b9190505590506040518060a00160405280836001018054610f379061352e565b80601f0160208091040260200160405190810160405280929190818152602001828054610f639061352e565b8015610fae5780601f10610f8557610100808354040283529160200191610fae565b820191905f5260205f20905b815481529060010190602001808311610f9157829003601f168201915b5050505050815260200183600201548152602001836003018054610fd19061352e565b80601f0160208091040260200160405190810160405280929190818152602001828054610ffd9061352e565b80156110485780601f1061101f57610100808354040283529160200191611048565b820191905f5260205f20905b81548152906001019060200180831161102b57829003601f168201915b5050505050815260200183600401805480602002602001604051908101604052809291908181526020015f905b8282101561111d578382905f5260205f200180546110929061352e565b80601f01602080910402602001604051908101604052809291908181526020018280546110be9061352e565b80156111095780601f106110e057610100808354040283529160200191611109565b820191905f5260205f20905b8154815290600101906020018083116110ec57829003601f168201915b505050505081526020019060010190611075565b505050908252505f6020918201819052838152600a909152604090208151819061114790826135ce565b50602082015160018201556040820151600282019061116690826135ce565b5060608201518051611182916003840191602090910190612d11565b50608091909101516004909101805491151560ff19928316179055600583018054909116600117905581546111c0906001600160a01b031682612349565b5f818152600c60209081526040808320855481546001810183559185529290932090920180546001600160a01b0319166001600160a01b039283161790558354915191169082907fa30dd43fc057b356acd774161b6c8743df78c9bd58d7f492dd56d00121dda6b590611237906003870190613711565b60405180910390a3604051819085907f80c07e5180f4a154e4adf43327ef47a76fdf66557ce3a828241bad33606d9186905f90a350505050565b5f818152600b602052604090206002810154600160b81b900460ff166112a95760405162461bcd60e51b8152600401610a1f9061368a565b80546001600160a01b03163314806112cd575060018101546001600160a01b031633145b61130a5760405162461bcd60e51b815260206004820152600e60248201526d139bdd08185d5d1a1bdc9a5e995960921b6044820152606401610a1f565b600201805460ff60b81b1916905550565b6007545f908190815b81811015611375578480519060200120600a5f8381526020019081526020015f20600201604051611355919061379b565b60405180910390200361136d57946001945092505050565b600101611324565b505f9485945092505050565b7f3b6c71f6d44639d5b3e40f2ef3056c3385a1e68a255a703ac23442c1c3be357d6113ab8161233c565b600880545f91826113bb83613566565b909155506040805160e0810182526001600160a01b038a8116825260208083018b81528385018b9052606084018a9052608084018990525f60a0850181905260c085018190528681526009909252939020825181546001600160a01b0319169216919091178155915192935091600182019061143790826135ce565b50604082015160028201556060820151600382019061145690826135ce565b5060808201518051611472916004840191602090910190612d11565b5060a08201516005909101805460c09093015115156101000261ff00199215159290921661ffff19909316929092171790556040516001600160a01b0388169082907f60a6f71d35a977ce4dc4493a5752edd1965b1f343bce0e351d88b5ac90c84247906109a0908890612e5b565b5f6107b682612362565b60096020525f9081526040902080546001820180546001600160a01b0390921692916115169061352e565b80601f01602080910402602001604051908101604052809291908181526020018280546115429061352e565b801561158d5780601f106115645761010080835404028352916020019161158d565b820191905f5260205f20905b81548152906001019060200180831161157057829003601f168201915b5050505050908060020154908060030180546115a89061352e565b80601f01602080910402602001604051908101604052809291908181526020018280546115d49061352e565b801561161f5780601f106115f65761010080835404028352916020019161161f565b820191905f5260205f20905b81548152906001019060200180831161160257829003601f168201915b5050506005909301549192505060ff8082169161010090041686565b5f6001600160a01b038216611665576040516322718ad960e21b81525f6004820152602401610a1f565b506001600160a01b03165f9081526003602052604090205490565b3361168a836114e1565b6001600160a01b0316146116d05760405162461bcd60e51b815260206004820152600d60248201526c2737ba103a34329037bbb732b960991b6044820152606401610a1f565b5f828152600a602052604090206004015460ff16156117015760405162461bcd60e51b8152600401610a1f906136b6565b5f828152600b6020526040902060020154600160b81b900460ff16156117625760405162461bcd60e51b8152602060048201526016602482015275416374697665207472616e736665722065786973747360501b6044820152606401610a1f565b6040805160e081018252338082526001600160a01b0384811660208085018281525f86880181815260016060890181815260808a0184815260a08b0185815260c08c018481528f8752600b9098528c86209b518c54908b166001600160a01b0319918216178d559651938c018054948b16949097169390931790955591516002909901805492519451915195511515600160b81b0260ff60b81b19961515600160b01b0260ff60b01b19931515600160a81b029390931661ffff60a81b19961515600160a01b026001600160a81b03199095169b9099169a909a179290921793909316959095179190911791909116949094179091559251909185917fc1d91ef3905e00972bebbb95768bc866bdc68d24a68dde011efaa8a39c879d5d9190a45050565b5f9182526006602090815260408084206001600160a01b0393909316845291905290205460ff1690565b6060600180546107ca9061352e565b6109e3338383612595565b6118d5848484610b97565b610c1a338585858561265c565b60606118ed82612362565b505f61190360408051602081019091525f815290565b90505f8151116119215760405180602001604052805f81525061194c565b8061192b84612784565b60405160200161193c92919061380d565b6040516020818303038152906040525b9392505050565b7f4e19be690c034b73b896a80e4645324b1ada2a2d102cf965cd497dd07f3a195061197d8161233c565b5f838152600b602052604090206002810154600160b81b900460ff166119b55760405162461bcd60e51b8152600401610a1f9061368a565b6002810154600160a01b900460ff1680156119db57506002810154600160a81b900460ff165b611a275760405162461bcd60e51b815260206004820152601f60248201527f53656c6c6572206f72206275796572206861736e277420617070726f766564006044820152606401610a1f565b5f848152600a602052604090206004015460ff1615611a585760405162461bcd60e51b8152600401610a1f906136b6565b60028101805460ff60b01b193316600162ff000160a01b031990911617600160b01b1790555f848152600a6020908152604082206003018054600181018255908352912001611aa784826135ce565b50336001600160a01b0316847fbb079a066630cab8761841cb47c7c4c785fb83cd31f23baf8e0c3fd317d9e52485604051611ae29190612e5b565b60405180910390a3610c1a84612815565b600c602052815f5260405f208181548110611b0c575f80fd5b5f918252602090912001546001600160a01b03169150829050565b5f82815260066020526040902060010154611b418161233c565b610c1a838361252a565b600a6020525f9081526040902080548190611b659061352e565b80601f0160208091040260200160405190810160405280929190818152602001828054611b919061352e565b8015611bdc5780601f10611bb357610100808354040283529160200191611bdc565b820191905f5260205f20905b815481529060010190602001808311611bbf57829003601f168201915b505050505090806001015490806002018054611bf79061352e565b80601f0160208091040260200160405190810160405280929190818152602001828054611c239061352e565b8015611c6e5780601f10611c4557610100808354040283529160200191611c6e565b820191905f5260205f20905b815481529060010190602001808311611c5157829003601f168201915b5050506004909301549192505060ff1684565b5f80516020613893833981519152611c988161233c565b5f828152600960205260409020600581015460ff1615611cf65760405162461bcd60e51b815260206004820152601960248201527814995c5d595cdd08185b1c9958591e481c1c9bd8d95cdcd959603a1b6044820152606401610a1f565b6005810154610100900460ff1615611d4b5760405162461bcd60e51b815260206004820152601860248201527714995c5d595cdd08185b1c9958591e481c995a9958dd195960421b6044820152606401610a1f565b60058101805461ff00191661010017905560405183907fad423fb43b7443196fd254deba8687812bcdc897e7490d594b86c44891a612b1905f90a2505050565b6001600160a01b039182165f90815260056020908152604080832093909416825291909152205460ff1690565b5f818152600c6020908152604091829020805483518184028101840190945280845260609392830182828015611e1557602002820191905f5260205f20905b81546001600160a01b03168152600190910190602001808311611df7575b50505050509050919050565b611e6a6040518060e001604052805f6001600160a01b03168152602001606081526020015f815260200160608152602001606081526020015f151581526020015f151581525090565b5f82815260096020908152604091829020825160e0810190935280546001600160a01b031683526001810180549192840191611ea59061352e565b80601f0160208091040260200160405190810160405280929190818152602001828054611ed19061352e565b8015611f1c5780601f10611ef357610100808354040283529160200191611f1c565b820191905f5260205f20905b815481529060010190602001808311611eff57829003601f168201915b5050505050815260200160028201548152602001600382018054611f3f9061352e565b80601f0160208091040260200160405190810160405280929190818152602001828054611f6b9061352e565b8015611fb65780601f10611f8d57610100808354040283529160200191611fb6565b820191905f5260205f20905b815481529060010190602001808311611f9957829003601f168201915b5050505050815260200160048201805480602002602001604051908101604052809291908181526020015f905b8282101561208b578382905f5260205f200180546120009061352e565b80601f016020809104026020016040519081016040528092919081815260200182805461202c9061352e565b80156120775780601f1061204e57610100808354040283529160200191612077565b820191905f5260205f20905b81548152906001019060200180831161205a57829003601f168201915b505050505081526020019060010190611fe3565b505050908252506005919091015460ff8082161515602084015261010090910416151560409091015292915050565b6120ec6040518060a00160405280606081526020015f815260200160608152602001606081526020015f151581525090565b5f828152600a602052604090819020815160a081019092528054829082906121139061352e565b80601f016020809104026020016040519081016040528092919081815260200182805461213f9061352e565b801561218a5780601f106121615761010080835404028352916020019161218a565b820191905f5260205f20905b81548152906001019060200180831161216d57829003601f168201915b50505050508152602001600182015481526020016002820180546121ad9061352e565b80601f01602080910402602001604051908101604052809291908181526020018280546121d99061352e565b80156122245780601f106121fb57610100808354040283529160200191612224565b820191905f5260205f20905b81548152906001019060200180831161220757829003601f168201915b5050505050815260200160038201805480602002602001604051908101604052809291908181526020015f905b828210156122f9578382905f5260205f2001805461226e9061352e565b80601f016020809104026020016040519081016040528092919081815260200182805461229a9061352e565b80156122e55780601f106122bc576101008083540402835291602001916122e5565b820191905f5260205f20905b8154815290600101906020018083116122c857829003601f168201915b505050505081526020019060010190612251565b505050908252506004919091015460ff16151560209091015292915050565b5f6001600160e01b03198216637965db0b60e01b14806107b657506107b6826128c1565b6123468133612910565b50565b6109e3828260405180602001604052805f815250612949565b5f818152600260205260408120546001600160a01b0316806107b657604051637e27328960e01b815260048101849052602401610a1f565b610c778383836001612960565b5f828152600260205260408120546001600160a01b03908116908316156123d3576123d3818486612a64565b6001600160a01b0381161561240d576123ee5f855f80612960565b6001600160a01b0381165f90815260036020526040902080545f190190555b6001600160a01b0385161561243b576001600160a01b0385165f908152600360205260409020805460010190555b5f8481526002602052604080822080546001600160a01b0319166001600160a01b0389811691821790925591518793918516917fddf252ad1be2c89b69c2b068fc378daa952ba7f163c4a11628f55a4df523b3ef91a4949350505050565b5f6124a48383611886565b612523575f8381526006602090815260408083206001600160a01b03861684529091529020805460ff191660011790556124db3390565b6001600160a01b0316826001600160a01b0316847f2f8788117e7eff1d82e926ec794901d17c78024a50270940304540a733656f0d60405160405180910390a45060016107b6565b505f6107b6565b5f6125358383611886565b15612523575f8381526006602090815260408083206001600160a01b0386168085529252808320805460ff1916905551339286917ff6391f5c32d9c69d2a47ea670b442974b53935d1edc7fd64eb21e047a839171b9190a45060016107b6565b6001600160a01b0383166125be5760405163a9fbf51f60e01b81525f6004820152602401610a1f565b6001600160a01b0382166125f057604051630b61174360e31b81526001600160a01b0383166004820152602401610a1f565b6001600160a01b038381165f81815260056020908152604080832094871680845294825291829020805460ff191686151590811790915591519182527f17307eab39ab6107e8899845ad3d59bd9653f200f220920489ca2b5937696c31910160405180910390a3505050565b6001600160a01b0383163b1561277d57604051630a85bd0160e11b81526001600160a01b0384169063150b7a029061269e90889088908790879060040161383b565b6020604051808303815f875af19250505080156126d8575060408051601f3d908101601f191682019092526126d591810190613877565b60015b61273f573d808015612705576040519150601f19603f3d011682016040523d82523d5f602084013e61270a565b606091505b5080515f0361273757604051633250574960e11b81526001600160a01b0385166004820152602401610a1f565b805160208201fd5b6001600160e01b03198116630a85bd0160e11b1461277b57604051633250574960e11b81526001600160a01b0385166004820152602401610a1f565b505b5050505050565b60605f61279083612ac8565b60010190505f8167ffffffffffffffff8111156127af576127af612e81565b6040519080825280601f01601f1916602001820160405280156127d9576020820181803683370190505b5090508181016020015b5f19016f181899199a1a9b1b9c1cb0b131b232b360811b600a86061a8153600a85049450846127e3575b509392505050565b5f818152600b602052604090208054600182015460028301805460ff60b81b191690556001600160a01b039182169116612850828286612b9f565b5f848152600c60209081526040808320805460018101825590845291832090910180546001600160a01b0319166001600160a01b03858116918217909255915191929085169187917fe30f4d2a28a67cdb8856ab10670990536f9e43edbec16c6c9094a931a58bce9591a450505050565b5f6001600160e01b031982166380ac58cd60e01b14806128f157506001600160e01b03198216635b5e139f60e01b145b806107b657506301ffc9a760e01b6001600160e01b03198316146107b6565b61291a8282611886565b6109e35760405163e2517d3f60e01b81526001600160a01b038216600482015260248101839052604401610a1f565b6129538383612c4c565b610c77335f85858561265c565b808061297457506001600160a01b03821615155b15612a35575f61298384612362565b90506001600160a01b038316158015906129af5750826001600160a01b0316816001600160a01b031614155b80156129c257506129c08184611d8b565b155b156129eb5760405163a9fbf51f60e01b81526001600160a01b0384166004820152602401610a1f565b8115612a335783856001600160a01b0316826001600160a01b03167f8c5be1e5ebec7d5bd14f71427d1e84f3dd0314c0f7b2291e5b200ac8c7c3b92560405160405180910390a45b505b50505f90815260046020526040902080546001600160a01b0319166001600160a01b0392909216919091179055565b612a6f838383612cad565b610c77576001600160a01b038316612a9d57604051637e27328960e01b815260048101829052602401610a1f565b60405163177e802f60e01b81526001600160a01b038316600482015260248101829052604401610a1f565b5f8072184f03e93ff9f4daa797ed6e38ed64bf6a1f0160401b8310612b065772184f03e93ff9f4daa797ed6e38ed64bf6a1f0160401b830492506040015b6d04ee2d6d415b85acef81000000008310612b32576d04ee2d6d415b85acef8100000000830492506020015b662386f26fc100008310612b5057662386f26fc10000830492506010015b6305f5e1008310612b68576305f5e100830492506008015b6127108310612b7c57612710830492506004015b60648310612b8e576064830492506002015b600a83106107b65760010192915050565b6001600160a01b038216612bc857604051633250574960e11b81525f6004820152602401610a1f565b5f612bd483835f6123a7565b90506001600160a01b038116612c0057604051637e27328960e01b815260048101839052602401610a1f565b836001600160a01b0316816001600160a01b031614610c1a576040516364283d7b60e01b81526001600160a01b0380861660048301526024820184905282166044820152606401610a1f565b6001600160a01b038216612c7557604051633250574960e11b81525f6004820152602401610a1f565b5f612c8183835f6123a7565b90506001600160a01b03811615610c77576040516339e3563760e11b81525f6004820152602401610a1f565b5f6001600160a01b03831615801590612d095750826001600160a01b0316846001600160a01b03161480612ce65750612ce68484611d8b565b80612d0957505f828152600460205260409020546001600160a01b038481169116145b949350505050565b828054828255905f5260205f20908101928215612d55579160200282015b82811115612d555782518290612d4590826135ce565b5091602001919060010190612d2f565b50612d61929150612d65565b5090565b80821115612d61575f612d788282612d81565b50600101612d65565b508054612d8d9061352e565b5f825580601f10612d9c575050565b601f0160209004905f5260205f209081019061234691905b80821115612d61575f8155600101612db4565b6001600160e01b031981168114612346575f80fd5b5f60208284031215612dec575f80fd5b813561194c81612dc7565b5f60208284031215612e07575f80fd5b5035919050565b5f5b83811015612e28578181015183820152602001612e10565b50505f910152565b5f8151808452612e47816020860160208601612e0e565b601f01601f19169290920160200192915050565b602081525f61194c6020830184612e30565b6001600160a01b0381168114612346575f80fd5b634e487b7160e01b5f52604160045260245ffd5b604051601f8201601f1916810167ffffffffffffffff81118282101715612ebe57612ebe612e81565b604052919050565b5f67ffffffffffffffff831115612edf57612edf612e81565b612ef2601f8401601f1916602001612e95565b9050828152838383011115612f05575f80fd5b828260208301375f602084830101529392505050565b5f82601f830112612f2a575f80fd5b61194c83833560208501612ec6565b5f805f805f60a08688031215612f4d575f80fd5b8535612f5881612e6d565b945060208681013567ffffffffffffffff80821115612f75575f80fd5b612f818a838b01612f1b565b9650604089013595506060890135915080821115612f9d575f80fd5b612fa98a838b01612f1b565b94506080890135915080821115612fbe575f80fd5b818901915089601f830112612fd1575f80fd5b813581811115612fe357612fe3612e81565b8060051b612ff2858201612e95565b918252838101850191858101908d84111561300b575f80fd5b86860192505b8383101561304557823585811115613027575f80fd5b6130358f89838a0101612f1b565b8352509186019190860190613011565b809750505050505050509295509295909350565b5f806040838503121561306a575f80fd5b823561307581612e6d565b946020939093013593505050565b80358015158114613092575f80fd5b919050565b5f80604083850312156130a8575f80fd5b823591506130b860208401613083565b90509250929050565b5f805f606084860312156130d3575f80fd5b83356130de81612e6d565b925060208401356130ee81612e6d565b929592945050506040919091013590565b5f8060408385031215613110575f80fd5b82359150602083013561312281612e6d565b809150509250929050565b5f6020828403121561313d575f80fd5b813561194c81612e6d565b602080825282518282018190525f9190848201906040850190845b8181101561317f57835183529284019291840191600101613163565b50909695505050505050565b5f6020828403121561319b575f80fd5b813567ffffffffffffffff8111156131b1575f80fd5b612d0984828501612f1b565b6001600160a01b038716815260c0602082018190525f906131e090830188612e30565b86604084015282810360608401526131f88187612e30565b9415156080840152505090151560a090910152949350505050565b5f8060408385031215613224575f80fd5b823561322f81612e6d565b91506130b860208401613083565b5f805f8060808587031215613250575f80fd5b843561325b81612e6d565b9350602085013561326b81612e6d565b925060408501359150606085013567ffffffffffffffff81111561328d575f80fd5b8501601f8101871361329d575f80fd5b6132ac87823560208401612ec6565b91505092959194509250565b5f80604083850312156132c9575f80fd5b82359150602083013567ffffffffffffffff8111156132e6575f80fd5b6132f285828601612f1b565b9150509250929050565b5f806040838503121561330d575f80fd5b50508035926020909101359150565b608081525f61332e6080830187612e30565b85602084015282810360408401526133468186612e30565b915050821515606083015295945050505050565b5f806040838503121561336b575f80fd5b823561337681612e6d565b9150602083013561312281612e6d565b602080825282518282018190525f9190848201906040850190845b8181101561317f5783516001600160a01b0316835292840192918401916001016133a1565b5f8282518085526020808601955060208260051b840101602086015f5b8481101561341157601f198684030189526133ff838351612e30565b988401989250908301906001016133e3565b5090979650505050505050565b602080825282516001600160a01b03168282015282015160e060408301525f9061344c610100840182612e30565b9050604084015160608401526060840151601f19808584030160808601526134748383612e30565b925060808601519150808584030160a08601525061349282826133c6565b91505060a0840151151560c084015260c084015161280d60e085018215159052565b602081525f825160a060208401526134cf60c0840182612e30565b9050602084015160408401526040840151601f19808584030160608601526134f78383612e30565b925060608601519150808584030160808601525061351582826133c6565b9150506080840151151560a08401528091505092915050565b600181811c9082168061354257607f821691505b60208210810361356057634e487b7160e01b5f52602260045260245ffd5b50919050565b5f6001820161358357634e487b7160e01b5f52601160045260245ffd5b5060010190565b601f821115610c7757805f5260205f20601f840160051c810160208510156135af5750805b601f840160051c820191505b8181101561277d575f81556001016135bb565b815167ffffffffffffffff8111156135e8576135e8612e81565b6135fc816135f6845461352e565b8461358a565b602080601f83116001811461362f575f84156136185750858301515b5f19600386901b1c1916600185901b17855561277b565b5f85815260208120601f198616915b8281101561365d5788860151825594840194600190910190840161363e565b508582101561367a57878501515f19600388901b60f8161c191681555b5050505050600190811b01905550565b60208082526012908201527127379030b1ba34bb32903a3930b739b332b960711b604082015260600190565b6020808252601290820152714c616e6420697320696e206469737075746560701b604082015260600190565b5f602082840312156136f2575f80fd5b815161194c81612e6d565b634e487b7160e01b5f52603260045260245ffd5b5f60208083525f84546137238161352e565b806020870152604060018084165f811461374457600181146137605761378d565b60ff19851660408a0152604084151560051b8a0101955061378d565b895f5260205f205f5b858110156137845781548b8201860152908301908801613769565b8a016040019650505b509398975050505050505050565b5f8083546137a88161352e565b600182811680156137c057600181146137d557613801565b60ff1984168752821515830287019450613801565b875f526020805f205f5b858110156137f85781548a8201529084019082016137df565b50505082870194505b50929695505050505050565b5f835161381e818460208801612e0e565b835190830190613832818360208801612e0e565b01949350505050565b6001600160a01b03858116825284166020820152604081018390526080606082018190525f9061386d90830184612e30565b9695505050505050565b5f60208284031215613887575f80fd5b815161194c81612dc756fe9856acbf9ca422c521e08bc1d8e706e2db0b5830f4d56f698b78d8c01c869491a264697066735822122067a6f94425538233f9138b971b0b453f13ca089f3af8757d0271978139bc67bc64736f6c63430008180033",
  "linkReferences": {},
  "deployedLinkReferences": {}
}